:100000000C94DF020C9407030C9407030C94070371
:100010000C9407030C9407030C9407030C94070338
:100020000C9407030C9407030C9407030C94070328
:100030000C9407030C9494130C9407030C9407037B
:100040000C94F2120C9407030C9462130C943C135E
:100050000C9407030C9407030C9407030C940703F8
:100060000C9407030C94070307634236B79BD8A789
:100070001A39685618AEBAAB558C1D3CB7CC5763CD
:10008000BD6DEDFD753EF6177231BF000000803F7B
:1000900008000000BE922449123EABAAAA2ABECD97
:1000A000CCCC4C3E00000080BEABAAAAAA3E000009
:1000B0000000BF000000803F000000000008417801
:1000C000D3BB4387D1133D190E3CC3BD4282AD2B38
:1000D0003E68EC8276BED98FE1A93E4C80EFFFBE30
:1000E00001C4FF7F3F000000000000830201A9025D
:1000F00002CE0203F302041A030540030665030758
:100100008A0308AD0309D2030AF7030B1C040C434E
:10011000040D68040E8D040FB20410D50411FA0406
:10012000121F05134405146A05158F0516B305172C
:10013000D80518F905191D061A41061B65061C8A03
:10014000061DAD061ECF061FF20620120721350739
:1001500022560723770724990725B907261608276B
:100160003E08285C080000FC04010022050200474C
:100170000503006C05040091050500B5050600DACD
:10018000050700FF0508002006090043060A00686D
:10019000060B008C060C00AE060D00D1060E00F317
:1001A000060F0014071000350711005607120077DC
:1001B00007130097071400B8071500200816004819
:1001C0000817007008180098081900B6081A00DE11
:1001D000081B0006091C002E091D004C091E007496
:1001E000091F009C092000C4092100E20922000A1D
:1001F0000A2300320A24005A0A2500780A2600A0A1
:100200000A2700C80A2800F00A29000E0B2A003627
:100210000B2B005E0B2C00860B2D00A40B2E00CCAC
:100220000B2F00F40B3000120C31003A0C3200623C
:100230000C3300800C3400A80C3500D00C3600F8CC
:100240000C3700200D38003E0D3900660D3A008E47
:100250000D3B00AC0D3C00D40D3D00FC0D3E001AE2
:100260000E3F00420E40006A0E4100880E4200B070
:100270000E4300D80E4400F60E45001E0F46004601
:100280000F47006E0F48008C0F4900B40F4A00DC86
:100290000F4B00FA0F4C0022104D004A104E006820
:1002A000104F0090105000B8105100D6105200FEB0
:1002B00010530026115400441155006C115600943F
:1002C000115700B2115800DA11590002125A0020D9
:1002D000125B0048125C0070125D008E125E00B668
:1002E000125F00D4126000FC12610024136200420D
:1002F0001363006A13640088136500B0136600D8A6
:10030000136700F61368001E1469003C146A006449
:10031000146B0082146C00AA146D00C8146E00F0F7
:10032000146F001815700036157100541572007C9A
:100330001573009A157400C2157500E01576000853
:10034000167700261678004E1679006C167A0094FF
:10035000167B00B2167C00DA167D00F8167E0016B9
:10036000177F003E177F0166177F0284177F03A265
:10037000177F04CA177F05E8177F0610187F072E1E
:10038000187F084C187F096A187F0A92187F0BB0F3
:10039000187F0CCE187F0DEC187F0E14197F0F32CA
:1003A000197F1050197F116E197F128C197F13AAB3
:1003B000197F14D2197F15F0197F160E1A7F172C8A
:1003C0001A7F18401A7F19681A7F1A861A7F1B9A9B
:1003D0001A7F1CC21A7F1DE01A7F1EFE1A7F1F1C87
:1003E0001B7F20301B7F214E1B7F226C1B7F238AAB
:1003F0001B7F24A81B7F25C61B7F26E41B7F27F8B5
:100400001B7F28161C7F29341C7F2A481C7F2B66E3
:100410001C7F2C841C7F2DA21C7F2EB61C7F2FD40A
:100420001C7F30E81C7F31061D7F321A1D7F333858
:100430001D7F34561D7F356A1D7F36881D7F379C92
:100440001D7F38B01D7F39CE1D7F3AE21D7F3BF600
:100450001D7F3C141E7F3D281E7F3E461E7F3F5A57
:100460001E7F406E1E7F41821E7F42A01E7F43B4CE
:100470001E7F44C81E7F45DC1E7F46F01E7F470E50
:100480001F7F48221F7F49361F7F4A4A1F7F4B5ECE
:100490001F7F4C721F7F4D861F7F4E9A1F7F4FAE6E
:1004A0001F7F50C21F7F51D61F7F52EA1F7F53FE0E
:1004B0001F7F5412207F5526207F563A207F574EAB
:1004C000207F5862207F5976207F5A80207F5B945E
:1004D000207F5CA8207F5DBC207F5ED0207F5FDA1C
:1004E000207F60EE207F6102217F6216217F6320E2
:1004F000217F6434217F6548217F6652217F6766B2
:10050000217F687A217F698E217F6A98217F6BAC79
:10051000217F6CB6217F6DCA217F6ED4217F6FE869
:10052000217F70F2217F7106227F7210227F732457
:10053000227F742E227F7542227F764C227F776045
:10054000227F786A227F7974227F7A88227F7B9249
:10055000227F7CA6227F7DB0227F7EBA227F7FCE43
:1005600022000000002300260029000000000800EF
:10057000020100000304070000000000000000006A
:10058000000000250028002B0000000000240027A8
:10059000002A000404040404040404020202020207
:1005A0000203030303030301020408102040800137
:1005B000020408102001020408102000BB131124BB
:1005C0001FBECFEFD8E0DEBFCDBF15E0A0E0B1E0A9
:1005D000E6E2F0E402C005900D92A632B107D9F729
:1005E00026E0A6E2B5E001C01D92A93DB207E1F701
:1005F00012E0CFEDD2E004C02197FE010E94D71790
:10060000CE3DD107C9F70E948C140C9411200C9494
:10061000000008950895089508950895089508958F
:10062000862F642FE0914D05F0914E05309711F023
:10063000A9010994089508950F931F93CF93DF9311
:100640008C01EB01DC018D919C9168816F77DC015D
:10065000ED91FC910190F081E02D0995F8018081E8
:100660009181688170E0660F672F661F770BDC0150
:10067000ED91FC910190F081E02DDF91CF911F91E0
:100680000F910994EF92FF920F931F93CF93DF93F3
:10069000C82F80914D0690914E060097A9F17A01DE
:1006A0008B01DC01ED91FC910190F081E02D60EF78
:1006B000099580914D0690914E06DC01ED91FC91DB
:1006C0000190F081E02D6C2F0995E7010E0D1F1DA3
:1006D000C017D10739F0BE018DE496E00E941C03DB
:1006E0002196F6CF80914D0690914E06DC01ED915A
:1006F000FC910190F081E02D67EFDF91CF911F9188
:100700000F91FF90EF900994DF91CF911F910F917E
:10071000FF90EF9008951F93CF93DF93182FEB0175
:1007200080915206909153066817790760F4809182
:10073000500690915106C80FD91F188380E0DF91B1
:10074000CF911F910895E0917F06F0918006309738
:1007500011F481E0F4CF81E080934F0680916B0625
:1007600090916C0609958091520690915306C81796
:10077000D90778F7DCCFCF93DF93EC01FB0130E0B2
:1007800020E0C901880F991F8C179D0778F44081DC
:10079000DB014D93BD01119791819795992797950D
:1007A000942B9C932F5F3F4F3296EBCFC901DF9183
:1007B000CF91089590E0FC01E955FA4F24918D56B0
:1007C0009A4FFC018491882399F090E0880F991F3B
:1007D000FC01E757FA4FA591B491FC01E158FA4F9B
:1007E000859194918FB7F894EC91E22BEC938FBFA5
:1007F0000895CF93DF93FC01A081B181109701F19F
:10080000EC01ED91FC9111970190F081E02D69EFE1
:10081000CD01099588819981DC01ED91FC910190D0
:10082000F081E02D62E0099588819981DC01ED91EC
:10083000FC910190F081E02D65E0DF91CF9109946A
:10084000DF91CF910895833081F028F4813099F0C1
:100850008230A9F008958730A9F08830C9F084303B
:10086000B1F4809180008F7D03C0809180008F77EC
:1008700080938000089584B58F7784BD089584B5F2
:100880008F7DFBCF8091B0008F778093B00008956B
:100890008091B0008F7DF9CF1F93CF93DF93282FE6
:1008A00030E0F901E559FA4F8491F901E955FA4F21
:1008B000D491F901ED56FA4FC491CC23A9F0162F2B
:1008C00081110E942304EC2FF0E0EE0FFF1FE1588E
:1008D000FA4FA591B4918FB7F894EC91111108C01B
:1008E000D095DE23DC938FBFDF91CF911F910895C8
:1008F000DE2BF8CF61E08091D3060C944C0481E5A7
:100900008CBD1DBC60E08091D3060C944C043FB7B5
:10091000F89480916C0590916D05A0916E05B09151
:100920006F0526B5A89B05C02F3F19F00196A11DA4
:10093000B11D3FBFBA2FA92F982F8827BC01CD0129
:10094000620F711D811D911D42E0660F771F881F88
:10095000991F4A95D1F708958F929F92AF92BF92B7
:10096000CF92DF92EF92FF926B017C010E9487048D
:100970004B015C01C114D104E104F104B9F00E94FF
:100980008704681979098A099B09683E73408105C3
:10099000910580F321E0C21AD108E108F10888EE40
:1009A000880E83E0981EA11CB11CE4CFFF90EF904D
:1009B000DF90CF90BF90AF909F908F9008952FB70A
:1009C000F894609168057091690580916A0590912D
:1009D0006B052FBF0895209138053091390580911E
:1009E0003405909135052817390709F4299A209183
:1009F00038053091390580913205909133052817DB
:100A0000390709F4299820913805309139058091EA
:100A10003005909131052817390709F45E9A209125
:100A200038053091390580912E0590912F052817B2
:100A3000390709F45E982091380530913905809185
:100A40002C0590912D052817390709F45D9A2091FE
:100A500038053091390580912A0590912B0528178A
:100A6000390709F45D982091380530913905809156
:100A70002805909129052817390709F45B9A2091D8
:100A80003805309139058091260590912705281762
:100A9000390709F45B9880913805909139050196E2
:100AA00090933905809338052091360530913705AC
:100AB0008217930720F0109239051092380581E0D3
:100AC0008093600520E43FE1309387002093860007
:100AD00091E1909381002BEE34E03093010120935B
:100AE000000180936F0008950895009721F0805CC5
:100AF0009F4F0C94F9030895AF92BF92CF92DF926B
:100B0000EF92FF920F931F93CF93DF936C017B01C2
:100B10008B01040F151FEB015E01AE18BF08C01753
:100B2000D10759F06991D601ED91FC910190F081C6
:100B3000E02DC6010995892B79F7C501DF91CF9189
:100B40001F910F91FF90EF90DF90CF90BF90AF90EB
:100B50000895FC01538D448D252F30E0842F90E0C3
:100B6000821B930B541710F0CF96089501970895A8
:100B7000FC01918D828D981761F0A28DAE0FBF2F71
:100B8000B11D5D968C91928D9F5F9F73928F90E0C7
:100B900008958FEF9FEF0895FC01918D828D981736
:100BA00031F0828DE80FF11D858D90E008958FEF73
:100BB0009FEF0895FC01918D228D892F90E0805C3C
:100BC0009F4F821B91098F739927089580E795E0C5
:100BD0000E94DA0521E0892B09F420E0822F089594
:100BE00080E090E0892B29F00E94E60581110C94A9
:100BF00000000895FC01A48DA80FB92FB11DA35AC0
:100C0000BF4F2C91848D90E001968F739927848F2C
:100C1000A689B7892C93A089B1898C91837080644F
:100C20008C93938D848D981306C00288F389E02DF0
:100C300080818F7D80830895EF92FF920F931F93A1
:100C4000CF93DF93EC0181E0888F9B8D8C8D98137F
:100C50001AC0E889F989808185FF15C09FB7F8948B
:100C6000EE89FF896083E889F989808183708064D7
:100C700080839FBF81E090E0DF91CF911F910F9122
:100C8000FF90EF900895F62E0B8D10E00F5F1F4F31
:100C90000F731127E02E8C8D8E110CC00FB607FC40
:100CA000FACFE889F989808185FFF5CFCE010E94CE
:100CB000FA05F1CFEB8DEC0FFD2FF11DE35AFF4F3D
:100CC000F0829FB7F8940B8FEA89FB89808180625C
:100CD000CFCFCF93DF93EC01888D8823B9F0AA8919
:100CE000BB89E889F9898C9185FD03C0808186FDE7
:100CF0000DC00FB607FCF7CF8C9185FFF2CF808136
:100D000085FFEDCFCE010E94FA05E9CFDF91CF91AB
:100D10000895CF93CFB7F89480914C05811124C0EA
:100D2000EDE9F5E08491E1EBF5E09491E82FF0E056
:100D3000EE0FFF1FE757FA4FA591B491EC91E9230D
:100D400021F461E08AE00E944C048AE00E94DA0308
:100D50008CB580618CBD8CB580648CBD8DE00E94AB
:100D6000DA038BE00E94DA0380914C058F5F809359
:100D70004C05CFBFCF910895CF92DF92EF92FF92B3
:100D80000F931F93CF93DF93FC01E058FF4FE08058
:100D9000EE2009F458C0EC01C05CDF4FA881B98196
:100DA000109709F450C0FC01EF57FF4FC080D1806D
:100DB000F60111810081ED91FC9111970190F08174
:100DC000E02D60EFCD01099588819981DC01ED91DD
:100DD000FC910190F081E02D69E709958881998166
:100DE000DC01ED91FC910190F081E02D602F0995DF
:100DF00088819981DC01ED91FC910190F081E02DD9
:100E0000612F0995F12C01E010E00F5F1F4FE016F4
:100E1000F10639F0B601600F711FCE010E941C036C
:100E2000F4CF88819981DC01ED91FC910190F081F2
:100E3000E02D67EFDF91CF911F910F91FF90EF9021
:100E4000DF90CF900994DF91CF911F910F91FF9088
:100E5000EF90DF90CF900895009711F00C94BC06AE
:100E600008954F925F926F927F928F929F92AF926E
:100E7000BF92CF92DF92EF92FF920F931F93CF9387
:100E8000DF93CDB7DEB768970FB6F894DEBF0FBE1D
:100E9000CDBFC0904A05D0904B05809048059090FA
:100EA000490540915C0550915D0580914405909104
:100EB000450500915E0510915F05409042055090F8
:100EC0004305052C000C6608770849865A866B8610
:100ED0007C86092C000CAA08BB088D829E82AF82FA
:100EE000B8860D2C000CEE08FF08C982DA82EB826E
:100EF000FC82012E000C220B330B098B1A8B2B8BDF
:100F00003C8B052E000C660B770B4D875E876F8739
:100F1000788B092E000CAA0BBB0B8D8B9E8BAF8B95
:100F2000B88FAE014F5F5F4F68E170E080E10E94D3
:100F3000420368960FB6F894DEBF0FBECDBFDF91B7
:100F4000CF911F910F91FF90EF90DF90CF90BF90C6
:100F5000AF909F908F907F906F905F904F9008958B
:100F6000FF920F931F93CF93DF93FF24F394C2E07C
:100F7000D0E001E010E080918B0690918C06DC01BE
:100F8000ED91FC910084F185E02D0995892B09F400
:100F9000CEC180918B0690918C06DC01ED91FC9185
:100FA0000284F385E02D09959C018F3F980719F382
:100FB000982F80915806882309F492C0973F09F032
:100FC0007EC010925806A0915006B09151066C91C7
:100FD0006137C1F1693709F05CC0E0918506F09195
:100FE0008606309741F28091590690915A068330D7
:100FF000910560F430E020E050E040E070E060E017
:1010000080916706909168060995B5CFBD016D5F27
:101010007F4F03970E94BB03BC016D5F7F4F80E051
:101020000E948B03E0915006F09151069F012D5FC5
:101030003F4F428150E0618170E0E0918506F09180
:101040008606DECF8091810690918206892B09F475
:1010500092CFBD016F5F7F4F8091590690915A06E4
:1010600001970E94BB03BC016F5F7F4F80E00E942D
:101070008B0360915006709151066F5F7F4FE09136
:101080008106F091820680916D0690916E06099519
:1010900072CFE0918306F0918406309709F46BCF0C
:1010A0009D012F5F3F4F4091590650915A06415084
:1010B000510980916F069091700609955CCF6091FF
:1010C000590670915A06822F0E948B03809159060F
:1010D00090915A06019690935A06809359064BCFE9
:1010E00060915606709157066115710509F4B1C0FB
:1010F00027FDAFC061507109709357066093560683
:10110000822F0E948B038091560690915706892B5F
:1011100009F031CF80915406882309F42CCF803D0B
:1011200009F483C040F4803949F1803C09F469C076
:101130001092540620CF843FE1F1853F09F44DC061
:10114000803EB1F7E0917306F0917406309781F319
:10115000A0915006B09151064C9120E8429FC001E9
:10116000112411964C91480F592F511D609155062D
:1011700080915B0690915C060995DACFE091750647
:10118000F09176063097A1F2A0915006B0915106E9
:101190004C9120E8429FC001112411964C91480FB8
:1011A000592F511D6091550680915D0690915E0604
:1011B000E3CFE0917B06F0917C06309709F4B8CF3D
:1011C000A0915006B09151064C9150E011966C914F
:1011D0008091630690916406CFCFE0917D06F091F7
:1011E0007E06309709F4A4CFA0915006B091510625
:1011F0004C9150E011966C91809165069091660635
:10120000BBCFE0917706F0917806309709F490CF44
:10121000A0915006B09151064C9150E06091550656
:1012200080915F0690916006A7CFE0917906F091DA
:101230007A06309709F47CCFA0915006B091510600
:101240004C9150E060915506809161069091620644
:1012500093CF903F30F4822F8F7080935506922F5A
:10126000907F903FF1F190F4903CB1F150F49039BF
:1012700009F081CED0935706C0935606909354063A
:101280007ACE903D49F1903EA9F375CE993F09F48D
:1012900042C028F48CE0890F823060F36CCE9F3F0F
:1012A00009F069CE10925706109256061092540615
:1012B0001092550690E080E020915206309153063E
:1012C00082179307A8F4E0915006F0915106E80FB9
:1012D000F91F10820196F0CF10935706009356061F
:1012E000CDCFF092580610925A061092590643CE6E
:1012F0001092580610925A0610925906E0918906EB
:10130000F0918A068091710690917206309709F4E7
:1013100032CE099530CEE0918706F091880630975D
:1013200009F429CE8091690690916A06F2CFDF9187
:10133000CF911F910F91FF9008958EBD00000DB4C5
:1013400007FEFDCF8EB50895CF93C82F0E947F046E
:101350008091D40681600E949D098C2F0E949D0976
:1013600080E00E949D09C82F0E947A048C2FCF91A3
:101370000895CF93DF93D82FC62F0E947F048091CA
:10138000D4060E949D098D2F0E949D098C2F0E94DA
:101390009D09DF91CF910C947A04CF93DF93D82FDE
:1013A000C62F8AE00E94A40961E070E00D2E01C002
:1013B000660F0A94EAF7609568238C2F01C0880FA6
:1013C000DA95EAF7682B8AE0DF91CF910C94B9099E
:1013D0001F93CF93DF93C1E0D0E001C0CC0F8A957B
:1013E000EAF71C2F109580E0613091F00E94A4096B
:1013F0006C2F682B80E00E94B90986E00E94A40946
:10140000682F612386E0DF91CF911F910C94B90979
:101410000E94A409C0956C2F6823ECCFEF92FF9235
:101420000F931F93CF93DF93EC010B811C81601707
:10143000710708F48B01E980FA808D819E81019605
:101440009E838D83019781F48CB58F7D8CBD8CB587
:10145000837F8CBD8CB583608CBD8DB58E7F8DBD3B
:1014600060E088810E944C0484E0EE0CFF1C8A95A9
:10147000E1F76894E1F811701E29812F0E949D09FF
:10148000FF24F39481FD14C0F12C8D819E8101977E
:101490009E838D83892B21F461E088810E944C0416
:1014A0008F2DDF91CF911F910F91FF90EF900895B5
:1014B000802F0E949D09E9CFCF93DF93893E23E0DF
:1014C000920714F088EE93E097FF02C090E080E06E
:1014D000ECE0F1E0D0E0C0E0408151818417950755
:1014E0001CF14281538148175907F4F083E0CC0F77
:1014F000DD1F8A95E1F7FE01E45FFE4F848195814F
:1015000061E0019709F060E083E00E94CD09C45FCB
:10151000DE4F8E819F8161E0019709F060E082E0FB
:10152000DF91CF910C94CD0921963896C832D10520
:1015300099F6DF91CF910895CF93DF93EC01459712
:1015400034F461E084E00E94CD0960E008C060E00E
:1015500084E00E94CD0961E0CA32D340B4F385E053
:10156000DF91CF910C94CD09CF92DF92EF92FF9251
:101570006B017C010E94DF046C157D058E059F05C3
:10158000C0F09B01AC012C193D094E095F096901AE
:101590007A01C094D094E094F094CC24F7FCC394E6
:1015A000DD24EE24FF248C2DFF90EF90DF90CF9070
:1015B0000895C61AD70AE80AF90AEFCFEF92FF9208
:1015C0000F931F93CF93DF93CDB7DEB7C058D109E8
:1015D0000FB6F894DEBF0FBECDBF9E0127573F4F19
:1015E000F901419151919F0160E870E08E010F5F18
:1015F0001F4FC8010E94301D7C01F801019000209E
:10160000E9F73197BF01601B710BA80181E70E94C8
:101610004203C701C058DF4F0FB6F894DEBF0FBEBC
:10162000CDBFDF91CF911F910F91FF90EF90089563
:101630004F925F926F927F928F929F92AF92BF92E2
:10164000CF92DF92EF92FF92CF93DF93CDB7DEB7C9
:1016500064970FB6F894DEBF0FBECDBF20E1209394
:10166000810029985E985D985B9890934B058093D4
:101670004A05181619060CF092C1BC01A0905E052F
:10168000B0905F05072E000C880B990B0E9447193C
:1016900020E030E040E752E40E94631820E030E0B0
:1016A00040E05FE30E94941A9B01AC0160E070E0AF
:1016B00080E89FE30E94631820E030E04AE754E4AA
:1016C0000E94941A0E94161970933705609336058C
:1016D00090E080E00E9445196B017C01B501BB0CD4
:1016E000880B990B0E9447199B01AC010E94F217CD
:1016F00020E030E044E354E40E946318A70196011F
:101700000E94941A4B015C0120E030E040E85EE367
:10171000C701B6010E94941A69877A878B879C87D4
:1017200020E030E040E05FE3C701B6010E94941A78
:101730006D877E878F87988B20E030E040E45FE301
:10174000C701B6010E94941A698B7A8B8B8B9C8B94
:1017500020E030E0A901C501B4010E94F2176983BD
:101760007A838B839C839B01AC01C701B6010E94E5
:101770005E1887FF0CC0A701960169817A818B8171
:101780009C810E94F11769837A838B839C832985CE
:101790003A854B855C85C501B4010E94F2176D83C3
:1017A0007E838F8398879B01AC01C701B6010E949D
:1017B0005E1887FF0CC0A70196016D817E818F8125
:1017C00098850E94F1176D837E838F8398872D857E
:1017D0003E854F855889C501B4010E94F2172B013F
:1017E0003C01AC019B01C701B6010E945E1887FF56
:1017F00008C0A7019601C301B2010E94F1172B0195
:101800003C0129893A894B895C89C501B4010E9450
:10181000F2174B015C01AC019B01C701B6010E94AC
:101820005E1887FF08C0A7019601C501B4010E9498
:10183000F1174B015C011092350510923405698156
:101840007A818B819C810E941619F62EE72E609377
:1018500032057093330569857A858B859C850E9456
:10186000161970933105609330056D817E818F81EB
:1018700098850E94161970932F0560932E056D852B
:101880007E858F8598890E94161970932D05609327
:101890002C05C301B2010E94161970932B056093A9
:1018A0002A0569897A898B899C890E941619709307
:1018B000290560932805C501B4010E94161970938B
:1018C000270560932605EF92FF921F921F928EE5E7
:1018D00092E09F938F930E94DE0A80912F058F9351
:1018E00080912E058F93809131058F9380913005E3
:1018F0008F938FE692E09F938F930E94DE0A8091F0
:101900002B058F9380912A058F9380912D058F93BE
:1019100080912C058F9380E892E09F938F930E9493
:10192000DE0A809127058F93809126058F93809101
:1019300029058F93809128058F9381E992E09F93E9
:101940008F930E94DE0A809137058F938091360530
:101950008F9382EA92E09F938F930E94DE0A109207
:1019600039051092380581E08093600580E49FE19D
:10197000909387008093860081E18093810010928C
:101980008100109285001092840080916005806132
:10199000809381000FB6F894DEBF0FBECDBF649672
:1019A0000FB6F894DEBF0FBECDBFDF91CF91FF9091
:1019B000EF90DF90CF90BF90AF909F908F907F90EF
:1019C0006F905F904F900895CF93DF93EC010E944A
:1019D000FF1620E233E040E050E00E946017645AB6
:1019E000744D8F4F9F4F79836883DF91CF91089516
:1019F0000F931F93CF93DF93CDB7DEB760970FB6EA
:101A0000F894DEBF0FBECDBF6091570570915805A9
:101A10008091590590915A050E94B40A882309F4CF
:101A200034C0ECE7F5E08491E8EBF5E00491E4EAFA
:101A3000F5E01491112379F081110E942304E12F24
:101A4000F0E0EE0FFF1FEF59FA4FA591B491EC9122
:101A5000E02360E009F461E081E10E944C048091A0
:101A60004A0590914B05181619060CF0B6C00E9455
:101A7000DF0466507F4F8F4F9F4F609357057093E1
:101A800058058093590590935A058AE395E00E9482
:101A9000E40C8CE395E00E94E40C8EE395E00E9458
:101AA000E40C80E495E00E94E40C60915305709191
:101AB000540580915505909156050E94B40A8823DB
:101AC00009F450C0909140058091410530913E0548
:101AD00020913F0550913C0540913D0570913A059C
:101AE00060913B0579836A835B834C833D832E83BE
:101AF0009F838887AE014F5F5F4F68E070E085E1AC
:101B00000E94420389E00E94A40986FB882780F98D
:101B10008983AE014F5F5F4F61E070E083E10E9417
:101B2000420389E00E94A40990E0880F892F881F52
:101B3000990B21E082278983AE014F5F5F4F61E0FF
:101B400070E084E10E9442030E94DF046C507E4FEB
:101B50008F4F9F4F609353057093540580935505A5
:101B60009093560580915B05882361F160914F0544
:101B70007091500580915105909152050E94B40AD0
:101B8000882301F10E94FF1624E130E040E050E09C
:101B90000E946017DC01CB0183539F4FAF4FBF4FB3
:101BA0000E94180B0E9431070E94DF0468537F4F88
:101BB0008F4F9F4F60934F05709350058093510551
:101BC0009093520560960FB6F894DEBF0FBECDBF5E
:101BD000DF91CF911F910F910895109241051092BE
:101BE000400510923F0510923E0510923D0510925F
:101BF0003C0510923B0510923A051982AE014F5FE9
:101C00005F4F61E070E084E10E9442030E94DF04C4
:101C100068517C4F8F4F9F4F30CF4F925F926F92A2
:101C20007F92AF92BF92CF92DF92EF92FF920F938B
:101C30001F93CF93DF931F92CDB7DEB78C018091B6
:101C40005C0590915D058017910701F5011511055F
:101C500021F490E080E00E945C0A8AE0282F209F17
:101C6000C001219F900D11240E949C0A0F90DF91CA
:101C7000CF911F910F91FF90EF90DF90CF90BF9089
:101C8000AF907F906F905F904F900895801791076D
:101C9000BCF510924705109246052AE0209F60018E
:101CA000219FD00C11244091460550914705452BAA
:101CB00009F040C0289F7001299FF00C11248AE090
:101CC000A82EB12CCE14DF040CF446C0C7010E942C
:101CD0009C0AC7010E945C0A0E94DF042B013C01A0
:101CE00023E0420E511C611C711CC301B2010E9411
:101CF000B40A81110CC00E94B0070E94F80CF5CF05
:101D000021E030E03093470520934605C6CFC70158
:101D1000B5010E94C3176983AE014F5F5F4F61E059
:101D200070E082E10E9442030E94B0078FEFE81A40
:101D3000F80AC8CF60E083E00E94CD0960E082E04D
:101D40000E94CD09C6010E949C0A0115110521F4CB
:101D500090E080E00E945C0A10935D0500935C05B2
:101D600085CF4F925F926F927F928F929F92AF92A8
:101D7000BF92CF92DF92EF92FF920F931F93CF9378
:101D8000DF9300D000D0CDB7DEB78636910514F0D2
:101D900085E690E08F30910514F48FE090E0909309
:101DA0004905809348059F938F9383EB92E09F931F
:101DB0008F930E94DE0A20914805309149052052F8
:101DC000310945E0429FC001439F900D112469E015
:101DD00070E00E94C317072E000C880B990B0E941D
:101DE000471923E333E948E853E40E94F2179B01C3
:101DF000AC0160E070E080E89FE30E9463189B0103
:101E0000AC0169EE7EE98AEA9AE30E94F11721EEBD
:101E100031EC49E354E30E9463186B017C01AC018F
:101E20009B010E94941A20E030E040E85EE30E94AB
:101E3000941A21E23EE44CEE5CE40E94F2170E9408
:101E4000571B4B015C0120E030E040E05FE3C7013D
:101E5000B6010E94941A6B017C01AC019B01C50183
:101E6000B4010E94F1172BEA3AEA4AEA5EE30E94C3
:101E7000011B2B013C01A7019601C501B4010E9481
:101E8000F2172BEA3AEA4AEA5EE30E94011B9B0141
:101E9000AC01C301B2010E94F1170E94DD180E943B
:101EA0000F197B01FF926F9382EC92E09F938F93C7
:101EB0000E94DE0A8701FF92EF928EEC92E09F93E0
:101EC0008F930E94DE0A1F928FEF8F9384E08F938F
:101ED0008CEF8F9387EF92E09F938F930E94DE0A9F
:101EE00044E050E065E671E0CE0101960E9457178C
:101EF0008B819C810FB6F894DEBF0FBECDBF8E15CF
:101F00009F0508F450C09F938F93FF92EF9286E154
:101F100093E09F938F930E94DE0AE980F12C0A815F
:101F200010E08C818F938B818F938FE193E09F934F
:101F30008F930E94DE0A0FB6F894DEBF0FBECDBFAE
:101F40001F930F93FF92EF9282E493E09F938F93FE
:101F50000E94DE0AB70180916305909164050E949A
:101F60000E0AB80180916105909162050E940E0AE7
:101F70000F900F900F900F900F900F900F900F9069
:101F80000F900F90DF91CF911F910F91FF90EF90E5
:101F9000DF90CF90BF90AF909F908F907F906F9089
:101FA0005F904F90089585E6E82E81E0F82ED12CC1
:101FB000C12C44E050E0B701CE0101960E945717B2
:101FC0008B819C818017910708F19F938F931F93BA
:101FD0000F9386E193E09F938F930E94DE0A89819D
:101FE000E82EF12C9A81092F10E01F929F931F92E7
:101FF0008F93DF92CF928C818F938B818F9380E32D
:1020000093E09F938F930E94DE0A95CF3FEFC31A10
:10201000D30A84E0E80EF11C9FEFC916D10449F6FB
:1020200086E593E09F938F930E94DE0A44E050E0A0
:102030006DE575E0CE0101960E945717E980F12CFD
:102040000A8110E01F928EEF8F938C818F938B818A
:102050008F9382E793E09F938F930E94DE0A6BCF6A
:10206000EF92FF920F931F93CF93DF937B018A012F
:10207000E9010E94180BC7010E94B10EC8010E941D
:102080000D0ED0934505C093440510925B05DF917A
:10209000CF911F910F91FF90EF90089510925B05E3
:1020A00030E020E050E040E060E270E090E080E06E
:1020B0000E94301061E086E00C94CD094F925F924F
:1020C0006F927F928F929F92AF92BF92CF92DF9248
:1020D000EF92FF920F931F93CF93DF9300D01F9245
:1020E000CDB7DEB78132910514F080E290E08B3EEF
:1020F0002FEF920714F48BEE9FEF9093430580939C
:1021000042059F938F9384E893E09F938F930E945F
:10211000DE0A20914205309143052052310945E005
:10212000429FC001439F900D112469E070E00E941E
:10213000C317072E000C880B990B0E94471923E345
:1021400033E948E853E40E94F2179B01AC0160E0D8
:1021500070E080E89FE30E9463189B01AC0160E09F
:1021600075ED8CEE9AE30E94F1172AE736E145E21D
:1021700055E30E9463186B017C01AC019B010E9436
:10218000941A20E030E040E85EE30E94941A28EEC2
:102190003BE44DE25AE40E94F2170E94571B4B01A8
:1021A0005C0120E030E040E05FE3C701B6010E943F
:1021B000941A6B017C01AC019B01C501B4010E9422
:1021C000F1172BEA3AEA4AEA5EE30E94011B2B016F
:1021D0003C01A7019601C501B4010E94F2172BEA48
:1021E0003AEA4AEA5EE30E94011B9B01AC01C3018B
:1021F000B2010E94F1170E94DD180E940F197B01A5
:10220000FF926F9382EC92E09F938F930E94DE0A7D
:102210008701FF92EF928FE893E09F938F930E9444
:10222000DE0A43E050E06AEE70E0CE0101960E94C3
:1022300057178A819B810FB6F894DEBF0FBECDBFC2
:102240008E159F05A8F1098110E09F938F9383EB72
:1022500093E09F938F930E94DE0A0F900F900F9050
:102260000F901F930F9380EC93E09F938F930E94A6
:10227000DE0AB80180916505909166050E940E0AFC
:102280000F900F900F900F900F900F900F90DF9185
:10229000CF911F910F91FF90EF90DF90CF90BF9063
:1022A000AF909F908F907F906F905F904F90089528
:1022B0008AEEE82E80E0F82E43E050E0B701CE0130
:1022C00001960E9457178A819B818017910708F019
:1022D000BACF33E0E30EF11C85E6E81681E0F8069C
:1022E00059F743E050E062E671E0CE0101960E94AA
:1022F0005717098110E08B818F938A81A7CFEF92C6
:10230000FF920F931F93CF93DF93082F162FEA01AD
:10231000EFEFE80FE731F0F4F0E0EF56FE4E0C94EB
:10232000D717A8112B1238126D1280129312A61211
:10233000B912CC12DF12B611CB11E111D611EE1188
:10234000AA11AA11AA11AA11AA11AA1113124B12A9
:102350000E943107612F70E0AE01802FDF91CF9195
:102360001F910F91FF90EF900C944203F880E98049
:102370008F2D9E2D0E94B10EEF92FF9289EC93E07B
:102380009F938F930E94DE0A0E9431070F900F9057
:102390000F900F90DFCFF880E9808F2D9E2D0E9447
:1023A0005E10EF92FF9282EE93E0EACFF880E98030
:1023B0008F2D9E2D0E940D0EEF92FF9287EF93E0DE
:1023C000DFCF10925B05F880E9808F2D9E2D0E9453
:1023D000180BEF92FF928AE094E0D2CFF8808F2D15
:1023E00090E087329105E4F090935F0580935E055D
:1023F00080915E0590915F058234914034F081E4D4
:1024000091E090935F0580935E0580914A059091DD
:102410004B050E94180B1F92FF9285E294E0B0CF0B
:1024200087E290E0E1CF888161E0882371F086E067
:102430000E94CD0984E195E09F938F9385E494E019
:102440009F938F930E94DE0AA1CF86E00E94CD0960
:1024500081E794E0F1CF0E944E1083E694E09F93D1
:102460008F930E94DE0A0E9431070F900F9072CF67
:1024700010925B0530E020E050E040E060E270E068
:1024800087ED90E00E94301061E086E00E94CD0967
:1024900085E794E0E4CF30E020E050E040E060E207
:1024A00070E087ED90E00E94301061E086E00E94CD
:1024B000CD0981E080935B050E94DF0468537F4F64
:1024C0008F4F9F4F60934F05709350058093510538
:1024D0009093520585E894E0C2CF10925B052FE0FF
:1024E00030E050E040E060E270E080EB94E00E9479
:1024F000301061E086E00E94CD0988EA94E0AFCF19
:1025000010925B052FE030E050E040E069EB70E0B6
:102510008CEB92E00E94301061E086E00E94CD09D1
:1025200082EB94E09CCF10925B052BE030E041E120
:1025300050E069EB70E088E795E00E94301061E0C0
:1025400086E00E94CD098BEB94E089CF10925B0569
:102550002BE030E049E150E069EB70E088EB9BE074
:102560000E94301061E086E00E94CD098BEC94E07F
:1025700076CF10925B0529E030E04EE150E069EB48
:1025800070E088E097E00E94301061E086E00E94F1
:10259000CD098BED94E063CF10925B0527E030E02E
:1025A00042E350E069EB70E08CEA9DE00E9430105D
:1025B00061E086E00E94CD098FEE94E050CF10924A
:1025C0005B0522E030E04FE550E069EB70E080E72A
:1025D00097E10E94301061E086E00E94CD0985E01D
:1025E00095E03DCF1F920F920FB60F9211242F93BB
:1025F0003F938F939F93AF93BF9380916805909182
:102600006905A0916A05B0916B053091670523E0DB
:10261000230F2D3758F50196A11DB11D2093670595
:102620008093680590936905A0936A05B0936B0544
:1026300080916C0590916D05A0916E05B0916F052C
:102640000196A11DB11D80936C0590936D05A0931B
:102650006E05B0936F05BF91AF919F918F913F91A0
:102660002F910F900FBE0F901F90189526E8230F03
:102670000296A11DB11DD2CF1F920F920FB60F92DD
:1026800011242F933F934F935F936F937F938F9377
:102690009F93AF93BF93EF93FF9380E795E00E94E2
:1026A000FA05FF91EF91BF91AF919F918F917F912B
:1026B0006F915F914F913F912F910F900FBE0F90AF
:1026C0001F9018951F920F920FB60F9211242F93FF
:1026D0008F939F93EF93FF93E0918005F091810595
:1026E0008081E0918605F091870582FD1BC0908175
:1026F000809189058F5F8F7320918A05821741F041
:10270000E0918905F0E0E059FA4F958F80938905B3
:10271000FF91EF919F918F912F910F900FBE0F908E
:102720001F9018958081F4CF1F920F920FB60F92D1
:1027300011242F933F934F935F936F937F938F93C6
:102740009F93AF93BF93EF93FF93E0910001F091BC
:1027500001010995FF91EF91BF91AF919F918F91E9
:102760007F916F915F914F913F912F910F900FBE8D
:102770000F901F901895E0E7F5E01382128288EE23
:1027800093E0A0E0B0E084839583A683B78380E5DF
:1027900092E09183808385EC90E09587848784EC38
:1027A00090E09787868780EC90E0918B808B81EC1E
:1027B00090E0938B828B82EC90E0958B848B86ECFF
:1027C00090E0978B868B118E128E138E148E8DE077
:1027D00096E010924E0610924D069093510680930B
:1027E000500620E430E030935306209352061092B6
:1027F00054061092550610925706109256061092E3
:10280000580610925A061092590610925C061092C1
:102810005B0610925E0610925D06109260061092A2
:102820005F06109262061092610610926406109282
:102830006306109266061092650610926C0610925E
:102840006B0610926E0610926D0610927006109232
:102850006F06109272061092710610928006109206
:102860007F0610924F0610928D0610928F061092DE
:102870008E061092D20629E033E03093740620933E
:1028800073062AE033E030937606209375062BE03A
:1028900033E030937806209377062CE033E03093D2
:1028A0007A06209379062DE033E030937C0620935E
:1028B0007B062EE033E030937E0620937D062FE0EA
:1028C00033E0309382062093810620E133E0309399
:1028D0008406209383062CE237E03093860620930B
:1028E0008506909368068093670625E735E0309368
:1028F00088062093870690936A06809369068BE189
:1029000093E090938A0680938906E3EDF6E080E1F8
:10291000808380E481830895789484B5826084BD47
:1029200084B5816084BD85B5826085BD85B58160D3
:1029300085BD80916E00816080936E001092810051
:10294000809181008260809381008091810081600C
:1029500080938100809180008160809380008091CD
:10296000B10084608093B1008091B0008160809359
:10297000B00080917A00846080937A0080917A0020
:10298000826080937A0080917A00816080937A00DF
:1029900080917A00806880937A001092C10088E06C
:1029A00080938D0680918E0690918F060E94981CD0
:1029B000C0918D06D0E0CE0101960E94FC1B909341
:1029C0008F0680938E06FC01EC0FFD1F108212E033
:1029D000FC01108321E02183AE01425051096BE1DB
:1029E00075E002960E94211D8FE791E190934E05BC
:1029F00080934D05E0918005F09181051083E09171
:102A00008005F09181051082E0917C05F0917D05B3
:102A10001082E0917E05F0917F0580E18083109225
:102A20008805E0918405F091850586E08083E0913A
:102A30008205F0918305808180618083E091820529
:102A4000F0918305808188608083E0918205F09118
:102A50008305808180688083E0918205F091830501
:102A600080818F7D80838091D20681114EC08DE060
:102A70000E94DA0362ED70E080E090E00E94AC0416
:102A800061E08DE00E944C0468E270E080E090E03C
:102A90000E94AC0460E08DE00E944C0462ED70E0A6
:102AA00080E090E00E94AC0461E08DE00E944C0464
:102AB00068E270E080E090E00E94AC0460E08DE0AD
:102AC0000E944C046AEF70E080E090E00E94AC0449
:102AD000C5E062ED70E080E090E00E94AC0461E04F
:102AE0008DE00E944C0468E270E080E090E00E947B
:102AF000AC0460E08DE00E944C04C15051F76DE7DA
:102B000070E080E090E00E94AC0480E795E0909354
:102B10008C0680938B0690934E0680934D068DE431
:102B200096E00E94F9038DE096E00E94BC0681E1E8
:102B30000E94DA0361E081E10E944C04219A299805
:102B4000569A5E98559A5D98539A5B9883E10E94D5
:102B5000DA0361E083E10E944C0482E10E94DA031F
:102B600061E082E10E944C0488E00E94DA0361E0A7
:102B700088E00E944C0480E10E94DA0361E080E179
:102B80000E944C0487E090E00E94FC1BEC0183E172
:102B900088831A82198200E810E01C830B831E824E
:102BA0001D820E94890688810E94DA0361E0888183
:102BB0000E944C04D0936605C093650587E090E0C1
:102BC0000E94FC1BEC0182E188831A8219821C831B
:102BD0000B831E821D820E94890688810E94DA036F
:102BE00061E088810E944C04D0936405C093630522
:102BF00087E090E00E94FC1BEC0188E088831A8249
:102C000019821C830B831E821D820E948906888183
:102C10000E94DA0361E088810E944C04D09362052F
:102C2000C093610561E082E00E94E80961E083E011
:102C30000E94E80961E084E00E94E80961E085E023
:102C40000E94E80961E086E00E94E80960E087E010
:102C50000E94E8096CE386E00E94B90961E086E021
:102C60000E94CD0980E1809381001092800091E064
:102C700090936005109287001092860021E12093C6
:102C800081002BEE34E030930101209300019093FA
:102C90006F008093810087E890E090935F058093B8
:102CA0005E0510925D0510925C0510925B0586E44E
:102CB00080937C0080917A00806480937A00809178
:102CC0007A0086FDFCCF8091780060917900762FA4
:102CD000682F072E000C880B990B61157105810573
:102CE000910511F00E944E170E944E1080E290E074
:102CF0000E945E100E94DF0468517C4F8F4F9F4FEF
:102D000060935705709358058093590590935A0521
:102D10000E94DF046C507E4F8F4F9F4F609353058E
:102D20007093540580935505909356050E94DF04D7
:102D300068537F4F8F4F9F4F60934F05709350059F
:102D40008093510590935205C0E0D0E00E94B007F7
:102D50000E94F80C2097D1F30E94E6058823B1F376
:102D60000E940000F3CF8F929F92AF92BF92CF92BA
:102D7000DF92EF92FF92CF93DF93EC01688179812C
:102D80008A819B81611571058105910521F464E2B9
:102D900079ED8BE597E02DE133EF41E050E00E94C3
:102DA000601749015A019B01AC01A7EAB1E40E94F6
:102DB0007F176B017C01ACEEB4EFA50194010E947A
:102DC0008D17C60ED71EE81EF91EF7FE06C081E05D
:102DD000C81AD108E10880E8F80AC882D982EA82D4
:102DE000FB82C701B6019F77DF91CF91FF90EF90F3
:102DF000DF90CF90BF90AF909F908F9008958F926B
:102E00009F92AF92BF92CF92DF92EF92FF9260912A
:102E100002017091030180910401909105016115F7
:102E200071058105910521F464E279ED8BE597E068
:102E30002DE133EF41E050E00E94601749015A0153
:102E40009B01AC01A7EAB1E40E947F176B017C01F2
:102E5000ACEEB4EFA50194010E948D17C60ED71EEB
:102E6000E81EF91EF7FE06C081E0C81AD108E10885
:102E700080E8F80AC0920201D0920301E0920401B6
:102E8000F0920501C701B6019F77FF90EF90DF90A8
:102E9000CF90BF90AF909F908F9008956093020164
:102EA0007093030180930401909305010895FB0141
:102EB000DC0102C005900D9241505040D8F70895B2
:102EC000052E97FB1EF400940E94771757FD07D03C
:102ED0000E94921707FC03D04EF40C94771750957C
:102EE0004095309521953F4F4F4F5F4F08959095F6
:102EF0008095709561957F4F8F4F9F4F08950E94E9
:102F0000B417A59F900DB49F900DA49F800D911DA7
:102F100011240895B7FF0C947F170E947F17821B1E
:102F2000930B0895A1E21A2EAA1BBB1BFD010DC035
:102F3000AA1FBB1FEE1FFF1FA217B307E407F50769
:102F400020F0A21BB30BE40BF50B661F771F881F45
:102F5000991F1A9469F760957095809590959B01DB
:102F6000AC01BD01CF010895A29FB001B39FC00184
:102F7000A39F700D811D1124911DB29F700D811DA5
:102F80001124911D089597FB072E16F4009407D085
:102F900077FD09D00E94DD1707FC05D03EF490951F
:102FA00081959F4F0895709561957F4F0895EE0F1D
:102FB000FF1F0590F491E02D0994AA1BBB1B51E162
:102FC00007C0AA1FBB1FA617B70710F0A61BB70B99
:102FD000881F991F5A95A9F780959095BC01CD013E
:102FE00008955058BB27AA270E9409180C94E41989
:102FF0000E94D61938F00E94DD1920F039F49F3F65
:1030000019F426F40C94AC190EF4E095E7FB0C943B
:10301000A619E92F0E94F51958F3BA17620773072A
:103020008407950720F079F4A6F50C94171A0EF48E
:10303000E0950B2EBA2FA02D0B01B90190010C01C8
:10304000CA01A0011124FF27591B99F0593F50F4E0
:10305000503E68F11A16F040A22F232F342F442738
:10306000585FF3CF469537952795A795F040539530
:10307000C9F77EF41F16BA0B620B730B840BBAF000
:103080009150A1F0FF0FBB1F661F771F881FC2F76B
:103090000EC0BA0F621F731F841F48F4879577957F
:1030A0006795B795F7959E3F08F0B0CF9395880F39
:1030B00008F09927EE0F9795879508950E94821939
:1030C00008F481E008950E9477180C94E4190E9496
:1030D000DD1958F00E94D61940F029F45F3F29F01D
:1030E0000C94A61951110C94181A0C94AC190E9446
:1030F000F51968F39923B1F3552391F3951B550BFB
:10310000BB27AA2762177307840738F09F5F5F4FBA
:10311000220F331F441FAA1FA9F335D00E2E3AF0F9
:10312000E0E832D091505040E695001CCAF72BD011
:10313000FE2F29D0660F771F881FBB1F2617370762
:103140004807AB07B0E809F0BB0B802DBF01FF2794
:1031500093585F4F3AF09E3F510578F00C94A619B2
:103160000C94181A5F3FE4F3983ED4F38695779554
:103170006795B795F7959F5FC9F7880F911D96954D
:10318000879597F90895E1E0660F771F881FBB1FA9
:10319000621773078407BA0720F0621B730B840B56
:1031A000BA0BEE1F88F7E095089529F416F00C94F9
:1031B000A6190C94171A0C94AC190E94FD19A8F3C7
:1031C0009638A0F707F80F92E8942BE33AEA48EB19
:1031D0005FE70E94AA1A0F920F920F924DB75EB747
:1031E0000F920E94601AE8E6F0E00E94AF194F913A
:1031F0005F91EF91FF91E595EE1FFF1F49F0FE579C
:10320000E0684427EE0F441FFA95E1F74195550B0E
:103210000E942A1A0F9007FE0C941E1A08950E940D
:1032200016196894B1110C94181A08950E94FD198A
:1032300088F09F5798F0B92F9927B751B0F0E1F077
:10324000660F771F881F991F1AF0BA95C9F714C027
:10325000B13091F00E94171AB1E008950C94171A3A
:10326000672F782F8827B85F39F0B93FCCF3869560
:1032700077956795B395D9F73EF4909580957095BD
:1032800061957F4F8F4F9F4F0895E89409C097FB3A
:103290003EF490958095709561957F4F8F4F9F4F2D
:1032A0009923A9F0F92F96E9BB279395F695879571
:1032B00077956795B795F111F8CFFAF4BB0F11F434
:1032C00060FF1BC06F5F7F4F8F4F9F4F16C08823DB
:1032D00011F096E911C0772321F09EE8872F762F11
:1032E00005C0662371F096E8862F70E060E02AF052
:1032F0009A95660F771F881FDAF7880F969587953E
:1033000097F90895990F0008550FAA0BE0E8FEEF12
:1033100016161706E807F907C0F012161306E40799
:10332000F50798F0621B730B840B950B39F40A2692
:1033300061F0232B242B252B21F408950A2609F470
:10334000A140A6958FEF811D811D089597F99F6774
:1033500080E870E060E008959FEF80EC0895DF93CF
:10336000CF931F930F93FF92EF92DF927B018C011B
:10337000689406C0DA2EEF010E94A71AFE01E894B5
:10338000A5912591359145915591A6F3EF010E94A4
:103390000918FE019701A801DA9469F7DF90EF9010
:1033A000FF900F911F91CF91DF91089500240A940F
:1033B0001616170618060906089500240A94121610
:1033C0001306140605060895092E0394000C11F443
:1033D000882352F0BB0F40F4BF2B11F460FF04C0F0
:1033E0006F5F7F4F8F4F9F4F089557FD9058440F49
:1033F000551F59F05F3F71F04795880F97FB991F54
:1034000061F09F3F79F08795089512161306140610
:10341000551FF2CF4695F1DF08C01616170618069D
:10342000991FF1CF86957105610508940895E89478
:10343000BB2766277727CB0197F908959B01AC013D
:1034400060E070E080E89FE30C9463180C94A61988
:103450000C94971B0E94FD19D8F39923C9F3940F7C
:10346000511DA3F39150504094F059F0882332F04D
:10347000660F771F881F91505040C1F79E3F51053E
:103480002CF7880F911D9695879597F908955F3FC2
:10349000ACF0983E9CF0BB27869577956795B795DD
:1034A00008F4B1609395C1F7BB0F58F711F460FFB2
:1034B000E8CF6F5F7F4F8F4F9F4FE3CF0C94181A69
:1034C000FA01DC01AA0FBB1F9B01AC01BF5728F416
:1034D000222733274427507820C0B75190F4AB2FD0
:1034E0000024469537952795011CA395D2F300201B
:1034F00071F0220F331F441FB395DAF30ED00C94F2
:10350000F11761307105A0E88A07B94630F49B01D4
:10351000AC016627772788279078309621F02083A2
:1035200031834283538308950E94A71A0C94E419AF
:103530000E94D61938F00E94DD1920F0952311F071
:103540000C94A6190C94AC1911240C94181A0E940E
:10355000F51970F3959FC1F3950F50E0551F629FC9
:10356000F001729FBB27F00DB11D639FAA27F00DDC
:10357000B11DAA1F649F6627B00DA11D661F829F03
:103580002227B00DA11D621F739FB00DA11D621FE8
:10359000839FA00D611D221F749F3327A00D611D05
:1035A000231F849F600D211D822F762F6A2F1124E7
:1035B0009F5750409AF0F1F088234AF0EE0FFF1F1A
:1035C000BB1F661F771F881F91505040A9F79E3F71
:1035D000510580F00C94A6190C94181A5F3FE4F37F
:1035E000983ED4F3869577956795B795F795E795C7
:1035F0009F5FC1F7FE2B880F911D9695879597F9D0
:103600000895FA01EE0FFF1F309621053105A1F153
:103610006115710561F48038BFE39B0749F1689437
:103620009038810561F08038BFEF9B0741F0992306
:103630004AF5FF3FE1053105210519F1E8940894A9
:10364000E795D901AA2329F4AB2FBE2FF85FD0F359
:1036500010C0FF5F70F4A695E0F7F73950F019F04D
:10366000FF3A38F49F779F930DD00F9007FC905846
:10367000089546F00C94AC1960E070E080E89FE398
:1036800008954FE79F775F934F933F932F930E9447
:10369000B41B2F913F914F915F910E94941A0C940B
:1036A000DD1819F416F40C94AC190C94971B0E94B5
:1036B000FD19B8F39923C9F3B6F39F57550B87FF4C
:1036C0000E94A51B0024A0E640EA90018058569570
:1036D000979528F4805C660F771F881F20F02617C7
:1036E0003707480730F4621B730B840B20293129FC
:1036F0004A2BA69517940794202531254A2758F779
:10370000660F771F881F20F026173707480730F409
:10371000620B730B840B200D311D411DA09581F7A9
:10372000B901842F9158880F9695879508959F3FEA
:1037300031F0915020F4879577956795B795880F6C
:10374000911D9695879597F9089591505040660F71
:10375000771F881FD2F7089516F00C94971B0C94CE
:10376000AC1968940C94A6190E94FD19A8F399232A
:10377000C1F3AEF3DF93CF931F930F93FF92C92F43
:10378000DD2788232AF02197660F771F881FDAF735
:1037900020E030E040E85FEB9FE3883920F0803E96
:1037A00038F021968F770E94F217E0E9F0E004C02C
:1037B0000E94F217EDEBF0E00E94AF198B01BE0101
:1037C000EC01FB2E6F5771097595771F880B990BCC
:1037D0000E94471928E132E741E35FE30E94A71AFC
:1037E000AF2D9801AE01FF900F911F91CF91DF9106
:1037F0000E9409180C94E4190F931F93CF93DF9341
:103800008230910510F482E090E0E091D706F091CB
:10381000D80630E020E0B0E0A0E0309799F4211520
:10382000310509F44AC0281B390B24303105D8F57D
:103830008A819B816115710589F1FB0193838283E4
:10384000FE0111C04081518102811381481759073F
:10385000E0F04817590799F4109761F012960C930D
:10386000129713961C933296CF01DF91CF911F913F
:103870000F9108950093D7061093D806F4CF211521
:10388000310551F04217530738F0A901DB019A01C5
:10389000BD01DF01F801C1CFEF01F9CF9093D80648
:1038A0008093D706CDCFFE01E20FF31F8193919352
:1038B0002250310939832883D7CF2091D506309102
:1038C000D606232B41F42091080130910901309351
:1038D000D6062093D50620910601309107012115C7
:1038E000310541F42DB73EB740910A0150910B01CB
:1038F000241B350BE091D506F091D606E217F307AD
:10390000A0F42E1B3F0B2817390778F0AC014E5F4F
:103910005F4F2417350748F04E0F5F1F5093D606B0
:103920004093D506819391939FCFF0E0E0E09CCF48
:10393000CF93DF930097E9F0FC0132971382128254
:10394000A091D706B091D806ED0130E020E01097A5
:10395000A1F420813181820F931F2091D5063091EF
:10396000D6062817390709F061C0F093D606E09310
:10397000D506DF91CF910895EA01CE17DF07E8F56C
:103980004A815B819E0141155105B1F7E901FB8335
:10399000EA8349915991C40FD51FEC17FD0761F4D3
:1039A000808191810296840F951FE9019983888314
:1039B000828193819B838A83F0E0E0E012968D916F
:1039C0009C9113970097B9F52D913C911197CD01DA
:1039D0000296820F931F2091D5063091D6062817A4
:1039E000390739F6309751F51092D8061092D7065C
:1039F000B093D606A093D506BCCFD383C2834081B3
:103A00005181840F951FC817D90761F44E5F5F4F2E
:103A100088819981480F591F518340838A819B81F6
:103A2000938382832115310509F0B0CFF093D80636
:103A3000E093D7069ECFFD01DC01C0CF1382128236
:103A4000D7CFFB01DC014150504048F001900D926E
:103A50000020C9F701C01D9241505040E0F7089581
:103A6000AEE0B0E0E6E3FDE10C94E81F8C01FA0162
:103A700086E08C831A83098377FF02C060E070E8D8
:103A8000615071097E836D83A901BF01CE0101964A
:103A90000E945C1D4D815E8157FD0AC02F813885D3
:103AA000421753070CF49A01020F131FF8011082FA
:103AB0002E96E4E00C940420ABE0B0E0E2E6FDE1F9
:103AC0000C94DA1F7C013B018A01FC0117821682EB
:103AD000838181FFC8C1CE0101965C01F70193810A
:103AE000F30193FD859193FF81913F01882309F4B0
:103AF00053C1853239F493FD859193FF81913F0144
:103B0000853229F4B70190E00E944C1FE7CF912C39
:103B1000212C312CFFE1F31538F08B3211F190F4A8
:103B2000803209F1833229F137FC3CC020ED280FA7
:103B30002A3050F536FE20C08AE0989E200D1124D0
:103B4000922E06C08D3291F0803371F7689430F870
:103B5000F30193FD859193FF81913F018111DACFAC
:103B600021C0689431F8689432F8F2CF689433F841
:103B7000EFCF689434F8ECCFEAE02E9E200D1124AC
:103B8000222E689435F8E4CF8E3229F436FC04C135
:103B9000689436F8DDCF8C3619F4689437F8D8CFAE
:103BA0008836B1F2982F9F7D95549330E0F083369C
:103BB000A1F18337C1F1833509F063C02801F2E038
:103BC0004F0E511CF801C080D180692D70E036FC89
:103BD00002C06FEF7FEFC6010E94361F4C01689450
:103BE00037F882010AC00C5F1F4FFFE3F983882476
:103BF0008394912C6501E89437F833FE2DC0522C44
:103C00008114910471F5552009F468CFB70180E261
:103C100090E00E944C1F5A94F6CFF801808189836E
:103C20000E5F1F4FE4CF2801F2E04F0E511CF80148
:103C3000C080D180692D70E036FC02C06FEF7FEF4D
:103C4000C6010E94411F4C018201D5CFB70180E21D
:103C500090E00E944C1F2A942814190409F0B0F730
:103C6000CECFF60137FC859137FE81916F01B70108
:103C700090E00E944C1F51105A94F1E08F1A910865
:103C8000BFCF843619F0893609F077C0F80137FEC6
:103C90006BC060817181828193810C5F1F4FF32D16
:103CA000FF763F2E97FF09C090958095709561959E
:103CB0007F4F8F4F9F4F689437F82AE030E0A5017F
:103CC0000E947C1FC82ECA188C2C432C36FE0CC0B8
:103CD000E89440F8C91440F434FE05C032FC03C037
:103CE000F32DFE7E4F2E892C44FE95C0FE01EC0D77
:103CF000F11D8081803309F087C0242D297E422E5A
:103D0000842D8870582E43FC95C040FE8FC09C2C9B
:103D1000821418F42C0C922C981844FE91C0B70110
:103D200080E390E00E944C1F42FE09C088E790E0CB
:103D300041FE02C088E590E0B7010E944C1FC91403
:103D400008F48AC0CA94D12C9FEFC91AD90ACA0CA8
:103D5000DB1CF60182916F01B70190E00E944C1FBD
:103D6000AC14BD04B1F74FCF60817181072E000CF8
:103D7000880B990B0E5F1F4F92CFD32CE894D4F889
:103D80002AE030E0853739F1232D297FD22E8F3676
:103D900001F148F48835A9F0F701868197812B96C7
:103DA000E2E10C94F61F803749F08837A9F7D4FE7A
:103DB00002C06894D2F820E130E00DC06894D4F8D5
:103DC000F6CF34FE03C0822F8660D82E20E132E089
:103DD00002C028E030E0F801D7FE0FC06081718199
:103DE000828193810C5F1F4FA5010E947C1FC82E0A
:103DF000CA183D2CE89437F867CF6081718190E054
:103E000080E00E5F1F4FF0CF42FC02C0839478CF5A
:103E10008394839475CF842D867809F471CFF6CF7F
:103E2000B70180E290E00E944C1F83948214C0F39B
:103E3000512C73CF522C5818821408F46ECFF8CF3F
:103E4000842D867809F47BCF8BE241FE80E247FC2B
:103E50008DE2B70190E071CFB70180E390E00E945E
:103E60004C1F9A946CCF8FEF9FEF99CFFC01059078
:103E7000615070400110D8F7809590958E0F9F1F6C
:103E80000895FC016150704001900110D8F78095B1
:103E900090958E0F9F1F08950F931F93CF93DF93DD
:103EA000182F092FEB018B8181FD09C01FEF0FEF48
:103EB000812F902FDF91CF911F910F91089582FF55
:103EC00014C02E813F818C819D81281739073CF4D5
:103ED000E881F981CF0101969983888310838E81CF
:103EE0009F8101969F838E83E3CFE885F985812F9B
:103EF0000995892BA1F3DACFFA01AA27283051F1CD
:103F0000203181F1E8946F936E7F6E5F7F4F8F4F0A
:103F10009F4FAF4FB1E03ED0B4E03CD0670F781F69
:103F2000891F9A1FA11D680F791F8A1F911DA11D4E
:103F30006A0F711D811D911DA11D20D009F4689487
:103F40003F912AE0269F11243019305D3193DEF62F
:103F5000CF010895462F4770405D4193B3E00FD0E5
:103F6000C9F7F6CF462F4F70405D4A3318F0495DD0
:103F700031FD4052419302D0A9F7EACFB4E0A695B3
:103F80009795879577956795BA95C9F700976105D5
:103F9000710508959B01AC010A2E0694579547952B
:103FA00037952795BA95C9F7620F731F841F951F20
:103FB000A01D08952F923F924F925F926F927F9231
:103FC0008F929F92AF92BF92CF92DF92EF92FF9229
:103FD0000F931F93CF93DF93CDB7DEB7CA1BDB0BD5
:103FE0000FB6F894DEBF0FBECDBF09942A8839887A
:103FF00048885F846E847D848C849B84AA84B98481
:10400000C884DF80EE80FD800C811B81AA81B9818C
:10401000CE0FD11D0FB6F894DEBF0FBECDBFED01A0
:064020000895F894FFCFA3
:104026007405010000000000D906800000001D0094
:10403600000001001E002C00000000002D004400BE
:104046000100000045005300000000005400590024
:10405600000001005A0068000000000069008000AE
:104066000100000081008F00000000009000950014
:10407600000001009600A40000000000A500BC009E
:1040860001000000BD00CB0000000000CC00D10004
:1040960000000100D200E00000000000E100F7008F
:1040A60001000000F80006010000000007010D01F4
:1040B600000001000E011B01000000001C0133017D
:1040C60001000000340143010000000044014801E2
:1040D60000000100490157010000000058016F016E
:1040E6000100000070017E01000000007F018401D4
:1040F6000000010085019301000000009401AB015E
:1041060001000000AC01BA0100000000BB01C001C3
:1041160000000100C101CF0100000000D001E9014B
:1041260001000000EA01F60100000000F701FC01B1
:1041360000000100FD010B02000000000C0223023A
:10414600010000002402320200000000330238029F
:1041560000000100390247020000000048025E022A
:10416600010000005F02E8030100000000000000FB
:104176001C067C05A9056906DA05B805CC05473194
:104186004F6E3D25642047314F66663D25640047E6
:10419600324F6E3D25642047324F66663D256400EA
:1041A60047334F6E3D25642047334F66663D256491
:1041B6000047344F6E3D25642047344F66663D25E3
:1041C6006400466972696E6720706572696F643D46
:1041D600256400636F6F6C616E7474656D703D2548
:1041E600640043616C632052203D202564004765CE
:1041F6007474696E6720636F6F6C616E7420776983
:104206007065727320666F7220726573697374616C
:104216006E63653D2564004C6F7765737420523D6F
:104226002564204E756D5461626C65456E747269C5
:1042360065733D2564002564203C3D202564004DC2
:1042460061746368656420523D2564202830290026
:104256004D61746368656420523D25642028256499
:1042660029205769706572313D256420576970654C
:1042760072323D2564004E6F206D617463682C2098
:10428600757365206C6172676573742076616C75F1
:1042960065004D61746368656420523D256420287D
:1042A6002564290061697274656D703D2564004757
:1042B600657474696E6720616972207769706572CA
:1042C60020666F7220726573697374616E63653DF3
:1042D6002564004D61746368656420523D25640061
:1042E60057697065723D25640053657420636F6F6E
:1042F6006C616E742074656D7020746F2025642067
:104306004600536574206169722074656D7020746F
:104316006F202564204600536574207468726F749C
:10432600746C6520746F2025640053657420656E77
:1043360067696E6520737065656420746F202564F7
:104346002052504D005365742070756C736520645F
:1043560077656C6C20616E676C6520746F202564D0
:1043660020646567005365742073746172746572A6
:10437600206D6F746F7220737461746520746F2082
:104386002573005475726E656420656E67696E6587
:10439600206F666600456E67696E65206372616EA2
:1043A6006B696E6700456E67696E65206372616E44
:1043B6006B696E67207769746820756E73746162C5
:1043C6006C652052504D7300436F6C642069646CB9
:1043D6006500486F742069646C6500437275697383
:1043E600652061742033304D5048004372756973FF
:1043F600652061742037304D50480047656E746CF7
:104406006520616363656C65726174696F6E004DEA
:104416006F64657261746520616363656C65726162
:1044260074696F6E004861726420616363656C65D0
:10443600726174696F6E007372635C536572696151
:064446006C2E6370700093
:00000001FF
