:100000000C9454030C947C030C947C030C947C039C
:100010000C947C030C947C030C947C030C947C0364
:100020000C947C030C947C030C947C030C947C0354
:100030000C947C030C94EC0C0C947C030C947C03CB
:100040000C944A0C0C947C030C94BA0C0C94940CF5
:100050000C947C030C947C030C947C030C947C0324
:100060000C947C030C947C0307634236B79BD8A79F
:100070001A39685618AEBAAB558C1D3CB7CC5763CD
:10008000BD6DEDFD753EF6177231BF000000803F7B
:1000900008000000BE922449123EABAAAA2ABECD97
:1000A000CCCC4C3E00000080BEABAAAAAA3E000009
:1000B0000000BF000000803F000000000008417801
:1000C000D3BB4387D1133D190E3CC3BD4282AD2B38
:1000D0003E68EC8276BED98FE1A93E4C80EFFFBE30
:1000E00001C4FF7F3F000000000020494E48472028
:1000F0002A2A2A002A2A2A20414354494F4E3A20CC
:100100004D414E55414C4C59205345542050524579
:10011000535355524520544F200028432920616EE7
:100120006479406272697469736869646561732E89
:10013000636F6D20323032310056657273696F6EB5
:1001400020004D6572636564657320563820444A0B
:100150006574204543552054657374657200293ACF
:10016000002D00456E746572206E6577206477659A
:100170006C6C20696E206465677265657320280069
:10018000293A002D00456E746572206E65772074E3
:1001900068726F74746C6520706F736974696F6EC8
:1001A000202800293A002D00456E746572206E6586
:1001B0007720656E67696E65207370656564206978
:1001C0006E2052504D202800293A002D00456E74B3
:1001D0006572206E6577206169722074656D70208C
:1001E000696E206465672046202800293A002D00AA
:1001F000456E746572206E657720636F6F6C616EFB
:10020000742074656D7020696E20646567204620D7
:100210002800456E7465722061206E756D6265728E
:1002200020616E6420707265737320456E74657210
:100230003A00202031352E205365742070756C7380
:10024000652067656E657261746F72206477656C96
:100250006C00202031342E20536574207468726F36
:1002600074746C6500202031332E20536574206532
:100270006E67696E65207370656564002020313299
:100280002E20536574206169722074656D700020A2
:100290002031312E2053657420636F6F6C616E7452
:1002A0002074656D7000437573746F6D697A653A7B
:1002B00000202031302E2048617264206163636524
:1002C0006C65726174696F6E00202020392E204D9C
:1002D0006F64657261746520616363656C657261EA
:1002E00074696F6E00202020382E2047656E746C74
:1002F0006520616363656C65726174696F6E00206F
:100300002020372E204372756973652037304D5099
:100310004800202020362E204372756973652033F3
:10032000304D504800202020352E20486F74206921
:10033000646C6500202020342E20436F6C6420699B
:10034000646C6500202020332E204372616E6B693F
:100350006E6700202020322E204F666600507265A6
:10036000736574733A00202020312E2053686F7714
:100370002063757272656E742073657474696E673C
:1003800073004D41494E204D454E55006E6F00792A
:100390006573002C2070756C736567656E64776596
:1003A0006C6C3D002C206372616E6B696E673D0062
:1003B0002C20656E6773706565643D0064656365D8
:1003C0006C00616363656C00252C207468726F7427
:1003D000746C656469723D002C207468726F74746B
:1003E0006C65706F733D002C20636F6F6C616E7471
:1003F00074656D703D0053657474696E67733A205F
:1004000061697274656D703D005468726F74746CCC
:100410006520706F736974696F6E20736574004531
:1004200052524F523A20456E74657265642076616F
:100430006C7565206973206F757473696465206FCE
:100440006620616C6C6F7765642072616E67650011
:1004500050756C736520616E676C6520666F7220E5
:1004600070756C73652067656E657261746F72205C
:10047000736574004552524F523A20456E7465724E
:1004800065642076616C7565206973206F7574737F
:10049000696465206F6620616C6C6F77656420729B
:1004A000616E676500456E67696E6520737065658E
:1004B0006420736574004552524F523A20456E7461
:1004C000657265642076616C7565206973206F754F
:1004D0007473696465206F6620616C6C6F77656406
:1004E0002072616E6765004169722074656D706588
:1004F00072617475726520736574004552524F5273
:100500003A20456E74657265642076616C7565206D
:100510006973206F757473696465206F6620616C00
:100520006C6F7765642072616E676500436F6F6CF6
:10053000616E742074656D7065726174757265208A
:10054000736574004552524F523A20456E7465727D
:1005500065642076616C7565206973206F757473AE
:10056000696465206F6620616C6C6F7765642072CA
:10057000616E6765004552524F523A20496E76616E
:100580006C696420696E7075740053657420746FB3
:10059000206861726420616363656C65726174696F
:1005A0006F6E0053657420746F206D6F64657261A7
:1005B000746520616363656C65726174696F6E0058
:1005C00053657420746F2067656E746C6520616379
:1005D00063656C65726174696F6E00536574207435
:1005E0006F206372756973652061742037304D50D8
:1005F000480053657420746F2063727569736520B9
:1006000061742033304D50480053657420746F205E
:10061000686F742069646C650053657420746F2082
:10062000636F6C642069646C650053657420746F3B
:10063000206372616E6B696E6700456E67696E65F7
:10064000207475726E6564206F666600000000009D
:10065000230026002900000000080002010000031A
:10066000040700000000000000000000000025005A
:1006700028002B0000000000240027002A000404AA
:10068000040404040404020202020202030303033A
:100690000303010204081020408001020408102016
:1006A000010204081020851011241FBECFEFD8E0EE
:1006B000DEBFCDBF12E0A0E0B1E0ECE2FDE202C09F
:1006C00005900D92AE35B107D9F723E0AEE5B2E063
:1006D00001C01D92AB34B207E1F713E0C4E5D3E0EB
:1006E00004C02197FE010E944A11C335D107C9F702
:1006F0000E94130D0C9494160C94000090E0FC01E1
:10070000EE56F94F24918258994FFC018491882329
:1007100099F090E0880F991FFC01EC58F94FA591D2
:10072000B491FC01E659F94F859194918FB7F894F3
:10073000EC91E22BEC938FBF0895833081F028F485
:10074000813099F08230A9F008958730A9F088307F
:10075000C9F08430B1F4809180008F7D03C0809116
:1007600080008F7780938000089584B58F7784BD53
:10077000089584B58F7DFBCF8091B0008F778093F3
:10078000B00008958091B0008F7DF9CF1F93CF9373
:10079000DF93282F30E0F901EA5AF94F8491F901EB
:1007A000EE56F94FD491F901E258F94FC491CC2398
:1007B000A9F0162F81110E949D03EC2FF0E0EE0F9F
:1007C000FF1FE659F94FA591B4918FB7F894EC91BA
:1007D000111108C0D095DE23DC938FBFDF91CF913C
:1007E0001F910895DE2BF8CFEF92FF920F931F9386
:1007F000CF93DF93EC017B018A018D819E8101966D
:100800009E838D83019781F48CB58F7D8CBD8CB5D3
:10081000837F8CBD8CB583608CBD8DB58E7F8DBD87
:1008200060E088810E94C60384E0EE0CFF1C8A957C
:10083000E1F76894E1F8A80151705E295EBD0000FF
:100840000DB407FEFDCF11E00EB401FC14C010E0A2
:100850008D819E8101979E838D83892B21F461E098
:1008600088810E94C603812FDF91CF911F910F9144
:10087000FF90EF9008954EBD00000DB407FEFDCF30
:100880008EB5E6CF2FB7F8946091A6027091A702BB
:100890008091A8029091A9022FBF08952091700223
:1008A0003091710280916C0290916D022817390786
:1008B00009F4299A209170023091710280916A02A4
:1008C00090916B022817390709F42998209170023A
:1008D000309171028091680290916902281739075E
:1008E00009F45E9A20917002309171028091660243
:1008F000909167022817390709F45E9820917002D9
:100900003091710280916402909165022817390735
:1009100009F45D9A20917002309171028091620217
:10092000909163022817390709F45D9820917002AD
:10093000309171028091600290916102281739070D
:1009400009F45B9A209170023091710280915E02ED
:1009500090915F022817390709F45B988091700223
:100960009091710201969093710280937002209190
:100970006E0230916F028217930720F0109271027D
:100980001092700281E080937A0220E43FE130937C
:1009900087002093860091E1909381002EE434E05B
:1009A000309301012093000180936F000895089512
:1009B000AF92BF92CF92DF92EF92FF920F931F936D
:1009C000CF93DF936C017B018B01040F151FEB01AB
:1009D0005E01AE18BF08C017D10759F06991D60162
:1009E000ED91FC910190F081E02DC6010995892BD4
:1009F00079F7C501DF91CF911F910F91FF90EF9093
:100A0000DF90CF90BF90AF900895FC01538D448D3F
:100A1000252F30E0842F90E0821B930B541710F0A9
:100A2000CF96089501970895FC01918D828D9817B6
:100A300061F0A28DAE0FBF2FB11D5D968C91928D8E
:100A40009F5F9F73928F90E008958FEF9FEF0895BF
:100A5000FC01918D828D981731F0828DE80FF11D88
:100A6000858D90E008958FEF9FEF0895FC01918DA3
:100A7000228D892F90E0805C9F4F821B91098F739C
:100A8000992708958AEA92E00E94360521E0892B91
:100A900009F420E0822F089580E090E0892B29F06E
:100AA0000E94420581110C9400000895FC01A48D60
:100AB000A80FB92FB11DA35ABF4F2C91848D90E080
:100AC00001968F739927848FA689B7892C93A08963
:100AD000B1898C91837080648C93938D848D9813ED
:100AE00006C00288F389E02D80818F7D8083089580
:100AF000EF92FF920F931F93CF93DF93EC0181E06E
:100B0000888F9B8D8C8D98131AC0E889F989808114
:100B100085FF15C09FB7F894EE89FF896083E88947
:100B2000F98980818370806480839FBF81E090E039
:100B3000DF91CF911F910F91FF90EF900895F62EC6
:100B40000B8D10E00F5F1F4F0F731127E02E8C8D60
:100B50008E110CC00FB607FCFACFE889F9898081A5
:100B600085FFF5CFCE010E945605F1CFEB8DEC0F3E
:100B7000FD2FF11DE35AFF4FF0829FB7F8940B8FC2
:100B8000EA89FB8980818062CFCF0F931F93CF9337
:100B9000DF938C01D0E0C0E0F801EC0FFD1F649101
:100BA000662341F08AEA92E00E947805892B11F0D1
:100BB0002196F2CFCE01DF91CF911F910F91089531
:100BC000CF93DF93EC01888D8823B9F0AA89BB8984
:100BD000E889F9898C9185FD03C0808186FD0DC06F
:100BE0000FB607FCF7CF8C9185FFF2CF808185FF90
:100BF000EDCFCE010E945605E9CFDF91CF91089548
:100C0000CF93CFB7F89480917702811124C0E8E8A0
:100C1000F6E08491ECE9F6E09491E82FF0E0EE0F35
:100C2000FF1FEC58F94FA591B491EC91E92321F401
:100C300061E08AE00E94C6038AE00E947E038CB5D0
:100C400080618CBD8CB580648CBD8DE00E947E037C
:100C50008BE00E947E03809177028F5F8093770202
:100C6000CFBFCF9108954F925F926F927F928F92F4
:100C70009F92AF92BF92CF92DF92EF92FF92CF936B
:100C8000DF93CDB7DEB764970FB6F894DEBF0FBE23
:100C9000CDBF20E12093810029985E985D985B98F4
:100CA00090939C0280939B02181619060CF03FC18A
:100CB000BC01A0908702B0908802072E000C880B20
:100CC000990B0E94BA1220E030E040E752E40E9403
:100CD000D61120E030E040E05FE30E9407149B0162
:100CE000AC0160E070E080E89FE30E94D61120E054
:100CF00030E04AE754E40E9407140E94891270937E
:100D00006F0260936E0290E080E00E94B8126B0167
:100D10007C01B501BB0C880B990B0E94BA129B0198
:100D2000AC010E94651120E030E044E354E40E94ED
:100D3000D611A70196010E9407144B015C0120E027
:100D400030E040E85EE3C701B6010E9407146987FE
:100D50007A878B879C8720E030E040E05FE3C70123
:100D6000B6010E9407146D877E878F87988B20E0DD
:100D700030E040E45FE3C701B6010E940714698BCD
:100D80007A8B8B8B9C8B20E030E0A901C501B401EC
:100D90000E94651169837A838B839C839B01AC01DC
:100DA000C701B6010E94D11187FF0CC0A7019601AF
:100DB00069817A818B819C810E94641169837A8325
:100DC0008B839C8329853A854B855C85C501B4015D
:100DD0000E9465116D837E838F8398879B01AC0190
:100DE000C701B6010E94D11187FF0CC0A70196016F
:100DF0006D817E818F8198850E9464116D837E83D1
:100E00008F8398872D853E854F855889C501B4010C
:100E10000E9465112B013C01AC019B01C701B60189
:100E20000E94D11187FF08C0A7019601C301B2013A
:100E30000E9464112B013C0129893A894B895C8904
:100E4000C501B4010E9465114B015C01AC019B011D
:100E5000C701B6010E94D11187FF08C0A701960102
:100E6000C501B4010E9464114B015C0110926D0236
:100E700010926C0269817A818B819C810E94891217
:100E800070936B0260936A0269857A858B859C8575
:100E90000E94891270936902609368026D817E815D
:100EA0008F8198850E948912709367026093660211
:100EB0006D857E858F8598890E9489127093650261
:100EC00060936402C301B2010E94891270936302AD
:100ED0006093620269897A898B899C890E94891250
:100EE0007093610260936002C501B4010E9489128F
:100EF00070935F0260935E02109271021092700212
:100F000081E080937A0280E49FE190938700809350
:100F1000860081E18093810010928100109285000B
:100F20001092840080917A0280618093810064969F
:100F30000FB6F894DEBF0FBECDBFDF91CF91FF900B
:100F4000EF90DF90CF90BF90AF909F908F907F9069
:100F50006F905F904F900895CF93DF932AE0AC019C
:100F6000249FC001259F900D1124893E53E09507D1
:100F700014F088EE93E097FF02C090E080E0E8E094
:100F8000F1E0D0E0C0E040815181841795071CF169
:100F90004281538148175907F4F083E0CC0FDD1FDD
:100FA0008A95E1F7FE01E85FFE4F8481958161E05B
:100FB000019709F060E080E10E94C603C85FDE4F40
:100FC0008E819F8161E0019709F060E08FE0DF9101
:100FD000CF910C94C60321963896C832D10599F664
:100FE000DF91CF910895CF93DF93EC01039734F411
:100FF00061E08EE00E94C60360E008C060E08EE021
:101000000E94C60361E0CA35D105B4F388E0DF91E0
:10101000CF910C94C603CF92DF92EF92FF920F9381
:101020001F93CF93DF93EC01009178021091790226
:101030000817190789F4892B21F490E080E00E94B9
:10104000AC07CE01DF91CF911F910F91FF90EF90F0
:10105000DF90CF900C94F307081719076CF51092E6
:101060007602109275028091750290917602892B1A
:10107000A9F5C017D1070CF442C0C8010E94F307BC
:10108000C8010E94AC070E9442046B017C0124E16C
:10109000C20ED11CE11CF11C0E9442046C157D059E
:1010A0008E059F0580F06C197D098E099F0997FDBB
:1010B000F3CF0F5F1F4FDDCF81E090E0909376027A
:1010C00080937502D0CFA7019601261B370B480BE2
:1010D000590BDA01C901B7FFDFCFEBCF60E080E148
:1010E0000E94C60360E08FE00E94C603CE010E940A
:1010F000F307209721F490E080E00E94AC07D093A2
:101100007902C0937802DF91CF911F910F91FF90E8
:10111000EF90DF90CF9008958F929F92AF92BF9201
:101120000F931F93CF93DF93CDB7DEB7A1970FB681
:10113000F894DEBF0FBECDBF19A2423008F44AE0DA
:101140008E010F5D1F4F842E912CB12CA12CA50177
:1011500094010E942811E62FB901CA01EA3044F532
:10116000E05DD801EE938D01232B242B252B79F7FD
:1011700090E080E0109769F0FD0101900020E9F710
:101180003197AF014A1B5B0BBD018AEA92E00E94D6
:10119000D804A1960FB6F894DEBF0FBECDBFDF9185
:1011A000CF911F910F91BF90AF909F908F90089516
:1011B000E95CD7CF42E050E06AE572E08AEA92E06B
:1011C0000C94D804CF93DF930E94C505EC010E94D4
:1011D000DA088C0F9D1FDF91CF910895CF92DF9297
:1011E000EF92FF92CF93DF936C01990FEE08FF0807
:1011F000F7FE19C06DE28AEA92E00E947805EC01E0
:1012000066277727CB016C197D098E099F094AE073
:101210000E948C088C0F9D1FDF91CF91FF90EF9063
:10122000DF90CF9008954AE0C701B601DF91CF91DA
:10123000FF90EF90DF90CF900C948C087F928F926C
:101240009F92AF92BF92CF92DF92EF92FF920F9355
:101250001F93CF93DF930E94DA08C0919B02D09135
:101260009C02C0908B02D0908C02E0907802F090AB
:1012700079020091750210917602A0908902B090D7
:101280008A0270907202809087029090880286EFA6
:1012900093E00E94C505C5010E94EE0887EE93E029
:1012A0000E94C505C6010E94EE0888ED93E00E94E9
:1012B000C505C7010E94EE0888EC93E00E94C505B1
:1012C00082EC93E00130110511F48CEB93E00E9465
:1012D000C50580EB93E00E94C505CE010E94EE0893
:1012E00084EA93E00E94C5058CE893E0772011F032
:1012F0008FE893E00E94C50583E993E00E94C5054D
:10130000C4010E94EE08DF91CF911F910F91FF90D1
:10131000EF90DF90CF90BF90AF909F908F907F9095
:101320000C94DA0880918D0290918E028C30910598
:1013300009F475C034F4009771F00B9709F45BC0A1
:1013400008958E30910509F490C00CF47BC00F977E
:1013500009F49EC008950E94DA0882E893E00E9492
:10136000E20886E693E00E94E2088DE593E00E94A1
:10137000E20883E593E00E94E20884E493E00E949F
:10138000E20884E393E00E94E20885E293E00E9491
:10139000E20882E193E00E94E2088FEF92E00E946F
:1013A000E20885EE92E00E94E20889EC92E00E9459
:1013B000E20881EB92E00E94E20886EA92E00E9455
:1013C000E2088FE892E00E94E2088CE792E00E9437
:1013D000E20885E692E00E94E20882E592E00E943F
:1013E000E20882E392E00E94E2080E94DA0882E1C9
:1013F00092E00C94E20880EF91E00E94C50587E23C
:1014000090E00E94EE088EEE91E00E94C50581EC0E
:1014100090E00E94EE088BEE91E00C94C5058DECF7
:1014200091E00E94C50590E080E00E94EE088BEC00
:1014300091E00E94C5058DE490E00E94EE0888ECE2
:1014400091E0EBCF88EA91E00E94C50584EF91E03E
:101450000E94EE0886EA91E00E94C50584E699E1C3
:101460000E94EE0883EA91E0D8CF85E891E00E94DF
:10147000C50590E080E00E94EE0883E891E00E94BC
:10148000C50584E690E00E94EE0880E891E0C5CFB3
:1014900083E691E00E94C50587E290E00E94EE0895
:1014A00081E691E00E94C50581E491E00E94EE088A
:1014B0008EE591E0B2CF82E491E00E94E20889E3F8
:1014C00091E00E94C50586E090E00E94EE080E942F
:1014D000DA088AE191E00E94E2080C94DA084F925F
:1014E0005F926F927F928F929F92AF92BF92CF92B4
:1014F000DF92EF92FF9290938C0280938B029C017B
:101500002052310945E0429FC001439F900D1124B4
:1015100069E070E00E941411072E000C880B990BF3
:101520000E94BA1223E333E948E853E40E946511AC
:101530009B01AC0160E070E080E89FE30E94D6115F
:101540009B01AC0169EE7EE98AEA9AE30E9464118C
:1015500021EE31EC49E354E30E94D6116B017C018A
:10156000AC019B010E94071420E030E040E85EE3FC
:101570000E94071421E23EE44CEE5CE40E946511F7
:101580000E94CA144B015C0120E030E040E05FE3C0
:10159000C701B6010E9407146B017C01AC019B01DD
:1015A000C501B4010E9464112BEA3AEA4AEA5EE3FB
:1015B0000E9474142B013C01A7019601C501B401DE
:1015C0000E9465112BEA3AEA4AEA5EE30E9474142B
:1015D0009B01AC01C301B2010E9464110E94501230
:1015E0000E948212683782E1780714F067E772E19F
:1015F0006F30710514F46FE070E0695E7109072EB9
:10160000000C880B990B0E94BA1220917B0230913A
:101610007C0240917D0250917E020E94D6110E9470
:10162000821277FF02C070E060E0809183029091A7
:1016300084026F3F710519F014F06FEF70E0FC0148
:1016400023813481AB012617370708F4A901FC0177
:1016500061817281FF90EF90DF90CF90BF90AF904B
:101660009F908F907F906F905F904F900C94F403B9
:10167000CF92DF92EF92FF920F93CF93DF937B0194
:101680006A01E9010E94330680918B0290918C02DD
:10169000E816F90619F0C7010E946F0AC6010E94F8
:1016A0000B08CF3FDC0759F084EF90E00E94C5059E
:1016B000CE010E94EE088AEE90E00E94E208D093EC
:1016C0007402C09373020093720261E0011101C0C1
:1016D00060E087E0DF91CF910F91FF90EF90DF9076
:1016E000CF900C94C6030F9300E02FEF3FEF50E034
:1016F00040E068E470E090E080E00E94380B0F91D9
:1017000008954F925F926F927F928F929F92AF92C5
:10171000BF92CF92DF92EF92FF9290938A028093D2
:1017200089029C012052310945E0429FC001439F3C
:10173000900D112469E070E00E941411072E000C36
:10174000880B990B0E94BA1223E333E948E853E46B
:101750000E9465119B01AC0160E070E080E89FE3AE
:101760000E94D6119B01AC0160E075ED8CEE9AE30E
:101770000E9464112AE736E145E255E30E94D61142
:101780006B017C01AC019B010E94071420E030E05A
:1017900040E85EE30E94071428EE3BE44DE25AE481
:1017A0000E9465110E94CA144B015C0120E030E0E8
:1017B00040E05FE3C701B6010E9407146B017C01A2
:1017C000AC019B01C501B4010E9464112BEA3AEA05
:1017D0004AEA5EE30E9474142B013C01A7019601C2
:1017E000C501B4010E9465112BEA3AEA4AEA5EE3B8
:1017F0000E9474149B01AC01C301B2010E946411E8
:101800000E9450120E948212693782E1780714F018
:1018100068E772E16031710514F460E170E0685EC0
:101820007109072E000C880B990B0E94BA122091A7
:101830007F023091800240918102509182020E9489
:10184000D6110E94821277FF02C070E060E08091A2
:101850008502909186026F3F710519F014F06FEFC9
:1018600070E0FC0123813481AB012617370708F4AF
:10187000A901FC0161817281FF90EF90DF90CF9010
:10188000BF90AF909F908F907F906F905F904F90A0
:101890000C94F4031F920F920FB60F9211242F9302
:1018A0003F938F939F93AF93BF938091A6029091A4
:1018B000A702A091A802B091A9023091A50223E04D
:1018C000230F2D3758F50196A11DB11D2093A502B8
:1018D0008093A6029093A702A093A802B093A902B6
:1018E0008091A1029091A202A091A302B091A402C2
:1018F0000196A11DB11D8093A1029093A202A09315
:10190000A302B093A402BF91AF919F918F913F9199
:101910002F910F900FBE0F901F90189526E8230F60
:101920000296A11DB11DD2CF1F920F920FB60F923A
:1019300011242F933F934F935F936F937F938F93D4
:101940009F93AF93BF93EF93FF938AEA92E00E9435
:101950005605FF91EF91BF91AF919F918F917F912C
:101960006F915F914F913F912F910F900FBE0F900C
:101970001F9018951F920F920FB60F9211242F935C
:101980008F939F93EF93FF93E091BA02F091BB0284
:101990008081E091C002F091C10282FD1BC0908164
:1019A0008091C3028F5F8F732091C402821741F030
:1019B000E091C302F0E0E655FD4F958F8093C3029E
:1019C000FF91EF919F918F912F910F900FBE0F90EC
:1019D0001F9018958081F4CF1F920F920FB60F922F
:1019E00011242F933F934F935F936F937F938F9324
:1019F0009F93AF93BF93EF93FF93E0910001F0911A
:101A000001010995FF91EF91BF91AF919F918F9146
:101A10007F916F915F914F913F912F910F900FBEEA
:101A20000F901F901895789484B5826084BD84B51A
:101A3000816084BD85B5826085BD85B5816085BDC9
:101A400080916E00816080936E0010928100809181
:101A50008100826080938100809181008160809309
:101A60008100809180008160809380008091B1002E
:101A700084608093B1008091B00081608093B00059
:101A800080917A00846080937A0080917A008260ED
:101A900080937A0080917A00816080937A008091AF
:101AA0007A00806880937A001092C100E091BA02B7
:101AB000F091BB0282E08083E091BA02F091BB0218
:101AC0001082E091B602F091B7021082E091B80264
:101AD000F091B90210E110831092C202E091BE02AF
:101AE000F091BF0286E08083E091BC02F091BD02DC
:101AF000808180618083E091BC02F091BD02808191
:101B000088608083E091BC02F091BD028081806892
:101B10008083E091BC02F091BD0280818F7D808343
:101B20008AEA92E00E94E0050E945B0A10928E020F
:101B300010928D020E94920981E10E947E0361E071
:101B400081E10E94C60387E00E947E0360E087E097
:101B50000E94C603219A2998569A5E98559A5D98D4
:101B6000539A5B9888E00E947E0360E088E00E94C0
:101B7000C6038EE00E947E0360E08EE00E94C603F2
:101B800080E10E947E0360E080E10E94C6038FE056
:101B90000E947E0360E08FE00E94C60384E00E9402
:101BA0007E0360E084E00E94C60382E00E947E0320
:101BB00060E082E00E94C60383E10E947E0361E050
:101BC00083E10E94C60382E10E947E0361E082E11C
:101BD0000E94C60387E090E00E946F15EC0183E14C
:101BE00088831A821982E12CFF24F394FC82EB8211
:101BF0001E821D820E94000688810E947E0361E091
:101C000088810E94C603D0938602C093850287E034
:101C100090E00E946F15EC0182E188831A8219829C
:101C2000FC82EB821E821D820E94000688810E9437
:101C30007E0361E088810E94C603D0938402C09332
:101C4000830280E090E4A3E9B1E480937F02909363
:101C50008002A0938102B093820280937B029093D2
:101C60007C02A0937D02B0937E02109381001092BB
:101C7000800081E080937A021092870010928600A3
:101C800091E1909381002EE434E0309301012093A0
:101C9000000180936F001093810087E890E090939B
:101CA00088028093870210927902109278020E9433
:101CB000730B8091890290918A028834910521F0FA
:101CC00088E490E00E94810B0E94420468517C4F9E
:101CD0008F4F9F4F60939D0270939E0280939F024F
:101CE0009093A00293EA692E96E0792E2FE8C22EF7
:101CF00026E0D22E30E0E32E30E0F32E41E4A42E95
:101D0000BB24B39457E2852E912C8AEA92E00E947C
:101D10002805019619F18AEA92E00E9414058C01C7
:101D2000682F8AEA92E00E9478050A301105B1F026
:101D3000C0919902D0919A02003311058CF1CE0125
:101D4000019690939A0280939902C157DD4F0883C0
:101D5000099721F410929A021092990220909D0204
:101D600030909E0240909F025090A0020E94420438
:101D7000621573058405950508F488C16219730915
:101D80008409950997FF88C1E114F10409F4BDCFD6
:101D90000E944205882309F4B8CF0E940000B5CF05
:101DA0000830110549F41C161D06C4F62197D0937E
:101DB0009A02C0939902D2CF8AEA92E00E94E0058B
:101DC000C157DD4F188210929A02109299028091A9
:101DD0008F02811107C00E945B0A10928E0210923E
:101DE0008D02A1C080918D0290918E02009709F022
:101DF000A2C08FE892E00E94B210FC013197EF3050
:101E0000F10508F093C0E95FF04F0C944A111C0FE4
:101E1000160F1F0F2D0F3B0F490F570F650F730F35
:101E2000810F8F0F8F0F8F0F8F0F8F0F0E94730BEC
:101E30008AE396E00E94E2080E941E09CECF01E0EC
:101E40002FEF3FEF50E040E068E470E08CE291E07B
:101E50000E94380B8AE296E0EDCF00E02FE030E000
:101E600050E040E068E470E080EB94E00E94380BC2
:101E700089E196E0DFCF00E02FE030E050E040E085
:101E800069EB70E08CEB92E00E94380B89E096E001
:101E9000D1CF00E02BE030E041E150E069EB70E0B1
:101EA00088E795E00E94380B82EF95E0C3CF00E011
:101EB0002BE030E049E150E069EB70E088EB9BE01B
:101EC0000E94380B8BED95E0B5CF00E029E030E0C3
:101ED0004EE150E069EB70E088E097E00E94380B3B
:101EE00080EC95E0A7CF00E027E030E042E350E04F
:101EF00069EB70E08CEA9DE00E94380B83EA95E084
:101F000099CF00E022E030E04FE550E069EB70E06F
:101F100080E797E10E94380B8AE895E08BCF909399
:101F20008E0280938D020E94920918CF85E795E07A
:101F30000E94E208F8CF8D30910509F45CC0ACF442
:101F40008B30910559F10C9709F008CF8FE892E09A
:101F50000E94D0106E34710508F440C00E94DA0867
:101F60000E94DA088BEF94E029C08E30910509F4C5
:101F700079C00F9709F0F2CE8FE892E00E94D0105E
:101F80009B01275231092B31314008F44BC00E948C
:101F9000DA080E94DA0884E794E010C08FE892E043
:101FA0000E94D0109B01275231092B39310548F08E
:101FB0000E94DA080E94DA0884E495E00E94E208B0
:101FC0000CCF20918B0230918C022617370719F025
:101FD000CB010E946F0A8CE295E02CCF2091890200
:101FE00030918A022617370719F0CB010E94810B26
:101FF00087EE94E01FCF8FE892E00E94D0109B0103
:10200000245F31402137374138F00E94DA080E94BE
:10201000DA0886EB94E0D2CFCB010E94330685EA42
:1020200094E008CF67327105C4F070938802609322
:10203000870280918702909188028234914024F037
:10204000B0928802A092870280919B0290919C029C
:102050000E94330680E594E0EDCE90928802809253
:102060008702E7CF8FE892E00E94D01065367105B5
:1020700038F00E94DA080E94DA088FE194E09ECFDF
:10208000CB010E940B0889E094E0D4CE261A370ACF
:10209000480A590A57FE78CEE7E6F6E08491F30144
:1020A000C491F601D491DD2379F081110E949D0342
:1020B000ED2FF0E0EE0FFF1FE45BF94FA591B49117
:1020C0008C91C82360E009F461E081E10E94C603BD
:1020D00080919B0290919C02181619067CF40E9434
:1020E000420466507F4F8F4F9F4F60939D027093C5
:1020F0009E0280939F029093A00246CE0E944204CB
:1021000068517C4F8F4F9F4FF0CFEAEAF2E0138285
:10211000128288EE93E0A0E0B0E084839583A683EA
:10212000B7838CE492E09183808385EC90E095877F
:10213000848784EC90E09787868780EC90E0918B91
:10214000808B81EC90E0938B828B82EC90E0958B7E
:10215000848B86EC90E0978B868B118E128E138E7B
:10216000148E0895FC0188279927E8942191203244
:10217000E9F3293010F02E30C8F32B3241F02D3224
:1021800039F4689404C00E940C11820F911D2191B2
:1021900020532A30C0F31EF4909581959F4F0895E7
:1021A0001F93FC0199278827BC01E89411911032F4
:1021B000E9F3193010F01E30C8F31B3251F01D3214
:1021C00049F4689406C00E94F710610F711D811DCB
:1021D000911D119110531A30B0F33EF490958095F3
:1021E000709561957F4F8F4F9F4F1F910895592F85
:1021F000482F372F262F660F771F881F991F660FCE
:10220000771F881F991F620F731F841F951F660F0A
:10221000771F881F991F08957AE0979F902D879FB9
:10222000802D910D1124089597FB072E16F400942C
:1022300007D077FD09D00E94501107FC05D03EF46D
:10224000909581959F4F0895709561957F4F089562
:10225000A1E21A2EAA1BBB1BFD010DC0AA1FBB1FAA
:10226000EE1FFF1FA217B307E407F50720F0A21B1C
:10227000B30BE40BF50B661F771F881F991F1A9489
:1022800069F760957095809590959B01AC01BD01B3
:10229000CF010895EE0FFF1F0590F491E02D0994F2
:1022A000AA1BBB1B51E107C0AA1FBB1FA617B7077C
:1022B00010F0A61BB70B881F991F5A95A9F7809598
:1022C0009095BC01CD0108955058BB27AA270E94C4
:1022D0007C110C9457130E94491338F00E9450133C
:1022E00020F039F49F3F19F426F40C941F130EF4D8
:1022F000E095E7FB0C941913E92F0E94681358F33B
:10230000BA17620773078407950720F079F4A6F5DA
:102310000C948A130EF4E0950B2EBA2FA02D0B010E
:10232000B90190010C01CA01A0011124FF27591B1A
:1023300099F0593F50F4503E68F11A16F040A22F20
:10234000232F342F4427585FF3CF46953795279591
:10235000A795F0405395C9F77EF41F16BA0B620B90
:10236000730B840BBAF09150A1F0FF0FBB1F661FD7
:10237000771F881FC2F70EC0BA0F621F731F841F1A
:1023800048F4879577956795B795F7959E3F08F040
:10239000B0CF9395880F08F09927EE0F9795879502
:1023A00008950E94F51208F481E008950E94EA1150
:1023B0000C9457130E94501358F00E94491340F098
:1023C00029F45F3F29F00C94191351110C948B13CD
:1023D0000C941F130E94681368F39923B1F35523DB
:1023E00091F3951B550BBB27AA2762177307840728
:1023F00038F09F5F5F4F220F331F441FAA1FA9F3BE
:1024000035D00E2E3AF0E0E832D091505040E695AB
:10241000001CCAF72BD0FE2F29D0660F771F881F0C
:10242000BB1F261737074807AB07B0E809F0BB0BFF
:10243000802DBF01FF2793585F4F3AF09E3F510513
:1024400078F00C9419130C948B135F3FE4F3983ECF
:10245000D4F3869577956795B795F7959F5FC9F7FC
:10246000880F911D9695879597F90895E1E0660F7D
:10247000771F881FBB1F621773078407BA0720F0F6
:10248000621B730B840BBA0BEE1F88F7E09508955F
:1024900029F416F00C9419130C948A130C941F133E
:1024A0000E947013A8F39638A0F707F80F92E894EB
:1024B0002BE33AEA48EB5FE70E941D140F920F925C
:1024C0000F924DB75EB70F920E94D313E8E6F0E08B
:1024D0000E9422134F915F91EF91FF91E595EE1FBE
:1024E000FF1F49F0FE57E0684427EE0F441FFA959E
:1024F000E1F74195550B0E949D130F9007FE0C9438
:10250000911308950E9489126894B1110C948B1351
:1025100008950E94701388F09F5798F0B92F99275B
:10252000B751B0F0E1F0660F771F881F991F1AF0BE
:10253000BA95C9F714C0B13091F00E948A13B1E086
:1025400008950C948A13672F782F8827B85F39F085
:10255000B93FCCF3869577956795B395D9F73EF457
:1025600090958095709561957F4F8F4F9F4F0895FF
:10257000E89409C097FB3EF490958095709561951D
:102580007F4F8F4F9F4F9923A9F0F92F96E9BB27D3
:102590009395F695879577956795B795F111F8CF4F
:1025A000FAF4BB0F11F460FF1BC06F5F7F4F8F4FBA
:1025B0009F4F16C0882311F096E911C0772321F0B0
:1025C0009EE8872F762F05C0662371F096E8862F48
:1025D00070E060E02AF09A95660F771F881FDAF79F
:1025E000880F9695879597F90895990F0008550FCC
:1025F000AA0BE0E8FEEF16161706E807F907C0F089
:1026000012161306E407F50798F0621B730B840B90
:10261000950B39F40A2661F0232B242B252B21F46A
:1026200008950A2609F4A140A6958FEF811D811D0A
:10263000089597F99F6780E870E060E008959FEF44
:1026400080EC0895DF93CF931F930F93FF92EF9247
:10265000DF927B018C01689406C0DA2EEF010E94A4
:102660001A14FE01E894A591259135914591559153
:10267000A6F3EF010E947C11FE019701A801DA94F4
:1026800069F7DF90EF90FF900F911F91CF91DF914D
:10269000089500240A9416161706180609060895C8
:1026A00000240A9412161306140605060895092E2E
:1026B0000394000C11F4882352F0BB0F40F4BF2B9D
:1026C00011F460FF04C06F5F7F4F8F4F9F4F0895DD
:1026D00057FD9058440F551F59F05F3F71F04795D3
:1026E000880F97FB991F61F09F3F79F087950895B8
:1026F000121613061406551FF2CF4695F1DF08C0D7
:10270000161617061806991FF1CF869571056105F3
:1027100008940895E894BB2766277727CB0197F99B
:1027200008959B01AC0160E070E080E89FE30C94A9
:10273000D6110C9419130C940A150E947013D8F337
:102740009923C9F3940F511DA3F39150504094F075
:1027500059F0882332F0660F771F881F9150504040
:10276000C1F79E3F51052CF7880F911D96958795CF
:1027700097F908955F3FACF0983E9CF0BB27869593
:1027800077956795B79508F4B1609395C1F7BB0F3E
:1027900058F711F460FFE8CF6F5F7F4F8F4F9F4F67
:1027A000E3CF0C948B13FA01DC01AA0FBB1F9B0132
:1027B000AC01BF5728F4222733274427507820C084
:1027C000B75190F4AB2F0024469537952795011CFF
:1027D000A395D2F3002071F0220F331F441FB3954D
:1027E000DAF30ED00C94641161307105A0E88A0709
:1027F000B94630F49B01AC0166277727882790788B
:10280000309621F0208331834283538308950E94C0
:102810001A140C9457130E94491338F00E94501355
:1028200020F0952311F00C9419130C941F1311240C
:102830000C948B130E94681370F3959FC1F3950F4E
:1028400050E0551F629FF001729FBB27F00DB11D34
:10285000639FAA27F00DB11DAA1F649F6627B00DC4
:10286000A11D661F829F2227B00DA11D621F739FAD
:10287000B00DA11D621F839FA00D611D221F749FBB
:102880003327A00D611D231F849F600D211D822F02
:10289000762F6A2F11249F5750409AF0F1F0882329
:1028A0004AF0EE0FFF1FBB1F661F771F881F915056
:1028B0005040A9F79E3F510580F00C9419130C94D9
:1028C0008B135F3FE4F3983ED4F386957795679535
:1028D000B795F795E7959F5FC1F7FE2B880F911D80
:1028E0009695879597F90895FA01EE0FFF1F309698
:1028F00021053105A1F16115710561F48038BFE34F
:102900009B0749F168949038810561F08038BFEFEA
:102910009B0741F099234AF5FF3FE1053105210569
:1029200019F1E8940894E795D901AA2329F4AB2F6B
:10293000BE2FF85FD0F310C0FF5F70F4A695E0F7EC
:10294000F73950F019F0FF3A38F49F779F930DD084
:102950000F9007FC9058089546F00C941F1360E008
:1029600070E080E89FE308954FE79F775F934F9370
:102970003F932F930E9427152F913F914F915F9185
:102980000E9407140C94501219F416F40C941F139F
:102990000C940A150E947013B8F39923C9F3B6F387
:1029A0009F57550B87FF0E9418150024A0E640EAA8
:1029B000900180585695979528F4805C660F771F94
:1029C000881F20F026173707480730F4621B730B67
:1029D000840B202931294A2BA6951794079420258A
:1029E00031254A2758F7660F771F881F20F02617D2
:1029F0003707480730F4620B730B840B200D311D31
:102A0000411DA09581F7B901842F9158880F9695A3
:102A1000879508959F3F31F0915020F487957795E1
:102A20006795B795880F911D9695879597F90895A5
:102A300091505040660F771F881FD2F7089516F007
:102A40000C940A150C941F1368940C9419130E948B
:102A50007013A8F39923C1F3AEF3DF93CF931F93C1
:102A60000F93FF92C92FDD2788232AF02197660F45
:102A7000771F881FDAF720E030E040E85FEB9FE344
:102A8000883920F0803E38F021968F770E946511BA
:102A9000E0E9F0E004C00E946511EDEBF0E00E9477
:102AA00022138B01BE01EC01FB2E6F577109759546
:102AB000771F880B990B0E94BA1228E132E741E395
:102AC0005FE30E941A14AF2D9801AE01FF900F91A1
:102AD0001F91CF91DF910E947C110C9457130F939B
:102AE0001F93CF93DF938230910510F482E090E042
:102AF000E0914903F0914A0330E020E0B0E0A0E02B
:102B0000309799F42115310509F44AC0281B390B77
:102B100024303105D8F58A819B816115710589F1D1
:102B2000FB0193838283FE0111C0408151810281A8
:102B3000138148175907E0F04817590799F410977F
:102B400061F012960C93129713961C933296CF0154
:102B5000DF91CF911F910F91089500934903109336
:102B60004A03F4CF2115310551F04217530738F0CD
:102B7000A901DB019A01BD01DF01F801C1CFEF011D
:102B8000F9CF90934A0380934903CDCFFE01E20F22
:102B9000F31F819391932250310939832883D7CF32
:102BA0002091470330914803232B41F420910401E5
:102BB000309105013093480320934703209102018F
:102BC000309103012115310541F42DB73EB74091F5
:102BD000060150910701241B350BE0914703F0914A
:102BE0004803E217F307A0F42E1B3F0B2817390701
:102BF00078F0AC014E5F5F4F2417350748F04E0F59
:102C00005F1F5093480340934703819391939FCF55
:102C1000F0E0E0E09CCFCF93DF930097E9F0FC0178
:102C2000329713821282A0914903B0914A03ED01B9
:102C300030E020E01097A1F420813181820F931FB2
:102C400020914703309148032817390709F061C0E4
:102C5000F0934803E0934703DF91CF910895EA0191
:102C6000CE17DF07E8F54A815B819E0141155105CA
:102C7000B1F7E901FB83EA8349915991C40FD51F4C
:102C8000EC17FD0761F4808191810296840F951FF6
:102C9000E90199838883828193819B838A83F0E011
:102CA000E0E012968D919C9113970097B9F52D91C4
:102CB0003C911197CD010296820F931F20914703FB
:102CC000309148032817390739F6309751F510929B
:102CD0004A0310924903B0934803A0934703BCCF23
:102CE000D383C28340815181840F951FC817D907B0
:102CF00061F44E5F5F4F88819981480F591F51835E
:102D000040838A819B81938382832115310509F059
:102D1000B0CFF0934A03E09349039ECFFD01DC015D
:0C2D2000C0CF13821282D7CFF894FFCFEF
:102D2C00D70400004B0380000000170000000100D6
:102D3C0018002E00000000002F00450001000000CC
:102D4C0046005C00000000005D0073000000010004
:102D5C0074008A00000000008B00A200010000003B
:102D6C00A300B90000000000BA00D0000000010070
:102D7C00D100E70000000000E800FE0001000000A8
:102D8C00FF0015010000000000012C0100000100F3
:102D9C002D0143010000000044015A010100000014
:102DAC005B0171010000000072018801000001004C
:102DBC0089019F0100000000A001B6010100000084
:102DCC00B701CE0100000000CF01E50100000100B9
:102DDC00E601FC0100000000FD01130201000000EF
:102DEC0014022A02000000002B0241020000010024
:102DFC00420258020000000059026F02010000005C
:102E0C00700286020000000087029D020000010093
:102E1C009E02B40200000000B502CB0201000000CB
:102E2C00CC02E20200000000E302FA020000010002
:102E3C00FB02110300000000120328030100000034
:102E4C0029033F030000000040035603000001006B
:102E5C0057036D03000000006E03840301000000A3
:102E6C008503E80301000000000000007805D80489
:0E2E7C000505E0053605140528050D0A0000C1
:00000001FF
