:100000000C94DF020C9407030C9407030C94070371
:100010000C9407030C9407030C9407030C94070338
:100020000C9407030C9407030C9407030C94070328
:100030000C9407030C9401150C9407030C9407030C
:100040000C945F140C9407030C94CF140C94A91413
:100050000C9407030C9407030C9407030C940703F8
:100060000C9407030C94070307634236B79BD8A789
:100070001A39685618AEBAAB558C1D3CB7CC5763CD
:10008000BD6DEDFD753EF6177231BF000000803F7B
:1000900008000000BE922449123EABAAAA2ABECD97
:1000A000CCCC4C3E00000080BEABAAAAAA3E000009
:1000B0000000BF000000803F000000000008417801
:1000C000D3BB4387D1133D190E3CC3BD4282AD2B38
:1000D0003E68EC8276BED98FE1A93E4C80EFFFBE30
:1000E00001C4FF7F3F000000000000830201A9025D
:1000F00002CE0203F302041A030540030665030758
:100100008A0308AD0309D2030AF7030B1C040C434E
:10011000040D68040E8D040FB20410D50411FA0406
:10012000121F05134405146A05158F0516B305172C
:10013000D80518F905191D061A41061B65061C8A03
:10014000061DAD061ECF061FF20620120721350739
:1001500022560723770724990725B907261608276B
:100160003E08285C080000FC04010022050200474C
:100170000503006C05040091050500B5050600DACD
:10018000050700FF0508002006090043060A00686D
:10019000060B008C060C00AE060D00D1060E00F317
:1001A000060F0014071000350711005607120077DC
:1001B00007130097071400B8071500200816004819
:1001C0000817007008180098081900B6081A00DE11
:1001D000081B0006091C002E091D004C091E007496
:1001E000091F009C092000C4092100E20922000A1D
:1001F0000A2300320A24005A0A2500780A2600A0A1
:100200000A2700C80A2800F00A29000E0B2A003627
:100210000B2B005E0B2C00860B2D00A40B2E00CCAC
:100220000B2F00F40B3000120C31003A0C3200623C
:100230000C3300800C3400A80C3500D00C3600F8CC
:100240000C3700200D38003E0D3900660D3A008E47
:100250000D3B00AC0D3C00D40D3D00FC0D3E001AE2
:100260000E3F00420E40006A0E4100880E4200B070
:100270000E4300D80E4400F60E45001E0F46004601
:100280000F47006E0F48008C0F4900B40F4A00DC86
:100290000F4B00FA0F4C0022104D004A104E006820
:1002A000104F0090105000B8105100D6105200FEB0
:1002B00010530026115400441155006C115600943F
:1002C000115700B2115800DA11590002125A0020D9
:1002D000125B0048125C0070125D008E125E00B668
:1002E000125F00D4126000FC12610024136200420D
:1002F0001363006A13640088136500B0136600D8A6
:10030000136700F61368001E1469003C146A006449
:10031000146B0082146C00AA146D00C8146E00F0F7
:10032000146F001815700036157100541572007C9A
:100330001573009A157400C2157500E01576000853
:10034000167700261678004E1679006C167A0094FF
:10035000167B00B2167C00DA167D00F8167E0016B9
:10036000177F003E177F0166177F0284177F03A265
:10037000177F04CA177F05E8177F0610187F072E1E
:10038000187F084C187F096A187F0A92187F0BB0F3
:10039000187F0CCE187F0DEC187F0E14197F0F32CA
:1003A000197F1050197F116E197F128C197F13AAB3
:1003B000197F14D2197F15F0197F160E1A7F172C8A
:1003C0001A7F18401A7F19681A7F1A861A7F1B9A9B
:1003D0001A7F1CC21A7F1DE01A7F1EFE1A7F1F1C87
:1003E0001B7F20301B7F214E1B7F226C1B7F238AAB
:1003F0001B7F24A81B7F25C61B7F26E41B7F27F8B5
:100400001B7F28161C7F29341C7F2A481C7F2B66E3
:100410001C7F2C841C7F2DA21C7F2EB61C7F2FD40A
:100420001C7F30E81C7F31061D7F321A1D7F333858
:100430001D7F34561D7F356A1D7F36881D7F379C92
:100440001D7F38B01D7F39CE1D7F3AE21D7F3BF600
:100450001D7F3C141E7F3D281E7F3E461E7F3F5A57
:100460001E7F406E1E7F41821E7F42A01E7F43B4CE
:100470001E7F44C81E7F45DC1E7F46F01E7F470E50
:100480001F7F48221F7F49361F7F4A4A1F7F4B5ECE
:100490001F7F4C721F7F4D861F7F4E9A1F7F4FAE6E
:1004A0001F7F50C21F7F51D61F7F52EA1F7F53FE0E
:1004B0001F7F5412207F5526207F563A207F574EAB
:1004C000207F5862207F5976207F5A80207F5B945E
:1004D000207F5CA8207F5DBC207F5ED0207F5FDA1C
:1004E000207F60EE207F6102217F6216217F6320E2
:1004F000217F6434217F6548217F6652217F6766B2
:10050000217F687A217F698E217F6A98217F6BAC79
:10051000217F6CB6217F6DCA217F6ED4217F6FE869
:10052000217F70F2217F7106227F7210227F732457
:10053000227F742E227F7542227F764C227F776045
:10054000227F786A227F7974227F7A88227F7B9249
:10055000227F7CA6227F7DB0227F7EBA227F7FCE43
:1005600022000000002300260029000000000800EF
:10057000020100000304070000000000000000006A
:10058000000000250028002B0000000000240027A8
:10059000002A000404040404040404020202020207
:1005A0000203030303030301020408102040800137
:1005B000020408102001020408102000281511244C
:1005C0001FBECFEFD8E0DEBFCDBF14E0A0E0B1E0AA
:1005D000E4E1F3E402C005900D92A035B107D9F72C
:1005E00026E0A0E5B4E001C01D92A933B207E1F70F
:1005F00012E0CFEDD2E004C02197FE010E94621903
:10060000CE3DD107C9F70E94FB150C9488210C94AC
:10061000000008950895089508950895089508958F
:10062000862F642FE0918B04F0918C04309711F0A9
:10063000A9010994089508950F931F93CF93DF9311
:100640008C01EB01DC018D919C9168816F77DC015D
:10065000ED91FC910190F081E02D0995F8018081E8
:100660009181688170E0660F672F661F770BDC0150
:10067000ED91FC910190F081E02DDF91CF911F91E0
:100680000F910994EF92FF920F931F93CF93DF93F3
:10069000C82F80918E0590918F050097A9F17A015E
:1006A0008B01DC01ED91FC910190F081E02D60EF78
:1006B000099580918E0590918F05DC01ED91FC915B
:1006C0000190F081E02D6C2F0995E7010E0D1F1DA3
:1006D000C017D10739F0BE018EE895E00E941C03D7
:1006E0002196F6CF80918E0590918F05DC01ED91DA
:1006F000FC910190F081E02D67EFDF91CF911F9188
:100700000F91FF90EF900994DF91CF911F910F917E
:10071000FF90EF9008951F93CF93DF93182FEB0175
:1007200080919305909194056817790760F4809102
:10073000910590919205C80FD91F188380E0DF9131
:10074000CF911F910895E091C005F091C1053097B8
:1007500011F481E0F4CF81E0809390058091AC05A5
:100760009091AD0509958091930590919405C817D6
:10077000D90778F7DCCFCF93DF93EC01FB0130E0B2
:1007800020E0C901880F991F8C179D0778F44081DC
:10079000DB014D93BD01119791819795992797950D
:1007A000942B9C932F5F3F4F3296EBCFC901DF9183
:1007B000CF91089590E0FC01E955FA4F24918D56B0
:1007C0009A4FFC018491882399F090E0880F991F3B
:1007D000FC01E757FA4FA591B491FC01E158FA4F9B
:1007E000859194918FB7F894EC91E22BEC938FBFA5
:1007F0000895CF93DF93FC01A081B181109701F19F
:10080000EC01ED91FC9111970190F081E02D69EFE1
:10081000CD01099588819981DC01ED91FC910190D0
:10082000F081E02D62E0099588819981DC01ED91EC
:10083000FC910190F081E02D65E0DF91CF9109946A
:10084000DF91CF910895833081F028F4813099F0C1
:100850008230A9F008958730A9F08830C9F084303B
:10086000B1F4809180008F7D03C0809180008F77EC
:1008700080938000089584B58F7784BD089584B5F2
:100880008F7DFBCF8091B0008F778093B00008956B
:100890008091B0008F7DF9CFCF93DF93282F30E088
:1008A000F901E559FA4F8491F901E955FA4FD491CC
:1008B000F901ED56FA4FC491CC23A1F081110E94A9
:1008C0002304EC2FF0E0EE0FFF1FEF59FA4FA59134
:1008D000B491EC91ED2381E090E009F480E0DF91A8
:1008E000CF91089580E090E0FACF1F93CF93DF93EC
:1008F000282F30E0F901E559FA4F8491F901E955C3
:10090000FA4FD491F901ED56FA4FC491CC23A9F0D6
:10091000162F81110E942304EC2FF0E0EE0FFF1F31
:10092000E158FA4FA591B4918FB7F894EC91111159
:1009300008C0D095DE23DC938FBFDF91CF911F914C
:100940000895DE2BF8CF61E0809114060C947504B5
:1009500081E58CBD1DBC60E0809114060C9475048B
:100960003FB7F8948091AD049091AE04A091AF048C
:10097000B091B00426B5A89B05C02F3F19F0019691
:10098000A11DB11D3FBFBA2FA92F982F8827BC01E9
:10099000CD01620F711D811D911D42E0660F771F11
:1009A000881F991F4A95D1F708958F929F92AF9211
:1009B000BF92CF92DF92EF92FF926B017C010E9477
:1009C000B0044B015C01C114D104E104F104B9F09D
:1009D0000E94B004681979098A099B09683E73402E
:1009E0008105910580F321E0C21AD108E108F108E0
:1009F00088EE880E83E0981EA11CB11CE4CFFF9006
:100A0000EF90DF90CF90BF90AF909F908F90089520
:100A10002FB7F8946091A9047091AA048091AB0457
:100A20009091AC042FBF089520916204309163042B
:100A300080915E0490915F042817390709F4299A80
:100A4000209162043091630480915C0490915D0474
:100A50002817390709F4299820916204309163041A
:100A600080915A0490915B042817390709F45D9A24
:100A7000209162043091630480915804909159044C
:100A80002817390709F45D982091620430916304B6
:100A900080915604909157042817390709F45E9AFB
:100AA0002091620430916304809154049091550424
:100AB0002817390709F45E98209162043091630485
:100AC00080915204909153042817390709F45B9AD6
:100AD00020916204309163048091500490915104FC
:100AE0002817390709F45B98809162049091630498
:100AF0000196909363048093620420916004309186
:100B000061048217930720F010926304109262042C
:100B100081E08093A10420E43FE13093870020939B
:100B2000860091E19093810024E135E0309301014A
:100B30002093000180936F0008950895009721F09D
:100B4000805C9F4F0C94F9030895AF92BF92CF92AF
:100B5000DF92EF92FF920F931F93CF93DF936C017D
:100B60007B018B01040F151FEB015E01AE18BF085E
:100B7000C017D10759F06991D601ED91FC91019010
:100B8000F081E02DC6010995892B79F7C501DF9128
:100B9000CF911F910F91FF90EF90DF90CF90BF907A
:100BA000AF900895FC01538D448D252F30E0842FA4
:100BB00090E0821B930B541710F0CF960895019785
:100BC0000895FC01918D828D981761F0A28DAE0F72
:100BD000BF2FB11D5D968C91928D9F5F9F73928FF9
:100BE00090E008958FEF9FEF0895FC01918D828D25
:100BF000981731F0828DE80FF11D858D90E00895F2
:100C00008FEF9FEF0895FC01918D228D892F90E049
:100C1000805C9F4F821B91098F739927089581EB08
:100C200094E00E94030621E0892B09F420E0822F42
:100C3000089580E090E0892B29F00E940F06811131
:100C40000C9400000895FC01A48DA80FB92FB11DCC
:100C5000A35ABF4F2C91848D90E001968F739927F2
:100C6000848FA689B7892C93A089B1898C918370D0
:100C700080648C93938D848D981306C00288F389C9
:100C8000E02D80818F7D80830895EF92FF920F93F6
:100C90001F93CF93DF93EC0181E0888F9B8D8C8D28
:100CA00098131AC0E889F989808185FF15C09FB71C
:100CB000F894EE89FF896083E889F98980818370DF
:100CC000806480839FBF81E090E0DF91CF911F918E
:100CD0000F91FF90EF900895F62E0B8D10E00F5FAF
:100CE0001F4F0F731127E02E8C8D8E110CC00FB685
:100CF00007FCFACFE889F989808185FFF5CFCE011D
:100D00000E942306F1CFEB8DEC0FFD2FF11DE35A6E
:100D1000FF4FF0829FB7F8940B8FEA89FB8980819F
:100D20008062CFCFCF93DF93EC01888D8823B9F019
:100D3000AA89BB89E889F9898C9185FD03C08081E6
:100D400086FD0DC00FB607FCF7CF8C9185FFF2CF63
:100D5000808185FFEDCFCE010E942306E9CFDF9190
:100D6000CF910895CF93CFB7F89480918A048111E1
:100D700024C0EDE9F5E08491E1EBF5E09491E82FF2
:100D8000F0E0EE0FFF1FE757FA4FA591B491EC91F9
:100D9000E92321F461E08AE00E9475048AE00E9460
:100DA000DA038CB580618CBD8CB580648CBD8DE020
:100DB0000E94DA038BE00E94DA0380918A048F5F3D
:100DC00080938A04CFBFCF910895CF92DF92EF92A4
:100DD000FF920F931F93CF93DF93FC01E058FF4FD7
:100DE000E080EE2009F458C0EC01C05CDF4FA88120
:100DF000B981109709F450C0FC01EF57FF4FC08034
:100E0000D180F60111810081ED91FC911197019043
:100E1000F081E02D60EFCD01099588819981DC0199
:100E2000ED91FC910190F081E02D69E709958881B1
:100E30009981DC01ED91FC910190F081E02D602F12
:100E4000099588819981DC01ED91FC910190F081F7
:100E5000E02D612F0995F12C01E010E00F5F1F4F8D
:100E6000E016F10639F0B601600F711FCE010E9445
:100E70001C03F4CF88819981DC01ED91FC910190F4
:100E8000F081E02D67EFDF91CF911F910F91FF90DF
:100E9000EF90DF90CF900994DF91CF911F910F9148
:100EA000FF90EF90DF90CF900895009711F00C9491
:100EB000E50608954F925F926F927F928F929F9274
:100EC000AF92BF92CF92DF92EF92FF920F931F9358
:100ED000CF93DF93CDB7DEB768970FB6F894DEBF38
:100EE0000FBECDBFC0908804D09089048090860446
:100EF0009090870440919D0450919E0480918204BB
:100F00009091830400919F041091A004409080046C
:100F100050908104052C000C6608770849865A8693
:100F20006B867C86092C000CAA08BB088D829E82E9
:100F3000AF82B8860D2C000CEE08FF08C982DA8259
:100F4000EB82FC82012E000C220B330B098B1A8BD7
:100F50002B8B3C8B052E000C660B770B4D875E8729
:100F60006F87788B092E000CAA0BBB0B8D8B9E8B89
:100F7000AF8BB88FAE014F5F5F4F68E170E080E1EB
:100F80000E94420368960FB6F894DEBF0FBECDBF35
:100F9000DF91CF911F910F91FF90EF90DF90CF9055
:100FA000BF90AF909F908F907F906F905F904F9089
:100FB0000895FF920F931F93CF93DF93FF24F39431
:100FC000C2E0D0E001E010E08091CC059091CD0529
:100FD000DC01ED91FC910084F185E02D0995892BD0
:100FE00009F4CEC18091CC059091CD05DC01ED9145
:100FF000FC910284F385E02D09959C018F3F9807B1
:1010000019F3982F80919905882309F492C0973F8E
:1010100009F07EC010929905A0919105B0919205BA
:101020006C916137C1F1693709F05CC0E091C60588
:10103000F091C705309741F280919A0590919B05F8
:101040008330910560F430E020E050E040E070E053
:1010500060E08091A8059091A9050995B5CFBD01E3
:101060006D5F7F4F03970E94BB03BC016D5F7F4F95
:1010700080E00E948B03E0919105F09192059F0121
:101080002D5F3F4F428150E0618170E0E091C605E5
:10109000F091C705DECF8091C2059091C305892BE1
:1010A00009F492CFBD016F5F7F4F80919A059091B7
:1010B0009B0501970E94BB03BC016F5F7F4F80E0DF
:1010C0000E948B0360919105709192056F5F7F4F35
:1010D000E091C205F091C3058091AE059091AF05F6
:1010E000099572CFE091C405F091C505309709F4D8
:1010F0006BCF9D012F5F3F4F40919A0550919B050B
:10110000415051098091B0059091B10509955CCF8E
:1011100060919A0570919B05822F0E948B038091AC
:101120009A0590919B05019690939B0580939A0553
:101130004BCF60919705709198056115710509F481
:10114000B1C027FDAFC061507109709398056093DD
:101150009705822F0E948B038091970590919805A7
:10116000892B09F031CF80919505882309F42CCF84
:10117000803D09F483C040F4803949F1803C09F492
:1011800069C01092950520CF843FE1F1853F09F4B5
:101190004DC0803EB1F7E091B405F091B5053097B0
:1011A00081F3A0919105B09192054C9120E8429F66
:1011B000C001112411964C91480F592F511D609177
:1011C000960580919C0590919D050995DACFE09157
:1011D000B605F091B7053097A1F2A0919105B091B5
:1011E00092054C9120E8429FC001112411964C9128
:1011F000480F592F511D6091960580919E05909141
:101200009F05E3CFE091BC05F091BD05309709F44F
:10121000B8CFA0919105B09192054C9150E01196F4
:101220006C918091A4059091A505CFCFE091BE056A
:10123000F091BF05309709F4A4CFA0919105B0912A
:1012400092054C9150E011966C918091A605909179
:10125000A705BBCFE091B805F091B905309709F427
:1012600090CFA0919105B09192054C9150E0609182
:1012700096058091A0059091A105A7CFE091BA05B0
:10128000F091BB05309709F47CCFA0919105B09106
:1012900092054C9150E0609196058091A205909145
:1012A000A30593CF903F30F4822F8F7080939605E3
:1012B000922F907F903FF1F190F4903CB1F150F477
:1012C000903909F081CED0939805C09397059093FB
:1012D00095057ACE903D49F1903EA9F375CE993FA0
:1012E00009F442C028F48CE0890F823060F36CCEA0
:1012F0009F3F09F069CE10929805109297051092C1
:1013000095051092960590E080E02091930530912C
:10131000940582179307A8F4E0919105F091920546
:10132000E80FF91F10820196F0CF109398050093F3
:101330009705CDCFF092990510929B0510929A05D2
:1013400043CE1092990510929B0510929A05E09158
:10135000CA05F091CB058091B2059091B305309705
:1013600009F432CE099530CEE091C805F091C90557
:10137000309709F429CE8091AA059091AB05F2CF60
:10138000DF91CF911F910F91FF9008958EBD0000C6
:101390000DB407FEFDCF8EB50895CF93C82F0E94E0
:1013A000A8048091150681600E94C6098C2F0E94B6
:1013B000C60980E00E94C609C82F0E94A3048C2F92
:1013C000CF910895CF93DF93D82FC62F0E94A80402
:1013D000809115060E94C6098D2F0E94C6098C2F88
:1013E0000E94C609DF91CF910C94A304CF93DF93A1
:1013F000D82FC62F8AE00E94CD0961E070E00D2E43
:1014000001C0660F0A94EAF7609568238C2F01C02B
:10141000880FDA95EAF7682B8AE0DF91CF910C9478
:10142000E2091F93CF93DF93C1E0D0E001C0CC0F5E
:101430008A95EAF71C2F109580E0613091F00E94A8
:10144000CD096C2F682B80E00E94E20986E00E94A3
:10145000CD09682F612386E0DF91CF911F910C9415
:10146000E2090E94CD09C0956C2F6823ECCFEF9262
:10147000FF920F931F93CF93DF93EC010B811C819D
:101480006017710708F48B01E980FA808D819E81D5
:1014900001969E838D83019781F48CB58F7D8CBDE1
:1014A0008CB5837F8CBD8CB583608CBD8DB58E7FF4
:1014B0008DBD60E088810E94750484E0EE0CFF1C05
:1014C0008A95E1F76894E1F811701E29812F0E9436
:1014D000C609FF24F39481FD14C0F12C8D819E81F7
:1014E00001979E838D83892B21F461E088810E947E
:1014F00075048F2DDF91CF911F910F91FF90EF9089
:101500000895802F0E94C609E9CF4F925F926F9293
:101510007F928F929F92AF92BF92CF92DF92EF9283
:10152000FF92CF93DF93CDB7DEB764970FB6F894F1
:10153000DEBF0FBECDBF20E12093810029985D98CA
:101540005E985B9890938904809388041816190616
:101550000CF03FC1BC01A0909F04B090A004072EE6
:10156000000C880B990B0E94BE1A20E030E040E787
:1015700052E40E94DA1920E030E040E05FE30E948C
:101580000B1C9B01AC0160E070E080E89FE30E94CF
:10159000DA1920E030E04AE754E40E940B1C0E9474
:1015A0008D1A709361046093600490E080E00E9463
:1015B000BC1A6B017C01B501BB0C880B990B0E9416
:1015C000BE1A9B01AC010E94691920E030E044E39F
:1015D00054E40E94DA19A70196010E940B1C4B01EA
:1015E0005C0120E030E040E85EE3C701B6010E9404
:1015F0000B1C69877A878B879C8720E030E040E06E
:101600005FE3C701B6010E940B1C6D877E878F8741
:10161000988B20E030E040E45FE3C701B6010E9410
:101620000B1C698B7A8B8B8B9C8B20E030E0A901A3
:10163000C501B4010E94691969837A838B839C83F5
:101640009B01AC01C701B6010E94D51987FF0CC0F0
:10165000A701960169817A818B819C810E9468191A
:1016600069837A838B839C8329853A854B855C8546
:10167000C501B4010E9469196D837E838F839887A9
:101680009B01AC01C701B6010E94D51987FF0CC0B0
:10169000A70196016D817E818F8198850E946819CE
:1016A0006D837E838F8398872D853E854F855889EE
:1016B000C501B4010E9469192B013C01AC019B01D9
:1016C000C701B6010E94D51987FF08C0A70196017E
:1016D000C301B2010E9468192B013C0129893A8992
:1016E0004B895C89C501B4010E9469194B015C01F9
:1016F000AC019B01C701B6010E94D51987FF08C044
:10170000A7019601C501B4010E9468194B015C0153
:1017100010925F0410925E0469817A818B819C81B2
:101720000E948D1A70935D0460935C0469857A85CC
:101730008B859C850E948D1A70935B0460935A047C
:101740006D817E818F8198850E948D1A70935904D6
:10175000609358046D857E858F8598890E948D1AC7
:101760007093570460935604C301B2010E948D1A0E
:10177000709355046093540469897A898B899C8994
:101780000E948D1A7093530460935204C501B401F2
:101790000E948D1A70935104609350041092630458
:1017A0001092620481E08093A10480E49FE1909311
:1017B00087008093860081E18093810010928100F0
:1017C00010928500109284008091A1048061809322
:1017D000810064960FB6F894DEBF0FBECDBFDF91D7
:1017E000CF91FF90EF90DF90CF90BF90AF909F9000
:1017F0008F907F906F905F904F900895EF92FF923F
:101800000F931F93CF93DF93EC017B01842F89010A
:101810009881911114C00E944C04892B49F40E94B4
:10182000B004F701608371838283938381E08883AE
:10183000DF91CF911F910F91FF90EF9008950E943B
:101840004C04892BA9F318820E94B004F70120816F
:101850003181621B730B6D3DF5E07F0748F3F801A2
:1018600071836083E5CFCF93DF93893E23E09207B6
:1018700014F088EE93E097FF02C090E080E0ECE087
:10188000F1E0D0E0C0E040815181841795071CF160
:101890004281538148175907F4F083E0CC0FDD1FD4
:1018A0008A95E1F7FE01E45FFE4F8481958161E056
:1018B000019709F060E083E00E94F609C45FDE4F03
:1018C0008E819F8161E0019709F060E082E0DF9105
:1018D000CF910C94F60921963896C832D10599F625
:1018E000DF91CF910895CF93DF93EC01459734F4C6
:1018F00061E084E00E94F60960E008C060E084E0F6
:101900000E94F60961E0CA32D340B4F385E0DF916A
:10191000CF910C94F609CF92DF92EF92FF926B0178
:101920007C010E9408056C157D058E059F05C0F0A1
:101930009B01AC012C193D094E095F0969017A012F
:10194000C094D094E094F094CC24F7FCC394DD24AC
:10195000EE24FF248C2DFF90EF90DF90CF90089520
:10196000C61AD70AE80AF90AEFCFEF92FF920F934F
:101970001F93CF93DF93CDB7DEB7C058D1090FB611
:10198000F894DEBF0FBECDBF9E0127573F4FF90130
:10199000419151919F0160E870E08E010F5F1F4FF0
:1019A000C8010E94A71E7C01F80101900020E9F700
:1019B0003197BF01601B710BA80181E70E944203B0
:1019C000C701C058DF4F0FB6F894DEBF0FBECDBFC2
:1019D000DF91CF911F910F91FF90EF9008954F925B
:1019E0005F926F927F928F929F92AF92BF92CF92AF
:1019F000DF92EF92FF920F931F93CF93DF9300D06C
:101A000000D0CDB7DEB78636910514F085E690E0BC
:101A10008F30910514F48FE090E0909387048093C9
:101A200086049C012052310945E0429FC001439F3A
:101A3000900D112469E070E00E943A19072E000C05
:101A4000880B990B0E94BE1A23E333E948E853E45C
:101A50000E9469199B01AC0160E070E080E89FE39F
:101A60000E94DA199B01AC0169EE7EE98AEA9AE3E9
:101A70000E94681921EE31EC49E354E30E94DA191F
:101A80006B017C01AC019B010E940B1C20E030E04B
:101A900040E85EE30E940B1C21E23EE44CEE5CE475
:101AA0000E9469190E94CE1C4B015C0120E030E0CD
:101AB00040E05FE3C701B6010E940B1C6B017C0193
:101AC000AC019B01C501B4010E9468192BEA3AEAF6
:101AD0004AEA5EE30E94781C2B013C01A7019601B3
:101AE000C501B4010E9469192BEA3AEA4AEA5EE3A9
:101AF0000E94781C9B01AC01C301B2010E946819CD
:101B00000E94541A0E94861A7B0144E050E065E668
:101B100071E0CE0101960E94CE188B819C818E15BA
:101B20009F0530F1698170E00A8110E08091A40482
:101B30009091A5040E94370AB8018091A204909167
:101B4000A3040E94370A0F900F900F900F90DF911F
:101B5000CF911F910F91FF90EF90DF90CF90BF90AA
:101B6000AF909F908F907F906F905F904F9008956F
:101B700005E611E081E6C82E85E0D82E44E050E06D
:101B8000B801CE0101960E94CE188B819C818E15E2
:101B90009F0540F60C5F1F4FC016D10679F744E051
:101BA00050E06DE575E0CE0101960E94CE18BACFE7
:101BB0004F925F926F927F928F929F92AF92BF925D
:101BC000CF92DF92EF92FF920F931F93CF93DF9309
:101BD00000D01F92CDB7DEB78132910514F080E2BC
:101BE00090E08B3E2FEF920714F48BEE9FEF9093D3
:101BF0008104809380049C012052310945E0429F7A
:101C0000C001439F900D112469E070E00E943A19D1
:101C1000072E000C880B990B0E94BE1A23E333E9B0
:101C200048E853E40E9469199B01AC0160E070E050
:101C300080E89FE30E94DA199B01AC0160E075ED3A
:101C40008CEE9AE30E9468192AE736E145E255E3F3
:101C50000E94DA196B017C01AC019B010E940B1CF4
:101C600020E030E040E85EE30E940B1C28EE3BE4FD
:101C70004DE25AE40E9469190E94CE1C4B015C019E
:101C800020E030E040E05FE3C701B6010E940B1C9A
:101C90006B017C01AC019B01C501B4010E94681974
:101CA0002BEA3AEA4AEA5EE30E94781C2B013C01E7
:101CB000A7019601C501B4010E9469192BEA3AEA0D
:101CC0004AEA5EE30E94781C9B01AC01C301B201A9
:101CD0000E9468190E94541A0E94861A7B0143E0F0
:101CE00050E06AEE70E0CE0101960E94CE188A8123
:101CF0009B818E159F05E0F0698170E08091A604BC
:101D00009091A7040E94370A0F900F900F90DF91D7
:101D1000CF911F910F91FF90EF90DF90CF90BF90E8
:101D2000AF909F908F907F906F905F904F900895AD
:101D30000AEE10E043E050E0B801CE0101960E94A7
:101D4000CE188A819B818E159F05B0F60D5F1F4FBF
:101D500081E00536180771F743E050E062E671E074
:101D6000CE0101960E94CE18C7CF8F929F92AF925C
:101D7000BF92CF92DF92EF92FF920F931F93CF9378
:101D8000DF93CDB7DEB760970FB6F894DEBF0FBE16
:101D9000CDBF609198047091990480919A049091BC
:101DA0009B040E948B0C882301F181E10E944C046A
:101DB00061E0019709F460E081E10E94750480917F
:101DC000880490918904181619060CF02BC20E9401
:101DD000080566507F4F8F4F9F4F60939804709314
:101DE000990480939A0490939B0428E734E042E09E
:101DF00063E774E087E794E00E94FE0B2AE734E093
:101E000047E06EE674E082E794E00E94FE0B2CE768
:101E100034E044E069E674E08DE694E00E94FE0B55
:101E20002EE734E04EE064E674E088E694E00E9439
:101E3000FE0B6091940470919504809196049091AA
:101E400097040E948B0C882309F450C090917E0463
:101E500080917F0430917C0420917D0450917A041C
:101E600040917B04709178046091790479836A834E
:101E70005B834C833D832E839F838887AE014F5FB6
:101E80005F4F68E070E085E10E94420389E00E94B4
:101E9000CD0986FB882780F98983AE014F5F5F4FAC
:101EA00061E070E083E10E94420389E00E94CD0975
:101EB00090E0880F892F881F990B21E08227898362
:101EC000AE014F5F5F4F61E070E084E10E9442032A
:101ED0000E9408056C507E4F8F4F9F4F6093940473
:101EE00070939504809396049093970480919C043A
:101EF000882361F160919004709191048091920423
:101F0000909193040E948B0C882301F10E94761813
:101F100024E130E040E050E00E94D718DC01CB0122
:101F200083539F4FAF4FBF4F0E94850A0E945A07AD
:101F30000E94080568537F4F8F4F9F4F6093900416
:101F400070939104809392049093930480912A0655
:101F5000882309F454C16091310670913206809152
:101F60003306909134060E948B0C882381F00E94E6
:101F70005A070E940805625E7F4F8F4F9F4F609304
:101F80003106709332068093330690933406609145
:101F90002B0670912C0680912D0690912E060E94A2
:101FA0008B0C882309F42BC100912F061091300669
:101FB0000F5F1F4F1093300600932F06E0901C0612
:101FC000F0901D06E114F10471F1B80190E080E099
:101FD0000E94BC1A4B015C01B701FF0C880B990BE6
:101FE0000E94BE1A9B01AC01C501B4010E940B1CEA
:101FF00020E030E040E251E40E94DA196B017C01FC
:1020000060911A0670911B0690E080E00E94BC1A55
:102010009B01AC01C701B6010E9469190E94861A92
:10202000CB010E94850AE0902006F0902106E11481
:10203000F10481F1B80190E080E00E94BC1A4B01EC
:102040005C01B701FF0C880B990B0E94BE1A9B0123
:10205000AC01C501B4010E940B1C20E030E048EC4B
:1020600052E40E94DA196B017C0160911E067091A6
:102070001F06072E000C880B990B0E94BE1A9B01AD
:10208000AC01C701B6010E9469190E94861ACB01F2
:102090000E94D80D00912406109125060115110506
:1020A00099F160912F067091300690E080E00E94D7
:1020B000BC1A6B017C01B801110F880B990B0E94AF
:1020C000BE1A9B01AC01C701B6010E940B1C20E0A7
:1020D00030E048EC52E40E94DA196B017C01609117
:1020E000220670912306072E000C880B990B0E9484
:1020F000BE1A9B01AC01C701B6010E9469190E947A
:10210000861ACB010E94EF0C80912606909127063B
:102110008F3F980709F452C0209128063091290674
:102120002F3F3F4F09F44AC060911806709119067D
:1021300040912F0650913006649F9001659F300DAD
:10214000749F300D11242817390788F089E00E9408
:10215000CD0986FD0CC061E086E00E94F6098EE59F
:1021600092E09F938F930E94B50C0F900F90409137
:102170002F06509130068091180690911906489FBD
:102180009001499F300D589F300D112480912806F1
:10219000909129062817390788F089E00E94CD0917
:1021A00086FF0CC060E086E00E94F60989E692E0B6
:1021B0009F938F930E94B50C0F900F9020912F0644
:1021C000309130068091160690911706281739072E
:1021D00009F048C010922A0685E792E09F938F93FA
:1021E0000E94B50C1982AE014F5F5F4F61E070E055
:1021F0008CE10E9442030E945A070F900F90609654
:102200000FB6F894DEBF0FBECDBFDF91CF911F9107
:102210000F91FF90EF90DF90CF90BF90AF909F9085
:102220008F90089510927F0410927E0410927D0486
:1022300010927C0410927B0410927A04109279041C
:10224000109278041982AE014F5F5F4F61E070E039
:1022500084E10E9442030E94080568517C4F8F4F21
:102260009F4FBBCD0E94080520911806309119069A
:10227000620F731F811D911D60932B0670932C06B6
:1022800080932D0690932E06BACF4F925F926F9255
:102290007F92AF92BF92CF92DF92EF92FF920F9315
:1022A0001F93CF93DF931F92CDB7DEB78C01809140
:1022B0009D0490919E048017910701F50115110569
:1022C00021F490E080E00E94330C8AE0282F209FC8
:1022D000C001219F900D11240E94730C0F90DF917B
:1022E000CF911F910F91FF90EF90DF90CF90BF9013
:1022F000AF907F906F905F904F90089580179107F7
:10230000BCF510928504109284042AE0209F60019D
:10231000219FD00C11244091840450918504452BB9
:1023200009F040C0289F7001299FF00C11248AE019
:10233000A82EB12CCE14DF040CF446C0C7010E94B5
:10234000730CC7010E94330C0E9408052B013C014D
:1023500023E0420E511C611C711CC301B2010E949A
:102360008B0C81110CC00E94D9070E94B50EF5CFCD
:1023700021E030E03093850420938404C6CFC70168
:10238000B5010E943A196983AE014F5F5F4F61E06A
:1023900070E082E10E9442030E94D9078FEFE81AA1
:1023A000F80AC8CF60E083E00E94F60960E082E0AE
:1023B0000E94F609C6010E94730C0115110521F453
:1023C00090E080E00E94330C10939E0400939D04E3
:1023D00085CFEF92FF920F931F93CF93DF937B01F3
:1023E0008A01E9010E94850AC7010E94EF0CC80119
:1023F0000E944511D0938304C093820410929C04E0
:10240000DF91CF911F910F91FF90EF90089510925F
:102410009C0430E020E050E040E060E270E090E0BA
:1024200080E00E94E91160E086E00C94F6098F924A
:102430009F92AF92BF92CF92DF92EF92FF920F9353
:102440001F93CF93DF931F92CDB7DEB7182F062FC0
:102450007A018B3009F41DC108F06CC0853009F495
:10246000B3C198F5823009F46DC1B8F4813009F434
:10247000FEC0602F70E0A701812F0E9442030F90E1
:10248000DF91CF911F910F91FF90EF90DF90CF9050
:10249000BF90AF909F908F900895833009F45FC1F3
:1024A000843039F710929C042FE030E050E040E097
:1024B00060E270E080EB94E00E94E91160E086E069
:1024C0000E94F60988E693E041C1883009F4A2C170
:1024D000C0F4863009F48BC1873059F610929C0401
:1024E0002BE030E049E150E069EB70E088EB9BE0E5
:1024F0000E94E91160E086E00E94F6098BE893E013
:1025000025C1893009F499C18A3009F0B2CF1092FF
:102510009C0422E030E04FE550E069EB70E080E79A
:1025200097E10E94E91160E086E00E94F60985ECDF
:1025300093E00CC1863109F4EBC078F58D3009F4D5
:10254000D6C008F4BCC08E3009F4C5C08F3009F085
:1025500090CFFA01D0808D2D90E0873291050CF458
:10256000D4C09093A00480939F0480919F04909185
:10257000A0048234914034F081E491E09093A0046F
:1025800080939F0480918804909189040E94850A19
:102590001F92DF9285EE92E087C08A3109F46AC00B
:1025A00008F053C0873109F4EDC0883109F061CFDC
:1025B000FA0180819181909317068093160682809C
:1025C00093809092190680921806C480D580D0928C
:1025D0001B06C0921A06A680B780B0921D06A09274
:1025E0001C068085918590931F0680931E06828528
:1025F00093859093210680932006848595859093FA
:1026000023068093220686859785909325068093DE
:1026100024068089918990932706809326068289D3
:102620009389909329068093280680912A0688230F
:1026300009F416C187ED93E09F938F930E94B50C28
:102640000F900F908AE094E081C08B3109F432C181
:10265000803F09F00ECF80918D048983AE014F5FDA
:102660005F4F61E070E081EF0E94420302CF0E9461
:102670005A07FFCE40918E0450918F04FA010190C9
:102680000020E9F73197BF01641B750B772789E1BB
:10269000EBCFFA01D080C1808D2D9C2D0E94EF0CD4
:1026A000CF92DF9289E892E09F938F930E94B50CBE
:1026B0000E945A070F900F900F900F90DACEFA01F8
:1026C000D080C1808D2D9C2D0E94D80DCF92DF929D
:1026D00082EA92E0E9CFFA01D080C1808D2D9C2D55
:1026E0000E944511CF92DF9287EB92E0DDCF1092EE
:1026F0009C04FA01D080C1808D2D9C2D0E94850AFA
:10270000CF92DF928AEC92E0CFCF87E290E029CFA0
:10271000FA018081882379F061E086E00E94F60961
:1027200086E692E09F938F9385E093E09F938F934B
:102730000E94B50CBFCF60E086E00E94F60981E3FD
:1027400093E0F0CF0E94071283E293E09F938F9370
:102750000E94B50C0E945A070F900F908ACE1092DB
:102760009C0430E020E050E040E060E270E082E372
:1027700090E00E94E91161E086E00E94F60985E39D
:1027800093E0E4CF30E020E050E040E060E270E031
:1027900087ED90E00E94E91161E086E00E94F60971
:1027A00081E080939C040E94080568537F4F8F4FFF
:1027B0009F4F609390047093910480939204909340
:1027C000930485E493E0C2CF10929C042FE030E0A4
:1027D00050E040E069EB70E08CEB92E00E94E91180
:1027E00060E086E00E94F60982E793E0AFCF1092A6
:1027F0009C042BE030E041E150E069EB70E088E7B9
:1028000095E00E94E91160E086E00E94F6098BE7FE
:1028100093E09CCF10929C0429E030E04EE150E020
:1028200069EB70E088E097E00E94E91160E086E0E3
:102830000E94F6098BE993E089CF10929C0427E06F
:1028400030E042E350E069EB70E08CEA9DE00E94EA
:10285000E91160E086E00E94F6098FEA93E076CF06
:1028600081E080932A060E940805680D791D811D6C
:10287000911D60932B0670932C0680932D069093E8
:102880002E060E940805625E7F4F8F4F9F4F609318
:10289000310670933206809333069093340610927B
:1028A000300610922F06AB2809F4CCCEC6010E9448
:1028B000850AC8CE10922A068FE194E047CF1F9276
:1028C0000F920FB60F9211242F933F938F939F93E4
:1028D000AF93BF938091A9049091AA04A091AB04F7
:1028E000B091AC043091A80423E0230F2D3758F5A4
:1028F0000196A11DB11D2093A8048093A904909373
:10290000AA04A093AB04B093AC048091AD04909161
:10291000AE04A091AF04B091B0040196A11DB11D09
:102920008093AD049093AE04A093AF04B093B00431
:10293000BF91AF919F918F913F912F910F900FBEBB
:102940000F901F90189526E8230F0296A11DB11D28
:10295000D2CF1F920F920FB60F9211242F933F9355
:102960004F935F936F937F938F939F93AF93BF9397
:10297000EF93FF9381EB94E00E942306FF91EF9188
:10298000BF91AF919F918F917F916F915F914F9187
:102990003F912F910F900FBE0F901F9018951F928F
:1029A0000F920FB60F9211242F938F939F93EF9353
:1029B000FF93E091C104F091C2048081E091C704CB
:1029C000F091C80482FD1BC090818091CA048F5F82
:1029D0008F732091CB04821741F0E091CA04F0E09C
:1029E000EF54FB4F958F8093CA04FF91EF919F9115
:1029F0008F912F910F900FBE0F901F90189580818F
:102A0000F4CF1F920F920FB60F9211242F933F9382
:102A10004F935F936F937F938F939F93AF93BF93E6
:102A2000EF93FF93E0910001F09101010995FF916F
:102A3000EF91BF91AF919F918F917F916F915F9136
:102A40004F913F912F910F900FBE0F901F901895AF
:102A5000E1EBF4E01382128288EE93E0A0E0B0E0B4
:102A600084839583A683B78380E592E091838083F6
:102A700085EC90E09587848784EC90E09787868743
:102A800080EC90E0918B808B81EC90E0938B828B3B
:102A900082EC90E0958B848B86EC90E0978B868B14
:102AA000118E128E138E148E8EE495E010928F0587
:102AB00010928E05909392058093910520E430E06A
:102AC00030939405209393051092950510929605E6
:102AD00010929805109297051092990510929B05F7
:102AE00010929A0510929D0510929C0510929F05D8
:102AF00010929E051092A1051092A0051092A305B8
:102B00001092A2051092A5051092A4051092A70597
:102B10001092A6051092AD051092AC051092AF056B
:102B20001092AE051092B1051092B0051092B30547
:102B30001092B2051092C1051092C0051092900536
:102B40001092CE051092D0051092CF051092130668
:102B500029E033E03093B5052093B4052AE033E053
:102B60003093B7052093B6052BE033E03093B905D9
:102B70002093B8052CE033E03093BB052093BA05D1
:102B80002DE033E03093BD052093BC052EE033E00B
:102B90003093BF052093BE052FE033E03093C3058B
:102BA0002093C20520E133E03093C5052093C4058E
:102BB00025E537E03093C7052093C6059093A90516
:102BC0008093A8052EE935E03093C9052093C80508
:102BD0009093AB058093AA058BE193E09093CB058E
:102BE0008093CA0510922A06E4E1F6E080E1808332
:102BF00080E481830895789484B5826084BD84B52F
:102C0000816084BD85B5826085BD85B5816085BDE7
:102C100080916E00816080936E001092810080919F
:102C20008100826080938100809181008160809327
:102C30008100809180008160809380008091B1004C
:102C400084608093B1008091B00081608093B00077
:102C500080917A00846080937A0080917A0082600B
:102C600080937A0080917A00816080937A008091CD
:102C70007A00806880937A001092C10084E394E027
:102C800090938F0480938E0481E080938D0488E07C
:102C90008093CE058091CF059091D0050E940F1EA4
:102CA000C091CE05D0E0CE0101960E94731D909395
:102CB000D0058093CF05FC01EC0FFD1F108212E0C0
:102CC000FC0110831183AE014250510964E474E0A9
:102CD00002960E94981E87E192E190938C04809363
:102CE0008B04E091C104F091C2041083E091C1040F
:102CF000F091C2041082E091BD04F091BE041082F4
:102D0000E091BF04F091C00480E180831092C90477
:102D1000E091C504F091C60486E08083E091C3048D
:102D2000F091C404808180618083E091C304F091BC
:102D3000C404808188608083E091C304F091C4045E
:102D4000808180688083E091C304F091C404808115
:102D50008F7D80838091130681114EC08DE00E948B
:102D6000DA0362ED70E080E090E00E94D50461E05B
:102D70008DE00E94750468E270E080E090E00E94BF
:102D8000D50460E08DE00E94750462ED70E080E0A3
:102D900090E00E94D50461E08DE00E94750468E235
:102DA00070E080E090E00E94D50460E08DE00E9439
:102DB00075046AEF70E080E090E00E94D504C5E001
:102DC00062ED70E080E090E00E94D50461E08DE06B
:102DD0000E94750468E270E080E090E00E94D504F3
:102DE00060E08DE00E947504C15051F76DE770E01E
:102DF00080E090E00E94D50481EB94E09093CD05B3
:102E00008093CC0590938F0580938E058EE895E096
:102E10000E94F9038EE495E00E94E50681E10E949C
:102E2000DA0361E081E10E947504219A2998559A9C
:102E30005D98569A5E98539A5B9883E10E94DA03F4
:102E400061E083E10E94750482E10E94DA0361E09F
:102E500082E10E94750488E00E94DA0361E088E064
:102E60000E94750480E10E94DA0361E080E10E9423
:102E7000750487E090E00E94731DEC0183E1888374
:102E80001A82198200E810E01C830B831E821D82C7
:102E90000E94B20688810E94DA0361E088810E9464
:102EA0007504D093A704C093A60487E090E00E9425
:102EB000731DEC0182E188831A8219821C830B83C3
:102EC0001E821D820E94B20688810E94DA0361E0A0
:102ED00088810E947504D093A504C093A40487E060
:102EE00090E00E94731DEC0188E088831A821982A9
:102EF0001C830B831E821D820E94B20688810E9461
:102F0000DA0361E088810E947504D093A304C09322
:102F1000A20461E082E00E94110A61E083E00E9465
:102F2000110A61E084E00E94110A61E085E00E94DC
:102F3000110A61E086E00E94110A60E087E00E94C9
:102F4000110A6CE386E00E94E20960E086E00E94DC
:102F5000F60980E1809381001092800091E09093C7
:102F6000A104109287001092860021E12093810035
:102F700024E135E0309301012093000190936F002C
:102F80008093810087E890E09093A00480939F0451
:102F900010929E0410929D0410929C0486E48093EB
:102FA0007C0080917A00806480937A0080917A001E
:102FB00086FDFCCF8091780060917900762F682F94
:102FC000072E000C880B990B611571058105910581
:102FD00011F00E94C5180E94071280E290E00E9442
:102FE000D80D0E94080568517C4F8F4F9F4F60930A
:102FF00098047093990480939A0490939B040E9480
:1030000008056C507E4F8F4F9F4F609394047093D0
:10301000950480939604909397040E940805685342
:103020007F4F8F4F9F4F60939004709391048093D4
:10303000920490939304C0E0D0E00E94D9070E94CC
:10304000B50E2097D1F30E940F068823B1F30E949A
:103050000000F3CF8F929F92AF92BF92CF92DF92F8
:10306000EF92FF92CF93DF93EC01688179818A819F
:103070009B81611571058105910521F464E279ED6B
:103080008BE597E02DE133EF41E050E00E94D71847
:1030900049015A019B01AC01A7EAB1E40E94F6186C
:1030A0006B017C01ACEEB4EFA50194010E94041900
:1030B000C60ED71EE81EF91EF7FE06C081E0C81A2C
:1030C000D108E10880E8F80AC882D982EA82FB8246
:1030D000C701B6019F77DF91CF91FF90EF90DF900E
:1030E000CF90BF90AF909F908F9008958F929F92B6
:1030F000AF92BF92CF92DF92EF92FF926091020166
:103100007091030180910401909105016115710591
:103110008105910521F464E279ED8BE597E02DE1DD
:1031200033EF41E050E00E94D71849015A019B015A
:10313000AC01A7EAB1E40E94F6186B017C01ACEE89
:10314000B4EFA50194010E940419C60ED71EE81E13
:10315000F91EF7FE06C081E0C81AD108E10880E830
:10316000F80AC0920201D0920301E0920401F092A9
:103170000501C701B6019F77FF90EF90DF90CF90D8
:10318000BF90AF909F908F900895609302017093CD
:10319000030180930401909305010895FB01DC0174
:1031A00002C005900D9241505040D8F70895052E69
:1031B00097FB1EF400940E94EE1857FD07D00E9462
:1031C000091907FC03D04EF40C94EE185095409565
:1031D000309521953F4F4F4F5F4F089590958095C3
:1031E000709561957F4F8F4F9F4F08950E942B19C7
:1031F000A59F900DB49F900DA49F800D911D11244B
:103200000895B7FF0C94F6180E94F618821B930BD2
:103210000895A1E21A2EAA1BBB1BFD010DC0AA1F17
:10322000BB1FEE1FFF1FA217B307E407F50720F02F
:10323000A21BB30BE40BF50B661F771F881F991FAA
:103240001A9469F760957095809590959B01AC01F3
:10325000BD01CF010895A29FB001B39FC001A39FFC
:10326000700D811D1124911DB29F700D811D1124BF
:10327000911D089597FB072E16F4009407D077FD53
:1032800009D00E944E1907FC05D03EF49095819517
:103290009F4F0895709561957F4F0895AA1BBB1BA2
:1032A00051E107C0AA1FBB1FA617B70710F0A61B46
:1032B000B70B881F991F5A95A9F780959095BC0167
:1032C000CD010895EE0FFF1F0590F491E02D0994B4
:1032D0005058BB27AA270E9480190C945B1B0E94A0
:1032E0004D1B38F00E94541B20F039F49F3F19F415
:1032F00026F40C94231B0EF4E095E7FB0C941D1BA5
:10330000E92F0E946C1B58F3BA17620773078407F2
:10331000950720F079F4A6F50C948E1B0EF4E09539
:103320000B2EBA2FA02D0B01B90190010C01CA017F
:10333000A0011124FF27591B99F0593F50F4503E2A
:1033400068F11A16F040A22F232F342F4427585F1C
:10335000F3CF469537952795A795F0405395C9F734
:103360007EF41F16BA0B620B730B840BBAF09150EC
:10337000A1F0FF0FBB1F661F771F881FC2F70EC08B
:10338000BA0F621F731F841F48F48795779567955E
:10339000B795F7959E3F08F0B0CF9395880F08F04A
:1033A0009927EE0F9795879508950E94F91A08F4CA
:1033B00081E008950E94EE190C945B1B0E94541B3F
:1033C00058F00E944D1B40F029F45F3F29F00C9407
:1033D0001D1B51110C948F1B0C94231B0E946C1B02
:1033E00068F39923B1F3552391F3951B550BBB2734
:1033F000AA2762177307840738F09F5F5F4F220F79
:10340000331F441FAA1FA9F335D00E2E3AF0E0E86F
:1034100032D091505040E695001CCAF72BD0FE2FB9
:1034200029D0660F771F881FBB1F2617370748074D
:10343000AB07B0E809F0BB0B802DBF01FF27935805
:103440005F4F3AF09E3F510578F00C941D1B0C9491
:103450008F1B5F3FE4F3983ED4F38695779567958D
:10346000B795F7959F5FC9F7880F911D969587953A
:1034700097F90895E1E0660F771F881FBB1F621759
:1034800073078407BA0720F0621B730B840BBA0B17
:10349000EE1F88F7E095089529F416F00C941D1B93
:1034A0000C948E1B0C94231B0E94741BA8F396385B
:1034B000A0F707F80F92E8942BE33AEA48EB5FE7AE
:1034C0000E94211C0F920F920F924DB75EB70F9280
:1034D0000E94D71BE8E6F0E00E94261B4F915F9107
:1034E000EF91FF91E595EE1FFF1F49F0FE57E06851
:1034F0004427EE0F441FFA95E1F74195550B0E94C2
:10350000A11B0F9007FE0C94951B08950E948D1A25
:103510006894B1110C948F1B08950E94741B88F05D
:103520009F5798F0B92F9927B751B0F0E1F0660F87
:10353000771F881F991F1AF0BA95C9F714C0B130C8
:1035400091F00E948E1BB1E008950C948E1B672FA2
:10355000782F8827B85F39F0B93FCCF386957795F7
:103560006795B395D9F73EF49095809570956195E0
:103570007F4F8F4F9F4F0895E89409C097FB3EF40B
:1035800090958095709561957F4F8F4F9F4F9923B0
:10359000A9F0F92F96E9BB279395F695879577952E
:1035A0006795B795F111F8CFFAF4BB0F11F460FFEE
:1035B0001BC06F5F7F4F8F4F9F4F16C0882311F046
:1035C00096E911C0772321F09EE8872F762F05C05A
:1035D000662371F096E8862F70E060E02AF09A95F5
:1035E000660F771F881FDAF7880F9695879597F9EA
:1035F0000895990F0008550FAA0BE0E8FEEF161684
:103600001706E807F907C0F012161306E407F507D6
:1036100098F0621B730B840B950B39F40A2661F04A
:10362000232B242B252B21F408950A2609F4A140ED
:10363000A6958FEF811D811D089597F99F6780E8FA
:1036400070E060E008959FEF80EC0895DF93CF93E2
:103650001F930F93FF92EF92DF927B018C0168948E
:1036600006C0DA2EEF010E941E1CFE01E894A5910F
:103670002591359145915591A6F3EF010E9480194E
:10368000FE019701A801DA9469F7DF90EF90FF90AF
:103690000F911F91CF91DF91089500240A9416167F
:1036A000170618060906089500240A941216130630
:1036B000140605060895092E0394000C11F48823BE
:1036C00052F0BB0F40F4BF2B11F460FF04C06F5FDA
:1036D0007F4F8F4F9F4F089557FD9058440F551FB0
:1036E00059F05F3F71F04795880F97FB991F61F084
:1036F0009F3F79F087950895121613061406551FFB
:10370000F2CF4695F1DF08C0161617061806991F66
:10371000F1CF86957105610508940895E894BB275B
:1037200066277727CB0197F908959B01AC0160E0EC
:1037300070E080E89FE30C94DA190C941D1B0C9444
:103740000E1D0E94741BD8F39923C9F3940F511DC9
:10375000A3F39150504094F059F0882332F0660F53
:10376000771F881F91505040C1F79E3F51052CF79D
:10377000880F911D9695879597F908955F3FACF056
:10378000983E9CF0BB27869577956795B79508F48A
:10379000B1609395C1F7BB0F58F711F460FFE8CF04
:1037A0006F5F7F4F8F4F9F4FE3CF0C948F1BFA01BA
:1037B000DC01AA0FBB1F9B01AC01BF5728F42227D5
:1037C00033274427507820C0B75190F4AB2F002402
:1037D000469537952795011CA395D2F3002071F0EB
:1037E000220F331F441FB395DAF30ED00C946819DF
:1037F00061307105A0E88A07B94630F49B01AC013D
:103800006627772788279078309621F020833183A8
:103810004283538308950E941E1C0C945B1B0E94DC
:103820004D1B38F00E94541B20F0952311F00C948E
:103830001D1B0C94231B11240C948F1B0E946C1BCA
:1038400070F3959FC1F3950F50E0551F629FF001F3
:10385000729FBB27F00DB11D639FAA27F00DB11D0C
:10386000AA1F649F6627B00DA11D661F829F222795
:10387000B00DA11D621F739FB00DA11D621F839F1C
:10388000A00D611D221F749F3327A00D611D231FF2
:10389000849F600D211D822F762F6A2F11249F5740
:1038A00050409AF0F1F088234AF0EE0FFF1FBB1F43
:1038B000661F771F881F91505040A9F79E3F510502
:1038C00080F00C941D1B0C948F1B5F3FE4F3983E1B
:1038D000D4F3869577956795B795F795E7959F5FAC
:1038E000C1F7FE2B880F911D9695879597F908953E
:1038F000FA01EE0FFF1F309621053105A1F1611588
:10390000710561F48038BFE39B0749F168949038F2
:10391000810561F08038BFEF9B0741F099234AF59C
:10392000FF3FE1053105210519F1E8940894E79579
:10393000D901AA2329F4AB2FBE2FF85FD0F310C012
:10394000FF5F70F4A695E0F7F73950F019F0FF3AF1
:1039500038F49F779F930DD00F9007FC90580895EF
:1039600046F00C94231B60E070E080E89FE308952C
:103970004FE79F775F934F933F932F930E942B1DA9
:103980002F913F914F915F910E940B1C0C94541A00
:1039900019F416F40C94231B0C940E1D0E94741B36
:1039A000B8F39923C9F3B6F39F57550B87FF0E94CD
:1039B0001C1D0024A0E640EA90018058569597957A
:1039C00028F4805C660F771F881F20F026173707C2
:1039D000480730F4621B730B840B202931294A2BD2
:1039E000A69517940794202531254A2758F7660F86
:1039F000771F881F20F026173707480730F4620B1F
:103A0000730B840B200D311D411DA09581F7B90169
:103A1000842F9158880F9695879508959F3F31F090
:103A2000915020F4879577956795B795880F911DEC
:103A30009695879597F9089591505040660F771F96
:103A4000881FD2F7089516F00C940E1D0C94231BBA
:103A500068940C941D1B0E94741BA8F39923C1F356
:103A6000AEF3DF93CF931F930F93FF92C92FDD2700
:103A700088232AF02197660F771F881FDAF720E046
:103A800030E040E85FEB9FE3883920F0803E38F07B
:103A900021968F770E946919E0E9F0E004C00E9446
:103AA0006919EDEBF0E00E94261B8B01BE01EC01D1
:103AB000FB2E6F5771097595771F880B990B0E9424
:103AC000BE1A28E132E741E35FE30E941E1CAF2DDE
:103AD0009801AE01FF900F911F91CF91DF910E944D
:103AE00080190C945B1B0F931F93CF93DF9382304D
:103AF000910510F482E090E0E0913706F0913806ED
:103B000030E020E0B0E0A0E0309799F421153105D5
:103B100009F44AC0281B390B24303105D8F58A81B5
:103B20009B816115710589F1FB0193838283FE01FD
:103B300011C0408151810281138148175907E0F07B
:103B40004817590799F4109761F012960C93129741
:103B500013961C933296CF01DF91CF911F910F9155
:103B600008950093370610933806F4CF21153105D8
:103B700051F04217530738F0A901DB019A01BD014A
:103B8000DF01F801C1CFEF01F9CF909338068093A0
:103B90003706CDCFFE01E20FF31F819391932250A0
:103BA000310939832883D7CF2091350630913606E5
:103BB000232B41F4209108013091090130933606FE
:103BC000209335062091060130910701211531051A
:103BD00041F42DB73EB740910A0150910B01241BCF
:103BE000350BE0913506F0913606E217F307A0F4A5
:103BF0002E1B3F0B2817390778F0AC014E5F5F4F43
:103C00002417350748F04E0F5F1F50933606409338
:103C10003506819391939FCFF0E0E0E09CCFCF9366
:103C2000DF930097E9F0FC01329713821282A09192
:103C30003706B0913806ED0130E020E01097A1F48E
:103C400020813181820F931F2091350630913606F5
:103C50002817390709F061C0F0933606E09335065E
:103C6000DF91CF910895EA01CE17DF07E8F54A8189
:103C70005B819E0141155105B1F7E901FB83EA83A0
:103C800049915991C40FD51FEC17FD0761F480814C
:103C900091810296840F951FE9019983888382811F
:103CA00093819B838A83F0E0E0E012968D919C9152
:103CB00013970097B9F52D913C911197CD0102967C
:103CC000820F931F20913506309136062817390749
:103CD00039F6309751F51092380610923706B093A6
:103CE0003606A0933506BCCFD383C2834081518171
:103CF000840F951FC817D90761F44E5F5F4F888105
:103D00009981480F591F518340838A819B819383F6
:103D100082832115310509F0B0CFF0933806E09386
:103D200037069ECFFD01DC01C0CF13821282D7CFB0
:103D3000FB01DC014150504048F001900D92002001
:103D4000C9F701C01D9241505040E0F70895AEE020
:103D5000B0E0EDEAFEE10C945F218C01FA0186E00F
:103D60008C831A83098377FF02C060E070E861509A
:103D700071097E836D83A901BF01CE0101960E9466
:103D8000D31E4D815E8157FD0AC02F8138854217B1
:103D900053070CF49A01020F131FF80110822E969C
:103DA000E4E00C947B21ABE0B0E0E9EDFEE10C94A3
:103DB00051217C013B018A01FC011782168283811B
:103DC00081FFC8C1CE0101965C01F7019381F30127
:103DD00093FD859193FF81913F01882309F453C19D
:103DE000853239F493FD859193FF81913F018532AE
:103DF00029F4B70190E00E94C320E7CF912C212C39
:103E0000312CFFE1F31538F08B3211F190F4803250
:103E100009F1833229F137FC3CC020ED280F2A300C
:103E200050F536FE20C08AE0989E200D1124922E77
:103E300006C08D3291F0803371F7689430F8F30149
:103E400093FD859193FF81913F018111DACF21C0CC
:103E5000689431F8689432F8F2CF689433F8EFCF71
:103E6000689434F8ECCFEAE02E9E200D1124222E27
:103E7000689435F8E4CF8E3229F436FC04C1689496
:103E800036F8DDCF8C3619F4689437F8D8CF8836F9
:103E9000B1F2982F9F7D95549330E0F08336A1F1D5
:103EA0008337C1F1833509F063C02801F2E04F0E7A
:103EB000511CF801C080D180692D70E036FC02C031
:103EC0006FEF7FEFC6010E94AD204C01689437F878
:103ED00082010AC00C5F1F4FFFE3F983882483949B
:103EE000912C6501E89437F833FE2DC0522C8114D3
:103EF000910471F5552009F468CFB70180E290E094
:103F00000E94C3205A94F6CFF801808189830E5F06
:103F10001F4FE4CF2801F2E04F0E511CF801C08082
:103F2000D180692D70E036FC02C06FEF7FEFC601D3
:103F30000E94B8204C018201D5CFB70180E290E009
:103F40000E94C3202A942814190409F0B0F7CECF98
:103F5000F60137FC859137FE81916F01B70190E042
:103F60000E94C32051105A94F1E08F1A9108BFCFDC
:103F7000843619F0893609F077C0F80137FE6BC036
:103F800060817181828193810C5F1F4FF32DFF76D9
:103F90003F2E97FF09C090958095709561957F4F52
:103FA0008F4F9F4F689437F82AE030E0A5010E94B8
:103FB000F320C82ECA188C2C432C36FE0CC0E89473
:103FC00040F8C91440F434FE05C032FC03C0F32DA0
:103FD000FE7E4F2E892C44FE95C0FE01EC0DF11D96
:103FE0008081803309F087C0242D297E422E842DC4
:103FF0008870582E43FC95C040FE8FC09C2C8214C4
:1040000018F42C0C922C981844FE91C0B70180E350
:1040100090E00E94C32042FE09C088E790E041FE84
:1040200002C088E590E0B7010E94C320C91408F4DB
:104030008AC0CA94D12C9FEFC91AD90ACA0CDB1CBA
:10404000F60182916F01B70190E00E94C320AC1489
:10405000BD04B1F74FCF60817181072E000C880B32
:10406000990B0E5F1F4F92CFD32CE894D4F82AE01F
:1040700030E0853739F1232D297FD22E8F3601F19B
:1040800048F48835A9F0F701868197812B96E2E103
:104090000C946D21803749F08837A9F7D4FE02C00F
:1040A0006894D2F820E130E00DC06894D4F8F6CFDF
:1040B00034FE03C0822F8660D82E20E132E002C099
:1040C00028E030E0F801D7FE0FC060817181828165
:1040D00093810C5F1F4FA5010E94F320C82ECA18C0
:1040E0003D2CE89437F867CF6081718190E080E0E3
:1040F0000E5F1F4FF0CF42FC02C0839478CF8394B1
:10410000839475CF842D867809F471CFF6CFB701EB
:1041100080E290E00E94C32083948214C0F3512C6B
:1041200073CF522C5818821408F46ECFF8CF842D18
:10413000867809F47BCF8BE241FE80E247FC8DE27A
:10414000B70190E071CFB70180E390E00E94C320F7
:104150009A946CCF8FEF9FEF99CFFC01059061503F
:1041600070400110D8F7809590958E0F9F1F08958D
:10417000FC016150704001900110D8F78095909536
:104180008E0F9F1F08950F931F93CF93DF93182FC8
:10419000092FEB018B8181FD09C01FEF0FEF812FEC
:1041A000902FDF91CF911F910F91089582FF14C03E
:1041B0002E813F818C819D81281739073CF4E8814D
:1041C000F981CF0101969983888310838E819F8125
:1041D00001969F838E83E3CFE885F985812F09952A
:1041E000892BA1F3DACFFA01AA27283051F1203127
:1041F00081F1E8946F936E7F6E5F7F4F8F4F9F4F7B
:10420000AF4FB1E03ED0B4E03CD0670F781F891FBC
:104210009A1FA11D680F791F8A1F911DA11D6A0F8A
:10422000711D811D911DA11D20D009F468943F913D
:104230002AE0269F11243019305D3193DEF6CF013C
:104240000895462F4770405D4193B3E00FD0C9F702
:10425000F6CF462F4F70405D4A3318F0495D31FD6F
:104260004052419302D0A9F7EACFB4E0A6959795C2
:10427000879577956795BA95C9F700976105710598
:1042800008959B01AC010A2E0694579547953795E2
:104290002795BA95C9F7620F731F841F951FA01D3C
:1042A00008952F923F924F925F926F927F928F92DA
:1042B0009F92AF92BF92CF92DF92EF92FF920F93B5
:1042C0001F93CF93DF93CDB7DEB7CA1BDB0B0FB6BF
:1042D000F894DEBF0FBECDBF09942A88398848887C
:1042E0005F846E847D848C849B84AA84B984C88412
:1042F000DF80EE80FD800C811B81AA81B981CE0F09
:10430000D11D0FB6F894DEBF0FBECDBFED010895ED
:04431000F894FFCF4F
:104314009D050100000000003906800000001D001A
:10432400000001001E002C00000000002D004400CD
:104334000100000045005300000000005400590033
:10434400000001005A0068000000000069008000BD
:104354000100000081008F00000000009000950023
:10436400000001009600A40000000000A500BC00AD
:1043740001000000BD00CB0000000000CC00D10013
:1043840000000100D200E00000000000E100F7009E
:1043940001000000F80006010000000007010D0103
:1043A400000001000E011B01000000001C0133018C
:1043B40001000000340143010000000044014801F1
:1043C40000000100490157010000000058016F017D
:1043D4000100000070017E01000000007F018401E3
:1043E4000000010085019301000000009401AB016D
:1043F40001000000AC01BA0100000000BB01C001D3
:1044040000000100C101CF0100000000D001E9015A
:1044140001000000EA01F60100000000F701FC01C0
:1044240000000100FD010B02000000000C02230249
:1044340001000000240232020000000033023802AE
:1044440000000100390247020000000048025E0239
:10445400010000005F02E80301000000000000000A
:104464004506A505D20592060306E105F505537434
:104474006172746572206F6E005374617274657238
:10448400206F666600456E64206F662064796E61F5
:104494006D696320746573740053657420636F6F72
:1044A4006C616E742074656D7020746F20256420B7
:1044B4004600536574206169722074656D702074C0
:1044C4006F202564204600536574207468726F74ED
:1044D400746C6520746F2025640053657420656EC8
:1044E40067696E6520737065656420746F20256448
:1044F4002052504D005365742070756C73652064B0
:1045040077656C6C20616E676C6520746F20256420
:1045140020646567005365742073746172746572F6
:10452400206D6F746F7220737461746520746F20D2
:104534002573005475726E656420656E67696E65D7
:10454400206F666600456E67696E65206372616EF2
:104554006B696E6700456E67696E65206372616E94
:104564006B696E67207769746820756E7374616215
:104574006C652052504D7300436F6C642069646C09
:104584006500486F742069646C65004372756973D3
:10459400652061742033304D50480043727569734F
:1045A400652061742037304D50480047656E746C47
:1045B4006520616363656C65726174696F6E004D3B
:1045C4006F64657261746520616363656C657261B3
:1045D40074696F6E004861726420616363656C6521
:1045E400726174696F6E0044796E616D69632074E1
:1045F40065737420616C72656164792072756E6E86
:10460400696E672C2069676E6F72696E67206E65CC
:104614007720726571756573740052756E6E696E7C
:10462400672064796E616D696320746573740044F6
:10463400796E616D696320746573742073746F702F
:10464400706564004D657263656465732056380057
:104654007372635C53657269616C2E6370700000E1
:00000001FF
