:100000000C94DF020C9407030C9407030C94070371
:100010000C9407030C9407030C9407030C94070338
:100020000C9407030C9407030C9407030C94070328
:100030000C9407030C948F120C9407030C94070381
:100040000C94ED110C9407030C945D120C94371270
:100050000C9407030C9407030C9407030C940703F8
:100060000C9407030C94070307634236B79BD8A789
:100070001A39685618AEBAAB558C1D3CB7CC5763CD
:10008000BD6DEDFD753EF6177231BF000000803F7B
:1000900008000000BE922449123EABAAAA2ABECD97
:1000A000CCCC4C3E00000080BEABAAAAAA3E000009
:1000B0000000BF000000803F000000000008417801
:1000C000D3BB4387D1133D190E3CC3BD4282AD2B38
:1000D0003E68EC8276BED98FE1A93E4C80EFFFBE30
:1000E00001C4FF7F3F000000000000830201A9025D
:1000F00002CE0203F302041A030540030665030758
:100100008A0308AD0309D2030AF7030B1C040C434E
:10011000040D68040E8D040FB20410D50411FA0406
:10012000121F05134405146A05158F0516B305172C
:10013000D80518F905191D061A41061B65061C8A03
:10014000061DAD061ECF061FF20620120721350739
:1001500022560723770724990725B907261608276B
:100160003E08285C080000FC04010022050200474C
:100170000503006C05040091050500B5050600DACD
:10018000050700FF0508002006090043060A00686D
:10019000060B008C060C00AE060D00D1060E00F317
:1001A000060F0014071000350711005607120077DC
:1001B00007130097071400B8071500200816004819
:1001C0000817007008180098081900B6081A00DE11
:1001D000081B0006091C002E091D004C091E007496
:1001E000091F009C092000C4092100E20922000A1D
:1001F0000A2300320A24005A0A2500780A2600A0A1
:100200000A2700C80A2800F00A29000E0B2A003627
:100210000B2B005E0B2C00860B2D00A40B2E00CCAC
:100220000B2F00F40B3000120C31003A0C3200623C
:100230000C3300800C3400A80C3500D00C3600F8CC
:100240000C3700200D38003E0D3900660D3A008E47
:100250000D3B00AC0D3C00D40D3D00FC0D3E001AE2
:100260000E3F00420E40006A0E4100880E4200B070
:100270000E4300D80E4400F60E45001E0F46004601
:100280000F47006E0F48008C0F4900B40F4A00DC86
:100290000F4B00FA0F4C0022104D004A104E006820
:1002A000104F0090105000B8105100D6105200FEB0
:1002B00010530026115400441155006C115600943F
:1002C000115700B2115800DA11590002125A0020D9
:1002D000125B0048125C0070125D008E125E00B668
:1002E000125F00D4126000FC12610024136200420D
:1002F0001363006A13640088136500B0136600D8A6
:10030000136700F61368001E1469003C146A006449
:10031000146B0082146C00AA146D00C8146E00F0F7
:10032000146F001815700036157100541572007C9A
:100330001573009A157400C2157500E01576000853
:10034000167700261678004E1679006C167A0094FF
:10035000167B00B2167C00DA167D00F8167E0016B9
:10036000177F003E177F0166177F0284177F03A265
:10037000177F04CA177F05E8177F0610187F072E1E
:10038000187F084C187F096A187F0A92187F0BB0F3
:10039000187F0CCE187F0DEC187F0E14197F0F32CA
:1003A000197F1050197F116E197F128C197F13AAB3
:1003B000197F14D2197F15F0197F160E1A7F172C8A
:1003C0001A7F18401A7F19681A7F1A861A7F1B9A9B
:1003D0001A7F1CC21A7F1DE01A7F1EFE1A7F1F1C87
:1003E0001B7F20301B7F214E1B7F226C1B7F238AAB
:1003F0001B7F24A81B7F25C61B7F26E41B7F27F8B5
:100400001B7F28161C7F29341C7F2A481C7F2B66E3
:100410001C7F2C841C7F2DA21C7F2EB61C7F2FD40A
:100420001C7F30E81C7F31061D7F321A1D7F333858
:100430001D7F34561D7F356A1D7F36881D7F379C92
:100440001D7F38B01D7F39CE1D7F3AE21D7F3BF600
:100450001D7F3C141E7F3D281E7F3E461E7F3F5A57
:100460001E7F406E1E7F41821E7F42A01E7F43B4CE
:100470001E7F44C81E7F45DC1E7F46F01E7F470E50
:100480001F7F48221F7F49361F7F4A4A1F7F4B5ECE
:100490001F7F4C721F7F4D861F7F4E9A1F7F4FAE6E
:1004A0001F7F50C21F7F51D61F7F52EA1F7F53FE0E
:1004B0001F7F5412207F5526207F563A207F574EAB
:1004C000207F5862207F5976207F5A80207F5B945E
:1004D000207F5CA8207F5DBC207F5ED0207F5FDA1C
:1004E000207F60EE207F6102217F6216217F6320E2
:1004F000217F6434217F6548217F6652217F6766B2
:10050000217F687A217F698E217F6A98217F6BAC79
:10051000217F6CB6217F6DCA217F6ED4217F6FE869
:10052000217F70F2217F7106227F7210227F732457
:10053000227F742E227F7542227F764C227F776045
:10054000227F786A227F7974227F7A88227F7B9249
:10055000227F7CA6227F7DB0227F7EBA227F7FCE43
:1005600022000000002300260029000000000800EF
:10057000020100000304070000000000000000006A
:10058000000000250028002B0000000000240027A8
:10059000002A000404040404040404020202020207
:1005A0000203030303030301020408102040800137
:1005B000020408102001020408102000B6121124C1
:1005C0001FBECFEFD8E0DEBFCDBF14E0A0E0B1E0AA
:1005D000E2E0FEE302C005900D92AA39B107D9F717
:1005E00026E0AAE9B4E001C01D92A034B207E1F709
:1005F00012E0CFEDD2E004C02197FE010E94C516A3
:10060000CE3DD107C9F70E9487130C94FF1E0C94AE
:10061000000008950895089508950895089508958F
:10062000862F642FE091B904F091BA04309711F04D
:10063000A9010994089508950F931F93CF93DF9311
:100640008C01EB01DC018D919C9168816F77DC015D
:10065000ED91FC910190F081E02D0995F8018081E8
:100660009181688170E0660F672F661F770BDC0150
:10067000ED91FC910190F081E02DDF91CF911F91E0
:100680000F910994EF92FF920F931F93CF93DF93F3
:10069000C82F8091B4059091B5050097A9F17A0112
:1006A0008B01DC01ED91FC910190F081E02D60EF78
:1006B00009958091B4059091B505DC01ED91FC910F
:1006C0000190F081E02D6C2F0995E7010E0D1F1DA3
:1006D000C017D10739F0BE0184EB95E00E941C03DE
:1006E0002196F6CF8091B4059091B505DC01ED918E
:1006F000FC910190F081E02D67EFDF91CF911F9188
:100700000F91FF90EF900994DF91CF911F910F917E
:10071000FF90EF9008951F93CF93DF93182FEB0175
:100720008091B9059091BA056817790760F48091B6
:10073000B7059091B805C80FD91F188380E0DF91E5
:10074000CF911F910895E091E605F091E70530976C
:1007500011F481E0F4CF81E08093B6058091D20559
:100760009091D30509958091B9059091BA05C81764
:10077000D90778F7DCCFCF93DF93EC01FB0130E0B2
:1007800020E0C901880F991F8C179D0778F44081DC
:10079000DB014D93BD01119791819795992797950D
:1007A000942B9C932F5F3F4F3296EBCFC901DF9183
:1007B000CF91089590E0FC01E955FA4F24918D56B0
:1007C0009A4FFC018491882399F090E0880F991F3B
:1007D000FC01E757FA4FA591B491FC01E158FA4F9B
:1007E000859194918FB7F894EC91E22BEC938FBFA5
:1007F0000895CF93DF93FC01A081B181109701F19F
:10080000EC01ED91FC9111970190F081E02D69EFE1
:10081000CD01099588819981DC01ED91FC910190D0
:10082000F081E02D62E0099588819981DC01ED91EC
:10083000FC910190F081E02D65E0DF91CF9109946A
:10084000DF91CF910895833081F028F4813099F0C1
:100850008230A9F008958730A9F08830C9F084303B
:10086000B1F4809180008F7D03C0809180008F77EC
:1008700080938000089584B58F7784BD089584B5F2
:100880008F7DFBCF8091B0008F778093B00008956B
:100890008091B0008F7DF9CF1F93CF93DF93282FE6
:1008A00030E0F901E559FA4F8491F901E955FA4F21
:1008B000D491F901ED56FA4FC491CC23A9F0162F2B
:1008C00081110E942304EC2FF0E0EE0FFF1FE1588E
:1008D000FA4FA591B4918FB7F894EC91111108C01B
:1008E000D095DE23DC938FBFDF91CF911F910895C8
:1008F000DE2BF8CF61E080913A060C944C0481E540
:100900008CBD1DBC60E080913A060C944C043FB74E
:10091000F8948091D3049091D404A091D504B0911F
:10092000D60426B5A89B05C02F3F19F00196A11D3E
:10093000B11D3FBFBA2FA92F982F8827BC01CD0129
:10094000620F711D811D911D42E0660F771F881F88
:10095000991F4A95D1F708958F929F92AF92BF92B7
:10096000CF92DF92EF92FF926B017C010E9487048D
:100970004B015C01C114D104E104F104B9F00E94FF
:100980008704681979098A099B09683E73408105C3
:10099000910580F321E0C21AD108E108F10888EE40
:1009A000880E83E0981EA11CB11CE4CFFF90EF904D
:1009B000DF90CF90BF90AF909F908F9008952FB70A
:1009C000F8946091CF047091D0048091D1049091FB
:1009D000D2042FBF08952091AC043091AD048091D2
:1009E000A8049091A9042817390709F4299A20919D
:1009F000AC043091AD048091A6049091A70428170F
:100A0000390709F429982091AC043091AD04809104
:100A1000A4049091A5042817390709F45D9A209140
:100A2000AC043091AD048091A2049091A3042817E6
:100A3000390709F45D982091AC043091AD048091A0
:100A4000A0049091A1042817390709F45E9A209117
:100A5000AC043091AD0480919E0490919F042817BE
:100A6000390709F45E982091AC043091AD0480916F
:100A70009C0490919D042817390709F45B9A2091F2
:100A8000AC043091AD0480919A0490919B04281796
:100A9000390709F45B988091AC049091AD040196FC
:100AA0009093AD048093AC042091AA043091AB04E0
:100AB0008217930720F01092AD041092AC0481E0ED
:100AC0008093C70420E43FE13093870020938600A1
:100AD00091E1909381002BEE34E03093010120935B
:100AE000000180936F0008950895009721F0805CC5
:100AF0009F4F0C94F9030895AF92BF92CF92DF926B
:100B0000EF92FF920F931F93CF93DF936C017B01C2
:100B10008B01040F151FEB015E01AE18BF08C01753
:100B2000D10759F06991D601ED91FC910190F081C6
:100B3000E02DC6010995892B79F7C501DF91CF9189
:100B40001F910F91FF90EF90DF90CF90BF90AF90EB
:100B50000895FC01538D448D252F30E0842F90E0C3
:100B6000821B930B541710F0CF96089501970895A8
:100B7000FC01918D828D981761F0A28DAE0FBF2F71
:100B8000B11D5D968C91928D9F5F9F73928F90E0C7
:100B900008958FEF9FEF0895FC01918D828D981736
:100BA00031F0828DE80FF11D858D90E008958FEF73
:100BB0009FEF0895FC01918D228D892F90E0805C3C
:100BC0009F4F821B91098F739927089587ED94E0B9
:100BD0000E94DA0521E0892B09F420E0822F089594
:100BE00080E090E0892B29F00E94E60581110C94A9
:100BF00000000895FC01A48DA80FB92FB11DA35AC0
:100C0000BF4F2C91848D90E001968F739927848F2C
:100C1000A689B7892C93A089B1898C91837080644F
:100C20008C93938D848D981306C00288F389E02DF0
:100C300080818F7D80830895EF92FF920F931F93A1
:100C4000CF93DF93EC0181E0888F9B8D8C8D98137F
:100C50001AC0E889F989808185FF15C09FB7F8948B
:100C6000EE89FF896083E889F989808183708064D7
:100C700080839FBF81E090E0DF91CF911F910F9122
:100C8000FF90EF900895F62E0B8D10E00F5F1F4F31
:100C90000F731127E02E8C8D8E110CC00FB607FC40
:100CA000FACFE889F989808185FFF5CFCE010E94CE
:100CB000FA05F1CFEB8DEC0FFD2FF11DE35AFF4F3D
:100CC000F0829FB7F8940B8FEA89FB89808180625C
:100CD000CFCFCF93DF93EC01888D8823B9F0AA8919
:100CE000BB89E889F9898C9185FD03C0808186FDE7
:100CF0000DC00FB607FCF7CF8C9185FFF2CF808136
:100D000085FFEDCFCE010E94FA05E9CFDF91CF91AB
:100D10000895CF93CFB7F8948091B804811124C07F
:100D2000EDE9F5E08491E1EBF5E09491E82FF0E056
:100D3000EE0FFF1FE757FA4FA591B491EC91E9230D
:100D400021F461E08AE00E944C048AE00E94DA0308
:100D50008CB580618CBD8CB580648CBD8DE00E94AB
:100D6000DA038BE00E94DA038091B8048F5F8093EE
:100D7000B804CFBFCF910895CF92DF92EF92FF9248
:100D80000F931F93CF93DF93FC01E058FF4FE08058
:100D9000EE2009F458C0EC01C05CDF4FA881B98196
:100DA000109709F450C0FC01EF57FF4FC080D1806D
:100DB000F60111810081ED91FC9111970190F08174
:100DC000E02D60EFCD01099588819981DC01ED91DD
:100DD000FC910190F081E02D69E709958881998166
:100DE000DC01ED91FC910190F081E02D602F0995DF
:100DF00088819981DC01ED91FC910190F081E02DD9
:100E0000612F0995F12C01E010E00F5F1F4FE016F4
:100E1000F10639F0B601600F711FCE010E941C036C
:100E2000F4CF88819981DC01ED91FC910190F081F2
:100E3000E02D67EFDF91CF911F910F91FF90EF9021
:100E4000DF90CF900994DF91CF911F910F91FF9088
:100E5000EF90DF90CF900895009711F00C94BC06AE
:100E600008954F925F926F927F928F929F92AF926E
:100E7000BF92CF92DF92EF92FF920F931F93CF9387
:100E8000DF93CDB7DEB7E0970FB6F894DEBF0FBEA5
:100E9000CDBFC090B604D090B7048090B4049090B9
:100EA000B5044091C3045091C4048091B004909162
:100EB000B1040091C5041091C6044090AE04509056
:100EC000AF04052C000C6608770849865A866B86A5
:100ED0007C86092C000CAA08BB088D829E82AF82FA
:100EE000B8860D2C000CEE08FF08C982DA82EB826E
:100EF000FC82012E000C220B330B098B1A8B2B8BDF
:100F00003C8B052E000C660B770B4D875E876F8739
:100F1000788B198E1A8E1B8E1C8E1D8A1E8A1F8A34
:100F2000188E1D8E1E8E1F8E18A219A21AA21BA229
:100F30001CA21DA21EA21FA218A619A61AA61BA6B5
:100F40001CA6092E000CAA0BBB0B8DA79EA7AFA752
:100F5000B8ABAE014F5F5F4F60E370E080E10E948D
:100F60004203E0960FB6F894DEBF0FBECDBFDF910F
:100F7000CF911F910F91FF90EF90DF90CF90BF9096
:100F8000AF909F908F907F906F905F904F9008955B
:100F9000FF920F931F93CF93DF93FF24F394C2E04C
:100FA000D0E001E010E08091F2059091F305DC01C2
:100FB000ED91FC910084F185E02D0995892B09F4D0
:100FC000CEC18091F2059091F305DC01ED91FC9189
:100FD0000284F385E02D09959C018F3F980719F352
:100FE000982F8091BF05882309F492C0973F09F09C
:100FF0007EC01092BF05A091B705B091B8056C9165
:101000006137C1F1693709F05CC0E091EC05F091FE
:10101000ED05309741F28091C0059091C105833074
:10102000910560F430E020E050E040E070E060E0E6
:101030008091CE059091CF050995B5CFBD016D5F2B
:101040007F4F03970E94BB03BC016D5F7F4F80E021
:101050000E948B03E091B705F091B8059F012D5FC9
:101060003F4F428150E0618170E0E091EC05F091EA
:10107000ED05DECF8091E8059091E905892B09F413
:1010800092CFBD016F5F7F4F8091C0059091C105E8
:1010900001970E94BB03BC016F5F7F4F80E00E94FD
:1010A0008B036091B7057091B8056F5F7F4FE0913A
:1010B000E805F091E9058091D4059091D505099551
:1010C00072CFE091EA05F091EB05309709F46BCF10
:1010D0009D012F5F3F4F4091C0055091C105415088
:1010E00051098091D6059091D70509955CCF609103
:1010F000C0057091C105822F0E948B038091C005AD
:101100009091C10501969093C1058093C0054BCF86
:101110006091BD057091BE056115710509F4B1C0FE
:1011200027FDAFC0615071097093BE056093BD0586
:10113000822F0E948B038091BD059091BE05892B63
:1011400009F031CF8091BB05882309F42CCF803D75
:1011500009F483C040F4803949F1803C09F469C046
:101160001092BB0520CF843FE1F1853F09F44DC0CB
:10117000803EB1F7E091DA05F091DB05309781F31D
:10118000A091B705B091B8054C9120E8429FC001ED
:10119000112411964C91480F592F511D6091BC0597
:1011A0008091C2059091C3050995DACFE091DC05E5
:1011B000F091DD053097A1F2A091B705B091B80587
:1011C0004C9120E8429FC001112411964C91480F88
:1011D000592F511D6091BC058091C4059091C505A2
:1011E000E3CFE091E205F091E305309709F4B8CF41
:1011F000A091B705B091B8054C9150E011966C9153
:101200008091CA059091CB05CFCFE091E405F09194
:10121000E505309709F4A4CFA091B705B091B805C2
:101220004C9150E011966C918091CC059091CD0538
:10123000BBCFE091DE05F091DF05309709F490CF48
:10124000A091B705B091B8054C9150E06091BC05F4
:101250008091C6059091C705A7CFE091E005F09178
:10126000E105309709F47CCFA091B705B091B8059E
:101270004C9150E06091BC058091C8059091C905E2
:1012800093CF903F30F4822F8F708093BC05922FC4
:10129000907F903FF1F190F4903CB1F150F490398F
:1012A00009F081CED093BE05C093BD059093BB05D8
:1012B0007ACE903D49F1903EA9F375CE993F09F45D
:1012C00042C028F48CE0890F823060F36CCE9F3FDF
:1012D00009F069CE1092BE051092BD051092BB05B3
:1012E0001092BC0590E080E02091B9053091BA05DC
:1012F00082179307A8F4E091B705F091B805E80FBD
:10130000F91F10820196F0CF1093BE050093BD0522
:10131000CDCFF092BF051092C1051092C00543CE0B
:101320001092BF051092C1051092C005E091F00522
:10133000F091F1058091D8059091D905309709F485
:1013400032CE099530CEE091EE05F091EF05309761
:1013500009F429CE8091D0059091D105F2CFDF918B
:10136000CF911F910F91FF9008958EBD00000DB495
:1013700007FEFDCF8EB50895CF93C82F0E947F043E
:1013800080913B0681600E94B5098C2F0E94B509AF
:1013900080E00E94B509C82F0E947A048C2FCF915B
:1013A0000895CF93DF93D82FC62F0E947F0480919A
:1013B0003B060E94B5098D2F0E94B5098C2F0E9413
:1013C000B509DF91CF910C947A04CF93DF93D82F96
:1013D000C62F8AE00E94BC0961E070E00D2E01C0BA
:1013E000660F0A94EAF7609568238C2F01C0880F76
:1013F000DA95EAF7682B8AE0DF91CF910C94D10956
:101400001F93CF93DF93C1E0D0E001C0CC0F8A954A
:10141000EAF71C2F109580E0613091F00E94BC0922
:101420006C2F682B80E00E94D10986E00E94BC09E5
:10143000682F612386E0DF91CF911F910C94D10931
:101440000E94BC09C0956C2F6823ECCFEF92FF92ED
:101450000F931F93CF93DF93EC010B811C816017D7
:10146000710708F48B01E980FA808D819E810196D5
:101470009E838D83019781F48CB58F7D8CBD8CB557
:10148000837F8CBD8CB583608CBD8DB58E7F8DBD0B
:1014900060E088810E944C0484E0EE0CFF1C8A9579
:1014A000E1F76894E1F811701E29812F0E94B509B7
:1014B000FF24F39481FD14C0F12C8D819E8101974E
:1014C0009E838D83892B21F461E088810E944C04E6
:1014D0008F2DDF91CF911F910F91FF90EF90089585
:1014E000802F0E94B509E9CF4F925F926F927F9251
:1014F0008F929F92AF92BF92CF92DF92EF92FF9224
:10150000CF93DF93CDB7DEB764970FB6F894DEBF05
:101510000FBECDBF20E12093810029985D985E9891
:101520005B989093B7048093B604181619060CF0D4
:101530003FC1BC01A090C504B090C604072E000CAA
:10154000880B990B0E94351820E030E040E752E408
:101550000E94511720E030E040E05FE30E948219D2
:101560009B01AC0160E070E080E89FE30E945117AE
:1015700020E030E04AE754E40E9482190E940418F7
:101580007093AB046093AA0490E080E00E9433184B
:101590006B017C01B501BB0C880B990B0E943518BF
:1015A0009B01AC010E94E01620E030E044E354E4EB
:1015B0000E945117A70196010E9482194B015C01FC
:1015C00020E030E040E85EE3C701B6010E948219E6
:1015D00069877A878B879C8720E030E040E05FE373
:1015E000C701B6010E9482196D877E878F87988B0D
:1015F00020E030E040E45FE3C701B6010E948219B9
:10160000698B7A8B8B8B9C8B20E030E0A901C50124
:10161000B4010E94E01669837A838B839C839B01CB
:10162000AC01C701B6010E944C1787FF0CC0A7018F
:10163000960169817A818B819C810E94DF16698382
:101640007A838B839C8329853A854B855C85C5018C
:10165000B4010E94E0166D837E838F8398879B017F
:10166000AC01C701B6010E944C1787FF0CC0A7014F
:1016700096016D817E818F8198850E94DF166D8332
:101680007E838F8398872D853E854F855889C50138
:10169000B4010E94E0162B013C01AC019B01C70183
:1016A000B6010E944C1787FF08C0A7019601C3012D
:1016B000B2010E94DF162B013C0129893A894B892E
:1016C0005C89C501B4010E94E0164B015C01AC01CC
:1016D0009B01C701B6010E944C1787FF08C0A701F4
:1016E0009601C501B4010E94DF164B015C01109206
:1016F000A9041092A80469817A818B819C810E943F
:1017000004187093A7046093A60469857A858B8575
:101710009C850E9404187093A5046093A4046D81B5
:101720007E818F8198850E9404187093A304609332
:10173000A2046D857E858F8598890E940418709318
:10174000A1046093A004C301B2010E940418709325
:101750009F0460939E0469897A898B899C890E9481
:10176000041870939D0460939C04C501B4010E9409
:10177000041870939B0460939A041092AD04109225
:10178000AC0481E08093C70480E49FE190938700DC
:101790008093860081E180938100109281001092F5
:1017A0008500109284008091C7048061809381003D
:1017B00064960FB6F894DEBF0FBECDBFDF91CF9118
:1017C000FF90EF90DF90CF90BF90AF909F908F9061
:1017D0007F906F905F904F900895CF93DF932AE0B2
:1017E000AC01249FC001259F900D1124893E53E038
:1017F000950714F088EE93E097FF02C090E080E038
:10180000ECE0F1E0D0E0C0E0408151818417950721
:101810001CF14281538148175907F4F083E0CC0F43
:10182000DD1F8A95E1F7FE01E45FFE4F848195811B
:1018300061E0019709F060E083E00E94E509C45F80
:10184000DE4F8E819F8161E0019709F060E082E0C8
:10185000DF91CF910C94E50921963896C832D105D5
:1018600099F6DF91CF910895CF93DF93EC01039721
:1018700034F461E084E00E94E50960E008C060E0C3
:1018800084E00E94E50961E0C135D105B4F385E04B
:10189000DF91CF910C94E509CF92DF92EF92FF9206
:1018A0006B017C010E94DF046C157D058E059F0590
:1018B000C0F09B01AC012C193D094E095F0969017B
:1018C0007A01C094D094E094F094CC24F7FCC394B3
:1018D000DD24EE24FF248C2DFF90EF90DF90CF903D
:1018E0000895C61AD70AE80AF90AEFCFEF92FF92D5
:1018F0000F931F93CF93DF93CDB7DEB7C058D109B5
:101900000FB6F894DEBF0FBECDBF9E0127573F4FE5
:10191000F901419151919F0160E870E08E010F5FE4
:101920001F4FC8010E941E1C7C01F801019000207D
:10193000E9F73197BF01601B710BA80181E70E9495
:101940004203C701C058DF4F0FB6F894DEBF0FBE89
:10195000CDBFDF91CF911F910F91FF90EF90089530
:101960004F925F926F927F928F929F92AF92BF92AF
:10197000CF92DF92EF92FF92CF93DF93CDB7DEB796
:1019800064970FB6F894DEBF0FBECDBF6091BF0461
:101990007091C0048091C1049091C2040E944C0CCB
:1019A000882309F434C0ECE7F5E08491E8EBF5E036
:1019B000E490E4EAF5E0F490FF2079F081110E94D0
:1019C0002304EF2DF0E0EE0FFF1FEF59FA4FA59122
:1019D000B491EC91EE2160E009F461E081E10E94B4
:1019E0004C048091B6049091B704181619060CF0B7
:1019F000A8C00E94DF0466507F4F8F4F9F4F6093B7
:101A0000BF047093C0048093C1049093C20460919A
:101A1000BB047091BC048091BD049091BE040E94EF
:101A20004C0C882309F478C00E94ED1528EE422E54
:101A300023E0522E612C712CA30192010E944E16BC
:101A40004B015C0128E2820E23E2921EA11CB11C14
:101A50000E94ED15A30192010E944E166B017C01BC
:101A600038E2C30E33E2D31EE11CF11C0E94ED15D7
:101A7000A30192010E944E169B01AC01285D3C4DD2
:101A80004F4F5F4F298B3A8B4B8B5C8B0E94ED1530
:101A9000A30192010E944E16DC01CB01885D9C4D92
:101AA000AF4FBF4F89829A821B821C82CD82DE8219
:101AB0001F821886398939874A894A871B861C867E
:101AC0008D879E871F86188AAE014F5F5F4F60E14A
:101AD00070E085E10E9442031982AE014F5F5F4FC3
:101AE00061E070E083E10E9442031982AE014F5F22
:101AF0005F4F61E070E084E10E9442030E94DF04D6
:101B00006C507E4F8F4F9F4F6093BB047093BC040B
:101B10008093BD049093BE0464960FB6F894DEBF24
:101B20000FBECDBFDF91CF91FF90EF90DF90CF90B0
:101B3000BF90AF909F908F907F906F905F904F90ED
:101B400008950E94DF0468517C4F8F4F9F4F57CFFD
:101B50008F929F92AF92BF92EF92FF920F931F933B
:101B6000CF93DF931F92CDB7DEB78C01E090C30413
:101B7000F090C404E816F906A9F4892B21F490E04A
:101B800080E00E94ED0BC8010E94340C0F90DF91A1
:101B9000CF911F910F91FF90EF90BF90AF909F90CA
:101BA0008F900895E816F90644F51092B304109248
:101BB000B2048091B2049091B304892BA1F50E1563
:101BC0001F050CF442C0C7010E94340CC7010E94DB
:101BD000ED0B0E94DF044B015C0124E1820E911C9D
:101BE000A11CB11CC501B4010E944C0C81110CC098
:101BF0000E94C8070E94B00CF5CF81E090E090935E
:101C0000B3048093B204D5CFE982AE014F5F5F4F3A
:101C100061E070E082E10E9442030E94C8078FEFFA
:101C2000E81AF80ACCCF60E083E00E94E50960E0A2
:101C300082E00E94E509C8010E94340C01151105DB
:101C400021F490E080E00E94ED0B1093C404009317
:101C5000C3049CCF4F925F926F927F928F929F921C
:101C6000AF92BF92CF92DF92EF92FF920F931F93AA
:101C7000CF93DF9300D000D0CDB7DEB78636910585
:101C800014F085E690E08F30910514F48FE090E039
:101C90009093B5048093B4049F938F938EE592E064
:101CA0009F938F930E94760C2091B4043091B504D9
:101CB0002052310945E0429FC001439F900D1124FD
:101CC00069E070E00E94B116072E000C880B990B9A
:101CD0000E94351823E333E948E853E40E94E016F4
:101CE0009B01AC0160E070E080E89FE30E94511727
:101CF0009B01AC0169EE7EE98AEA9AE30E94DF1655
:101D000021EE31EC49E354E30E9451176B017C0151
:101D1000AC019B010E94821920E030E040E85EE3C4
:101D20000E94821921E23EE44CEE5CE40E94E0163F
:101D30000E94451A4B015C0120E030E040E05FE387
:101D4000C701B6010E9482196B017C01AC019B01A5
:101D5000C501B4010E94DF162BEA3AEA4AEA5EE3C3
:101D60000E94EF192B013C01A7019601C501B401A6
:101D70000E94E0162BEA3AEA4AEA5EE30E94EF1973
:101D80009B01AC01C301B2010E94DF160E94CB1778
:101D90000E94FD177B01FF926F938DE692E09F9367
:101DA0008F930E94760C8701FF92EF9289E792E071
:101DB0009F938F930E94760C1F928FEF8F9384E0F6
:101DC0008F938CEF8F9382EA92E09F938F930E9480
:101DD000760C44E050E065E671E0CE0101960E9489
:101DE00045168B819C810FB6F894DEBF0FBECDBF28
:101DF0008E159F0508F450C09F938F93FF92EF922A
:101E000081EC92E09F938F930E94760CE980F12CF5
:101E10000A8110E08C818F938B818F938AEC92E002
:101E20009F938F930E94760C0FB6F894DEBF0FBE7F
:101E3000CDBF1F930F93FF92EF928DEE92E09F9391
:101E40008F930E94760CB7018091CA049091CB04C5
:101E50000E94260AB8018091C8049091C9040E948A
:101E6000260A0F900F900F900F900F900F900F90E9
:101E70000F900F900F90DF91CF911F910F91FF90D6
:101E8000EF90DF90CF90BF90AF909F908F907F901A
:101E90006F905F904F90089585E6E82E81E0F82ED0
:101EA000D12CC12C44E050E0B701CE0101960E9434
:101EB00045168B819C818017910708F19F938F9322
:101EC0001F930F9381EC92E09F938F930E94760C67
:101ED0008981E82EF12C9A81092F10E01F929F939F
:101EE0001F928F93DF92CF928C818F938B818F93F0
:101EF0008BED92E09F938F930E94760C95CF3FEFEE
:101F0000C31AD30A84E0E80EF11C9FEFC916D1046E
:101F100049F681E093E09F938F930E94760C44E012
:101F200050E06DE575E0CE0101960E944516E9800E
:101F3000F12C0A8110E01F928EEF8F938C818F938A
:101F40008B818F938DE193E09F938F930E94760C0A
:101F50006BCFEF92FF920F931F93CF93DF937B0191
:101F60008A01E9010E94740AC7010E942A0EC80171
:101F70000E94A80DD093B104C093B004DF91CF911B
:101F80001F910F91FF90EF9008954F925F926F9283
:101F90007F928F929F92AF92BF92CF92DF92EF92F9
:101FA000FF920F931F93CF93DF9300D01F92CDB773
:101FB000DEB78132910514F080E290E08B3E2FEF86
:101FC000920714F48BEE9FEF9093AF048093AE04CE
:101FD0009F938F938FE293E09F938F930E94760C51
:101FE0002091AE043091AF042052310945E0429F68
:101FF000C001439F900D112469E070E00E94B1166A
:10200000072E000C880B990B0E94351823E333E947
:1020100048E853E40E94E0169B01AC0160E070E0E8
:1020200080E89FE30E9451179B01AC0160E075EDD1
:102030008CEE9AE30E94DF162AE736E145E255E38B
:102040000E9451176B017C01AC019B010E94821917
:1020500020E030E040E85EE30E94821928EE3BE495
:102060004DE25AE40E94E0160E94451A4B015C01C1
:1020700020E030E040E05FE3C701B6010E94821932
:102080006B017C01AC019B01C501B4010E94DF160C
:102090002BEA3AEA4AEA5EE30E94EF192B013C017F
:1020A000A7019601C501B4010E94E0162BEA3AEAA5
:1020B0004AEA5EE30E94EF199B01AC01C301B20141
:1020C0000E94DF160E94CB170E94FD177B01FF9232
:1020D0006F938DE692E09F938F930E94760C870119
:1020E000FF92EF928AE393E09F938F930E94760C86
:1020F00043E050E06AEE70E0CE0101960E94451682
:102100008A819B810FB6F894DEBF0FBECDBF8E15BE
:102110009F05A8F1098110E09F938F938EE593E0CE
:102120009F938F930E94760C0F900F900F900F90BB
:102130001F930F938BE693E09F938F930E94760CEF
:10214000B8018091CC049091CD040E94260A0F9092
:102150000F900F900F900F900F900F90DF91CF91F5
:102160001F910F91FF90EF90DF90CF90BF90AF90B5
:102170009F908F907F906F905F904F9008958AEE20
:10218000E82E80E0F82E43E050E0B701CE01019642
:102190000E9445168A819B818017910708F0BACF6B
:1021A00033E0E30EF11C85E6E81681E0F80659F706
:1021B00043E050E062E671E0CE0101960E944516D0
:1021C000098110E08B818F938A81A7CFEF92FF92D4
:1021D0000F931F93CF93DF93082F162FEA01EFEF92
:1021E000E80FEF30B0F4F0E0E850FF4E0C94C51665
:1021F00007117011851192119F11AC11B911C611FF
:10220000D311E01115112A11401135114B110E9403
:102210003107612F70E0AE01802FDF91CF911F91C8
:102220000F91FF90EF900C944203F880E9808F2D7E
:102230009E2D0E942A0EEF92FF9284E793E09F93D7
:102240008F930E94760C0E9431070F900F900F9091
:102250000F90DFCFF880E9808F2D9E2D0E94C50F53
:10226000EF92FF928DE893E0EACFF880E9808F2D1E
:102270009E2D0E94A80DEF92FF9282EA93E0DFCF9D
:10228000F880E9808F2D9E2D0E94740AEF92FF92B4
:1022900085EB93E0D4CFF8808F2D90E087329105C5
:1022A000E4F09093C6048093C5048091C504909196
:1022B000C6048234914034F081E491E09093C604E6
:1022C0008093C5048091B6049091B7040E94740A6B
:1022D0001F92FF9280ED93E0B2CF87E290E0E1CFD2
:1022E00030E020E050E040E060E270E090E080E02C
:1022F0000E94A90F80EF93E09F938F930E94760C2A
:102300000E9431070F900F9084CF30E020E050E022
:1023100040E060E270E08CE291E00E94A90F82E070
:1023200094E0EACF2FE030E050E040E060E270E07F
:1023300080EB94E00E94A90F8CE194E0DDCF2FE0C8
:1023400030E050E040E069EB70E08CEB92E00E94FE
:10235000A90F86E294E0D0CF2BE030E041E150E0DD
:1023600069EB70E088E795E00E94A90F8FE294E0A6
:10237000C3CF2BE030E049E150E069EB70E088EB3F
:102380009BE00E94A90F8FE394E0B6CF29E030E0F4
:102390004EE150E069EB70E088E097E00E94A90F01
:1023A0008FE494E0A9CF27E030E042E350E069EB0E
:1023B00070E08CEA9DE00E94A90F83E694E09CCF38
:1023C00022E030E04FE550E069EB70E080E797E114
:1023D0000E94A90F89E794E08FCF1F920F920FB64A
:1023E0000F9211242F933F938F939F93AF93BF939B
:1023F0008091CF049091D004A091D104B091D204E7
:102400003091CE0423E0230F2D3758F50196A11DFE
:10241000B11D2093CE048093CF049093D004A09359
:10242000D104B093D2048091D3049091D404A091AC
:10243000D504B091D6040196A11DB11D8093D3049B
:102440009093D404A093D504B093D604BF91AF91D8
:102450009F918F913F912F910F900FBE0F901F90E2
:10246000189526E8230F0296A11DB11DD2CF1F9209
:102470000F920FB60F9211242F933F934F935F93B8
:102480006F937F938F939F93AF93BF93EF93FF933C
:1024900087ED94E00E94FA05FF91EF91BF91AF9113
:1024A0009F918F917F916F915F914F913F912F916C
:1024B0000F900FBE0F901F9018951F920F920FB69E
:1024C0000F9211242F938F939F93EF93FF93E0919B
:1024D000E704F091E8048081E091ED04F091EE04CE
:1024E00082FD1BC090818091F0048F5F8F732091DB
:1024F000F104821741F0E091F004F0E0E952FB4F63
:10250000958F8093F004FF91EF919F918F912F9180
:102510000F900FBE0F901F9018958081F4CF1F92DF
:102520000F920FB60F9211242F933F934F935F9307
:102530006F937F938F939F93AF93BF93EF93FF938B
:10254000E0910001F09101010995FF91EF91BF9198
:10255000AF919F918F917F916F915F914F913F913B
:102560002F910F900FBE0F901F901895E7EDF4E09C
:102570001382128288EE93E0A0E0B0E0848395831A
:10258000A683B78380E592E09183808385EC90E019
:102590009587848784EC90E09787868780EC90E02D
:1025A000918B808B81EC90E0938B828B82EC90E01E
:1025B000958B848B86EC90E0978B868B118E128E98
:1025C000138E148E84E795E01092B5051092B40531
:1025D0009093B8058093B70520E430E03093BA05B6
:1025E0002093B9051092BB051092BC051092BE0550
:1025F0001092BD051092BF051092C1051092C00542
:102600001092C3051092C2051092C5051092C40520
:102610001092C7051092C6051092C9051092C80500
:102620001092CB051092CA051092CD051092CC05E0
:102630001092D3051092D2051092D5051092D405B0
:102640001092D7051092D6051092D9051092D80590
:102650001092E7051092E6051092B6051092F40567
:102660001092F6051092F5051092390629E033E034
:102670003093DB052093DA052AE033E03093DD0563
:102680002093DC052BE033E03093DF052093DE055B
:102690002CE033E03093E1052093E0052DE033E0BA
:1026A0003093E3052093E2052EE033E03093E50517
:1026B0002093E4052FE033E03093E9052093E8050B
:1026C00020E133E03093EB052093EA052CE237E07C
:1026D0003093ED052093EC059093CF058093CE05C4
:1026E00025E735E03093EF052093EE059093D10573
:1026F0008093D0058BE193E09093F1058093F005F2
:10270000EAE3F6E080E1808380E4818308957894B1
:1027100084B5826084BD84B5816084BD85B58260E6
:1027200085BD85B5816085BD80916E008160809397
:102730006E00109281008091810082608093810000
:102740008091810081608093810080918000816010
:10275000809380008091B10084608093B10080916B
:10276000B00081608093B00080917A008460809393
:102770007A0080917A00826080937A0080917A005A
:10278000816080937A0080917A00806880937A00DB
:102790001092C10088E08093F4058091F505909136
:1027A000F6050E94861BC091F405D0E0CE0101968B
:1027B0000E94EA1A9093F6058093F505FC01EC0F50
:1027C000FD1F108212E0FC0110831182AE01425005
:1027D00051096FE874E002960E940F1C86EE90E1AA
:1027E0009093BA048093B904E091E704F091E8046F
:1027F0001083E091E704F091E8041082E091E30493
:10280000F091E4041082E091E504F091E60480E1A7
:1028100080831092EF04E091EB04F091EC0486E0E9
:102820008083E091E904F091EA04808180618083F3
:10283000E091E904F091EA04808188608083E0916E
:10284000E904F091EA04808180688083E091E904E2
:10285000F091EA0480818F7D808380913906811117
:102860004EC08DE00E94DA0362ED70E080E090E0FF
:102870000E94AC0461E08DE00E944C0468E270E0CC
:1028800080E090E00E94AC0460E08DE00E944C0487
:1028900062ED70E080E090E00E94AC0461E08DE0C9
:1028A0000E944C0468E270E080E090E00E94AC047A
:1028B00060E08DE00E944C046AEF70E080E090E000
:1028C0000E94AC04C5E062ED70E080E090E00E9400
:1028D000AC0461E08DE00E944C0468E270E080E0AE
:1028E00090E00E94AC0460E08DE00E944C04C15076
:1028F00051F76DE770E080E090E00E94AC0487ED56
:1029000094E09093F3058093F2059093B50580933E
:10291000B40584EB95E00E94F90384E795E00E94FA
:10292000BC0681E10E94DA0361E081E10E944C046F
:10293000219A2998559A5D98569A5E98539A5B9871
:1029400083E10E94DA0361E083E10E944C0482E1AA
:102950000E94DA0361E082E10E944C0488E00E9458
:10296000DA0361E088E00E944C0480E10E94DA030F
:1029700061E080E10E944C0487E090E00E94EA1A46
:10298000EC0183E188831A82198200E810E01C833D
:102990000B831E821D820E94890688810E94DA03B1
:1029A00061E088810E944C04D093CD04C093CC0494
:1029B00087E090E00E94EA1AEC0182E188831A82A3
:1029C00019821C830B831E821D820E9489068881C6
:1029D0000E94DA0361E088810E944C04D093CB040A
:1029E000C093CA0487E090E00E94EA1AEC0188E0F4
:1029F00088831A8219821C830B831E821D820E9487
:102A0000890688810E94DA0361E088810E944C0473
:102A1000D093C904C093C80461E082E00E94000A18
:102A200061E083E00E94000A61E084E00E94000A05
:102A300061E085E00E94000A60E086E00E94000AF2
:102A400060E087E00E94000A6CE386E00E94D10902
:102A500080E1809381001092800091E09093C70400
:102A6000109287001092860021E1209381002BEEC6
:102A700034E0309301012093000190936F00809324
:102A8000810087E890E09093C6048093C50410927B
:102A9000C4041092C30486E480937C0080917A0081
:102AA000806480937A0080917A0086FDFCCF8091CB
:102AB000780060917900762F682F072E000C880B24
:102AC000990B611571058105910511F00E943C1665
:102AD00030E020E050E040E060E270E090E080E034
:102AE0000E94A90F80E290E00E94C50F0E94DF04BF
:102AF00068517C4F8F4F9F4F6093BF047093C00409
:102B00008093C1049093C2040E94DF046C507E4FF6
:102B10008F4F9F4F6093BB047093BC048093BD04A0
:102B20009093BE04C0E0D0E00E94C8070E94B00CA1
:102B30002097D1F30E94E6058823B1F30E9400009C
:102B4000F3CF8F929F92AF92BF92CF92DF92EF928C
:102B5000FF92CF93DF93EC01688179818A819B8119
:102B6000611571058105910521F464E279ED8BE52C
:102B700097E02DE133EF41E050E00E944E1649010D
:102B80005A019B01AC01A7EAB1E40E946D166B01EA
:102B90007C01ACEEB4EFA50194010E947B16C60E39
:102BA000D71EE81EF91EF7FE06C081E0C81AD1083C
:102BB000E10880E8F80AC882D982EA82FB82C7016C
:102BC000B6019F77DF91CF91FF90EF90DF90CF908C
:102BD000BF90AF909F908F9008958F929F92AF92E9
:102BE000BF92CF92DF92EF92FF92609102017091BB
:102BF0000301809104019091050161157105810522
:102C0000910521F464E279ED8BE597E02DE133EF56
:102C100041E050E00E944E1649015A019B01AC016F
:102C2000A7EAB1E40E946D166B017C01ACEEB4EF33
:102C3000A50194010E947B16C60ED71EE81EF91E40
:102C4000F7FE06C081E0C81AD108E10880E8F80A5A
:102C5000C0920201D0920301E0920401F0920501BA
:102C6000C701B6019F77FF90EF90DF90CF90BF90A4
:102C7000AF909F908F90089560930201709303012D
:102C800080930401909305010895FB01DC0102C0CB
:102C900005900D9241505040D8F70895052E97FBAE
:102CA0001EF400940E94651657FD07D00E948016FE
:102CB00007FC03D04EF40C94651650954095309562
:102CC00021953F4F4F4F5F4F089590958095709598
:102CD00061957F4F8F4F9F4F08950E94A216A59F29
:102CE000900DB49F900DA49F800D911D1124089507
:102CF000B7FF0C946D160E946D16821B930B0895FE
:102D0000A1E21A2EAA1BBB1BFD010DC0AA1FBB1FEF
:102D1000EE1FFF1FA217B307E407F50720F0A21B61
:102D2000B30BE40BF50B661F771F881F991F1A94CE
:102D300069F760957095809590959B01AC01BD01F8
:102D4000CF010895A29FB001B39FC001A39F700D52
:102D5000811D1124911DB29F700D811D1124911DA3
:102D6000089597FB072E16F4009407D077FD09D03D
:102D70000E94CB1607FC05D03EF4909581959F4F9D
:102D80000895709561957F4F0895EE0FFF1F059090
:102D9000F491E02D0994AA1BBB1B51E107C0AA1FA7
:102DA000BB1FA617B70710F0A61BB70B881F991FEC
:102DB0005A95A9F780959095BC01CD01089550587A
:102DC000BB27AA270E94F7160C94D2180E94C41899
:102DD00038F00E94CB1820F039F49F3F19F426F404
:102DE0000C949A180EF4E095E7FB0C949418E92FD4
:102DF0000E94E31858F3BA17620773078407950710
:102E000020F079F4A6F50C9405190EF4E0950B2E3C
:102E1000BA2FA02D0B01B90190010C01CA01A0012C
:102E20001124FF27591B99F0593F50F4503E68F187
:102E30001A16F040A22F232F342F4427585FF3CFC8
:102E4000469537952795A795F0405395C9F77EF499
:102E50001F16BA0B620B730B840BBAF09150A1F0E2
:102E6000FF0FBB1F661F771F881FC2F70EC0BA0F68
:102E7000621F731F841F48F4879577956795B795F0
:102E8000F7959E3F08F0B0CF9395880F08F09927EB
:102E9000EE0F9795879508950E94701808F481E0C9
:102EA00008950E9465170C94D2180E94CB1858F010
:102EB0000E94C41840F029F45F3F29F00C94941844
:102EC00051110C9406190C949A180E94E31868F397
:102ED0009923B1F3552391F3951B550BBB27AA27D3
:102EE00062177307840738F09F5F5F4F220F331F0D
:102EF000441FAA1FA9F335D00E2E3AF0E0E832D0D5
:102F000091505040E695001CCAF72BD0FE2F29D0D7
:102F1000660F771F881FBB1F261737074807AB07A9
:102F2000B0E809F0BB0B802DBF01FF2793585F4F1E
:102F30003AF09E3F510578F00C9494180C940619C1
:102F40005F3FE4F3983ED4F3869577956795B79500
:102F5000F7959F5FC9F7880F911D9695879597F90B
:102F60000895E1E0660F771F881FBB1F6217730784
:102F70008407BA0720F0621B730B840BBA0BEE1F99
:102F800088F7E095089529F416F00C9494180C94A1
:102F900005190C949A180E94EB18A8F39638A0F71C
:102FA00007F80F92E8942BE33AEA48EB5FE70E94B8
:102FB00098190F920F920F924DB75EB70F920E9421
:102FC0004E19E8E6F0E00E949D184F915F91EF9155
:102FD000FF91E595EE1FFF1F49F0FE57E06844277B
:102FE000EE0F441FFA95E1F74195550B0E94181911
:102FF0000F9007FE0C940C1908950E940418689411
:10300000B1110C94061908950E94EB1888F09F578F
:1030100098F0B92F9927B751B0F0E1F0660F771FFC
:10302000881F991F1AF0BA95C9F714C0B13091F0F2
:103030000E940519B1E008950C940519672F782FA7
:103040008827B85F39F0B93FCCF3869577956795B7
:10305000B395D9F73EF490958095709561957F4F23
:103060008F4F9F4F0895E89409C097FB3EF49095C9
:103070008095709561957F4F8F4F9F4F9923A9F051
:10308000F92F96E9BB279395F695879577956795E0
:10309000B795F111F8CFFAF4BB0F11F460FF1BC024
:1030A0006F5F7F4F8F4F9F4F16C0882311F096E9B7
:1030B00011C0772321F09EE8872F762F05C0662365
:1030C00071F096E8862F70E060E02AF09A95660F1E
:1030D000771F881FDAF7880F9695879597F90895D7
:1030E000990F0008550FAA0BE0E8FEEF1616170619
:1030F000E807F907C0F012161306E407F50798F081
:10310000621B730B840B950B39F40A2661F0232B99
:10311000242B252B21F408950A2609F4A140A69515
:103120008FEF811D811D089597F99F6780E870E0FA
:1031300060E008959FEF80EC0895DF93CF931F9395
:103140000F93FF92EF92DF927B018C01689406C08F
:10315000DA2EEF010E949519FE01E894A5912591C0
:10316000359145915591A6F3EF010E94F716FE01A6
:103170009701A801DA9469F7DF90EF90FF900F9123
:103180001F91CF91DF91089500240A941616170617
:1031900018060906089500240A9412161306140648
:1031A00005060895092E0394000C11F4882352F0AB
:1031B000BB0F40F4BF2B11F460FF04C06F5F7F4F63
:1031C0008F4F9F4F089557FD9058440F551F59F04A
:1031D0005F3F71F04795880F97FB991F61F09F3F04
:1031E00079F087950895121613061406551FF2CF2D
:1031F0004695F1DF08C0161617061806991FF1CF7D
:1032000086957105610508940895E894BB276627A3
:103210007727CB0197F908959B01AC0160E070E03E
:1032200080E89FE30C9451170C9494180C94851A21
:103230000E94EB18D8F39923C9F3940F511DA3F3FF
:103240009150504094F059F0882332F0660F771F68
:10325000881F91505040C1F79E3F51052CF7880FB1
:10326000911D9695879597F908955F3FACF0983E2C
:103270009CF0BB27869577956795B79508F4B16064
:103280009395C1F7BB0F58F711F460FFE8CF6F5F5C
:103290007F4F8F4F9F4FE3CF0C940619FA01DC014B
:1032A000AA0FBB1F9B01AC01BF5728F4222733276D
:1032B0004427507820C0B75190F4AB2F0024469596
:1032C00037952795011CA395D2F3002071F0220FAA
:1032D000331F441FB395DAF30ED00C94DF16613020
:1032E0007105A0E88A07B94630F49B01AC01662756
:1032F000772788279078309621F020833183428386
:10330000538308950E9495190C94D2180E94C418F2
:1033100038F00E94CB1820F0952311F00C949418EB
:103320000C949A1811240C9406190E94E31870F357
:10333000959FC1F3950F50E0551F629FF001729F5A
:10334000BB27F00DB11D639FAA27F00DB11DAA1F69
:10335000649F6627B00DA11D661F829F2227B00DB6
:10336000A11D621F739FB00DA11D621F839FA00D41
:10337000611D221F749F3327A00D611D231F849F91
:10338000600D211D822F762F6A2F11249F575040E8
:103390009AF0F1F088234AF0EE0FFF1FBB1F661F63
:1033A000771F881F91505040A9F79E3F510580F02C
:1033B0000C9494180C9406195F3FE4F3983ED4F3F0
:1033C000869577956795B795F795E7959F5FC1F7D0
:1033D000FE2B880F911D9695879597F90895FA0110
:1033E000EE0FFF1F309621053105A1F16115710522
:1033F00061F48038BFE39B0749F1689490388105F8
:1034000061F08038BFEF9B0741F099234AF5FF3FF9
:10341000E1053105210519F1E8940894E795D901F2
:10342000AA2329F4AB2FBE2FF85FD0F310C0FF5FA3
:1034300070F4A695E0F7F73950F019F0FF3A38F438
:103440009F779F930DD00F9007FC9058089546F0FA
:103450000C949A1860E070E080E89FE308954FE7CD
:103460009F775F934F933F932F930E94A21A2F91C0
:103470003F914F915F910E9482190C94CB1719F4E0
:1034800016F40C949A180C94851A0E94EB18B8F351
:103490009923C9F3B6F39F57550B87FF0E94931AE0
:1034A0000024A0E640EA900180585695979528F4AC
:1034B000805C660F771F881F20F0261737074807A4
:1034C00030F4621B730B840B202931294A2BA695FB
:1034D00017940794202531254A2758F7660F771F40
:1034E000881F20F026173707480730F4620B730B4C
:1034F000840B200D311D411DA09581F7B901842F4A
:103500009158880F9695879508959F3F31F0915077
:1035100020F4879577956795B795880F911D9695B7
:10352000879597F9089591505040660F771F881F2F
:10353000D2F7089516F00C94851A0C949A18689492
:103540000C9494180E94EB18A8F39923C1F3AEF3DE
:10355000DF93CF931F930F93FF92C92FDD2788230B
:103560002AF02197660F771F881FDAF720E030E0F6
:1035700040E85FEB9FE3883920F0803E38F02196E9
:103580008F770E94E016E0E9F0E004C00E94E016A8
:10359000EDEBF0E00E949D188B01BE01EC01FB2ECB
:1035A0006F5771097595771F880B990B0E94351815
:1035B00028E132E741E35FE30E949519AF2D9801BE
:1035C000AE01FF900F911F91CF91DF910E94F716EE
:1035D0000C94D2180F931F93CF93DF9382309105F1
:1035E00010F482E090E0E0913E06F0913F0630E07A
:1035F00020E0B0E0A0E0309799F42115310509F4FE
:103600004AC0281B390B24303105D8F58A819B81AB
:103610006115710589F1FB0193838283FE0111C05D
:10362000408151810281138148175907E0F0481702
:10363000590799F4109761F012960C93129713960C
:103640001C933296CF01DF91CF911F910F91089576
:1036500000933E0610933F06F4CF2115310551F03B
:103660004217530738F0A901DB019A01BD01DF01C0
:10367000F801C1CFEF01F9CF90933F0680933E064A
:10368000CDCFFE01E20FF31F8193919322503109B8
:1036900039832883D7CF20913C0630913D06232BD8
:1036A00041F4209108013091090130933D062093A7
:1036B0003C0620910601309107012115310541F4A6
:1036C0002DB73EB740910A0150910B01241B350BD9
:1036D000E0913C06F0913D06E217F307A0F42E1BA3
:1036E0003F0B2817390778F0AC014E5F5F4F241766
:1036F000350748F04E0F5F1F50933D0640933C0640
:10370000819391939FCFF0E0E0E09CCFCF93DF9344
:103710000097E9F0FC01329713821282A0913E06D5
:10372000B0913F06ED0130E020E01097A1F4208138
:103730003181820F931F20913C0630913D0628175E
:10374000390709F061C0F0933D06E0933C06DF9134
:10375000CF910895EA01CE17DF07E8F54A815B8132
:103760009E0141155105B1F7E901FB83EA834991B7
:103770005991C40FD51FEC17FD0761F48081918129
:103780000296840F951FE901998388838281938132
:103790009B838A83F0E0E0E012968D919C911397D1
:1037A0000097B9F52D913C911197CD010296820FAA
:1037B000931F20913C0630913D062817390739F6B2
:1037C000309751F510923F0610923E06B0933D0699
:1037D000A0933C06BCCFD383C28340815181840F28
:1037E000951FC817D90761F44E5F5F4F8881998193
:1037F000480F591F518340838A819B819383828321
:103800002115310509F0B0CFF0933F06E0933E0655
:103810009ECFFD01DC01C0CF13821282D7CFFB0106
:10382000DC014150504048F001900D920020C9F752
:1038300001C01D9241505040E0F70895AEE0B0E065
:10384000E4E2FCE10C94D61E8C01FA0186E08C8344
:103850001A83098377FF02C060E070E86150710944
:103860007E836D83A901BF01CE0101960E944A1C8F
:103870004D815E8157FD0AC02F813885421753075D
:103880000CF49A01020F131FF80110822E96E4E047
:103890000C94F21EABE0B0E0E0E5FCE10C94C81E35
:1038A0007C013B018A01FC0117821682838181FF22
:1038B000C8C1CE0101965C01F7019381F30193FD2C
:1038C000859193FF81913F01882309F453C185328B
:1038D00039F493FD859193FF81913F01853229F45D
:1038E000B70190E00E943A1EE7CF912C212C312C99
:1038F000FFE1F31538F08B3211F190F4803209F1C9
:10390000833229F137FC3CC020ED280F2A3050F5D6
:1039100036FE20C08AE0989E200D1124922E06C00B
:103920008D3291F0803371F7689430F8F30193FD94
:10393000859193FF81913F018111DACF21C0689475
:1039400031F8689432F8F2CF689433F8EFCF689486
:1039500034F8ECCFEAE02E9E200D1124222E68943C
:1039600035F8E4CF8E3229F436FC04C1689436F879
:10397000DDCF8C3619F4689437F8D8CF8836B1F299
:10398000982F9F7D95549330E0F08336A1F18337D3
:10399000C1F1833509F063C02801F2E04F0E511CDC
:1039A000F801C080D180692D70E036FC02C06FEF55
:1039B0007FEFC6010E94241E4C01689437F88201F3
:1039C0000AC00C5F1F4FFFE3F98388248394912C76
:1039D0006501E89437F833FE2DC0522C8114910410
:1039E00071F5552009F468CFB70180E290E00E949C
:1039F0003A1E5A94F6CFF801808189830E5F1F4FDB
:103A0000E4CF2801F2E04F0E511CF801C080D180B4
:103A1000692D70E036FC02C06FEF7FEFC6010E9497
:103A20002F1E4C018201D5CFB70180E290E00E94A9
:103A30003A1E2A942814190409F0B0F7CECFF601E3
:103A400037FC859137FE81916F01B70190E00E94AC
:103A50003A1E51105A94F1E08F1A9108BFCF843664
:103A600019F0893609F077C0F80137FE6BC0608124
:103A70007181828193810C5F1F4FF32DFF763F2E62
:103A800097FF09C090958095709561957F4F8F4FF6
:103A90009F4F689437F82AE030E0A5010E946A1E23
:103AA000C82ECA188C2C432C36FE0CC0E89440F863
:103AB000C91440F434FE05C032FC03C0F32DFE7E71
:103AC0004F2E892C44FE95C0FE01EC0DF11D808126
:103AD000803309F087C0242D297E422E842D8870E2
:103AE000582E43FC95C040FE8FC09C2C821418F4C5
:103AF0002C0C922C981844FE91C0B70180E390E002
:103B00000E943A1E42FE09C088E790E041FE02C0D2
:103B100088E590E0B7010E943A1EC91408F48AC0F3
:103B2000CA94D12C9FEFC91AD90ACA0CDB1CF60122
:103B300082916F01B70190E00E943A1EAC14BD045F
:103B4000B1F74FCF60817181072E000C880B990B64
:103B50000E5F1F4F92CFD32CE894D4F82AE030E0C8
:103B6000853739F1232D297FD22E8F3601F148F484
:103B70008835A9F0F701868197812B96E2E10C94B4
:103B8000E41E803749F08837A9F7D4FE02C0689454
:103B9000D2F820E130E00DC06894D4F8F6CF34FEBE
:103BA00003C0822F8660D82E20E132E002C028E0D8
:103BB00030E0F801D7FE0FC060817181828193816E
:103BC0000C5F1F4FA5010E946A1EC82ECA183D2C0B
:103BD000E89437F867CF6081718190E080E00E5FF4
:103BE0001F4FF0CF42FC02C0839478CF839483941C
:103BF00075CF842D867809F471CFF6CFB70180E2B6
:103C000090E00E943A1E83948214C0F3512C73CF2B
:103C1000522C5818821408F46ECFF8CF842D867871
:103C200009F47BCF8BE241FE80E247FC8DE2B701D5
:103C300090E071CFB70180E390E00E943A1E9A9421
:103C40006CCF8FEF9FEF99CFFC01059061507040D2
:103C50000110D8F7809590958E0F9F1F0895FC0155
:103C60006150704001900110D8F7809590958E0FAB
:103C70009F1F08950F931F93CF93DF93182F092F42
:103C8000EB018B8181FD09C01FEF0FEF812F902F7A
:103C9000DF91CF911F910F91089582FF14C02E8163
:103CA0003F818C819D81281739073CF4E881F98197
:103CB000CF0101969983888310838E819F8101961D
:103CC0009F838E83E3CFE885F985812F0995892B22
:103CD000A1F3DACFFA01AA27283051F1203181F17E
:103CE000E8946F936E7F6E5F7F4F8F4F9F4FAF4F04
:103CF000B1E03ED0B4E03CD0670F781F891F9A1F17
:103D0000A11D680F791F8A1F911DA11D6A0F711DCA
:103D1000811D911DA11D20D009F468943F912AE0D6
:103D2000269F11243019305D3193DEF6CF010895BE
:103D3000462F4770405D4193B3E00FD0C9F7F6CFEF
:103D4000462F4F70405D4A3318F0495D31FD4052B7
:103D5000419302D0A9F7EACFB4E0A695979587954D
:103D600077956795BA95C9F700976105710508952C
:103D70009B01AC010A2E06945795479537952795D8
:103D8000BA95C9F7620F731F841F951FA01D089570
:103D90002F923F924F925F926F927F928F929F925B
:103DA000AF92BF92CF92DF92EF92FF920F931F9349
:103DB000CF93DF93CDB7DEB7CA1BDB0B0FB6F894FA
:103DC000DEBF0FBECDBF09942A88398848885F843A
:103DD0006E847D848C849B84AA84B984C884DF80AB
:103DE000EE80FD800C811B81AA81B981CE0FD11D8F
:103DF0000FB6F894DEBF0FBECDBFED010895F89465
:023E0000FFCFF2
:103E020074050100000000004006800000001D0053
:103E1200000001001E002C00000000002D004400E4
:103E2200010000004500530000000000540059004A
:103E3200000001005A0068000000000069008000D4
:103E42000100000081008F0000000000900095003A
:103E5200000001009600A40000000000A500BC00C4
:103E620001000000BD00CB0000000000CC00D1002A
:103E720000000100D200E00000000000E100F700B5
:103E820001000000F80006010000000007010D011A
:103E9200000001000E011B01000000001C013301A3
:103EA2000100000034014301000000004401480108
:103EB20000000100490157010000000058016F0194
:103EC2000100000070017E01000000007F018401FA
:103ED2000000010085019301000000009401AB0184
:103EE20001000000AC01BA0100000000BB01C001EA
:103EF20000000100C101CF0100000000D001E90172
:103F020001000000EA01F60100000000F701FC01D7
:103F120000000100FD010B02000000000C02230260
:103F220001000000240232020000000033023802C5
:103F320000000100390247020000000048025E0250
:103F4200010000005F02E803010000000000000021
:103F52001C067C05A9056906DA05B805CC05636F60
:103F62006F6C616E7474656D703D25640043616CA5
:103F7200632052203D2025640047657474696E6792
:103F820020636F6F6C616E74207769706572732045
:103F9200666F7220726573697374616E63653D2525
:103FA20064004C6F7765737420523D2564204E7512
:103FB2006D5461626C65456E74726965733D25640A
:103FC200002564203C3D202564004D6174636865D2
:103FD2006420523D256420283029004D61746368B5
:103FE200656420523D256420282564292057697084
:103FF2006572313D2564205769706572323D2564D2
:10400200004E6F206D617463682C20757365206C9F
:104012006172676573742076616C7565004D6174B9
:104022006368656420523D25642028256429006167
:10403200697274656D703D25640047657474696EBC
:10404200672061697220776970657220666F7220DD
:10405200726573697374616E63653D2564004D61B9
:10406200746368656420523D256400576970657207
:104072003D25640053657420636F6F6C616E74201C
:1040820074656D7020746F2025642046005365743A
:10409200206169722074656D7020746F2025642020
:1040A2004600536574207468726F74746C65207472
:1040B2006F2025640053657420656E67696E652004
:1040C200737065656420746F2025642052504D0022
:1040D2005365742070756C7365206477656C6C2011
:1040E200616E676C6520746F2025642064656700CB
:1040F2005475726E656420656E67696E65206F66C1
:104102006600456E67696E65206372616E6B696EEB
:10411200672061742033303052504D00436F6C641D
:104122002069646C6500486F742069646C650043A3
:1041320072756973652061742033304D50480043B5
:1041420072756973652061742037304D504800479D
:10415200656E746C6520616363656C657261746918
:104162006F6E004D6F646572617465206163636593
:104172006C65726174696F6E00486172642061637C
:1041820063656C65726174696F6E007372635C5310
:0A419200657269616C2E63707000A5
:00000001FF
