:100000000C94A3000C94CB000C94CB000C94CB006C
:100010000C94CB000C94CB000C94CB000C94CB0034
:100020000C94CB000C94CB000C94CB000C94CB0024
:100030000C94CB000C94C7070C94CB000C94CB0011
:100040000C9425070C94CB000C9495070C946F0727
:100050000C94CB000C94CB000C94CB000C94CB00F4
:100060000C94CB000C94CB0007634236B79BD8A707
:100070001A39685618AEBAAB558C1D3CB7CC5763CD
:10008000BD6DEDFD753EF6177231BF000000803F7B
:1000900008000000BE922449123EABAAAA2ABECD97
:1000A000CCCC4C3E00000080BEABAAAAAA3E000009
:1000B0000000BF000000803F000000000008417801
:1000C000D3BB4387D1133D190E3CC3BD4282AD2B38
:1000D0003E68EC8276BED98FE1A93E4C80EFFFBE30
:1000E00001C4FF7F3F00000000000000000023006B
:1000F0002600290000000008000201000003040798
:1001000000000000000000000000000025002800A2
:100110002B0000000000240027002A00040404042F
:1001200004040404020202020202030303030303A1
:10013000010204081020408001020408102001027E
:1001400004081020EE0711241FBECFEFD8E0DEBF59
:10015000CDBF12E0A0E0B1E0E2E8FBE202C0059012
:100160000D92A238B107D9F724E0A2E8B2E001C0AD
:100170001D92A631B207E1F710E0C3EAD0E004C057
:100180002197FE010E94C20DC23AD107C9F70E9411
:10019000B9080C94BF150C940000089508950895B3
:1001A0000895089508950895862F642FE09185029B
:1001B000F0918602309711F0A901099408950895ED
:1001C00090E0FC01E05DFE4F2491845E9E4FFC01B7
:1001D0008491882399F090E0880F991FFC01EE5ECE
:1001E000FE4FA591B491FC01E85FFE4F859194917B
:1001F0008FB7F894EC91E22BEC938FBF08950F9397
:100200001F93CF93DF938C01EB01DC018D919C91C7
:1002100068816F77DC01ED91FC910190F081E02D18
:100220000995F80180819181688170E0660F672FE0
:10023000661F770BDC01ED91FC910190F081E02DC0
:10024000DF91CF911F910F910994EF92FF920F933D
:100250001F93CF93DF93C82F80918C0390918D03D0
:100260000097A9F17A018B01DC01ED91FC910190DD
:10027000F081E02D60EF099580918C0390918D03C2
:10028000DC01ED91FC910190F081E02D6C2F09953E
:10029000E7010E0D1F1DC017D10739F0BE018CE814
:1002A00093E00E94FF002196F6CF80918C039091FD
:1002B0008D03DC01ED91FC910190F081E02D67EF61
:1002C000DF91CF911F910F91FF90EF900994DF91F3
:1002D000CF911F910F91FF90EF900895CF93DF93EF
:1002E000FC01A081B181109701F1EC01ED91FC912D
:1002F00011970190F081E02D69EFCD01099588817A
:100300009981DC01ED91FC910190F081E02D62E09A
:10031000099588819981DC01ED91FC910190F08132
:10032000E02D65E0DF91CF910994DF91CF910895A1
:100330001F93CF93DF93182FEB018091910390913E
:1003400092036817790760F480918F03909190036E
:10035000C80FD91F188380E0DF91CF911F910895B6
:10036000E091BE03F091BF03309711F481E0F4CF28
:1003700081E080938E038091AA039091AB0309954D
:100380008091910390919203C817D90778F7DCCF39
:10039000CF93DF93EC01FB0130E020E0C901880F2F
:1003A000991F8C179D0778F44081DB014D93BD01A7
:1003B00011979181979599279795942B9C932F5FEF
:1003C0003F4F3296EBCFC901DF91CF910895833033
:1003D00081F028F4813099F08230A9F008958730B7
:1003E000A9F08830C9F08430B1F4809180008F7D0D
:1003F00003C0809180008F7780938000089584B53A
:100400008F7784BD089584B58F7DFBCF8091B00038
:100410008F778093B00008958091B0008F7DF9CFE1
:100420001F93CF93DF93282F30E0F901EC50FF4F5B
:100430008491F901E05DFE4FD491F901E45EFE4F35
:10044000C491CC23A9F0162F81110E94E701EC2F53
:10045000F0E0EE0FFF1FE85FFE4FA591B4918FB75C
:10046000F894EC91111108C0D095DE23DC938FBF76
:10047000DF91CF911F910895DE2BF8CFEF92FF927D
:100480000F931F93CF93DF93EC017B018A018D8142
:100490009E8101969E838D83019781F48CB58F7D1B
:1004A0008CBD8CB5837F8CBD8CB583608CBD8DB5C8
:1004B0008E7F8DBD60E088810E94100284E0EE0C8A
:1004C000FF1C8A95E1F76894E1F8A80151705E2954
:1004D0005EBD00000DB407FEFDCF11E00EB401FCBF
:1004E00014C010E08D819E8101979E838D83892B9E
:1004F00021F461E088810E941002812FDF91CF9169
:100500001F910F91FF90EF9008954EBD00000DB424
:1005100007FEFDCF8EB5E6CF3FB7F8948091AB02D2
:100520009091AC02A091AD02B091AE0226B5A89B0D
:1005300005C02F3F19F00196A11DB11D3FBFBA2F75
:10054000A92F982F8827BC01CD01620F711D811D35
:10055000911D42E0660F771F881F991F4A95D1F7BA
:1005600008958F929F92AF92BF92CF92DF92EF92B7
:10057000FF926B017C010E948C024B015C01C11453
:10058000D104E104F104B9F00E948C0268197909E0
:100590008A099B09683E73408105910580F321E03B
:1005A000C21AD108E108F10888EE880E83E0981E8F
:1005B000A11CB11CE4CFFF90EF90DF90CF90BF90D3
:1005C000AF909F908F9008952FB7F8946091A702F5
:1005D0007091A8028091A9029091AA022FBF08955C
:1005E0008091820290918302892B09F4299A80914B
:1005F000820290918302892B09F4299880918202CA
:1006000090918302892B09F45E9A809182029091E5
:100610008302892B09F45E98809182029091830273
:10062000892B09F45D9A8091820290918302892B33
:1006300009F45D988091820290918302892B09F4DC
:100640005B9A8091820290918302892B09F45B98D6
:10065000809182029091830201969093830280930D
:100660008202109283021092820280E49FE19093B2
:1006700087008093860081E18093810080EF92E083
:10068000909301018093000181E080936F000895B1
:100690000895009721F0805C9F4F0C946E0108959F
:1006A000AF92BF92CF92DF92EF92FF920F931F9380
:1006B000CF93DF936C017B018B01040F151FEB01BE
:1006C0005E01AE18BF08C017D10759F06991D60175
:1006D000ED91FC910190F081E02DC6010995892BE7
:1006E00079F7C501DF91CF911F910F91FF90EF90A6
:1006F000DF90CF90BF90AF900895FC01538D448D53
:10070000252F30E0842F90E0821B930B541710F0BC
:10071000CF96089501970895FC01918D828D9817C9
:1007200061F0A28DAE0FBF2FB11D5D968C91928DA1
:100730009F5F9F73928F90E008958FEF9FEF0895D2
:10074000FC01918D828D981731F0828DE80FF11D9B
:10075000858D90E008958FEF9FEF0895FC01918DB6
:10076000228D892F90E0805C9F4F821B91098F73AF
:10077000992708958FEA92E00E94AE0321E0892B29
:1007800009F420E0822F089580E090E0892B29F081
:100790000E94BA0381110C9400000895FC01A48DFD
:1007A000A80FB92FB11DA35ABF4F2C91848D90E093
:1007B00001968F739927848FA689B7892C93A08976
:1007C000B1898C91837080648C93938D848D981300
:1007D00006C00288F389E02D80818F7D8083089593
:1007E000EF92FF920F931F93CF93DF93EC0181E081
:1007F000888F9B8D8C8D98131AC0E889F989808128
:1008000085FF15C09FB7F894EE89FF896083E8895A
:10081000F98980818370806480839FBF81E090E04C
:10082000DF91CF911F910F91FF90EF900895F62ED9
:100830000B8D10E00F5F1F4F0F731127E02E8C8D73
:100840008E110CC00FB607FCFACFE889F9898081B8
:1008500085FFF5CFCE010E94CE03F1CFEB8DEC0FDB
:10086000FD2FF11DE35AFF4FF0829FB7F8940B8FD5
:10087000EA89FB8980818062CFCFCF93DF93EC013F
:10088000888D8823B9F0AA89BB89E889F9898C9178
:1008900085FD03C0808186FD0DC00FB607FCF7CF34
:1008A0008C9185FFF2CF808185FFEDCFCE010E9434
:1008B000CE03E9CFDF91CF910895CF93CFB7F894CE
:1008C00080918402811124C0E6E2F1E08491EAE3A0
:1008D000F1E09491E82FF0E0EE0FFF1FEE5EFE4F87
:1008E000A591B491EC91E92321F461E08AE00E94A2
:1008F00010028AE00E94E0008CB580618CBD8CB54E
:1009000080648CBD8DE00E94E0008BE00E94E000DE
:10091000809184028F5F80938402CFBFCF9108952E
:10092000CF92DF92EF92FF920F931F93CF93DF93BB
:10093000FC01E058FF4FE080EE2009F458C0EC01C4
:10094000C05CDF4FA881B981109709F450C0FC0149
:10095000EF57FF4FC080D180F60111810081ED91EA
:10096000FC9111970190F081E02D60EFCD01099588
:1009700088819981DC01ED91FC910190F081E02D5D
:1009800069E7099588819981DC01ED91FC910190DD
:10099000F081E02D602F099588819981DC01ED912E
:1009A000FC910190F081E02D612F0995F12C01E07F
:1009B00010E00F5F1F4FE016F10639F0B601600F2F
:1009C000711FCE010E94FF00F4CF88819981DC0164
:1009D000ED91FC910190F081E02D67EFDF91CF91D7
:1009E0001F910F91FF90EF90DF90CF900994DF91CE
:1009F000CF911F910F91FF90EF90DF90CF900895CE
:100A0000009711F00C94900408954F925F926F92AA
:100A10007F928F929F92AF92BF92CF92DF92EF928E
:100A2000FF920F931F93CF93DF93CDB7DEB7A497B9
:100A30000FB6F894DEBF0FBECDBFC090A002D0901D
:100A4000A10280908C0290908D0240919002509172
:100A5000910280918702009192021091930240903E
:100A60008E0250908F02052C000C6608770849868C
:100A70005A866B867C86092C000CAA08BB088D82DE
:100A80009E82AF82B8860D2C000CEE08FF08C9824A
:100A9000DA82EB82FC82012E000C220B330B098BD5
:100AA0001A8B2B8B3C8B052E000C660B770B4D871E
:100AB0005E876F87788B198E1A8E1B8E1C8E1D8A0F
:100AC0001E8A1F8A188E1D8E1E8E1F8E18A290E001
:100AD000B0E0A0E089A39AA3ABA3BCA3AE014F5F93
:100AE0005F4F64E270E080E10E942501A4960FB69A
:100AF000F894DEBF0FBECDBFDF91CF911F910F9154
:100B0000FF90EF90DF90CF90BF90AF909F908F902D
:100B10007F906F905F904F900895CF93DF932AE07E
:100B2000AC01249FC001259F900D1124893E53E004
:100B3000950714F088EE93E097FF02C090E080E004
:100B4000E8E0F1E0D0E0C0E04081518184179507F2
:100B50001CF14281538148175907F4F083E0CC0F10
:100B6000DD1F8A95E1F7FE01E85FFE4F84819581E4
:100B700061E0019709F060E080E10E941002C85F27
:100B8000DE4F8E819F8161E0019709F060E08FE088
:100B9000DF91CF910C94100221963896C832D1057E
:100BA00099F6DF91CF910895CF93DF93EC010397EE
:100BB00034F461E08EE00E94100260E008C060E062
:100BC0008EE00E94100261E0C135D105B4F388E0E7
:100BD000DF91CF910C941002EF92FF920F931F932D
:100BE000CF93DF93CDB7DEB7C058D1090FB6F894D5
:100BF000DEBF0FBECDBF9E0125573F4F4AE552E0F5
:100C000060E870E08E010F5F1F4FC8010E94DE1286
:100C10007C01F80101900020E9F73197BF01601BCA
:100C2000710BA80181E70E942501C701C058DF4F61
:100C30000FB6F894DEBF0FBECDBFDF91CF911F91ED
:100C40000F91FF90EF9008954F925F926F927F9275
:100C50008F929F92AF92BF92CF92DF92EF92FF92CC
:100C600090938D0280938C029C012052310945E0C3
:100C7000429FC001439F900D112469E070E00E94E3
:100C80009A0D072E000C880B990B0E94190F23E375
:100C900033E948E853E40E94C90D9B01AC0160E0D0
:100CA00070E080E89FE30E94350E9B01AC0169EE85
:100CB0007EE98AEA9AE30E94C80D21EE31EC49E30D
:100CC00054E30E94350E6B017C01AC019B010E9434
:100CD000421020E030E040E85EE30E94421021E252
:100CE0003EE44CEE5CE40E94C90D0E9405114B01EC
:100CF0005C0120E030E040E05FE3C701B6010E9404
:100D000042106B017C01AC019B01C501B4010E9442
:100D1000C80D2BEA3AEA4AEA5EE30E94AF102B01C3
:100D20003C01A7019601C501B4010E94C90D2BEA3F
:100D30003AEA4AEA5EE30E94AF109B01AC01C301AC
:100D4000B2010E94C80D0E94AF0E0E94E10E6837EA
:100D500082E1780714F067E772E16F30710514F4EF
:100D60006FE070E0695E7109072E000C880B990B2B
:100D70000E94190F209194023091950240919602A1
:100D8000509197020E94350E0E94E10E77FF02C03B
:100D900070E060E080919C0290919D026F3F710530
:100DA00019F014F06FEF70E0FC0123813481AB0186
:100DB0002617370708F4A901FC0161817281FF90B1
:100DC000EF90DF90CF90BF90AF909F908F907F90EB
:100DD0006F905F904F900C943E02EF92FF920F93B2
:100DE0001F93CF93DF93182F062F7A01813071F074
:100DF0008B3079F0602F70E0A701812FDF91CF91C8
:100E00001F910F91FF90EF900C9425010E94050512
:100E1000F1CFFA01C081D18180918C0290918D0235
:100E2000C817D90719F0CE010E942406DF93CF938B
:100E30008AE592E09F938F930E94EC050E9405053E
:100E40000F900F900F900F90D5CF1F920F920FB66B
:100E50000F9211242F933F938F939F93AF93BF9340
:100E60008091A7029091A802A091A902B091AA0234
:100E70003091A60223E0230F2D3758F50196A11DCE
:100E8000B11D2093A6028093A7029093A802A0937D
:100E9000A902B093AA028091AB029091AC02A091FA
:100EA000AD02B091AE020196A11DB11D8093AB02BF
:100EB0009093AC02A093AD02B093AE02BF91AF91FC
:100EC0009F918F913F912F910F900FBE0F901F9088
:100ED000189526E8230F0296A11DB11DD2CF1F92AF
:100EE0000F920FB60F9211242F933F934F935F935E
:100EF0006F937F938F939F93AF93BF93EF93FF93E2
:100F00008FEA92E00E94CE03FF91EF91BF91AF91E3
:100F10009F918F917F916F915F914F913F912F9111
:100F20000F900FBE0F901F9018951F920F920FB643
:100F30000F9211242F938F939F93EF93FF93E09140
:100F4000BF02F091C0028081E091C502F091C6021B
:100F500082FD1BC090818091C8028F5F8F732091AA
:100F6000C902821741F0E091C802F0E0E155FD4F5F
:100F7000958F8093C802FF91EF919F918F912F9150
:100F80000F900FBE0F901F9018958081F4CF1F9285
:100F90000F920FB60F9211242F933F934F935F93AD
:100FA0006F937F938F939F93AF93BF93EF93FF9331
:100FB000E0910001F09101010995FF91EF91BF913E
:100FC000AF919F918F917F916F915F914F913F91E1
:100FD0002F910F900FBE0F901F901895EFEAF2E03F
:100FE0001382128288EE93E0A0E0B0E084839583C0
:100FF000A683B7838CE492E09183808385EC90E0B4
:101000009587848784EC90E09787868780EC90E0D2
:10101000918B808B81EC90E0938B828B82EC90E0C3
:10102000958B848B86EC90E0978B868B118E128E3D
:10103000138E148E8CE493E010928D0310928C0327
:101040009093900380938F0320E430E030939203D9
:10105000209391031092930310929403109296039D
:10106000109295031092970310929903109298038F
:1010700010929B0310929A0310929D0310929C036E
:1010800010929F0310929E031092A1031092A0034E
:101090001092A3031092A2031092A5031092A4032E
:1010A0001092AB031092AA031092AD031092AC03FE
:1010B0001092AF031092AE031092B1031092B003DE
:1010C0001092BF031092BE0310928E031092CC03B5
:1010D0001092CE031092CD03109211042DEC30E04B
:1010E0003093B3032093B2032EEC30E03093B5037A
:1010F0002093B4032FEC30E03093B7032093B60372
:1011000020ED30E03093B9032093B80321ED30E0B7
:101110003093BB032093BA0322ED30E03093BD033C
:101120002093BC0323ED30E03093C1032093C00330
:1011300024ED30E03093C3032093C20320E035E078
:101140003093C5032093C4039093A7038093A60311
:1011500029E433E03093C7032093C6039093A90397
:101160008093A8038FED90E09093C9038093C80308
:101170000895789484B5826084BD84B5816084BD0F
:1011800085B5826085BD85B5816085BD80916E0025
:10119000816080936E001092810080918100826056
:1011A0008093810080918100816080938100809193
:1011B00080008160809380008091B1008460809382
:1011C000B1008091B00081608093B00080917A007E
:1011D000846080937A0080917A00826080937A00A4
:1011E00080917A00816080937A0080917A00806893
:1011F00080937A001092C10088E08093CC038091A4
:10120000CD039091CE030E944612C091CC03D0E052
:10121000CE0101960E94AA119093CE038093CD0334
:10122000FC01EC0FFD1F108212E0DC011C931196F3
:101230001C92AE014250510967E772E002960E948B
:10124000CF128DEE96E09093860280938502E09116
:10125000BF02F091C0021083E091BF02F091C00282
:101260001082E091BB02F091BC021082E091BD02BD
:10127000F091BE0280E180831092C702E091C30228
:10128000F091C40286E08083E091C102F091C20235
:10129000808180618083E091C102F091C2028081EF
:1012A00088608083E091C102F091C20280818068F1
:1012B0008083E091C102F091C20280818F7D8083A2
:1012C0008091110481114EC08DE00E94E00062ED1A
:1012D00070E080E090E00E94B10261E08DE00E9449
:1012E000100268E270E080E090E00E94B10260E0ED
:1012F0008DE00E94100262ED70E080E090E00E94BC
:10130000B10261E08DE00E94100268E270E080E0CE
:1013100090E00E94B10260E08DE00E9410026AEF4E
:1013200070E080E090E00E94B102C5E062ED70E004
:1013300080E090E00E94B10261E08DE00E94100226
:1013400068E270E080E090E00E94B10260E08DE031
:101350000E941002C15051F76DE770E080E090E00C
:101360000E94B1028FEA92E09093CB038093CA036C
:1013700090938D0380938C038CE893E00E946E0120
:101380008CE493E00E94900481E10E94E00061E01F
:1013900081E10E94100287E00E94E00060E087E0A7
:1013A0000E941002219A2998569A5E98559A5D9843
:1013B000539A5B9888E00E94E00060E088E00E9419
:1013C00010028EE00E94E00060E08EE00E941002B9
:1013D00080E10E94E00060E080E10E9410028FE066
:1013E0000E94E00060E08FE00E94100284E00E9412
:1013F000E00060E084E00E94100282E00E94E000D1
:1014000060E082E00E94100283E10E94E00061E05F
:1014100083E10E94100282E10E94E00061E082E12B
:101420000E94100287E090E00E94AA11EC0183E183
:1014300088831A82198200E011E01C830B831E82CC
:101440001D820E945D0488810E94E00061E0888125
:101450000E941002D0939F02C0939E0287E090E00A
:101460000E94AA11EC0182E188831A8219821C83EE
:101470000B831E821D820E945D0488810E94E00011
:1014800061E088810E941002D0939D02C0939C026B
:1014900080E090E4A3E9B1E48093980290939902EC
:1014A000A0939A02B0939B0280939402909395022A
:1014B000A0939602B093970280E1809381001092EE
:1014C0008000109287001092860091E19093810035
:1014D00020EF32E0309301012093000191E09093DE
:1014E0006F008093810027E830E0309393022093CF
:1014F000920210929102109290028093810029989A
:101500005E985D985B981092A1021092A002809163
:101510008C0290918D028834910521F088E490E04E
:101520000E942406C0919002D0919102209709F068
:10153000BCC090E080E00E948D0590E080E00E94B9
:10154000D4058FEF9FEF90938902809388021092C9
:10155000870260E087E00E94100280918E029091E5
:101560008F028834910591F188E490E090938F0286
:1015700080938E02209198023091990240919A02B4
:1015800050919B0260E070E08CE392E40E94350E83
:101590000E94E10E77FF02C070E060E080919E0241
:1015A00090919F026F3F710519F014F06FEF70E09A
:1015B000DC0113962D913C91AB012617370708F4F7
:1015C000A901FC01618172810E943E020E94E40235
:1015D00068517C4F8F4F9F4F6093A2027093A3027C
:1015E0008093A4029093A5023324339495E0892E2E
:1015F00091E0992EC1E4D1E00DE211E020E0E22E6D
:1016000020E0F22E32E0C32ED12CAA24A394B12CD8
:101610008091CA039091CB03DC01ED91FC91008491
:10162000F185E02D0995892B09F425C28091CA0323
:101630009091CB03DC01ED91FC910284F385E02DC8
:1016400009959C018F3F980719F3982F8091970374
:10165000882309F4E9C0973F09F0D5C01092970399
:10166000A0918F03B09190036C91613709F48EC003
:10167000693709F0B2C0E091C403F091C503309717
:1016800039F280919803909199038330910508F085
:1016900061C030E020E050E040E070E060E0809128
:1016A000A6039091A7030995B3CFD7FF2CC0109242
:1016B0008B0210928A0280918A0290918B02892B70
:1016C000A1F51C161D060CF440C0CE010E94D405E5
:1016D000CE010E948D050E94E4026B017C01B4E101
:1016E000CB0ED11CE11CF11C0E94E4026C157D059F
:1016F0008E059F0578F06C197D098E099F0997FD6D
:10170000F3CF2196DECF81E090E090938B0280931F
:101710008A02D1CFA7019601261B370B480B590B24
:10172000DA01C901B7FFE0CFECCF60E080E10E94B1
:10173000100260E08FE00E94100290E080E00E94C2
:10174000D40590E080E00E948D05109291021092E5
:101750009002F7CEBD016D5F7F4F03970E94C801D5
:10176000BC016D5F7F4F80E00E949801E0918F0384
:10177000F09190039F012D5F3F4F428150E06181C6
:1017800070E0E091C403F091C50389CF8091C0035C
:101790009091C103892B09F43BCFBD016F5F7F4F4F
:1017A000809198039091990301970E94C801BC0110
:1017B0006F5F7F4F80E00E94980160918F0370916E
:1017C00090036F5F7F4FE091C003F091C103809160
:1017D000AC039091AD0309951BCFE091C203F0914A
:1017E000C303309709F414CF9D012F5F3F4F409101
:1017F000980350919903415051098091AE03909103
:10180000AF03099505CF6091980370919903822FDA
:101810000E9498018091980390919903019690936A
:10182000990380939803F4CE609195037091960389
:101830006115710509F4B1C027FDAFC06150710990
:101840007093960360939503822F0E949801809174
:10185000950390919603892B09F0DACE809193033A
:10186000882309F4D5CE803D09F483C040F4803943
:1018700049F1803C09F469C010929303C9CE843FBA
:10188000E1F1853F09F44DC0803EB1F7E091B2032C
:10189000F091B303309781F3A0918F03B09190033F
:1018A0004C9120E8429FC001112411964C91480FA1
:1018B000592F511D6091940380919A0390919B033D
:1018C0000995DACFE091B403F091B5033097A1F216
:1018D000A0918F03B09190034C9130E8439FC001D9
:1018E000112411964C91480F592F511D609194036A
:1018F00080919C0390919D03E3CFE091BA03F09116
:10190000BB03309709F4B8CFA0918F03B091900337
:101910004C9150E011966C918091A2039091A30399
:10192000CFCFE091BC03F091BD03309709F4A4CF71
:10193000A0918F03B09190034C9150E011966C915F
:101940008091A4039091A503BBCFE091B603F091E1
:10195000B703309709F490CFA0918F03B091900313
:101960004C9150E06091940380919E0390919F036D
:10197000A7CFE091B803F091B903309709F47CCF79
:10198000A0918F03B09190034C9150E0609194032B
:101990008091A0039091A10393CF903F30F4822FC8
:1019A0008F7080939403922F907F903FF1F190F489
:1019B000903CB1F150F4903909F02ACED0929603C0
:1019C000C09295039093930323CE903D49F1903EAE
:1019D000A9F31ECE993F09F442C028F48CE0890F88
:1019E000823060F315CE9F3F09F012CE109296031D
:1019F00010929503109293031092940390E080E06C
:101A0000209191033091920382179307A8F4E091FB
:101A10008F03F0919003E80FF91F10820196F0CF29
:101A2000B0929603A0929503CDCF30929703109277
:101A3000990310929803ECCD10929703109299039A
:101A400010929803E091C803F091C9038091B0030C
:101A50009091B103309709F4DBCD0995D9CDE09190
:101A6000C603F091C703309709F4D2CD8091A80343
:101A70009091A903F2CF4090A2025090A3026090EF
:101A8000A4027090A5020E94E40264157505860503
:101A9000970590F0641975098609970997FF12C098
:101AA000E114F10409F4B4CD0E94BA03882309F4C7
:101AB000AFCD0E940000ACCD461A570A680A790AD9
:101AC00077FEEECFF4018491FE017490F8016490EA
:101AD000662079F081110E94E701E62DF0E0EE0F1B
:101AE000FF1FE651FF4FA591B4918C91782260E0E1
:101AF00009F461E081E10E9410028091A0029091BE
:101B0000A102181619067CF40E94E40266507F4F69
:101B10008F4F9F4F6093A2027093A3028093A40201
:101B20009093A502BDCF0E94E40268517C4F8F4F75
:101B30009F4FF0CF97FB072E16F4009407D077FD48
:101B400009D00E94AE0D07FC05D03EF4909581951A
:101B50009F4F0895709561957F4F0895AA1BBB1BF9
:101B600051E107C0AA1FBB1FA617B70710F0A61B9D
:101B7000B70B881F991F5A95A9F780959095BC01BE
:101B8000CD010895EE0FFF1F0590F491E02D09940B
:101B90005058BB27AA270E94E00D0C94920F0E9478
:101BA000840F38F00E948B0F20F039F49F3F19F416
:101BB00026F40C945A0F0EF4E095E7FB0C94540FA6
:101BC000E92F0E94A30F58F3BA176207730784071F
:101BD000950720F079F4A6F50C94C50F0EF4E09566
:101BE0000B2EBA2FA02D0B01B90190010C01CA01D7
:101BF000A0011124FF27591B99F0593F50F4503E82
:101C000068F11A16F040A22F232F342F4427585F73
:101C1000F3CF469537952795A795F0405395C9F78B
:101C20007EF41F16BA0B620B730B840BBAF0915043
:101C3000A1F0FF0FBB1F661F771F881FC2F70EC0E2
:101C4000BA0F621F731F841F48F4879577956795B5
:101C5000B795F7959E3F08F0B0CF9395880F08F0A1
:101C60009927EE0F9795879508950E94490E0C9439
:101C7000920F0E948B0F58F00E94840F40F029F4BD
:101C80005F3F29F00C94540F51110C94C60F0C9423
:101C90005A0F0E94A30F68F39923B1F3552391F3D0
:101CA000951B550BBB27AA2762177307840738F0CB
:101CB0009F5F5F4F220F331F441FAA1FA9F335D028
:101CC0000E2E3AF0E0E832D091505040E695001CDC
:101CD000CAF72BD0FE2F29D0660F771F881FBB1F96
:101CE000261737074807AB07B0E809F0BB0B802D74
:101CF000BF01FF2793585F4F3AF09E3F510578F0A0
:101D00000C94540F0C94C60F5F3FE4F3983ED4F349
:101D1000869577956795B795F7959F5FC9F7880F73
:101D2000911D9695879597F90895E1E0660F771FC5
:101D3000881FBB1F621773078407BA0720F0621B56
:101D4000730B840BBA0BEE1F88F7E095089529F406
:101D500016F00C94540F0C94C50F0C945A0F0E945B
:101D6000AB0FA8F39638A0F707F80F92E8942BE38F
:101D70003AEA48EB5FE70E9458100F920F920F92D9
:101D80004DB75EB70F920E940E10E8E6F0E00E9499
:101D90005D0F4F915F91EF91FF91E595EE1FFF1F52
:101DA00049F0FE57E0684427EE0F441FFA95E1F72B
:101DB0004195550B0E94D80F0F9007FE0C94CC0F45
:101DC00008950E94E80E6894B1110C94C60F08950E
:101DD0000E94AB0F88F09F5798F0B92F9927B75101
:101DE000B0F0E1F0660F771F881F991F1AF0BA95BF
:101DF000C9F714C0B13091F00E94C50FB1E0089549
:101E00000C94C50F672F782F8827B85F39F0B93F3A
:101E1000CCF3869577956795B395D9F73EF4909571
:101E20008095709561957F4F8F4F9F4F0895E894EF
:101E300009C097FB3EF490958095709561957F4F12
:101E40008F4F9F4F9923A9F0F92F96E9BB279395C0
:101E5000F695879577956795B795F111F8CFFAF4D0
:101E6000BB0F11F460FF1BC06F5F7F4F8F4F9F4F01
:101E700016C0882311F096E911C0772321F09EE85F
:101E8000872F762F05C0662371F096E8862F70E0C5
:101E900060E02AF09A95660F771F881FDAF7880F9F
:101EA0009695879597F9089597F99F6780E870E070
:101EB00060E008959FEF80EC0895DF93CF931F9328
:101EC0000F93FF92EF92DF927B018C01689406C022
:101ED000DA2EEF010E945510FE01E894A59125919C
:101EE000359145915591A6F3EF010E94E00DFE0159
:101EF0009701A801DA9469F7DF90EF90FF900F91B6
:101F00001F91CF91DF91089500240A9416161706A9
:101F100018060906089500240A94121613061406DA
:101F200005060895092E0394000C11F4882352F03D
:101F3000BB0F40F4BF2B11F460FF04C06F5F7F4FF5
:101F40008F4F9F4F089557FD9058440F551F59F0DC
:101F50005F3F71F04795880F97FB991F61F09F3F96
:101F600079F087950895121613061406551FF2CFBF
:101F70004695F1DF08C0161617061806991FF1CF0F
:101F800086957105610508940895E894BB27662736
:101F90007727CB0197F908959B01AC0160E070E0D1
:101FA00080E89FE30C94350E0C94540F0C9445116B
:101FB0000E94AB0FD8F39923C9F3940F511DA3F3DB
:101FC0009150504094F059F0882332F0660F771FFB
:101FD000881F91505040C1F79E3F51052CF7880F44
:101FE000911D9695879597F908955F3FACF0983EBF
:101FF0009CF0BB27869577956795B79508F4B160F7
:102000009395C1F7BB0F58F711F460FFE8CF6F5FEE
:102010007F4F8F4F9F4FE3CF0C94C60FFA01DC0127
:10202000AA0FBB1F9B01AC01BF5728F422273327FF
:102030004427507820C0B75190F4AB2F0024469528
:1020400037952795011CA395D2F3002071F0220F3C
:10205000331F441FB395DAF30ED00C94C80D6130D2
:102060007105A0E88A07B94630F49B01AC016627E8
:10207000772788279078309621F020833183428318
:10208000538308950E9455100C94920F0E94840F60
:1020900038F00E948B0F20F0952311F00C94540F10
:1020A0000C945A0F11240C94C60F0E94A30F70F3C6
:1020B000959FC1F3950F50E0551F629FF001729FED
:1020C000BB27F00DB11D639FAA27F00DB11DAA1FFC
:1020D000649F6627B00DA11D661F829F2227B00D49
:1020E000A11D621F739FB00DA11D621F839FA00DD4
:1020F000611D221F749F3327A00D611D231F849F24
:10210000600D211D822F762F6A2F11249F5750407A
:102110009AF0F1F088234AF0EE0FFF1FBB1F661FF5
:10212000771F881F91505040A9F79E3F510580F0BE
:102130000C94540F0C94C60F5F3FE4F3983ED4F315
:10214000869577956795B795F795E7959F5FC1F762
:10215000FE2B880F911D9695879597F90895FA01A2
:10216000EE0FFF1F309621053105A1F161157105B4
:1021700061F48038BFE39B0749F16894903881058A
:1021800061F08038BFEF9B0741F099234AF5FF3F8C
:10219000E1053105210519F1E8940894E795D90185
:1021A000AA2329F4AB2FBE2FF85FD0F310C0FF5F36
:1021B00070F4A695E0F7F73950F019F0FF3A38F4CB
:1021C0009F779F930DD00F9007FC9058089546F08D
:1021D0000C945A0F60E070E080E89FE308954FE7A9
:1021E0009F775F934F933F932F930E9462112F919C
:1021F0003F914F915F910E9442100C94AF0E19F4E1
:1022000016F40C945A0F0C9445110E94AB0FB8F3BE
:102210009923C9F3B6F39F57550B87FF0E945311BB
:102220000024A0E640EA900180585695979528F43E
:10223000805C660F771F881F20F026173707480736
:1022400030F4621B730B840B202931294A2BA6958D
:1022500017940794202531254A2758F7660F771FD2
:10226000881F20F026173707480730F4620B730BDE
:10227000840B200D311D411DA09581F7B901842FDC
:102280009158880F9695879508959F3F31F091500A
:1022900020F4879577956795B795880F911D96954A
:1022A000879597F9089591505040660F771F881FC2
:1022B000D2F7089516F00C9445110C945A0F6894B7
:1022C0000C94540F0E94AB0FA8F39923C1F3AEF303
:1022D000DF93CF931F930F93FF92C92FDD2788239E
:1022E0002AF02197660F771F881FDAF720E030E089
:1022F00040E85FEB9FE3883920F0803E38F021967C
:102300008F770E94C90DE0E9F0E004C00E94C90D7A
:10231000EDEBF0E00E945D0F8B01BE01EC01FB2EA6
:102320006F5771097595771F880B990B0E94190FCC
:1023300028E132E741E35FE30E945510AF2D980199
:10234000AE01FF900F911F91CF91DF910E94E00DA0
:102350000C94920F0F931F93CF93DF9382309105CC
:1023600010F482E090E0E0911404F091150430E064
:1023700020E0B0E0A0E0309799F42115310509F490
:102380004AC0281B390B24303105D8F58A819B813E
:102390006115710589F1FB0193838283FE0111C0F0
:1023A000408151810281138148175907E0F0481795
:1023B000590799F4109761F012960C93129713969F
:1023C0001C933296CF01DF91CF911F910F91089509
:1023D0000093140410931504F4CF2115310551F026
:1023E0004217530738F0A901DB019A01BD01DF0153
:1023F000F801C1CFEF01F9CF909315048093140435
:10240000CDCFFE01E20FF31F81939193225031094A
:1024100039832883D7CF2091120430911304232BC2
:1024200041F420910401309105013093130420936D
:10243000120420910201309103012115310541F46C
:102440002DB73EB74091060150910701241B350B73
:10245000E0911204F0911304E217F307A0F42E1B8D
:102460003F0B2817390778F0AC014E5F5F4F2417F8
:10247000350748F04E0F5F1F50931304409312042A
:10248000819391939FCFF0E0E0E09CCFCF93DF93D7
:102490000097E9F0FC01329713821282A091140494
:1024A000B0911504ED0130E020E01097A1F42081F7
:1024B0003181820F931F2091120430911304281749
:1024C000390709F061C0F0931304E0931204DF911F
:1024D000CF910895EA01CE17DF07E8F54A815B81C5
:1024E0009E0141155105B1F7E901FB83EA8349914A
:1024F0005991C40FD51FEC17FD0761F480819181BC
:102500000296840F951FE9019983888382819381C4
:102510009B838A83F0E0E0E012968D919C91139763
:102520000097B9F52D913C911197CD010296820F3C
:10253000931F20911204309113042817390739F69C
:10254000309751F51092150410921404B0931304AF
:10255000A0931204BCCFD383C28340815181840FE6
:10256000951FC817D90761F44E5F5F4F8881998125
:10257000480F591F518340838A819B8193838283B3
:102580002115310509F0B0CFF0931504E093140440
:102590009ECFFD01DC01C0CF13821282D7CFFB0199
:1025A000DC014150504048F001900D920020C9F7E5
:1025B00001C01D9241505040E0F70895AEE0B0E0F8
:1025C000E4EEF2E10C9496158C01FA0186E08C831E
:1025D0001A83098377FF02C060E070E861507109D7
:1025E0007E836D83A901BF01CE0101960E940A136B
:1025F0004D815E8157FD0AC02F81388542175307F0
:102600000CF49A01020F131FF80110822E96E4E0D9
:102610000C94B215ABE0B0E0E0E1F3E10C94881566
:102620007C013B018A01FC0117821682838181FFB4
:10263000C8C1CE0101965C01F7019381F30193FDBE
:10264000859193FF81913F01882309F453C185321D
:1026500039F493FD859193FF81913F01853229F4EF
:10266000B70190E00E94FA14E7CF912C212C312C75
:10267000FFE1F31538F08B3211F190F4803209F15B
:10268000833229F137FC3CC020ED280F2A3050F569
:1026900036FE20C08AE0989E200D1124922E06C09E
:1026A0008D3291F0803371F7689430F8F30193FD27
:1026B000859193FF81913F018111DACF21C0689408
:1026C00031F8689432F8F2CF689433F8EFCF689419
:1026D00034F8ECCFEAE02E9E200D1124222E6894CF
:1026E00035F8E4CF8E3229F436FC04C1689436F80C
:1026F000DDCF8C3619F4689437F8D8CF8836B1F22C
:10270000982F9F7D95549330E0F08336A1F1833765
:10271000C1F1833509F063C02801F2E04F0E511C6E
:10272000F801C080D180692D70E036FC02C06FEFE7
:102730007FEFC6010E94E4144C01689437F88201CF
:102740000AC00C5F1F4FFFE3F98388248394912C08
:102750006501E89437F833FE2DC0522C81149104A2
:1027600071F5552009F468CFB70180E290E00E942E
:10277000FA145A94F6CFF801808189830E5F1F4FB7
:10278000E4CF2801F2E04F0E511CF801C080D18047
:10279000692D70E036FC02C06FEF7FEFC6010E942A
:1027A000EF144C018201D5CFB70180E290E00E9486
:1027B000FA142A942814190409F0B0F7CECFF601C0
:1027C00037FC859137FE81916F01B70190E00E943F
:1027D000FA1451105A94F1E08F1A9108BFCF843641
:1027E00019F0893609F077C0F80137FE6BC06081B7
:1027F0007181828193810C5F1F4FF32DFF763F2EF5
:1028000097FF09C090958095709561957F4F8F4F88
:102810009F4F689437F82AE030E0A5010E942A15FE
:10282000C82ECA188C2C432C36FE0CC0E89440F8F5
:10283000C91440F434FE05C032FC03C0F32DFE7E03
:102840004F2E892C44FE95C0FE01EC0DF11D8081B8
:10285000803309F087C0242D297E422E842D887074
:10286000582E43FC95C040FE8FC09C2C821418F457
:102870002C0C922C981844FE91C0B70180E390E094
:102880000E94FA1442FE09C088E790E041FE02C0AF
:1028900088E590E0B7010E94FA14C91408F48AC0D0
:1028A000CA94D12C9FEFC91AD90ACA0CDB1CF601B5
:1028B00082916F01B70190E00E94FA14AC14BD043C
:1028C000B1F74FCF60817181072E000C880B990BF7
:1028D0000E5F1F4F92CFD32CE894D4F82AE030E05B
:1028E000853739F1232D297FD22E8F3601F148F417
:1028F0008835A9F0F701868197812B96E2E10C9447
:10290000A415803749F08837A9F7D4FE02C068942F
:10291000D2F820E130E00DC06894D4F8F6CF34FE50
:1029200003C0822F8660D82E20E132E002C028E06A
:1029300030E0F801D7FE0FC0608171818281938100
:102940000C5F1F4FA5010E942A15C82ECA183D2CE6
:10295000E89437F867CF6081718190E080E00E5F86
:102960001F4FF0CF42FC02C0839478CF83948394AE
:1029700075CF842D867809F471CFF6CFB70180E248
:1029800090E00E94FA1483948214C0F3512C73CF08
:10299000522C5818821408F46ECFF8CF842D867804
:1029A00009F47BCF8BE241FE80E247FC8DE2B70168
:1029B00090E071CFB70180E390E00E94FA149A94FE
:1029C0006CCF8FEF9FEF99CFFC0105906150704065
:1029D0000110D8F7809590958E0F9F1F0895FC01E8
:1029E0006150704001900110D8F7809590958E0F3E
:1029F0009F1F08950F931F93CF93DF93182F092FD5
:102A0000EB018B8181FD09C01FEF0FEF812F902F0C
:102A1000DF91CF911F910F91089582FF14C02E81F5
:102A20003F818C819D81281739073CF4E881F98129
:102A3000CF0101969983888310838E819F810196AF
:102A40009F838E83E3CFE885F985812F0995892BB4
:102A5000A1F3DACFFA01AA27283051F1203181F110
:102A6000E8946F936E7F6E5F7F4F8F4F9F4FAF4F96
:102A7000B1E03ED0B4E03CD0670F781F891F9A1FA9
:102A8000A11D680F791F8A1F911DA11D6A0F711D5D
:102A9000811D911DA11D20D009F468943F912AE069
:102AA000269F11243019305D3193DEF6CF01089551
:102AB000462F4770405D4193B3E00FD0C9F7F6CF82
:102AC000462F4F70405D4A3318F0495D31FD40524A
:102AD000419302D0A9F7EACFB4E0A69597958795E0
:102AE00077956795BA95C9F70097610571050895BF
:102AF0009B01AC010A2E069457954795379527956B
:102B0000BA95C9F7620F731F841F951FA01D089502
:102B10002F923F924F925F926F927F928F929F92ED
:102B2000AF92BF92CF92DF92EF92FF920F931F93DB
:102B3000CF93DF93CDB7DEB7CA1BDB0B0FB6F8948C
:102B4000DEBF0FBECDBF09942A88398848885F84CC
:102B50006E847D848C849B84AA84B984C884DF803D
:102B6000EE80FD800C811B81AA81B981CE0FD11D21
:102B70000FB6F894DEBF0FBECDBFED010895F894F7
:022B8000FFCF85
:102B8200480300001604800000001D000000010040
:102B92001E002C00000000002D0044000100000077
:102BA20045005300000000005400590000000100DD
:102BB2005A00680000000000690080000100000067
:102BC20081008F00000000009000950000000100CD
:102BD2009600A40000000000A500BC000100000057
:102BE200BD00CB0000000000CC00D10000000100BD
:102BF200D200E00000000000E100F7000100000048
:102C0200F80006010000000007010D0100000100AC
:102C12000E011B01000000001C0133010100000035
:102C2200340143010000000044014801000001009A
:102C3200490157010000000058016F010100000026
:102C420070017E01000000007F018401000001008C
:102C520085019301000000009401AB010100000016
:102C6200AC01BA0100000000BB01C001000001007C
:102C7200C101CF0100000000D001E9010100000004
:102C8200EA01F60100000000F701FC01000001006A
:102C9200FD010B02000000000C02230201000000F3
:102CA2002402320200000000330238020000010058
:102CB200390247020000000048025E0201000000E3
:102CC2005F02E8030100000000000000F00350036F
:102CD2007D033D04AE038C03A00353657420636F30
:102CE2006F6C616E742074656D7020746F20256442
:102CF2002046007372635C53657269616C2E637067
:022D020070005F
:00000001FF
