:100000000C94DF020C9407030C9407030C94070371
:100010000C9407030C9407030C9407030C94070338
:100020000C9407030C9407030C9407030C94070328
:100030000C9407030C9402140C9407030C9407030C
:100040000C9460130C9407030C94D0130C94AA1313
:100050000C9407030C9407030C9407030C940703F8
:100060000C9407030C94070307634236B79BD8A789
:100070001A39685618AEBAAB558C1D3CB7CC5763CD
:10008000BD6DEDFD753EF6177231BF000000803F7B
:1000900008000000BE922449123EABAAAA2ABECD97
:1000A000CCCC4C3E00000080BEABAAAAAA3E000009
:1000B0000000BF000000803F000000000008417801
:1000C000D3BB4387D1133D190E3CC3BD4282AD2B38
:1000D0003E68EC8276BED98FE1A93E4C80EFFFBE30
:1000E00001C4FF7F3F000000000000830201A9025D
:1000F00002CE0203F302041A030540030665030758
:100100008A0308AD0309D2030AF7030B1C040C434E
:10011000040D68040E8D040FB20410D50411FA0406
:10012000121F05134405146A05158F0516B305172C
:10013000D80518F905191D061A41061B65061C8A03
:10014000061DAD061ECF061FF20620120721350739
:1001500022560723770724990725B907261608276B
:100160003E08285C080000FC04010022050200474C
:100170000503006C05040091050500B5050600DACD
:10018000050700FF0508002006090043060A00686D
:10019000060B008C060C00AE060D00D1060E00F317
:1001A000060F0014071000350711005607120077DC
:1001B00007130097071400B8071500200816004819
:1001C0000817007008180098081900B6081A00DE11
:1001D000081B0006091C002E091D004C091E007496
:1001E000091F009C092000C4092100E20922000A1D
:1001F0000A2300320A24005A0A2500780A2600A0A1
:100200000A2700C80A2800F00A29000E0B2A003627
:100210000B2B005E0B2C00860B2D00A40B2E00CCAC
:100220000B2F00F40B3000120C31003A0C3200623C
:100230000C3300800C3400A80C3500D00C3600F8CC
:100240000C3700200D38003E0D3900660D3A008E47
:100250000D3B00AC0D3C00D40D3D00FC0D3E001AE2
:100260000E3F00420E40006A0E4100880E4200B070
:100270000E4300D80E4400F60E45001E0F46004601
:100280000F47006E0F48008C0F4900B40F4A00DC86
:100290000F4B00FA0F4C0022104D004A104E006820
:1002A000104F0090105000B8105100D6105200FEB0
:1002B00010530026115400441155006C115600943F
:1002C000115700B2115800DA11590002125A0020D9
:1002D000125B0048125C0070125D008E125E00B668
:1002E000125F00D4126000FC12610024136200420D
:1002F0001363006A13640088136500B0136600D8A6
:10030000136700F61368001E1469003C146A006449
:10031000146B0082146C00AA146D00C8146E00F0F7
:10032000146F001815700036157100541572007C9A
:100330001573009A157400C2157500E01576000853
:10034000167700261678004E1679006C167A0094FF
:10035000167B00B2167C00DA167D00F8167E0016B9
:10036000177F003E177F0166177F0284177F03A265
:10037000177F04CA177F05E8177F0610187F072E1E
:10038000187F084C187F096A187F0A92187F0BB0F3
:10039000187F0CCE187F0DEC187F0E14197F0F32CA
:1003A000197F1050197F116E197F128C197F13AAB3
:1003B000197F14D2197F15F0197F160E1A7F172C8A
:1003C0001A7F18401A7F19681A7F1A861A7F1B9A9B
:1003D0001A7F1CC21A7F1DE01A7F1EFE1A7F1F1C87
:1003E0001B7F20301B7F214E1B7F226C1B7F238AAB
:1003F0001B7F24A81B7F25C61B7F26E41B7F27F8B5
:100400001B7F28161C7F29341C7F2A481C7F2B66E3
:100410001C7F2C841C7F2DA21C7F2EB61C7F2FD40A
:100420001C7F30E81C7F31061D7F321A1D7F333858
:100430001D7F34561D7F356A1D7F36881D7F379C92
:100440001D7F38B01D7F39CE1D7F3AE21D7F3BF600
:100450001D7F3C141E7F3D281E7F3E461E7F3F5A57
:100460001E7F406E1E7F41821E7F42A01E7F43B4CE
:100470001E7F44C81E7F45DC1E7F46F01E7F470E50
:100480001F7F48221F7F49361F7F4A4A1F7F4B5ECE
:100490001F7F4C721F7F4D861F7F4E9A1F7F4FAE6E
:1004A0001F7F50C21F7F51D61F7F52EA1F7F53FE0E
:1004B0001F7F5412207F5526207F563A207F574EAB
:1004C000207F5862207F5976207F5A80207F5B945E
:1004D000207F5CA8207F5DBC207F5ED0207F5FDA1C
:1004E000207F60EE207F6102217F6216217F6320E2
:1004F000217F6434217F6548217F6652217F6766B2
:10050000217F687A217F698E217F6A98217F6BAC79
:10051000217F6CB6217F6DCA217F6ED4217F6FE869
:10052000217F70F2217F7106227F7210227F732457
:10053000227F742E227F7542227F764C227F776045
:10054000227F786A227F7974227F7A88227F7B9249
:10055000227F7CA6227F7DB0227F7EBA227F7FCE43
:1005600022000000002300260029000000000800EF
:10057000020100000304070000000000000000006A
:10058000000000250028002B0000000000240027A8
:10059000002A000404040404040404020202020207
:1005A0000203030303030301020408102040800137
:1005B000020408102001020408102000291411244C
:1005C0001FBECFEFD8E0DEBFCDBF15E0A0E0B1E0A9
:1005D000E6E0F1E402C005900D92AC32B107D9F724
:1005E00026E0ACE2B5E001C01D92AE3FB207E1F7F4
:1005F00012E0CFEDD2E004C02197FE010E945B180B
:10060000CE3DD107C9F70E94FC140C9481200C94B4
:10061000000008950895089508950895089508958F
:10062000862F642FE0915305F0915405309711F017
:10063000A9010994089508950F931F93CF93DF9311
:100640008C01EB01DC018D919C9168816F77DC015D
:10065000ED91FC910190F081E02D0995F8018081E8
:100660009181688170E0660F672F661F770BDC0150
:10067000ED91FC910190F081E02DDF91CF911F91E0
:100680000F910994EF92FF920F931F93CF93DF93F3
:10069000C82F80915306909154060097A9F17A01D2
:1006A0008B01DC01ED91FC910190F081E02D60EF78
:1006B00009958091530690915406DC01ED91FC91CF
:1006C0000190F081E02D6C2F0995E7010E0D1F1DA3
:1006D000C017D10739F0BE0183E596E00E941C03E4
:1006E0002196F6CF8091530690915406DC01ED914E
:1006F000FC910190F081E02D67EFDF91CF911F9188
:100700000F91FF90EF900994DF91CF911F910F917E
:10071000FF90EF9008951F93CF93DF93182FEB0175
:1007200080915806909159066817790760F4809176
:10073000560690915706C80FD91F188380E0DF91A5
:10074000CF911F910895E0918506F091860630972C
:1007500011F481E0F4CF81E0809355068091710619
:100760009091720609958091580690915906C81784
:10077000D90778F7DCCFCF93DF93EC01FB0130E0B2
:1007800020E0C901880F991F8C179D0778F44081DC
:10079000DB014D93BD01119791819795992797950D
:1007A000942B9C932F5F3F4F3296EBCFC901DF9183
:1007B000CF91089590E0FC01E955FA4F24918D56B0
:1007C0009A4FFC018491882399F090E0880F991F3B
:1007D000FC01E757FA4FA591B491FC01E158FA4F9B
:1007E000859194918FB7F894EC91E22BEC938FBFA5
:1007F0000895CF93DF93FC01A081B181109701F19F
:10080000EC01ED91FC9111970190F081E02D69EFE1
:10081000CD01099588819981DC01ED91FC910190D0
:10082000F081E02D62E0099588819981DC01ED91EC
:10083000FC910190F081E02D65E0DF91CF9109946A
:10084000DF91CF910895833081F028F4813099F0C1
:100850008230A9F008958730A9F08830C9F084303B
:10086000B1F4809180008F7D03C0809180008F77EC
:1008700080938000089584B58F7784BD089584B5F2
:100880008F7DFBCF8091B0008F778093B00008956B
:100890008091B0008F7DF9CF1F93CF93DF93282FE6
:1008A00030E0F901E559FA4F8491F901E955FA4F21
:1008B000D491F901ED56FA4FC491CC23A9F0162F2B
:1008C00081110E942304EC2FF0E0EE0FFF1FE1588E
:1008D000FA4FA591B4918FB7F894EC91111108C01B
:1008E000D095DE23DC938FBFDF91CF911F910895C8
:1008F000DE2BF8CF61E08091D9060C944C0481E5A1
:100900008CBD1DBC60E08091D9060C944C043FB7AF
:10091000F8948091720590917305A0917405B0913F
:10092000750526B5A89B05C02F3F19F00196A11D9E
:10093000B11D3FBFBA2FA92F982F8827BC01CD0129
:10094000620F711D811D911D42E0660F771F881F88
:10095000991F4A95D1F708958F929F92AF92BF92B7
:10096000CF92DF92EF92FF926B017C010E9487048D
:100970004B015C01C114D104E104F104B9F00E94FF
:100980008704681979098A099B09683E73408105C3
:10099000910580F321E0C21AD108E108F10888EE40
:1009A000880E83E0981EA11CB11CE4CFFF90EF904D
:1009B000DF90CF90BF90AF909F908F9008952FB70A
:1009C000F89460916E0570916F058091700590911B
:1009D00071052FBF089520913E0530913F0580910C
:1009E0003A0590913B052817390709F4299A209177
:1009F0003E0530913F0580913805909139052817C3
:100A0000390709F4299820913E0530913F058091DE
:100A10003605909137052817390709F45E9A209119
:100A20003E0530913F05809134059091350528179A
:100A3000390709F45E9820913E0530913F05809179
:100A40003205909133052817390709F45D9A2091F2
:100A50003E0530913F058091300590913105281772
:100A6000390709F45D9820913E0530913F0580914A
:100A70002E0590912F052817390709F45B9A2091CC
:100A80003E0530913F0580912C0590912D0528174A
:100A9000390709F45B9880913E0590913F050196D6
:100AA00090933F0580933E0520913C0530913D0594
:100AB0008217930720F010923F0510923E0581E0C7
:100AC0008093660520E43FE1309387002093860001
:100AD00091E1909381002BEE34E03093010120935B
:100AE000000180936F0008950895009721F0805CC5
:100AF0009F4F0C94F9030895AF92BF92CF92DF926B
:100B0000EF92FF920F931F93CF93DF936C017B01C2
:100B10008B01040F151FEB015E01AE18BF08C01753
:100B2000D10759F06991D601ED91FC910190F081C6
:100B3000E02DC6010995892B79F7C501DF91CF9189
:100B40001F910F91FF90EF90DF90CF90BF90AF90EB
:100B50000895FC01538D448D252F30E0842F90E0C3
:100B6000821B930B541710F0CF96089501970895A8
:100B7000FC01918D828D981761F0A28DAE0FBF2F71
:100B8000B11D5D968C91928D9F5F9F73928F90E0C7
:100B900008958FEF9FEF0895FC01918D828D981736
:100BA00031F0828DE80FF11D858D90E008958FEF73
:100BB0009FEF0895FC01918D228D892F90E0805C3C
:100BC0009F4F821B91098F739927089586E795E0BF
:100BD0000E94DA0521E0892B09F420E0822F089594
:100BE00080E090E0892B29F00E94E60581110C94A9
:100BF00000000895FC01A48DA80FB92FB11DA35AC0
:100C0000BF4F2C91848D90E001968F739927848F2C
:100C1000A689B7892C93A089B1898C91837080644F
:100C20008C93938D848D981306C00288F389E02DF0
:100C300080818F7D80830895EF92FF920F931F93A1
:100C4000CF93DF93EC0181E0888F9B8D8C8D98137F
:100C50001AC0E889F989808185FF15C09FB7F8948B
:100C6000EE89FF896083E889F989808183708064D7
:100C700080839FBF81E090E0DF91CF911F910F9122
:100C8000FF90EF900895F62E0B8D10E00F5F1F4F31
:100C90000F731127E02E8C8D8E110CC00FB607FC40
:100CA000FACFE889F989808185FFF5CFCE010E94CE
:100CB000FA05F1CFEB8DEC0FFD2FF11DE35AFF4F3D
:100CC000F0829FB7F8940B8FEA89FB89808180625C
:100CD000CFCFCF93DF93EC01888D8823B9F0AA8919
:100CE000BB89E889F9898C9185FD03C0808186FDE7
:100CF0000DC00FB607FCF7CF8C9185FFF2CF808136
:100D000085FFEDCFCE010E94FA05E9CFDF91CF91AB
:100D10000895CF93CFB7F89480915205811124C0E4
:100D2000EDE9F5E08491E1EBF5E09491E82FF0E056
:100D3000EE0FFF1FE757FA4FA591B491EC91E9230D
:100D400021F461E08AE00E944C048AE00E94DA0308
:100D50008CB580618CBD8CB580648CBD8DE00E94AB
:100D6000DA038BE00E94DA03809152058F5F809353
:100D70005205CFBFCF910895CF92DF92EF92FF92AD
:100D80000F931F93CF93DF93FC01E058FF4FE08058
:100D9000EE2009F458C0EC01C05CDF4FA881B98196
:100DA000109709F450C0FC01EF57FF4FC080D1806D
:100DB000F60111810081ED91FC9111970190F08174
:100DC000E02D60EFCD01099588819981DC01ED91DD
:100DD000FC910190F081E02D69E709958881998166
:100DE000DC01ED91FC910190F081E02D602F0995DF
:100DF00088819981DC01ED91FC910190F081E02DD9
:100E0000612F0995F12C01E010E00F5F1F4FE016F4
:100E1000F10639F0B601600F711FCE010E941C036C
:100E2000F4CF88819981DC01ED91FC910190F081F2
:100E3000E02D67EFDF91CF911F910F91FF90EF9021
:100E4000DF90CF900994DF91CF911F910F91FF9088
:100E5000EF90DF90CF900895009711F00C94BC06AE
:100E600008954F925F926F927F928F929F92AF926E
:100E7000BF92CF92DF92EF92FF920F931F93CF9387
:100E8000DF93CDB7DEB768970FB6F894DEBF0FBE1D
:100E9000CDBFC0905005D090510580904E059090E8
:100EA0004F05409162055091630580914A059091EC
:100EB0004B050091640510916505409048055090E0
:100EC0004905052C000C6608770849865A866B860A
:100ED0007C86092C000CAA08BB088D829E82AF82FA
:100EE000B8860D2C000CEE08FF08C982DA82EB826E
:100EF000FC82012E000C220B330B098B1A8B2B8BDF
:100F00003C8B052E000C660B770B4D875E876F8739
:100F1000788B092E000CAA0BBB0B8D8B9E8BAF8B95
:100F2000B88FAE014F5F5F4F68E170E080E10E94D3
:100F3000420368960FB6F894DEBF0FBECDBFDF91B7
:100F4000CF911F910F91FF90EF90DF90CF90BF90C6
:100F5000AF909F908F907F906F905F904F9008958B
:100F6000FF920F931F93CF93DF93FF24F394C2E07C
:100F7000D0E001E010E08091910690919206DC01B2
:100F8000ED91FC910084F185E02D0995892B09F400
:100F9000CEC18091910690919206DC01ED91FC9179
:100FA0000284F385E02D09959C018F3F980719F382
:100FB000982F80915E06882309F492C0973F09F02C
:100FC0007EC010925E06A0915606B09157066C91B5
:100FD0006137C1F1693709F05CC0E0918B06F0918F
:100FE0008C06309741F280915F06909160068330C5
:100FF000910560F430E020E050E040E070E060E017
:1010000080916D0690916E060995B5CFBD016D5F1B
:101010007F4F03970E94BB03BC016D5F7F4F80E051
:101020000E948B03E0915606F09157069F012D5FB9
:101030003F4F428150E0618170E0E0918B06F0917A
:101040008C06DECF8091870690918806892B09F463
:1010500092CFBD016F5F7F4F80915F0690916006D8
:1010600001970E94BB03BC016F5F7F4F80E00E942D
:101070008B0360915606709157066F5F7F4FE0912A
:101080008706F09188068091730690917406099501
:1010900072CFE0918906F0918A06309709F46BCF00
:1010A0009D012F5F3F4F40915F0650916006415078
:1010B0005109809175069091760609955CCF6091F3
:1010C0005F0670916006822F0E948B0380915F06FD
:1010D0009091600601969093600680935F064BCFD7
:1010E00060915C0670915D066115710509F4B1C0EF
:1010F00027FDAFC06150710970935D0660935C0677
:10110000822F0E948B0380915C0690915D06892B53
:1011100009F031CF80915A06882309F42CCF803D05
:1011200009F483C040F4803949F1803C09F469C076
:1011300010925A0620CF843FE1F1853F09F44DC05B
:10114000803EB1F7E0917906F0917A06309781F30D
:10115000A0915606B09157064C9120E8429FC001DD
:10116000112411964C91480F592F511D60915B0627
:1011700080916106909162060995DACFE0917B0635
:10118000F0917C063097A1F2A0915606B0915706D7
:101190004C9120E8429FC001112411964C91480FB8
:1011A000592F511D60915B068091630690916406F2
:1011B000E3CFE0918106F0918206309709F4B8CF31
:1011C000A0915606B09157064C9150E011966C9143
:1011D0008091690690916A06CFCFE0918306F091E5
:1011E0008406309709F4A4CFA0915606B091570613
:1011F0004C9150E011966C9180916B0690916C0629
:10120000BBCFE0917D06F0917E06309709F490CF38
:10121000A0915606B09157064C9150E060915B0644
:101220008091650690916606A7CFE0917F06F091C8
:101230008006309709F47CCFA0915606B0915706EE
:101240004C9150E060915B06809167069091680632
:1012500093CF903F30F4822F8F7080935B06922F54
:10126000907F903FF1F190F4903CB1F150F49039BF
:1012700009F081CED0935D06C0935C0690935A0628
:101280007ACE903D49F1903EA9F375CE993F09F48D
:1012900042C028F48CE0890F823060F36CCE9F3F0F
:1012A00009F069CE10925D0610925C0610925A0603
:1012B00010925B0690E080E020915806309159062C
:1012C00082179307A8F4E0915606F0915706E80FAD
:1012D000F91F10820196F0CF10935D0600935C0613
:1012E000CDCFF0925E061092600610925F0643CE5C
:1012F00010925E061092600610925F06E0918F06D3
:10130000F09190068091770690917806309709F4D5
:1013100032CE099530CEE0918D06F0918E06309751
:1013200009F429CE80916F0690917006F2CFDF917B
:10133000CF911F910F91FF9008958EBD00000DB4C5
:1013400007FEFDCF8EB50895CF93C82F0E947F046E
:101350008091DA0681600E949D098C2F0E949D0970
:1013600080E00E949D09C82F0E947A048C2FCF91A3
:101370000895CF93DF93D82FC62F0E947F048091CA
:10138000DA060E949D098D2F0E949D098C2F0E94D4
:101390009D09DF91CF910C947A04CF93DF93D82FDE
:1013A000C62F8AE00E94A40961E070E00D2E01C002
:1013B000660F0A94EAF7609568238C2F01C0880FA6
:1013C000DA95EAF7682B8AE0DF91CF910C94B9099E
:1013D0001F93CF93DF93C1E0D0E001C0CC0F8A957B
:1013E000EAF71C2F109580E0613091F00E94A4096B
:1013F0006C2F682B80E00E94B90986E00E94A40946
:10140000682F612386E0DF91CF911F910C94B90979
:101410000E94A409C0956C2F6823ECCFEF92FF9235
:101420000F931F93CF93DF93EC010B811C81601707
:10143000710708F48B01E980FA808D819E81019605
:101440009E838D83019781F48CB58F7D8CBD8CB587
:10145000837F8CBD8CB583608CBD8DB58E7F8DBD3B
:1014600060E088810E944C0484E0EE0CFF1C8A95A9
:10147000E1F76894E1F811701E29812F0E949D09FF
:10148000FF24F39481FD14C0F12C8D819E8101977E
:101490009E838D83892B21F461E088810E944C0416
:1014A0008F2DDF91CF911F910F91FF90EF900895B5
:1014B000802F0E949D09E9CF4F925F926F927F9299
:1014C0008F929F92AF92BF92CF92DF92EF92FF9254
:1014D000CF93DF93CDB7DEB764970FB6F894DEBF36
:1014E0000FBECDBF20E12093810029985E985D98C2
:1014F0005B989093510580935005181619060CF0CF
:101500003FC1BC01A0906405B0906505072E000C9A
:10151000880B990B0E94B71920E030E040E752E4B5
:101520000E94D31820E030E040E05FE30E94041BFB
:101530009B01AC0160E070E080E89FE30E94D3185B
:1015400020E030E04AE754E40E94041B0E94861920
:1015500070933D0560933C0590E080E00E94B519D2
:101560006B017C01B501BB0C880B990B0E94B7196C
:101570009B01AC010E94621820E030E044E354E497
:101580000E94D318A70196010E94041B4B015C0125
:1015900020E030E040E85EE3C701B6010E94041B92
:1015A00069877A878B879C8720E030E040E05FE3A3
:1015B000C701B6010E94041B6D877E878F87988BB9
:1015C00020E030E040E45FE3C701B6010E94041B65
:1015D000698B7A8B8B8B9C8B20E030E0A901C50155
:1015E000B4010E94621869837A838B839C839B0178
:1015F000AC01C701B6010E94CE1887FF0CC0A7013D
:10160000960169817A818B819C810E94611869832E
:101610007A838B839C8329853A854B855C85C501BC
:10162000B4010E9462186D837E838F8398879B012B
:10163000AC01C701B6010E94CE1887FF0CC0A701FC
:1016400096016D817E818F8198850E9461186D83DE
:101650007E838F8398872D853E854F855889C50168
:10166000B4010E9462182B013C01AC019B01C7012F
:10167000B6010E94CE1887FF08C0A7019601C301DA
:10168000B2010E9461182B013C0129893A894B89DA
:101690005C89C501B4010E9462184B015C01AC0178
:1016A0009B01C701B6010E94CE1887FF08C0A701A1
:1016B0009601C501B4010E9461184B015C011092B2
:1016C0003B0510923A0569817A818B819C810E9449
:1016D0008619709339056093380569857A858B85FD
:1016E0009C850E94861970933705609336056D813D
:1016F0007E818F8198850E9486197093350560934D
:1017000034056D857E858F8598890E948619709332
:10171000330560933205C301B2010E9486197093AC
:1017200031056093300569897A898B899C890E948B
:10173000861970932F0560932E05C501B4010E9490
:10174000861970932D0560932C0510923F05109219
:101750003E0581E08093660580E49FE190938700D9
:101760008093860081E18093810010928100109225
:1017700085001092840080916605806180938100CD
:1017800064960FB6F894DEBF0FBECDBFDF91CF9148
:10179000FF90EF90DF90CF90BF90AF909F908F9091
:1017A0007F906F905F904F900895CF93DF93893E25
:1017B00023E0920714F088EE93E097FF02C090E0D8
:1017C00080E0ECE0F1E0D0E0C0E04081518184179E
:1017D00095071CF14281538148175907F4F083E0C3
:1017E000CC0FDD1F8A95E1F7FE01E45FFE4F848197
:1017F000958161E0019709F060E083E00E94CD09E6
:10180000C45FDE4F8E819F8161E0019709F060E047
:1018100082E0DF91CF910C94CD0921963896C832A1
:10182000D10599F6DF91CF910895CF93DF93EC0125
:10183000459734F461E084E00E94CD0960E008C07F
:1018400060E084E00E94CD0961E0CA32D340B4F385
:1018500085E0DF91CF910C94CD09CF92DF92EF928A
:10186000FF926B017C010E94DF046C157D058E05E3
:101870009F05C0F09B01AC012C193D094E095F0981
:1018800069017A01C094D094E094F094CC24F7FCE0
:10189000C394DD24EE24FF248C2DFF90EF90DF9085
:1018A000CF900895C61AD70AE80AF90AEFCFEF9247
:1018B000FF920F931F93CF93DF93CDB7DEB7C0583E
:1018C000D1090FB6F894DEBF0FBECDBF9E012757DA
:1018D0003F4FF901419151919F0160E870E08E0105
:1018E0000F5F1F4FC8010E94A01D7C01F8010190ED
:1018F0000020E9F73197BF01601B710BA80181E758
:101900000E944203C701C058DF4F0FB6F894DEBFF4
:101910000FBECDBFDF91CF911F910F91FF90EF9040
:101920000895CF93DF932091500530915105121601
:10193000130694F4EC010E946F1720E233E040E0BC
:1019400050E00E94D017645A744D8F4F9F4F798397
:101950006883DF91CF910895FC0111821082F9CF45
:101960000F931F93CF93DF93CDB7DEB760970FB67A
:10197000F894DEBF0FBECDBF60915D0570915E052E
:1019800080915F05909160050E942D0C882309F4D9
:1019900034C0ECE7F5E08491E8EBF5E00491E4EA8B
:1019A000F5E01491112379F081110E942304E12FB5
:1019B000F0E0EE0FFF1FEF59FA4FA591B491EC91B3
:1019C000E02360E009F461E081E10E944C04809131
:1019D000500590915105181619060CF002C10E948D
:1019E000DF0466507F4F8F4F9F4F60935D0570936C
:1019F0005E0580935F059093600580E495E00E940A
:101A0000910C82E495E00E94910C84E495E00E94A0
:101A1000910C86E495E00E94910C609159057091BB
:101A20005A0580915B0590915C050E942D0C8823DE
:101A300009F450C0909146058091470530914405C6
:101A40002091450550914205409143057091400514
:101A50006091410579836A835B834C833D832E8348
:101A60009F838887AE014F5F5F4F68E070E085E13C
:101A70000E94420389E00E94A40986FB882780F91E
:101A80008983AE014F5F5F4F61E070E083E10E94A8
:101A9000420389E00E94A40990E0880F892F881FE3
:101AA000990B21E082278983AE014F5F5F4F61E090
:101AB00070E084E10E9442030E94DF046C507E4F7C
:101AC0008F4F9F4F6093590570935A0580935B0524
:101AD00090935C0580916105882361F160915505C3
:101AE0007091560580915705909158050E942D0CD4
:101AF000882301F10E946F1724E130E040E050E0BC
:101B00000E94D017DC01CB0183539F4FAF4FBF4FD3
:101B10000E945C0A0E9431070E94DF0468537F4FD5
:101B20008F4F9F4F609355057093560580935705CF
:101B3000909358058091F306882309F447C060917B
:101B4000F4067091F5068091F6069091F7060E94D2
:101B50002D0C8823D9F12091F8063091F9062F5FDA
:101B60003F4F3093F9062093F8064091E1065091DB
:101B7000E2064115510599F0429FC001439F900D27
:101B8000529F900D11246AE070E00E9433188091FA
:101B9000DF069091E006860F971F0E945C0A0E9464
:101BA00031072091F8063091F9068091DB0690917B
:101BB000DC0628173907A9F51092F3068EE592E0A6
:101BC0009F938F930E94570C0F900F9060960FB6C3
:101BD000F894DEBF0FBECDBFDF91CF911F910F9163
:101BE00008951092470510924605109245051092EF
:101BF000440510924305109242051092410510923F
:101C000040051982AE014F5F5F4F61E070E084E1F3
:101C10000E9442030E94DF0468517C4F8F4F9F4F08
:101C2000E4CE0E94DF042091DD063091DE06620FD3
:101C3000731F811D911D6093F4067093F5068093C8
:101C4000F6069093F706C2CF4F925F926F927F9203
:101C5000AF92BF92CF92DF92EF92FF920F931F93BA
:101C6000CF93DF931F92CDB7DEB78C0180916205D1
:101C7000909163058017910701F50115110521F475
:101C800090E080E00E94D50B8AE0282F209FC001C1
:101C9000219F900D11240E94150C0F90DF91CF9180
:101CA0001F910F91FF90EF90DF90CF90BF90AF907A
:101CB0007F906F905F904F90089580179107BCF5CB
:101CC00010924D0510924C052AE0209F6001219F43
:101CD000D00C112440914C0550914D05452B09F035
:101CE00040C0289F7001299FF00C11248AE0A82E83
:101CF000B12CCE14DF040CF446C0C7010E94150CB1
:101D0000C7010E94D50B0E94DF042B013C0123E098
:101D1000420E511C611C711CC301B2010E942D0CAA
:101D200081110CC00E94B0070E94B00CF5CF21E0D9
:101D300030E030934D0520934C05C6CFC701B50167
:101D40000E9447186983AE014F5F5F4F61E070E00A
:101D500082E10E9442030E94B0078FEFE81AF80A5E
:101D6000C8CF60E083E00E94CD0960E082E00E947D
:101D7000CD09C6010E94150C0115110521F490E052
:101D800080E00E94D50B109363050093620585CF18
:101D90004F925F926F927F928F929F92AF92BF927B
:101DA000CF92DF92EF92FF920F931F93CF93DF9327
:101DB00000D000D0CDB7DEB78636910514F085E6A9
:101DC00090E08F30910514F48FE090E090934F05F0
:101DD00080934E059F938F9382E792E09F938F931A
:101DE0000E94570C20914E0530914F052052310929
:101DF00045E0429FC001439F900D112469E070E0CF
:101E00000E944718072E000C880B990B0E94B719E7
:101E100023E333E948E853E40E9462189B01AC01D4
:101E200060E070E080E89FE30E94D3189B01AC0162
:101E300069EE7EE98AEA9AE30E94611821EE31ECAC
:101E400049E354E30E94D3186B017C01AC019B0170
:101E50000E94041B20E030E040E85EE30E94041B87
:101E600021E23EE44CEE5CE40E9462180E94C71B33
:101E70004B015C0120E030E040E05FE3C701B601C8
:101E80000E94041B6B017C01AC019B01C501B401E4
:101E90000E9461182BEA3AEA4AEA5EE30E94711B4B
:101EA0002B013C01A7019601C501B4010E946218F3
:101EB0002BEA3AEA4AEA5EE30E94711B9B01AC01FD
:101EC000C301B2010E9461180E944D190E947F193E
:101ED0007B01FF926F9381E892E09F938F930E9422
:101EE000570C8701FF92EF928DE892E09F938F93BA
:101EF0000E94570C1F928FEF8F9384E08F938CEF8B
:101F00008F9386EB92E09F938F930E94570C44E04F
:101F100050E065E671E0CE0101960E94C7178B8103
:101F20009C810FB6F894DEBF0FBECDBF8E159F0506
:101F300008F450C09F938F93FF92EF9285ED92E04B
:101F40009F938F930E94570CE980F12C0A8110E037
:101F50008C818F938B818F938EED92E09F938F93E3
:101F60000E94570C0FB6F894DEBF0FBECDBF1F9373
:101F70000F93FF92EF9281E093E09F938F930E94E3
:101F8000570CB7018091690590916A050E940E0A6D
:101F9000B80180916705909168050E940E0A0F9024
:101FA0000F900F900F900F900F900F900F900F9039
:101FB0000F90DF91CF911F910F91FF90EF90DF90E5
:101FC000CF90BF90AF909F908F907F906F905F90D9
:101FD0004F90089585E6E82E81E0F82ED12CC12C93
:101FE00044E050E0B701CE0101960E94C7178B81F3
:101FF0009C818017910708F19F938F931F930F93F4
:1020000085ED92E09F938F930E94570C8981E82E73
:10201000F12C9A81092F10E01F929F931F928F93AA
:10202000DF92CF928C818F938B818F938FEE92E092
:102030009F938F930E94570C95CF3FEFC31AD30AFB
:1020400084E0E80EF11C9FEFC916D10449F685E142
:1020500093E09F938F930E94570C44E050E06DE50E
:1020600075E0CE0101960E94C717E980F12C0A8124
:1020700010E01F928EEF8F938C818F938B818F93C3
:1020800081E393E09F938F930E94570C6BCFEF9265
:10209000FF920F931F93CF93DF937B018A01E90196
:1020A0000E945C0AC7010E94C80EC8010E94240E4B
:1020B000D0934B05C0934A0510926105DF91CF91F3
:1020C0001F910F91FF90EF9008951092610530E0FD
:1020D00020E050E040E060E270E090E080E00E94AC
:1020E000471061E086E00C94CD094F925F926F92A9
:1020F0007F928F929F92AF92BF92CF92DF92EF9298
:10210000FF920F931F93CF93DF9300D01F92CDB711
:10211000DEB78132910514F080E290E08B3E2FEF24
:10212000920714F48BEE9FEF909349058093480536
:102130009F938F9383E493E09F938F930E94570C18
:1021400020914805309149052052310945E0429FD0
:10215000C001439F900D112469E070E00E94471870
:10216000072E000C880B990B0E94B71923E333E963
:1021700048E853E40E9462189B01AC0160E070E003
:1021800080E89FE30E94D3189B01AC0160E075EDED
:102190008CEE9AE30E9461182AE736E145E255E3A6
:1021A0000E94D3186B017C01AC019B010E94041BAF
:1021B00020E030E040E85EE30E94041B28EE3BE4B0
:1021C0004DE25AE40E9462180E94C71B4B015C0159
:1021D00020E030E040E05FE3C701B6010E94041B4D
:1021E0006B017C01AC019B01C501B4010E94611827
:1021F0002BEA3AEA4AEA5EE30E94711B2B013C019A
:10220000A7019601C501B4010E9462182BEA3AEABF
:102210004AEA5EE30E94711B9B01AC01C301B2015B
:102220000E9461180E944D190E947F197B01FF9244
:102230006F9381E892E09F938F930E94570C8701E0
:10224000FF92EF928EE493E09F938F930E94570C3E
:1022500043E050E06AEE70E0CE0101960E94C7179D
:102260008A819B810FB6F894DEBF0FBECDBF8E155D
:102270009F05A8F1098110E09F938F9382E793E077
:102280009F938F930E94570C0F900F900F900F9079
:102290001F930F938FE793E09F938F930E94570CA8
:1022A000B80180916B0590916C050E940E0A0F9009
:1022B0000F900F900F900F900F900F90DF91CF9194
:1022C0001F910F91FF90EF90DF90CF90BF90AF9054
:1022D0009F908F907F906F905F904F9008958AEEBF
:1022E000E82E80E0F82E43E050E0B701CE010196E1
:1022F0000E94C7178A819B818017910708F0BACF87
:1023000033E0E30EF11C85E6E81681E0F80659F7A4
:1023100043E050E062E671E0CE0101960E94C717EB
:10232000098110E08B818F938A81A7CFEF92FF9272
:102330000F931F93CF93DF93082F162FEA01EFEF30
:10234000E80FE831F8F4F0E0E855FE4E0C945B1825
:10235000C0114312501285129812AB12BE12D11244
:10236000E412F712CE11E311F911EE110612C211A7
:10237000C211C211C211C211C2112B1263120A136F
:102380000E943107612F70E0AE01802FDF91CF9165
:102390001F910F91FF90EF900C944203F880E98019
:1023A0008F2D9E2D0E94C80EEF92FF9288E893E039
:1023B0009F938F930E94570C0E9431070F900F90AC
:1023C0000F900F90DFCFF880E9808F2D9E2D0E9417
:1023D0007510EF92FF9281EA93E0EACFF880E980EE
:1023E0008F2D9E2D0E94240EEF92FF9286EB93E09C
:1023F000DFCF10926105F880E9808F2D9E2D0E941D
:102400005C0AEF92FF9289EC93E0D2CFF8808F2D97
:1024100090E087329105E4F0909365058093640520
:1024200080916405909165058234914034F081E497
:1024300091E090936505809364058091500590919B
:1024400051050E945C0A1F92FF9284EE93E0B0CF88
:1024500087E290E0E1CF888161E0882371F086E037
:102460000E94CD0983ED94E09F938F9384E094E0E4
:102470009F938F930E94570CA1CF86E00E94CD09B5
:1024800080E394E0F1CF0E94651082E294E09F9394
:102490008F930E94570C0E9431070F900F9072CFBC
:1024A0001092610530E020E050E040E060E270E032
:1024B00087ED90E00E94471061E086E00E94CD0920
:1024C00084E394E0E4CF30E020E050E040E060E2DC
:1024D00070E087ED90E00E94471061E086E00E9486
:1024E000CD0981E0809361050E94DF0468537F4F2E
:1024F0008F4F9F4F609355057093560580935705F6
:102500009093580584E494E0C2CF109261052FE0C7
:1025100030E050E040E060E270E080EB94E00E9448
:10252000471061E086E00E94CD0987E694E0AFCFD6
:10253000109261052FE030E050E040E069EB70E080
:102540008CEB92E00E94471061E086E00E94CD098A
:1025500081E794E09CCF109261052BE030E041E1EF
:1025600050E069EB70E088E795E00E94471061E079
:1025700086E00E94CD098AE794E089CF1092610538
:102580002BE030E049E150E069EB70E088EB9BE044
:102590000E94471061E086E00E94CD098AE894E03D
:1025A00076CF1092610529E030E04EE150E069EB12
:1025B00070E088E097E00E94471061E086E00E94AA
:1025C000CD098AE994E063CF1092610527E030E0FD
:1025D00042E350E069EB70E08CEA9DE00E94471016
:1025E00061E086E00E94CD098EEA94E050CF10921F
:1025F000610522E030E04FE550E069EB70E080E7F4
:1026000097E10E94471061E086E00E94CD0984ECCA
:1026100094E03DCF888199818093DB069093DC061E
:102620002A813B812093DD063093DE064C815D815B
:102630004093DF065093E0066E817F816093E10650
:102640007093E2067F936F935F934F933F932F9323
:102650009F938F9386ED94E09F938F930E94570CE6
:1026600081E08093F3060E94DF042091DD06309123
:10267000DE06620F731F811D911D6093F406709337
:10268000F5068093F6069093F7061092F9061092DD
:10269000F8068DB79EB70A960FB6F8949EBF0FBE88
:1026A0008DBF8091E1069091E206892B31F08091F7
:1026B000DF069091E0060E945C0A88E095E0E7CE94
:1026C0001F920F920FB60F9211242F933F938F9367
:1026D0009F93AF93BF9380916E0590916F05A091EA
:1026E0007005B091710530916D0523E0230F2D37F2
:1026F00058F50196A11DB11D20936D0580936E05BF
:1027000090936F05A0937005B09371058091720549
:1027100090917305A0917405B09175050196A11D66
:10272000B11D8093720590937305A0937405B093C7
:102730007505BF91AF919F918F913F912F910F9010
:102740000FBE0F901F90189526E8230F0296A11D2B
:10275000B11DD2CF1F920F920FB60F9211242F935B
:102760003F934F935F936F937F938F939F93AF9319
:10277000BF93EF93FF9386E795E00E94FA05FF91E0
:10278000EF91BF91AF919F918F917F916F915F91E9
:102790004F913F912F910F900FBE0F901F90189562
:1027A0001F920F920FB60F9211242F938F939F9326
:1027B000EF93FF93E0918605F09187058081E0918A
:1027C0008C05F0918D0582FD1BC0908180918F0555
:1027D0008F5F8F7320919005821741F0E0918F05F4
:1027E000F0E0EA58FA4F958F80938F05FF91EF91B3
:1027F0009F918F912F910F900FBE0F901F90189562
:102800008081F4CF1F920F920FB60F9211242F9355
:102810003F934F935F936F937F938F939F93AF9368
:10282000BF93EF93FF93E0910001F09101010995AF
:10283000FF91EF91BF91AF919F918F917F916F9198
:102840005F914F913F912F910F900FBE0F901F906E
:102850001895E6E7F5E01382128288EE93E0A0E097
:10286000B0E084839583A683B78380E592E091836B
:10287000808385EC90E09587848784EC90E097874F
:10288000868780EC90E0918B808B81EC90E0938B3D
:10289000828B82EC90E0958B848B86EC90E0978B1A
:1028A000868B118E128E138E148E83E196E0109219
:1028B000540610925306909357068093560620E4D0
:1028C00030E0309359062093580610925A06109221
:1028D0005B0610925D0610925C0610925E061092E6
:1028E000600610925F0610926206109261061092C6
:1028F00064061092630610926606109265061092A6
:1029000068061092670610926A0610926906109285
:102910006C0610926B06109272061092710610925D
:102920007406109273061092760610927506109235
:1029300078061092770610928606109285061092FD
:1029400055061092930610929506109294061092D6
:10295000D80629E033E030937A06209379062AE0FE
:1029600033E030937C0620937B062BE033E03093FA
:102970007E0620937D062CE033E030938006209382
:102980007F062DE033E030938206209381062EE00F
:1029900033E030938406209383062FE033E03093B6
:1029A00088062093870620E133E030938A0620933F
:1029B00089062CE237E030938C0620938B069093A7
:1029C0006E0680936D0625E735E030938E062093E2
:1029D0008D069093700680936F068BE193E0909341
:1029E000900680938F061092F306E9EDF6E080E101
:1029F000808380E481830895789484B5826084BD67
:102A000084B5816084BD85B5826085BD85B58160F2
:102A100085BD80916E00816080936E001092810070
:102A2000809181008260809381008091810081602B
:102A300080938100809180008160809380008091EC
:102A4000B10084608093B1008091B0008160809378
:102A5000B00080917A00846080937A0080917A003F
:102A6000826080937A0080917A00816080937A00FE
:102A700080917A00806880937A001092C10088E08B
:102A80008093930680919406909195060E94081D6C
:102A9000C0919306D0E0CE0101960E946C1C9093E9
:102AA000950680939406FC01EC0FFD1F108212E046
:102AB000FC01108321E02183AE014250510961E203
:102AC00075E002960E94911D86E991E1909354056C
:102AD00080935305E0918605F09187051083E0917E
:102AE0008605F09187051082E0918205F0918305BB
:102AF0001082E0918405F091850580E18083109239
:102B00008E05E0918A05F0918B0586E08083E09147
:102B10008805F0918905808180618083E091880536
:102B2000F0918905808188608083E0918805F0912B
:102B30008905808180688083E0918805F09189050E
:102B400080818F7D80838091D80681114EC08DE079
:102B50000E94DA0362ED70E080E090E00E94AC0435
:102B600061E08DE00E944C0468E270E080E090E05B
:102B70000E94AC0460E08DE00E944C0462ED70E0C5
:102B800080E090E00E94AC0461E08DE00E944C0483
:102B900068E270E080E090E00E94AC0460E08DE0CC
:102BA0000E944C046AEF70E080E090E00E94AC0468
:102BB000C5E062ED70E080E090E00E94AC0461E06E
:102BC0008DE00E944C0468E270E080E090E00E949A
:102BD000AC0460E08DE00E944C04C15051F76DE7F9
:102BE00070E080E090E00E94AC0486E795E090936E
:102BF000920680939106909354068093530683E542
:102C000096E00E94F90383E196E00E94BC0681E110
:102C10000E94DA0361E081E10E944C04219A299824
:102C2000569A5E98559A5D98539A5B9883E10E94F4
:102C3000DA0361E083E10E944C0482E10E94DA033E
:102C400061E082E10E944C0488E00E94DA0361E0C6
:102C500088E00E944C0480E10E94DA0361E080E198
:102C60000E944C0487E090E00E946C1CEC0183E120
:102C700088831A82198200E810E01C830B831E826D
:102C80001D820E94890688810E94DA0361E08881A2
:102C90000E944C04D0936C05C0936B0587E090E0D4
:102CA0000E946C1CEC0182E188831A8219821C83C9
:102CB0000B831E821D820E94890688810E94DA038E
:102CC00061E088810E944C04D0936A05C093690535
:102CD00087E090E00E946C1CEC0188E088831A82F7
:102CE00019821C830B831E821D820E9489068881A3
:102CF0000E94DA0361E088810E944C04D093680549
:102D0000C093670561E082E00E94E80961E083E02A
:102D10000E94E80961E084E00E94E80961E085E042
:102D20000E94E80961E086E00E94E80960E087E02F
:102D30000E94E8096CE386E00E94B90961E086E040
:102D40000E94CD0980E1809381001092800091E083
:102D500090936605109287001092860021E12093DF
:102D600081002BEE34E03093010120930001909319
:102D70006F008093810087E890E0909365058093D1
:102D8000640510926305109262051092610586E455
:102D900080937C0080917A00806480937A00809197
:102DA0007A0086FDFCCF8091780060917900762FC3
:102DB000682F072E000C880B990B61157105810592
:102DC000910511F00E94BE170E94651080E290E00C
:102DD0000E9475100E94DF0468517C4F8F4F9F4FF7
:102DE00060935D0570935E0580935F059093600529
:102DF0000E94DF046C507E4F8F4F9F4F60935905A8
:102E000070935A0580935B0590935C050E94DF04E4
:102E100068537F4F8F4F9F4F6093550570935605B2
:102E20008093570590935805C0E0D0E00E94B0070A
:102E30000E94B00C2097D1F30E94E6058823B1F3DD
:102E40000E940000F3CF8F929F92AF92BF92CF92D9
:102E5000DF92EF92FF92CF93DF93EC01688179814B
:102E60008A819B81611571058105910521F464E2D8
:102E700079ED8BE597E02DE133EF41E050E00E94E2
:102E8000D01749015A019B01AC01A7EAB1E40E94A5
:102E9000EF176B017C01ACEEB4EFA50194010E9429
:102EA000FD17C60ED71EE81EF91EF7FE06C081E00C
:102EB000C81AD108E10880E8F80AC882D982EA82F3
:102EC000FB82C701B6019F77DF91CF91FF90EF9012
:102ED000DF90CF90BF90AF909F908F9008958F928A
:102EE0009F92AF92BF92CF92DF92EF92FF9260914A
:102EF0000201709103018091040190910501611517
:102F000071058105910521F464E279ED8BE597E087
:102F10002DE133EF41E050E00E94D01749015A0102
:102F20009B01AC01A7EAB1E40E94EF176B017C01A1
:102F3000ACEEB4EFA50194010E94FD17C60ED71E9A
:102F4000E81EF91EF7FE06C081E0C81AD108E108A4
:102F500080E8F80AC0920201D0920301E0920401D5
:102F6000F0920501C701B6019F77FF90EF90DF90C7
:102F7000CF90BF90AF909F908F9008956093020183
:102F80007093030180930401909305010895FB0160
:102F9000DC0102C005900D9241505040D8F70895D1
:102FA000052E97FB1EF400940E94E71757FD07D0EB
:102FB0000E94021807FC03D04EF40C94E7175095BA
:102FC0004095309521953F4F4F4F5F4F0895909515
:102FD0008095709561957F4F8F4F9F4F08950E9408
:102FE0002418A59F900DB49F900DA49F800D911D56
:102FF00011240895B7FF0C94EF170E94EF17821B5E
:10300000930B0895A1E21A2EAA1BBB1BFD010DC054
:10301000AA1FBB1FEE1FFF1FA217B307E407F50788
:1030200020F0A21BB30BE40BF50B661F771F881F64
:10303000991F1A9469F760957095809590959B01FA
:10304000AC01BD01CF010895A29FB001B39FC001A3
:10305000A39F700D811D1124911DB29F700D811DC4
:103060001124911D0895AA1BBB1B51E107C0AA1F83
:10307000BB1FA617B70710F0A61BB70B881F991F19
:103080005A95A9F780959095BC01CD01089597FBBD
:10309000072E16F4009407D077FD09D00E9433184C
:1030A00007FC05D03EF4909581959F4F089570954B
:1030B00061957F4F0895EE0FFF1F0590F491E02D6D
:1030C00009945058BB27AA270E9479180C94541AC7
:1030D0000E94461A38F00E944D1A20F039F49F3FA2
:1030E00019F426F40C941C1A0EF4E095E7FB0C94EA
:1030F000161AE92F0E94651A58F3BA176207730768
:103100008407950720F079F4A6F50C94871A0EF43D
:10311000E0950B2EBA2FA02D0B01B90190010C01E7
:10312000CA01A0011124FF27591B99F0593F50F4FF
:10313000503E68F11A16F040A22F232F342F442757
:10314000585FF3CF469537952795A795F04053954F
:10315000C9F77EF41F16BA0B620B730B840BBAF01F
:103160009150A1F0FF0FBB1F661F771F881FC2F78A
:103170000EC0BA0F621F731F841F48F4879577959E
:103180006795B795F7959E3F08F0B0CF9395880F58
:1031900008F09927EE0F9795879508950E94F219E8
:1031A00008F481E008950E94E7180C94541A0E94D4
:1031B0004D1A58F00E94461A40F029F45F3F29F05A
:1031C0000C94161A51110C94881A0C941C1A0E9413
:1031D000651A68F39923B1F3552391F3951B550BA9
:1031E000BB27AA2762177307840738F09F5F5F4FDA
:1031F000220F331F441FAA1FA9F335D00E2E3AF019
:10320000E0E832D091505040E695001CCAF72BD030
:10321000FE2F29D0660F771F881FBB1F2617370781
:103220004807AB07B0E809F0BB0B802DBF01FF27B3
:1032300093585F4F3AF09E3F510578F00C94161A60
:103240000C94881A5F3FE4F3983ED4F38695779503
:103250006795B795F7959F5FC9F7880F911D96956C
:10326000879597F90895E1E0660F771F881FBB1FC8
:10327000621773078407BA0720F0621B730B840B75
:10328000BA0BEE1F88F7E095089529F416F00C9418
:10329000161A0C94871A0C941C1A0E946D1AA8F323
:1032A0009638A0F707F80F92E8942BE33AEA48EB38
:1032B0005FE70E941A1B0F920F920F924DB75EB7F5
:1032C0000F920E94D01AE8E6F0E00E941F1A4F9178
:1032D0005F91EF91FF91E595EE1FFF1F49F0FE57BB
:1032E000E0684427EE0F441FFA95E1F74195550B2E
:1032F0000E949A1A0F9007FE0C948E1A08950E944D
:1033000086196894B1110C94881A08950E946D1A58
:1033100088F09F5798F0B92F9927B751B0F0E1F096
:10332000660F771F881F991F1AF0BA95C9F714C046
:10333000B13091F00E94871AB1E008950C94871A79
:10334000672F782F8827B85F39F0B93FCCF386957F
:1033500077956795B395D9F73EF4909580957095DC
:1033600061957F4F8F4F9F4F0895E89409C097FB59
:103370003EF490958095709561957F4F8F4F9F4F4C
:103380009923A9F0F92F96E9BB279395F695879590
:1033900077956795B795F111F8CFFAF4BB0F11F453
:1033A00060FF1BC06F5F7F4F8F4F9F4F16C08823FA
:1033B00011F096E911C0772321F09EE8872F762F30
:1033C00005C0662371F096E8862F70E060E02AF071
:1033D0009A95660F771F881FDAF7880F969587955D
:1033E00097F90895990F0008550FAA0BE0E8FEEF32
:1033F00016161706E807F907C0F012161306E407B9
:10340000F50798F0621B730B840B950B39F40A26B1
:1034100061F0232B242B252B21F408950A2609F48F
:10342000A140A6958FEF811D811D089597F99F6793
:1034300080E870E060E008959FEF80EC0895DF93EE
:10344000CF931F930F93FF92EF92DF927B018C013A
:10345000689406C0DA2EEF010E94171BFE01E89463
:10346000A5912591359145915591A6F3EF010E94C3
:103470007918FE019701A801DA9469F7DF90EF90BF
:10348000FF900F911F91CF91DF91089500240A942E
:103490001616170618060906089500240A9412162F
:1034A0001306140605060895092E0394000C11F462
:1034B000882352F0BB0F40F4BF2B11F460FF04C00F
:1034C0006F5F7F4F8F4F9F4F089557FD9058440F68
:1034D000551F59F05F3F71F04795880F97FB991F73
:1034E00061F09F3F79F08795089512161306140630
:1034F000551FF2CF4695F1DF08C0161617061806BD
:10350000991FF1CF86957105610508940895E89497
:10351000BB2766277727CB0197F908959B01AC015C
:1035200060E070E080E89FE30C94D3180C94161AC6
:103530000C94071C0E946D1AD8F39923C9F3940FB9
:10354000511DA3F39150504094F059F0882332F06C
:10355000660F771F881F91505040C1F79E3F51055D
:103560002CF7880F911D9695879597F908955F3FE1
:10357000ACF0983E9CF0BB27869577956795B795FC
:1035800008F4B1609395C1F7BB0F58F711F460FFD1
:10359000E8CF6F5F7F4F8F4F9F4FE3CF0C94881A18
:1035A000FA01DC01AA0FBB1F9B01AC01BF5728F435
:1035B000222733274427507820C0B75190F4AB2FEF
:1035C0000024469537952795011CA395D2F300203A
:1035D00071F0220F331F441FB395DAF30ED00C9411
:1035E000611861307105A0E88A07B94630F49B0183
:1035F000AC016627772788279078309621F02083C2
:1036000031834283538308950E94171B0C94541AEC
:103610000E94461A38F00E944D1A20F0952311F0AE
:103620000C94161A0C941C1A11240C94881A0E94DB
:10363000651A70F3959FC1F3950F50E0551F629F77
:10364000F001729FBB27F00DB11D639FAA27F00DFB
:10365000B11DAA1F649F6627B00DA11D661F829F22
:103660002227B00DA11D621F739FB00DA11D621F07
:10367000839FA00D611D221F749F3327A00D611D24
:10368000231F849F600D211D822F762F6A2F112406
:103690009F5750409AF0F1F088234AF0EE0FFF1F39
:1036A000BB1F661F771F881F91505040A9F79E3F90
:1036B000510580F00C94161A0C94881A5F3FE4F3BD
:1036C000983ED4F3869577956795B795F795E795E6
:1036D0009F5FC1F7FE2B880F911D9695879597F9EF
:1036E0000895FA01EE0FFF1F309621053105A1F173
:1036F0006115710561F48038BFE39B0749F1689457
:103700009038810561F08038BFEF9B0741F0992325
:103710004AF5FF3FE1053105210519F1E8940894C8
:10372000E795D901AA2329F4AB2FBE2FF85FD0F378
:1037300010C0FF5F70F4A695E0F7F73950F019F06C
:10374000FF3A38F49F779F930DD00F9007FC905865
:10375000089546F00C941C1A60E070E080E89FE346
:1037600008954FE79F775F934F933F932F930E9466
:10377000241C2F913F914F915F910E94041B0C9448
:103780004D1919F416F40C941C1A0C94071C0E9481
:103790006D1AB8F39923C9F3B6F39F57550B87FFFA
:1037A0000E94151C0024A0E640EA9001805856951E
:1037B000979528F4805C660F771F881F20F02617E6
:1037C0003707480730F4621B730B840B202931291B
:1037D0004A2BA69517940794202531254A2758F798
:1037E000660F771F881F20F026173707480730F429
:1037F000620B730B840B200D311D411DA09581F7C9
:10380000B901842F9158880F9695879508959F3F09
:1038100031F0915020F4879577956795B795880F8B
:10382000911D9695879597F9089591505040660F90
:10383000771F881FD2F7089516F00C94071C0C947C
:103840001C1A68940C94161A0E946D1AA8F39923F6
:10385000C1F3AEF3DF93CF931F930F93FF92C92F62
:10386000DD2788232AF02197660F771F881FDAF754
:1038700020E030E040E85FEB9FE3883920F0803EB5
:1038800038F021968F770E946218E0E9F0E004C0DA
:103890000E946218EDEBF0E00E941F1A8B01BE013E
:1038A000EC01FB2E6F5771097595771F880B990BEB
:1038B0000E94B71928E132E741E35FE30E94171B3A
:1038C000AF2D9801AE01FF900F911F91CF91DF9125
:1038D0000E9479180C94541A0F931F93CF93DF937F
:1038E0008230910510F482E090E0E091FC06F091C6
:1038F000FD0630E020E0B0E0A0E0309799F421151B
:10390000310509F44AC0281B390B24303105D8F59C
:103910008A819B816115710589F1FB019383828303
:10392000FE0111C04081518102811381481759075E
:10393000E0F04817590799F4109761F012960C932C
:10394000129713961C933296CF01DF91CF911F915E
:103950000F9108950093FC061093FD06F4CF2115F6
:10396000310551F04217530738F0A901DB019A01E4
:10397000BD01DF01F801C1CFEF01F9CF9093FD0642
:103980008093FC06CDCFFE01E20FF31F819391934C
:103990002250310939832883D7CF2091FA063091FC
:1039A000FB06232B41F4209108013091090130934B
:1039B000FB062093FA06209106013091070121159C
:1039C000310541F42DB73EB740910A0150910B01EA
:1039D000241B350BE091FA06F091FB06E217F30782
:1039E000A0F42E1B3F0B2817390778F0AC014E5F6F
:1039F0005F4F2417350748F04E0F5F1F5093FB06AB
:103A00004093FA06819391939FCFF0E0E0E09CCF42
:103A1000CF93DF930097E9F0FC0132971382128273
:103A2000A091FC06B091FD06ED0130E020E010977A
:103A3000A1F420813181820F931F2091FA063091E9
:103A4000FB062817390709F061C0F093FB06E093E5
:103A5000FA06DF91CF910895EA01CE17DF07E8F566
:103A60004A815B819E0141155105B1F7E901FB8354
:103A7000EA8349915991C40FD51FEC17FD0761F4F2
:103A8000808191810296840F951FE9019983888333
:103A9000828193819B838A83F0E0E0E012968D918E
:103AA0009C9113970097B9F52D913C911197CD01F9
:103AB0000296820F931F2091FA063091FB06281779
:103AC000390739F6309751F51092FD061092FC0631
:103AD000B093FB06A093FA06BCCFD383C283408188
:103AE0005181840F951FC817D90761F44E5F5F4F4E
:103AF00088819981480F591F518340838A819B8116
:103B0000938382832115310509F0B0CFF093FD0630
:103B1000E093FC069ECFFD01DC01C0CF1382128230
:103B2000D7CFFB01DC014150504048F001900D928D
:103B30000020C9F701C01D9241505040E0F70895A0
:103B4000AEE0B0E0E6EAFDE10C9458208C01FA0109
:103B500086E08C831A83098377FF02C060E070E8F7
:103B6000615071097E836D83A901BF01CE01019669
:103B70000E94CC1D4D815E8157FD0AC02F81388582
:103B8000421753070CF49A01020F131FF801108219
:103B90002E96E4E00C947420ABE0B0E0E2EDFDE1A1
:103BA0000C944A207C013B018A01FC011782168299
:103BB000838181FFC8C1CE0101965C01F701938129
:103BC000F30193FD859193FF81913F01882309F4CF
:103BD00053C1853239F493FD859193FF81913F0163
:103BE000853229F4B70190E00E94BC1FE7CF912CE9
:103BF000212C312CFFE1F31538F08B3211F190F4C8
:103C0000803209F1833229F137FC3CC020ED280FC6
:103C10002A3050F536FE20C08AE0989E200D1124EF
:103C2000922E06C08D3291F0803371F7689430F88F
:103C3000F30193FD859193FF81913F018111DACFCB
:103C400021C0689431F8689432F8F2CF689433F860
:103C5000EFCF689434F8ECCFEAE02E9E200D1124CB
:103C6000222E689435F8E4CF8E3229F436FC04C154
:103C7000689436F8DDCF8C3619F4689437F8D8CFCD
:103C80008836B1F2982F9F7D95549330E0F08336BB
:103C9000A1F18337C1F1833509F063C02801F2E057
:103CA0004F0E511CF801C080D180692D70E036FCA8
:103CB00002C06FEF7FEFC6010E94A61F4C016894FF
:103CC00037F882010AC00C5F1F4FFFE3F983882495
:103CD0008394912C6501E89437F833FE2DC0522C63
:103CE0008114910471F5552009F468CFB70180E281
:103CF00090E00E94BC1F5A94F6CFF801808189831E
:103D00000E5F1F4FE4CF2801F2E04F0E511CF80167
:103D1000C080D180692D70E036FC02C06FEF7FEF6C
:103D2000C6010E94B11F4C018201D5CFB70180E2CC
:103D300090E00E94BC1F2A942814190409F0B0F7DF
:103D4000CECFF60137FC859137FE81916F01B70127
:103D500090E00E94BC1F51105A94F1E08F1A910814
:103D6000BFCF843619F0893609F077C0F80137FEE5
:103D70006BC060817181828193810C5F1F4FF32D35
:103D8000FF763F2E97FF09C09095809570956195BD
:103D90007F4F8F4F9F4F689437F82AE030E0A5019E
:103DA0000E94EC1FC82ECA188C2C432C36FE0CC067
:103DB000E89440F8C91440F434FE05C032FC03C056
:103DC000F32DFE7E4F2E892C44FE95C0FE01EC0D96
:103DD000F11D8081803309F087C0242D297E422E79
:103DE000842D8870582E43FC95C040FE8FC09C2CBB
:103DF000821418F42C0C922C981844FE91C0B70130
:103E000080E390E00E94BC1F42FE09C088E790E07A
:103E100041FE02C088E590E0B7010E94BC1FC914B2
:103E200008F48AC0CA94D12C9FEFC91AD90ACA0CC7
:103E3000DB1CF60182916F01B70190E00E94BC1F6C
:103E4000AC14BD04B1F74FCF60817181072E000C17
:103E5000880B990B0E5F1F4F92CFD32CE894D4F8A8
:103E60002AE030E0853739F1232D297FD22E8F3695
:103E700001F148F48835A9F0F701868197812B96E6
:103E8000E2E10C946620803749F08837A9F7D4FE28
:103E900002C06894D2F820E130E00DC06894D4F8F4
:103EA000F6CF34FE03C0822F8660D82E20E132E0A8
:103EB00002C028E030E0F801D7FE0FC060817181B8
:103EC000828193810C5F1F4FA5010E94EC1FC82EB9
:103ED000CA183D2CE89437F867CF6081718190E073
:103EE00080E00E5F1F4FF0CF42FC02C0839478CF7A
:103EF0008394839475CF842D867809F471CFF6CF9F
:103F0000B70180E290E00E94BC1F83948214C0F34A
:103F1000512C73CF522C5818821408F46ECFF8CF5E
:103F2000842D867809F47BCF8BE241FE80E247FC4A
:103F30008DE2B70190E071CFB70180E390E00E947D
:103F4000BC1F9A946CCF8FEF9FEF99CFFC01059027
:103F5000615070400110D8F7809590958E0F9F1F8B
:103F60000895FC016150704001900110D8F78095D0
:103F700090958E0F9F1F08950F931F93CF93DF93FC
:103F8000182F092FEB018B8181FD09C01FEF0FEF67
:103F9000812F902FDF91CF911F910F91089582FF74
:103FA00014C02E813F818C819D81281739073CF4F4
:103FB000E881F981CF0101969983888310838E81EE
:103FC0009F8101969F838E83E3CFE885F985812FBA
:103FD0000995892BA1F3DACFFA01AA27283051F1EC
:103FE000203181F1E8946F936E7F6E5F7F4F8F4F2A
:103FF0009F4FAF4FB1E03ED0B4E03CD0670F781F89
:10400000891F9A1FA11D680F791F8A1F911DA11D6D
:104010006A0F711D811D911DA11D20D009F46894A6
:104020003F912AE0269F11243019305D3193DEF64E
:10403000CF010895462F4770405D4193B3E00FD004
:10404000C9F7F6CF462F4F70405D4A3318F0495DEF
:1040500031FD4052419302D0A9F7EACFB4E0A695D2
:104060009795879577956795BA95C9F700976105F4
:10407000710508959B01AC010A2E0694579547954A
:1040800037952795BA95C9F7620F731F841F951F3F
:10409000A01D08952F923F924F925F926F927F9250
:1040A0008F929F92AF92BF92CF92DF92EF92FF9248
:1040B0000F931F93CF93DF93CDB7DEB7CA1BDB0BF4
:1040C0000FB6F894DEBF0FBECDBF09942A88398899
:1040D00048885F846E847D848C849B84AA84B984A0
:1040E000C884DF80EE80FD800C811B81AA81B981AC
:1040F000CE0FD11D0FB6F894DEBF0FBECDBFED01C0
:064100000895F894FFCFC2
:104106007405010000000000FE06800000001D008E
:10411600000001001E002C00000000002D004400DD
:104126000100000045005300000000005400590043
:10413600000001005A0068000000000069008000CD
:104146000100000081008F00000000009000950033
:10415600000001009600A40000000000A500BC00BD
:1041660001000000BD00CB0000000000CC00D10023
:1041760000000100D200E00000000000E100F700AE
:1041860001000000F80006010000000007010D0113
:10419600000001000E011B01000000001C0133019C
:1041A6000100000034014301000000004401480101
:1041B60000000100490157010000000058016F018D
:1041C6000100000070017E01000000007F018401F3
:1041D6000000010085019301000000009401AB017D
:1041E60001000000AC01BA0100000000BB01C001E3
:1041F60000000100C101CF0100000000D001E9016B
:1042060001000000EA01F60100000000F701FC01D0
:1042160000000100FD010B02000000000C02230259
:1042260001000000240232020000000033023802BE
:1042360000000100390247020000000048025E0249
:10424600010000005F02E80301000000000000001A
:104256001C067C05A9056906DA05B805CC05456E78
:1042660064206F662064796E616D6963207465737E
:104276007400636F6F6C616E7474656D703D256458
:104286000043616C632052203D202564004765741D
:1042960074696E6720636F6F6C616E7420776970E6
:1042A60065727320666F7220726573697374616ECE
:1042B60063653D2564004C6F7765737420523D2518
:1042C60064204E756D5461626C65456E74726965E5
:1042D600733D2564002564203C3D202564004D6126
:1042E600746368656420523D256420283029004D9A
:1042F60061746368656420523D256420282564291D
:10430600205769706572313D256420576970657262
:10431600323D2564004E6F206D617463682C2075F4
:104326007365206C6172676573742076616C756560
:10433600004D61746368656420523D25642028251C
:1043460064290061697274656D703D256400476576
:104356007474696E6720616972207769706572206E
:10436600666F7220726573697374616E63653D254D
:1043760064004D61746368656420523D256400578E
:10438600697065723D25640053657420636F6F6CB8
:10439600616E742074656D7020746F2025642046EC
:1043A60000536574206169722074656D7020746FA6
:1043B600202564204600536574207468726F7474F7
:1043C6006C6520746F2025640053657420656E67E4
:1043D600696E6520737065656420746F202564209E
:1043E60052504D005365742070756C736520647768
:1043F600656C6C20616E676C6520746F2025642087
:104406006465670053657420737461727465722005
:104416006D6F746F7220737461746520746F2025DC
:1044260073005475726E656420656E67696E6520EB
:104436006F666600456E67696E65206372616E6BB6
:10444600696E6700456E67696E65206372616E6BA3
:10445600696E67207769746820756E737461626C23
:10446600652052504D7300436F6C642069646C651F
:1044760000486F742069646C6500437275697365E2
:104486002061742033304D5048004372756973655E
:104496002061742037304D50480047656E746C6556
:1044A60020616363656C65726174696F6E004D6F40
:1044B60064657261746520616363656C65726174BD
:1044C600696F6E004861726420616363656C657232
:1044D6006174696F6E0053746570733D2575205362
:1044E60074657054696D654D733D2575205374610F
:1044F600727453706565643D2575205370656564F7
:10450600537465703D25640052756E6E696E672042
:1045160064796E616D696320746573740073726388
:0C4526005C53657269616C2E637070005C
:00000001FF
