:100000000C94DF020C9407030C9407030C94070371
:100010000C9407030C9407030C9407030C94070338
:100020000C9407030C9407030C9407030C94070328
:100030000C9407030C940A150C9407030C94070303
:100040000C9468140C9407030C94D8140C94B214F8
:100050000C9407030C9407030C9407030C940703F8
:100060000C9407030C94070307634236B79BD8A789
:100070001A39685618AEBAAB558C1D3CB7CC5763CD
:10008000BD6DEDFD753EF6177231BF000000803F7B
:1000900008000000BE922449123EABAAAA2ABECD97
:1000A000CCCC4C3E00000080BEABAAAAAA3E000009
:1000B0000000BF000000803F000000000008417801
:1000C000D3BB4387D1133D190E3CC3BD4282AD2B38
:1000D0003E68EC8276BED98FE1A93E4C80EFFFBE30
:1000E00001C4FF7F3F000000000000830201A9025D
:1000F00002CE0203F302041A030540030665030758
:100100008A0308AD0309D2030AF7030B1C040C434E
:10011000040D68040E8D040FB20410D50411FA0406
:10012000121F05134405146A05158F0516B305172C
:10013000D80518F905191D061A41061B65061C8A03
:10014000061DAD061ECF061FF20620120721350739
:1001500022560723770724990725B907261608276B
:100160003E08285C080000FC04010022050200474C
:100170000503006C05040091050500B5050600DACD
:10018000050700FF0508002006090043060A00686D
:10019000060B008C060C00AE060D00D1060E00F317
:1001A000060F0014071000350711005607120077DC
:1001B00007130097071400B8071500200816004819
:1001C0000817007008180098081900B6081A00DE11
:1001D000081B0006091C002E091D004C091E007496
:1001E000091F009C092000C4092100E20922000A1D
:1001F0000A2300320A24005A0A2500780A2600A0A1
:100200000A2700C80A2800F00A29000E0B2A003627
:100210000B2B005E0B2C00860B2D00A40B2E00CCAC
:100220000B2F00F40B3000120C31003A0C3200623C
:100230000C3300800C3400A80C3500D00C3600F8CC
:100240000C3700200D38003E0D3900660D3A008E47
:100250000D3B00AC0D3C00D40D3D00FC0D3E001AE2
:100260000E3F00420E40006A0E4100880E4200B070
:100270000E4300D80E4400F60E45001E0F46004601
:100280000F47006E0F48008C0F4900B40F4A00DC86
:100290000F4B00FA0F4C0022104D004A104E006820
:1002A000104F0090105000B8105100D6105200FEB0
:1002B00010530026115400441155006C115600943F
:1002C000115700B2115800DA11590002125A0020D9
:1002D000125B0048125C0070125D008E125E00B668
:1002E000125F00D4126000FC12610024136200420D
:1002F0001363006A13640088136500B0136600D8A6
:10030000136700F61368001E1469003C146A006449
:10031000146B0082146C00AA146D00C8146E00F0F7
:10032000146F001815700036157100541572007C9A
:100330001573009A157400C2157500E01576000853
:10034000167700261678004E1679006C167A0094FF
:10035000167B00B2167C00DA167D00F8167E0016B9
:10036000177F003E177F0166177F0284177F03A265
:10037000177F04CA177F05E8177F0610187F072E1E
:10038000187F084C187F096A187F0A92187F0BB0F3
:10039000187F0CCE187F0DEC187F0E14197F0F32CA
:1003A000197F1050197F116E197F128C197F13AAB3
:1003B000197F14D2197F15F0197F160E1A7F172C8A
:1003C0001A7F18401A7F19681A7F1A861A7F1B9A9B
:1003D0001A7F1CC21A7F1DE01A7F1EFE1A7F1F1C87
:1003E0001B7F20301B7F214E1B7F226C1B7F238AAB
:1003F0001B7F24A81B7F25C61B7F26E41B7F27F8B5
:100400001B7F28161C7F29341C7F2A481C7F2B66E3
:100410001C7F2C841C7F2DA21C7F2EB61C7F2FD40A
:100420001C7F30E81C7F31061D7F321A1D7F333858
:100430001D7F34561D7F356A1D7F36881D7F379C92
:100440001D7F38B01D7F39CE1D7F3AE21D7F3BF600
:100450001D7F3C141E7F3D281E7F3E461E7F3F5A57
:100460001E7F406E1E7F41821E7F42A01E7F43B4CE
:100470001E7F44C81E7F45DC1E7F46F01E7F470E50
:100480001F7F48221F7F49361F7F4A4A1F7F4B5ECE
:100490001F7F4C721F7F4D861F7F4E9A1F7F4FAE6E
:1004A0001F7F50C21F7F51D61F7F52EA1F7F53FE0E
:1004B0001F7F5412207F5526207F563A207F574EAB
:1004C000207F5862207F5976207F5A80207F5B945E
:1004D000207F5CA8207F5DBC207F5ED0207F5FDA1C
:1004E000207F60EE207F6102217F6216217F6320E2
:1004F000217F6434217F6548217F6652217F6766B2
:10050000217F687A217F698E217F6A98217F6BAC79
:10051000217F6CB6217F6DCA217F6ED4217F6FE869
:10052000217F70F2217F7106227F7210227F732457
:10053000227F742E227F7542227F764C227F776045
:10054000227F786A227F7974227F7A88227F7B9249
:10055000227F7CA6227F7DB0227F7EBA227F7FCE43
:1005600022000000002300260029000000000800EF
:10057000020100000304070000000000000000006A
:10058000000000250028002B0000000000240027A8
:10059000002A000404040404040404020202020207
:1005A0000203030303030301020408102040800137
:1005B0000204081020010204081020003115112443
:1005C0001FBECFEFD8E0DEBFCDBF14E0A0E0B1E0AA
:1005D000EEE2F3E402C005900D92A035B107D9F721
:1005E00026E0A0E5B4E001C01D92AB33B207E1F70D
:1005F00012E0CFEDD2E004C02197FE010E946F19F6
:10060000CE3DD107C9F70E9404160C9495210C9495
:10061000000008950895089508950895089508958F
:10062000862F642FE0918B04F0918C04309711F0A9
:10063000A9010994089508950F931F93CF93DF9311
:100640008C01EB01DC018D919C9168816F77DC015D
:10065000ED91FC910190F081E02D0995F8018081E8
:100660009181688170E0660F672F661F770BDC0150
:10067000ED91FC910190F081E02DDF91CF911F91E0
:100680000F910994EF92FF920F931F93CF93DF93F3
:10069000C82F80919005909191050097A9F17A015A
:1006A0008B01DC01ED91FC910190F081E02D60EF78
:1006B00009958091900590919105DC01ED91FC9157
:1006C0000190F081E02D6C2F0995E7010E0D1F1DA3
:1006D000C017D10739F0BE0180E995E00E941C03E4
:1006E0002196F6CF8091900590919105DC01ED91D6
:1006F000FC910190F081E02D67EFDF91CF911F9188
:100700000F91FF90EF900994DF91CF911F910F917E
:10071000FF90EF9008951F93CF93DF93182FEB0175
:1007200080919505909196056817790760F48091FE
:10073000930590919405C80FD91F188380E0DF912D
:10074000CF911F910895E091C205F091C3053097B4
:1007500011F481E0F4CF81E0809392058091AE05A1
:100760009091AF0509958091950590919605C817D0
:10077000D90778F7DCCFCF93DF93EC01FB0130E0B2
:1007800020E0C901880F991F8C179D0778F44081DC
:10079000DB014D93BD01119791819795992797950D
:1007A000942B9C932F5F3F4F3296EBCFC901DF9183
:1007B000CF91089590E0FC01E955FA4F24918D56B0
:1007C0009A4FFC018491882399F090E0880F991F3B
:1007D000FC01E757FA4FA591B491FC01E158FA4F9B
:1007E000859194918FB7F894EC91E22BEC938FBFA5
:1007F0000895CF93DF93FC01A081B181109701F19F
:10080000EC01ED91FC9111970190F081E02D69EFE1
:10081000CD01099588819981DC01ED91FC910190D0
:10082000F081E02D62E0099588819981DC01ED91EC
:10083000FC910190F081E02D65E0DF91CF9109946A
:10084000DF91CF910895833081F028F4813099F0C1
:100850008230A9F008958730A9F08830C9F084303B
:10086000B1F4809180008F7D03C0809180008F77EC
:1008700080938000089584B58F7784BD089584B5F2
:100880008F7DFBCF8091B0008F778093B00008956B
:100890008091B0008F7DF9CFCF93DF93282F30E088
:1008A000F901E559FA4F8491F901E955FA4FD491CC
:1008B000F901ED56FA4FC491CC23A1F081110E94A9
:1008C0002304EC2FF0E0EE0FFF1FEF59FA4FA59134
:1008D000B491EC91ED2381E090E009F480E0DF91A8
:1008E000CF91089580E090E0FACF1F93CF93DF93EC
:1008F000282F30E0F901E559FA4F8491F901E955C3
:10090000FA4FD491F901ED56FA4FC491CC23A9F0D6
:10091000162F81110E942304EC2FF0E0EE0FFF1F31
:10092000E158FA4FA591B4918FB7F894EC91111159
:1009300008C0D095DE23DC938FBFDF91CF911F914C
:100940000895DE2BF8CF61E0809116060C947504B3
:1009500081E58CBD1DBC60E0809116060C94750489
:100960003FB7F8948091AF049091B004A091B10486
:10097000B091B20426B5A89B05C02F3F19F001968F
:10098000A11DB11D3FBFBA2FA92F982F8827BC01E9
:10099000CD01620F711D811D911D42E0660F771F11
:1009A000881F991F4A95D1F708958F929F92AF9211
:1009B000BF92CF92DF92EF92FF926B017C010E9477
:1009C000B0044B015C01C114D104E104F104B9F09D
:1009D0000E94B004681979098A099B09683E73402E
:1009E0008105910580F321E0C21AD108E108F108E0
:1009F00088EE880E83E0981EA11CB11CE4CFFF9006
:100A0000EF90DF90CF90BF90AF909F908F90089520
:100A10002FB7F8946091AB047091AC048091AD0451
:100A20009091AE042FBF0895209162043091630429
:100A300080915E0490915F042817390709F4299A80
:100A4000209162043091630480915C0490915D0474
:100A50002817390709F4299820916204309163041A
:100A600080915A0490915B042817390709F45D9A24
:100A7000209162043091630480915804909159044C
:100A80002817390709F45D982091620430916304B6
:100A900080915604909157042817390709F45E9AFB
:100AA0002091620430916304809154049091550424
:100AB0002817390709F45E98209162043091630485
:100AC00080915204909153042817390709F45B9AD6
:100AD00020916204309163048091500490915104FC
:100AE0002817390709F45B98809162049091630498
:100AF0000196909363048093620420916004309186
:100B000061048217930720F010926304109262042C
:100B100081E08093A30420E43FE130938700209399
:100B2000860091E19093810024E135E0309301014A
:100B30002093000180936F0008950895009721F09D
:100B4000805C9F4F0C94F9030895AF92BF92CF92AF
:100B5000DF92EF92FF920F931F93CF93DF936C017D
:100B60007B018B01040F151FEB015E01AE18BF085E
:100B7000C017D10759F06991D601ED91FC91019010
:100B8000F081E02DC6010995892B79F7C501DF9128
:100B9000CF911F910F91FF90EF90DF90CF90BF907A
:100BA000AF900895FC01538D448D252F30E0842FA4
:100BB00090E0821B930B541710F0CF960895019785
:100BC0000895FC01918D828D981761F0A28DAE0F72
:100BD000BF2FB11D5D968C91928D9F5F9F73928FF9
:100BE00090E008958FEF9FEF0895FC01918D828D25
:100BF000981731F0828DE80FF11D858D90E00895F2
:100C00008FEF9FEF0895FC01918D228D892F90E049
:100C1000805C9F4F821B91098F739927089583EB06
:100C200094E00E94030621E0892B09F420E0822F42
:100C3000089580E090E0892B29F00E940F06811131
:100C40000C9400000895FC01A48DA80FB92FB11DCC
:100C5000A35ABF4F2C91848D90E001968F739927F2
:100C6000848FA689B7892C93A089B1898C918370D0
:100C700080648C93938D848D981306C00288F389C9
:100C8000E02D80818F7D80830895EF92FF920F93F6
:100C90001F93CF93DF93EC0181E0888F9B8D8C8D28
:100CA00098131AC0E889F989808185FF15C09FB71C
:100CB000F894EE89FF896083E889F98980818370DF
:100CC000806480839FBF81E090E0DF91CF911F918E
:100CD0000F91FF90EF900895F62E0B8D10E00F5FAF
:100CE0001F4F0F731127E02E8C8D8E110CC00FB685
:100CF00007FCFACFE889F989808185FFF5CFCE011D
:100D00000E942306F1CFEB8DEC0FFD2FF11DE35A6E
:100D1000FF4FF0829FB7F8940B8FEA89FB8980819F
:100D20008062CFCFCF93DF93EC01888D8823B9F019
:100D3000AA89BB89E889F9898C9185FD03C08081E6
:100D400086FD0DC00FB607FCF7CF8C9185FFF2CF63
:100D5000808185FFEDCFCE010E942306E9CFDF9190
:100D6000CF910895CF93CFB7F89480918A048111E1
:100D700024C0EDE9F5E08491E1EBF5E09491E82FF2
:100D8000F0E0EE0FFF1FE757FA4FA591B491EC91F9
:100D9000E92321F461E08AE00E9475048AE00E9460
:100DA000DA038CB580618CBD8CB580648CBD8DE020
:100DB0000E94DA038BE00E94DA0380918A048F5F3D
:100DC00080938A04CFBFCF910895CF92DF92EF92A4
:100DD000FF920F931F93CF93DF93FC01E058FF4FD7
:100DE000E080EE2009F458C0EC01C05CDF4FA88120
:100DF000B981109709F450C0FC01EF57FF4FC08034
:100E0000D180F60111810081ED91FC911197019043
:100E1000F081E02D60EFCD01099588819981DC0199
:100E2000ED91FC910190F081E02D69E709958881B1
:100E30009981DC01ED91FC910190F081E02D602F12
:100E4000099588819981DC01ED91FC910190F081F7
:100E5000E02D612F0995F12C01E010E00F5F1F4F8D
:100E6000E016F10639F0B601600F711FCE010E9445
:100E70001C03F4CF88819981DC01ED91FC910190F4
:100E8000F081E02D67EFDF91CF911F910F91FF90DF
:100E9000EF90DF90CF900994DF91CF911F910F9148
:100EA000FF90EF90DF90CF900895009711F00C9491
:100EB000E50608954F925F926F927F928F929F9274
:100EC000AF92BF92CF92DF92EF92FF920F931F9358
:100ED000CF93DF93CDB7DEB768970FB6F894DEBF38
:100EE0000FBECDBFC0908804D09089048090860446
:100EF0009090870440919F045091A00480918204B7
:100F0000909183040091A1041091A2044090800468
:100F100050908104052C000C6608770849865A8693
:100F20006B867C86092C000CAA08BB088D829E82E9
:100F3000AF82B8860D2C000CEE08FF08C982DA8259
:100F4000EB82FC82012E000C220B330B098B1A8BD7
:100F50002B8B3C8B052E000C660B770B4D875E8729
:100F60006F87788B092E000CAA0BBB0B8D8B9E8B89
:100F7000AF8BB88FAE014F5F5F4F68E170E080E1EB
:100F80000E94420368960FB6F894DEBF0FBECDBF35
:100F9000DF91CF911F910F91FF90EF90DF90CF9055
:100FA000BF90AF909F908F907F906F905F904F9089
:100FB0000895FF920F931F93CF93DF93FF24F39431
:100FC000C2E0D0E001E010E08091CE059091CF0525
:100FD000DC01ED91FC910084F185E02D0995892BD0
:100FE00009F4CEC18091CE059091CF05DC01ED9141
:100FF000FC910284F385E02D09959C018F3F9807B1
:1010000019F3982F80919B05882309F492C0973F8C
:1010100009F07EC010929B05A0919305B0919405B4
:101020006C916137C1F1693709F05CC0E091C80586
:10103000F091C905309741F280919C0590919D05F2
:101040008330910560F430E020E050E040E070E053
:1010500060E08091AA059091AB050995B5CFBD01DF
:101060006D5F7F4F03970E94BB03BC016D5F7F4F95
:1010700080E00E948B03E0919305F09194059F011D
:101080002D5F3F4F428150E0618170E0E091C805E3
:10109000F091C905DECF8091C4059091C505892BDB
:1010A00009F492CFBD016F5F7F4F80919C059091B5
:1010B0009D0501970E94BB03BC016F5F7F4F80E0DD
:1010C0000E948B0360919305709194056F5F7F4F31
:1010D000E091C405F091C5058091B0059091B105EE
:1010E000099572CFE091C605F091C705309709F4D4
:1010F0006BCF9D012F5F3F4F40919C0550919D0507
:10110000415051098091B2059091B30509955CCF8A
:1011100060919C0570919D05822F0E948B038091A8
:101120009C0590919D05019690939D0580939C054B
:101130004BCF6091990570919A056115710509F47D
:10114000B1C027FDAFC06150710970939A056093DB
:101150009905822F0E948B038091990590919A05A1
:10116000892B09F031CF80919705882309F42CCF82
:10117000803D09F483C040F4803949F1803C09F492
:1011800069C01092970520CF843FE1F1853F09F4B3
:101190004DC0803EB1F7E091B605F091B7053097AC
:1011A00081F3A0919305B09194054C9120E8429F62
:1011B000C001112411964C91480F592F511D609177
:1011C000980580919E0590919F050995DACFE09151
:1011D000B805F091B9053097A1F2A0919305B091AF
:1011E00094054C9120E8429FC001112411964C9126
:1011F000480F592F511D609198058091A00590913D
:10120000A105E3CFE091BE05F091BF05309709F449
:10121000B8CFA0919305B09194054C9150E01196F0
:101220006C918091A6059091A705CFCFE091C00564
:10123000F091C105309709F4A4CFA0919305B09126
:1012400094054C9150E011966C918091A805909175
:10125000A905BBCFE091BA05F091BB05309709F421
:1012600090CFA0919305B09194054C9150E060917E
:1012700098058091A2059091A305A7CFE091BC05A8
:10128000F091BD05309709F47CCFA0919305B09102
:1012900094054C9150E0609198058091A40590913F
:1012A000A50593CF903F30F4822F8F7080939805DF
:1012B000922F907F903FF1F190F4903CB1F150F477
:1012C000903909F081CED0939A05C09399059093F7
:1012D00097057ACE903D49F1903EA9F375CE993F9E
:1012E00009F442C028F48CE0890F823060F36CCEA0
:1012F0009F3F09F069CE10929A05109299051092BD
:1013000097051092980590E080E020919505309126
:10131000960582179307A8F4E0919305F091940540
:10132000E80FF91F10820196F0CF10939A050093F1
:101330009905CDCFF0929B0510929D0510929C05CA
:1013400043CE10929B0510929D0510929C05E09152
:10135000CC05F091CD058091B4059091B5053097FD
:1013600009F432CE099530CEE091CA05F091CB0553
:10137000309709F429CE8091AC059091AD05F2CF5C
:10138000DF91CF911F910F91FF9008958EBD0000C6
:101390000DB407FEFDCF8EB50895CF93C82F0E94E0
:1013A000A8048091170681600E94C6098C2F0E94B4
:1013B000C60980E00E94C609C82F0E94A3048C2F92
:1013C000CF910895CF93DF93D82FC62F0E94A80402
:1013D000809117060E94C6098D2F0E94C6098C2F86
:1013E0000E94C609DF91CF910C94A304CF93DF93A1
:1013F000D82FC62F8AE00E94CD0961E070E00D2E43
:1014000001C0660F0A94EAF7609568238C2F01C02B
:10141000880FDA95EAF7682B8AE0DF91CF910C9478
:10142000E2091F93CF93DF93C1E0D0E001C0CC0F5E
:101430008A95EAF71C2F109580E0613091F00E94A8
:10144000CD096C2F682B80E00E94E20986E00E94A3
:10145000CD09682F612386E0DF91CF911F910C9415
:10146000E2090E94CD09C0956C2F6823ECCFEF9262
:10147000FF920F931F93CF93DF93EC010B811C819D
:101480006017710708F48B01E980FA808D819E81D5
:1014900001969E838D83019781F48CB58F7D8CBDE1
:1014A0008CB5837F8CBD8CB583608CBD8DB58E7FF4
:1014B0008DBD60E088810E94750484E0EE0CFF1C05
:1014C0008A95E1F76894E1F811701E29812F0E9436
:1014D000C609FF24F39481FD14C0F12C8D819E81F7
:1014E00001979E838D83892B21F461E088810E947E
:1014F00075048F2DDF91CF911F910F91FF90EF9089
:101500000895802F0E94C609E9CF4F925F926F9293
:101510007F928F929F92AF92BF92CF92DF92EF9283
:10152000FF92CF93DF93CDB7DEB764970FB6F894F1
:10153000DEBF0FBECDBF20E12093810029985D98CA
:101540005E985B9890938904809388041816190616
:101550000CF03FC1BC01A090A104B090A204072EE2
:10156000000C880B990B0E94CB1A20E030E040E77A
:1015700052E40E94E71920E030E040E05FE30E947F
:10158000181C9B01AC0160E070E080E89FE30E94C2
:10159000E71920E030E04AE754E40E94181C0E945A
:1015A0009A1A709361046093600490E080E00E9456
:1015B000C91A6B017C01B501BB0C880B990B0E9409
:1015C000CB1A9B01AC010E94761920E030E044E385
:1015D00054E40E94E719A70196010E94181C4B01D0
:1015E0005C0120E030E040E85EE3C701B6010E9404
:1015F000181C69877A878B879C8720E030E040E061
:101600005FE3C701B6010E94181C6D877E878F8734
:10161000988B20E030E040E45FE3C701B6010E9410
:10162000181C698B7A8B8B8B9C8B20E030E0A90196
:10163000C501B4010E94761969837A838B839C83E8
:101640009B01AC01C701B6010E94E21987FF0CC0E3
:10165000A701960169817A818B819C810E9475190D
:1016600069837A838B839C8329853A854B855C8546
:10167000C501B4010E9476196D837E838F8398879C
:101680009B01AC01C701B6010E94E21987FF0CC0A3
:10169000A70196016D817E818F8198850E947519C1
:1016A0006D837E838F8398872D853E854F855889EE
:1016B000C501B4010E9476192B013C01AC019B01CC
:1016C000C701B6010E94E21987FF08C0A701960171
:1016D000C301B2010E9475192B013C0129893A8985
:1016E0004B895C89C501B4010E9476194B015C01EC
:1016F000AC019B01C701B6010E94E21987FF08C037
:10170000A7019601C501B4010E9475194B015C0146
:1017100010925F0410925E0469817A818B819C81B2
:101720000E949A1A70935D0460935C0469857A85BF
:101730008B859C850E949A1A70935B0460935A046F
:101740006D817E818F8198850E949A1A70935904C9
:10175000609358046D857E858F8598890E949A1ABA
:101760007093570460935604C301B2010E949A1A01
:10177000709355046093540469897A898B899C8994
:101780000E949A1A7093530460935204C501B401E5
:101790000E949A1A7093510460935004109263044B
:1017A0001092620481E08093A30480E49FE190930F
:1017B00087008093860081E18093810010928100F0
:1017C00010928500109284008091A3048061809320
:1017D000810064960FB6F894DEBF0FBECDBFDF91D7
:1017E000CF91FF90EF90DF90CF90BF90AF909F9000
:1017F0008F907F906F905F904F900895EF92FF923F
:101800000F931F93CF93DF93EC017B01842F89010A
:101810009881911114C00E944C04892B49F40E94B4
:10182000B004F701608371838283938381E08883AE
:10183000DF91CF911F910F91FF90EF9008950E943B
:101840004C04892BA9F318820E94B004F70120816F
:101850003181621B730B6D3DF5E07F0748F3F801A2
:1018600071836083E5CFCF93DF93893E23E09207B6
:1018700014F088EE93E097FF02C090E080E0ECE087
:10188000F1E0D0E0C0E040815181841795071CF160
:101890004281538148175907F4F083E0CC0FDD1FD4
:1018A0008A95E1F7FE01E45FFE4F8481958161E056
:1018B000019709F060E083E00E94F609C45FDE4F03
:1018C0008E819F8161E0019709F060E082E0DF9105
:1018D000CF910C94F60921963896C832D10599F625
:1018E000DF91CF910895CF93DF93EC01459734F4C6
:1018F00061E084E00E94F60960E008C060E084E0F6
:101900000E94F60961E0CA32D340B4F385E0DF916A
:10191000CF910C94F609CF92DF92EF92FF926B0178
:101920007C010E9408056C157D058E059F05C0F0A1
:101930009B01AC012C193D094E095F0969017A012F
:10194000C094D094E094F094CC24F7FCC394DD24AC
:10195000EE24FF248C2DFF90EF90DF90CF90089520
:10196000C61AD70AE80AF90AEFCFEF92FF920F934F
:101970001F93CF93DF93CDB7DEB7C058D1090FB611
:10198000F894DEBF0FBECDBF9E0127573F4FF90130
:10199000419151919F0160E870E08E010F5F1F4FF0
:1019A000C8010E94B41E7C01F80101900020E9F7F3
:1019B0003197BF01601B710BA80181E70E944203B0
:1019C000C701C058DF4F0FB6F894DEBF0FBECDBFC2
:1019D000DF91CF911F910F91FF90EF9008954F925B
:1019E0005F926F927F928F929F92AF92BF92CF92AF
:1019F000DF92EF92FF920F931F93CF93DF9300D06C
:101A000000D0CDB7DEB78636910514F085E690E0BC
:101A10008F30910514F48FE090E0909387048093C9
:101A200086049C012052310945E0429FC001439F3A
:101A3000900D112469E070E00E944719072E000CF8
:101A4000880B990B0E94CB1A23E333E948E853E44F
:101A50000E9476199B01AC0160E070E080E89FE392
:101A60000E94E7199B01AC0169EE7EE98AEA9AE3DC
:101A70000E94751921EE31EC49E354E30E94E71905
:101A80006B017C01AC019B010E94181C20E030E03E
:101A900040E85EE30E94181C21E23EE44CEE5CE468
:101AA0000E9476190E94DB1C4B015C0120E030E0B3
:101AB00040E05FE3C701B6010E94181C6B017C0186
:101AC000AC019B01C501B4010E9475192BEA3AEAE9
:101AD0004AEA5EE30E94851C2B013C01A7019601A6
:101AE000C501B4010E9476192BEA3AEA4AEA5EE39C
:101AF0000E94851C9B01AC01C301B2010E947519B3
:101B00000E94611A0E94931A7B0144E050E065E64E
:101B100071E0CE0101960E94DB188B819C818E15AD
:101B20009F0530F1698170E00A8110E08091A60480
:101B30009091A7040E94370AB8018091A404909163
:101B4000A5040E94370A0F900F900F900F90DF911D
:101B5000CF911F910F91FF90EF90DF90CF90BF90AA
:101B6000AF909F908F907F906F905F904F9008956F
:101B700005E611E081E6C82E85E0D82E44E050E06D
:101B8000B801CE0101960E94DB188B819C818E15D5
:101B90009F0540F60C5F1F4FC016D10679F744E051
:101BA00050E06DE575E0CE0101960E94DB18BACFDA
:101BB0004F925F926F927F928F929F92AF92BF925D
:101BC000CF92DF92EF92FF920F931F93CF93DF9309
:101BD00000D01F92CDB7DEB78132910514F080E2BC
:101BE00090E08B3E2FEF920714F48BEE9FEF9093D3
:101BF0008104809380049C012052310945E0429F7A
:101C0000C001439F900D112469E070E00E944719C4
:101C1000072E000C880B990B0E94CB1A23E333E9A3
:101C200048E853E40E9476199B01AC0160E070E043
:101C300080E89FE30E94E7199B01AC0160E075ED2D
:101C40008CEE9AE30E9475192AE736E145E255E3E6
:101C50000E94E7196B017C01AC019B010E94181CDA
:101C600020E030E040E85EE30E94181C28EE3BE4F0
:101C70004DE25AE40E9476190E94DB1C4B015C0184
:101C800020E030E040E05FE3C701B6010E94181C8D
:101C90006B017C01AC019B01C501B4010E94751967
:101CA0002BEA3AEA4AEA5EE30E94851C2B013C01DA
:101CB000A7019601C501B4010E9476192BEA3AEA00
:101CC0004AEA5EE30E94851C9B01AC01C301B2019C
:101CD0000E9475190E94611A0E94931A7B0143E0C9
:101CE00050E06AEE70E0CE0101960E94DB188A8116
:101CF0009B818E159F05E0F0698170E08091A804BA
:101D00009091A9040E94370A0F900F900F90DF91D5
:101D1000CF911F910F91FF90EF90DF90CF90BF90E8
:101D2000AF909F908F907F906F905F904F900895AD
:101D30000AEE10E043E050E0B801CE0101960E94A7
:101D4000DB188A819B818E159F05B0F60D5F1F4FB2
:101D500081E00536180771F743E050E062E671E074
:101D6000CE0101960E94DB18C7CF8F929F92AF924F
:101D7000BF92CF92DF92EF92FF920F931F93CF9378
:101D8000DF93CDB7DEB760970FB6F894DEBF0FBE16
:101D9000CDBF60919A0470919B0480919C049091B6
:101DA0009D040E948B0C882301F181E10E944C0468
:101DB00061E0019709F460E081E10E94750480917F
:101DC000880490918904181619060CF02BC20E9401
:101DD000080566507F4F8F4F9F4F60939A04709312
:101DE0009B0480939C0490939D0428E734E042E098
:101DF00063E774E087E794E00E94FE0B2AE734E093
:101E000047E06EE674E082E794E00E94FE0B2CE768
:101E100034E044E069E674E08DE694E00E94FE0B55
:101E20002EE734E04EE064E674E088E694E00E9439
:101E3000FE0B6091960470919704809198049091A4
:101E400099040E948B0C882309F450C090917E0461
:101E500080917F0430917C0420917D0450917A041C
:101E600040917B04709178046091790479836A834E
:101E70005B834C833D832E839F838887AE014F5FB6
:101E80005F4F68E070E085E10E94420389E00E94B4
:101E9000CD0986FB882780F98983AE014F5F5F4FAC
:101EA00061E070E083E10E94420389E00E94CD0975
:101EB00090E0880F892F881F990B21E08227898362
:101EC000AE014F5F5F4F61E070E084E10E9442032A
:101ED0000E9408056C507E4F8F4F9F4F6093960471
:101EE00070939704809398049093990480919E0432
:101EF000882361F16091920470919304809194041D
:101F0000909195040E948B0C882301F10E94831804
:101F100024E130E040E050E00E94E418DC01CB0115
:101F200083539F4FAF4FBF4F0E94850A0E945A07AD
:101F30000E94080568537F4F8F4F9F4F6093920414
:101F400070939304809394049093950480912C064D
:101F5000882309F454C1609133067091340680914E
:101F60003506909136060E948B0C882381F00E94E2
:101F70005A070E940805625E7F4F8F4F9F4F609304
:101F8000330670933406809335069093360660913D
:101F90002D0670912E0680912F06909130060E949A
:101FA0008B0C882309F42BC1009131061091320665
:101FB0000F5F1F4F1093320600933106E0901E060C
:101FC000F0901F06E114F10471F1B80190E080E097
:101FD0000E94C91A4B015C01B701FF0C880B990BD9
:101FE0000E94CB1A9B01AC01C501B4010E94181CD0
:101FF00020E030E040E251E40E94E7196B017C01EF
:1020000060911C0670911D0690E080E00E94C91A44
:102010009B01AC01C701B6010E9476190E94931A78
:10202000CB010E94850AE0902206F0902306E1147D
:10203000F10481F1B80190E080E00E94C91A4B01DF
:102040005C01B701FF0C880B990B0E94CB1A9B0116
:10205000AC01C501B4010E94181C20E030E048EC3E
:1020600052E40E94E7196B017C0160912006709197
:102070002106072E000C880B990B0E94CB1A9B019E
:10208000AC01C701B6010E9476190E94931ACB01D8
:102090000E94D80D00912606109127060115110502
:1020A00099F1609131067091320690E080E00E94D3
:1020B000C91A6B017C01B801110F880B990B0E94A2
:1020C000CB1A9B01AC01C701B6010E94181C20E08D
:1020D00030E048EC52E40E94E7196B017C0160910A
:1020E000240670912506072E000C880B990B0E9480
:1020F000CB1A9B01AC01C701B6010E9476190E9460
:10210000931ACB010E94EF0C80912806909129062A
:102110008F3F980709F452C020912A0630912B0670
:102120002F3F3F4F09F44AC060911A0670911B0679
:102130004091310650913206649F9001659F300DA9
:10214000749F300D11242817390788F089E00E9408
:10215000CD0986FD0CC061E086E00E94F6098EE59F
:1021600092E09F938F930E94B50C0F900F90409137
:1021700031065091320680911A0690911B06489FB5
:102180009001499F300D589F300D112480912A06EF
:1021900090912B062817390788F089E00E94CD0915
:1021A00086FF0CC060E086E00E94F60989E692E0B6
:1021B0009F938F930E94B50C0F900F902091310642
:1021C0003091320680911806909119062817390728
:1021D00009F048C010922C0685E792E09F938F93F8
:1021E0000E94B50C1982AE014F5F5F4F61E070E055
:1021F0008CE10E9442030E945A070F900F90609654
:102200000FB6F894DEBF0FBECDBFDF91CF911F9107
:102210000F91FF90EF90DF90CF90BF90AF909F9085
:102220008F90089510927F0410927E0410927D0486
:1022300010927C0410927B0410927A04109279041C
:10224000109278041982AE014F5F5F4F61E070E039
:1022500084E10E9442030E94080568517C4F8F4F21
:102260009F4FBBCD0E94080520911A0630911B0696
:10227000620F731F811D911D60932D0670932E06B2
:1022800080932F0690933006BACF4F925F926F9251
:102290007F92AF92BF92CF92DF92EF92FF920F9315
:1022A0001F93CF93DF931F92CDB7DEB78C01809140
:1022B0009F049091A0048017910701F50115110565
:1022C00021F490E080E00E94330C8AE0282F209FC8
:1022D000C001219F900D11240E94730C0F90DF917B
:1022E000CF911F910F91FF90EF90DF90CF90BF9013
:1022F000AF907F906F905F904F90089580179107F7
:10230000BCF510928504109284042AE0209F60019D
:10231000219FD00C11244091840450918504452BB9
:1023200009F040C0289F7001299FF00C11248AE019
:10233000A82EB12CCE14DF040CF446C0C7010E94B5
:10234000730CC7010E94330C0E9408052B013C014D
:1023500023E0420E511C611C711CC301B2010E949A
:102360008B0C81110CC00E94D9070E94B50EF5CFCD
:1023700021E030E03093850420938404C6CFC70168
:10238000B5010E9447196983AE014F5F5F4F61E05D
:1023900070E082E10E9442030E94D9078FEFE81AA1
:1023A000F80AC8CF60E083E00E94F60960E082E0AE
:1023B0000E94F609C6010E94730C0115110521F453
:1023C00090E080E00E94330C1093A00400939F04DF
:1023D00085CFEF92FF920F931F93CF93DF937B01F3
:1023E0008A01E9010E94850AC7010E94EF0CC80119
:1023F0000E944511D0938304C093820410929E04DE
:10240000DF91CF911F910F91FF90EF90089510925F
:102410009E0430E020E050E040E060E270E090E0B8
:1024200080E00E94E91160E086E00C94F6098F924A
:102430009F92AF92BF92CF92DF92EF92FF920F9353
:102440001F93CF93DF9300D01F92CDB7DEB7182F25
:10245000062F7A018B3009F425C108F06EC0853053
:1024600009F4BBC1A8F5823009F475C1C8F4813004
:1024700009F406C1602F70E0A701812F0E9442037A
:102480000F900F900F90DF91CF911F910F91FF90C0
:10249000EF90DF90CF90BF90AF909F908F90089576
:1024A000833009F465C1843029F710929E042FE02F
:1024B00030E050E040E060E270E080EB94E00E94A9
:1024C000E91160E086E00E94F60988E693E047C1E2
:1024D000883009F4A8C1C0F4863009F491C187306E
:1024E00049F610929E042BE030E049E150E069EBA0
:1024F00070E088EB9BE00E94E91160E086E00E94BA
:10250000F6098BE893E02BC1893009F49FC18A302A
:1025100009F0B0CF10929E0422E030E04FE550E089
:1025200069EB70E080E797E10E94E91160E086E0E6
:102530000E94F60985EC93E012C1863109F4F1C0DE
:1025400078F58D3009F4DCC008F4C2C08E3009F48F
:10255000CBC08F3009F08ECFFA01D0808D2D90E066
:10256000873291050CF4DAC09093A2048093A10401
:102570008091A1049091A2048234914034F081E4CE
:1025800091E09093A2048093A1048091880490919B
:1025900089040E94850A1F92DF9285EE92E08DC029
:1025A0008A3109F470C008F053C0873109F4F3C0D0
:1025B000883109F05FCFFA018081918190931906EB
:1025C000809318068280938090921B0680921A0650
:1025D000C480D580D0921D06C0921C06A680B7800C
:1025E000B0921F06A0921E068085918590932106C9
:1025F00080932006828593859093230680932206FC
:1026000084859585909325068093240686859785F5
:1026100090932706809326068089918990932906B6
:10262000809328068289938990932B0680932A06AB
:1026300080912C06882309F41CC187ED93E09F93B9
:102640008F930E94B50C0F900F908AE094E087C0A2
:102650008B3109F438C1803F09F00CCF80918F0491
:10266000898380918E048A8380918D048B83AE014F
:102670004F5F5F4F63E070E081EF0E944203FACE4C
:102680000E945A07F7CE4091900450919104FA01AC
:1026900001900020E9F73197BF01641B750B772784
:1026A00089E1EBCFFA01D080C1808D2D9C2D0E9455
:1026B000EF0CCF92DF9289E892E09F938F930E9474
:1026C000B50C0E945A070F900F900F900F90D2CE2A
:1026D000FA01D080C1808D2D9C2D0E94D80DCF9203
:1026E000DF9282EA92E0E9CFFA01D080C1808D2D9D
:1026F0009C2D0E944511CF92DF9287EB92E0DDCFB7
:1027000010929E04FA01D080C1808D2D9C2D0E94D4
:10271000850ACF92DF928AEC92E0CFCF87E290E0F9
:1027200023CFFA018081882379F061E086E00E945E
:10273000F60986E692E09F938F9385E093E09F935E
:102740008F930E94B50CBFCF60E086E00E94F6092F
:1027500081E393E0F0CF0E94071283E293E09F931E
:102760008F930E94B50C0E945A070F900F9082CE53
:1027700010929E0430E020E050E040E060E270E023
:1027800082E390E00E94E91161E086E00E94F60990
:1027900085E393E0E4CF30E020E050E040E060E209
:1027A00070E087ED90E00E94E91161E086E00E9410
:1027B000F60981E080939E040E94080568537F4FCC
:1027C0008F4F9F4F6093920470939304809394046F
:1027D0009093950485E493E0C2CF10929E042FE07D
:1027E00030E050E040E069EB70E08CEB92E00E945A
:1027F000E91160E086E00E94F60982E793E0AFCF3E
:1028000010929E042BE030E041E150E069EB70E073
:1028100088E795E00E94E91160E086E00E94F609F1
:102820008BE793E09CCF10929E0429E030E04EE1CC
:1028300050E069EB70E088E097E00E94E91160E009
:1028400086E00E94F6098BE993E089CF10929E04FE
:1028500027E030E042E350E069EB70E08CEA9DE075
:102860000E94E91160E086E00E94F6098FEA93E099
:1028700076CF81E080932C060E940805680D791DB3
:10288000811D911D60932D0670932E0680932F0657
:10289000909330060E940805625E7F4F8F4F9F4FD6
:1028A0006093330670933406809335069093360612
:1028B0001092320610923106AB2809F4C6CEC6013A
:1028C0000E94850AC2CE10922C068FE194E047CF79
:1028D0001F920F920FB60F9211242F933F938F9355
:1028E0009F93AF93BF938091AB049091AC04A09160
:1028F000AD04B091AE043091AA0423E0230F2D372C
:1029000058F50196A11DB11D2093AA048093AB0434
:102910009093AC04A093AD04B093AE048091AF0447
:102920009091B004A091B104B091B2040196A11DA0
:10293000B11D8093AF049093B004A093B104B09301
:10294000B204BF91AF919F918F913F912F910F90C2
:102950000FBE0F901F90189526E8230F0296A11D19
:10296000B11DD2CF1F920F920FB60F9211242F9349
:102970003F934F935F936F937F938F939F93AF9307
:10298000BF93EF93FF9383EB94E00E942306FF91A4
:10299000EF91BF91AF919F918F917F916F915F91D7
:1029A0004F913F912F910F900FBE0F901F90189550
:1029B0001F920F920FB60F9211242F938F939F9314
:1029C000EF93FF93E091C304F091C4048081E09100
:1029D000C904F091CA0482FD1BC090818091CC048F
:1029E0008F5F8F732091CD04821741F0E091CC046A
:1029F000F0E0ED54FB4F958F8093CC04FF91EF9165
:102A00009F918F912F910F900FBE0F901F9018954F
:102A10008081F4CF1F920F920FB60F9211242F9343
:102A20003F934F935F936F937F938F939F93AF9356
:102A3000BF93EF93FF93E0910001F091010109959D
:102A4000FF91EF91BF91AF919F918F917F916F9186
:102A50005F914F913F912F910F900FBE0F901F905C
:102A60001895E3EBF4E01382128288EE93E0A0E085
:102A7000B0E084839583A683B78380E592E0918359
:102A8000808385EC90E09587848784EC90E097873D
:102A9000868780EC90E0918B808B81EC90E0938B2B
:102AA000828B82EC90E0958B848B86EC90E0978B08
:102AB000868B118E128E138E148E80E595E0109207
:102AC000910510929005909394058093930520E4CE
:102AD00030E030939605209395051092970510925B
:102AE000980510929A051092990510929B051092E4
:102AF0009D0510929C0510929F0510929E051092C4
:102B0000A1051092A0051092A3051092A2051092A3
:102B1000A5051092A4051092A7051092A605109283
:102B2000A9051092A8051092AF051092AE0510925B
:102B3000B1051092B0051092B3051092B205109233
:102B4000B5051092B4051092C3051092C2051092FB
:102B500092051092D0051092D2051092D1051092D4
:102B6000150629E033E03093B7052093B6052AE037
:102B700033E03093B9052093B8052BE033E0309370
:102B8000BB052093BA052CE033E03093BD052093BC
:102B9000BC052DE033E03093BF052093BE052EE049
:102BA00033E03093C1052093C0052FE033E030932C
:102BB000C5052093C40520E133E03093C705209379
:102BC000C60525E537E03093C9052093C8059093E5
:102BD000AB058093AA052EE935E03093CB05209311
:102BE000CA059093AD058093AC058BE193E090937B
:102BF000CD058093CC0510922C06E6E1F6E080E14D
:102C0000808380E481830895789484B5826084BD54
:102C100084B5816084BD85B5826085BD85B58160E0
:102C200085BD80916E00816080936E00109281005E
:102C30008091810082608093810080918100816019
:102C400080938100809180008160809380008091DA
:102C5000B10084608093B1008091B0008160809366
:102C6000B00080917A00846080937A0080917A002D
:102C7000826080937A0080917A00816080937A00EC
:102C800080917A00806880937A001092C10084E37A
:102C900094E0909391048093900481E080938F045A
:102CA00012E010938E0410938D0488E08093D00579
:102CB0008091D1059091D2050E941C1EC091D00533
:102CC000D0E0CE0101960E94801D9093D2058093A2
:102CD000D105FC01EC0FFD1F1082FC011083118255
:102CE000AE014250510964E474E002960E94A51EB0
:102CF00087E192E190938C0480938B04E091C3046C
:102D0000F091C4041083E091C304F091C4041082D4
:102D1000E091BF04F091C0041082E091C104F091F1
:102D2000C20480E180831092CB04E091C704F0914B
:102D3000C80486E08083E091C504F091C6048081D8
:102D400080618083E091C504F091C6048081886031
:102D50008083E091C504F091C604808180688083FF
:102D6000E091C504F091C60480818F7D80838091BD
:102D7000150681114EC08DE00E94DA0362ED70E00D
:102D800080E090E00E94D50461E08DE00E9475042F
:102D900068E270E080E090E00E94D50460E08DE0A1
:102DA0000E94750462ED70E080E090E00E94D5041E
:102DB00061E08DE00E94750468E270E080E090E0E0
:102DC0000E94D50460E08DE00E9475046AEF70E017
:102DD00080E090E00E94D504C5E062ED70E080E004
:102DE00090E00E94D50461E08DE00E94750468E2E5
:102DF00070E080E090E00E94D50460E08DE00E94E9
:102E00007504C15051F76DE770E080E090E00E94DA
:102E1000D50483EB94E09093CF058093CE059093F7
:102E200091058093900580E995E00E94F90380E583
:102E300095E00E94E50681E10E94DA0361E081E10C
:102E40000E947504219A2998559A5D98569A5E9821
:102E5000539A5B9883E10E94DA0361E083E10E9468
:102E6000750482E10E94DA0361E082E10E94750448
:102E700088E00E94DA0361E088E00E94750480E146
:102E80000E94DA0361E080E10E94750487E090E02F
:102E90000E94801DEC0183E188831A82198200E878
:102EA00010E01C830B831E821D820E94B206888163
:102EB0000E94DA0361E088810E947504D093A9041E
:102EC000C093A80487E090E00E94801DEC0182E19D
:102ED00088831A8219821C830B831E821D820E94A2
:102EE000B20688810E94DA0361E088810E9475043D
:102EF000D093A704C093A60487E090E00E94801DB1
:102F0000EC0188E088831A8219821C830B831E825D
:102F10001D820E94B20688810E94DA0361E08881E6
:102F20000E947504D093A504C093A40461E082E0DC
:102F30000E94110A61E083E00E94110A61E084E0CE
:102F40000E94110A61E085E00E94110A61E086E0BA
:102F50000E94110A60E087E00E94110A6CE386E09B
:102F60000E94E20960E086E00E94F60980E1809319
:102F700081001092800091E09093A304109287004A
:102F80001092860021E12093810024E135E0309306
:102F900001012093000190936F008093810087E8E6
:102FA00090E09093A2048093A1041092A004109248
:102FB0009F0410929E0486E480937C0080917A00A6
:102FC000806480937A0080917A0086FDFCCF8091A6
:102FD000780060917900762F682F072E000C880BFF
:102FE000990B611571058105910511F00E94D218A8
:102FF0000E94071280E290E00E94D80D0E9408050E
:1030000068517C4F8F4F9F4F60939A0470939B043D
:1030100080939C0490939D040E9408056C507E4F01
:103020008F4F9F4F609396047093970480939804FA
:10303000909399040E94080568537F4F8F4F9F4FCC
:1030400060939204709393048093940490939504F6
:10305000C0E0D0E00E94D9070E94B50E2097D1F3BE
:103060000E940F068823B1F30E940000F3CF8F92D5
:103070009F92AF92BF92CF92DF92EF92FF92CF9347
:10308000DF93EC01688179818A819B8161157105EB
:103090008105910521F464E279ED8BE597E02DE15E
:1030A00033EF41E050E00E94E41849015A019B01CE
:1030B000AC01A7EAB1E40E9403196B017C01ACEEFC
:1030C000B4EFA50194010E941119C60ED71EE81E87
:1030D000F91EF7FE06C081E0C81AD108E10880E8B1
:1030E000F80AC882D982EA82FB82C701B6019F77BB
:1030F000DF91CF91FF90EF90DF90CF90BF90AF9096
:103100009F908F9008958F929F92AF92BF92CF928F
:10311000DF92EF92FF926091020170910301809122
:10312000040190910501611571058105910521F456
:1031300064E279ED8BE597E02DE133EF41E050E07B
:103140000E94E41849015A019B01AC01A7EAB1E4CD
:103150000E9403196B017C01ACEEB4EFA501940150
:103160000E941119C60ED71EE81EF91EF7FE06C0F2
:1031700081E0C81AD108E10880E8F80AC09202018B
:10318000D0920301E0920401F0920501C701B6015B
:103190009F77FF90EF90DF90CF90BF90AF909F9080
:1031A0008F9008956093020170930301809304014E
:1031B000909305010895FB01DC0102C005900D927A
:1031C00041505040D8F70895052E97FB1EF4009407
:1031D0000E94FB1857FD07D00E94161907FC03D068
:1031E0004EF40C94FB1850954095309521953F4F27
:1031F0004F4F5F4F089590958095709561957F4FE3
:103200008F4F9F4F08950E943819A59F900DB49F2E
:10321000900DA49F800D911D11240895B7FF0C946B
:1032200003190E940319821B930B0895A1E21A2E21
:10323000AA1BBB1BFD010DC0AA1FBB1FEE1FFF1F5A
:10324000A217B307E407F50720F0A21BB30BE40BAA
:10325000F50B661F771F881F991F1A9469F76095F1
:103260007095809590959B01AC01BD01CF010895AB
:10327000A29FB001B39FC001A39F700D811D1124B7
:10328000911DB29F700D811D1124911D089597FB12
:10329000072E16F4009407D077FD09D00E945B1921
:1032A00007FC05D03EF4909581959F4F0895709549
:1032B00061957F4F0895AA1BBB1B51E107C0AA1F50
:1032C000BB1FA617B70710F0A61BB70B881F991FC7
:1032D0005A95A9F780959095BC01CD010895EE0F00
:1032E000FF1F0590F491E02D09945058BB27AA27A1
:1032F0000E948D190C94681B0E945A1B38F00E9482
:10330000611B20F039F49F3F19F426F40C94301B14
:103310000EF4E095E7FB0C942A1BE92F0E94791B21
:1033200058F3BA17620773078407950720F079F4FA
:10333000A6F50C949B1B0EF4E0950B2EBA2FA02D36
:103340000B01B90190010C01CA01A0011124FF2752
:10335000591B99F0593F50F4503E68F11A16F0404D
:10336000A22F232F342F4427585FF3CF469537954C
:103370002795A795F0405395C9F77EF41F16BA0B11
:10338000620B730B840BBAF09150A1F0FF0FBB1FBF
:10339000661F771F881FC2F70EC0BA0F621F731F08
:1033A000841F48F4879577956795B795F7959E3F65
:1033B00008F0B0CF9395880F08F09927EE0F9795F6
:1033C000879508950E94061B08F481E008950E94E5
:1033D000FB190C94681B0E94611B58F00E945A1B39
:1033E00040F029F45F3F29F00C942A1B51110C94F2
:1033F0009C1B0C94301B0E94791B68F39923B1F33A
:10340000552391F3951B550BBB27AA27621773070A
:10341000840738F09F5F5F4F220F331F441FAA1F9E
:10342000A9F335D00E2E3AF0E0E832D0915050405A
:10343000E695001CCAF72BD0FE2F29D0660F771F08
:10344000881FBB1F261737074807AB07B0E809F0EE
:10345000BB0B802DBF01FF2793585F4F3AF09E3F73
:10346000510578F00C942A1B0C949C1B5F3FE4F3ED
:10347000983ED4F3869577956795B795F7959F5FB6
:10348000C9F7880F911D9695879597F90895E1E002
:10349000660F771F881FBB1F621773078407BA0761
:1034A00020F0621B730B840BBA0BEE1F88F7E095BC
:1034B000089529F416F00C942A1B0C949B1B0C9471
:1034C000301B0E94811BA8F39638A0F707F80F92D3
:1034D000E8942BE33AEA48EB5FE70E942E1C0F9238
:1034E0000F920F924DB75EB70F920E94E41BE8E671
:1034F000F0E00E94331B4F915F91EF91FF91E595B2
:10350000EE1FFF1F49F0FE57E0684427EE0F441FEF
:10351000FA95E1F74195550B0E94AE1B0F9007FEFF
:103520000C94A21B08950E949A1A6894B1110C94ED
:103530009C1B08950E94811B88F09F5798F0B92F1B
:103540009927B751B0F0E1F0660F771F881F991FD8
:103550001AF0BA95C9F714C0B13091F00E949B1BC4
:10356000B1E008950C949B1B672F782F8827B85FD4
:1035700039F0B93FCCF3869577956795B395D9F730
:103580003EF490958095709561957F4F8F4F9F4F3A
:103590000895E89409C097FB3EF490958095709546
:1035A00061957F4F8F4F9F4F9923A9F0F92F96E98F
:1035B000BB279395F695879577956795B795F11104
:1035C000F8CFFAF4BB0F11F460FF1BC06F5F7F4FA1
:1035D0008F4F9F4F16C0882311F096E911C07723B3
:1035E00021F09EE8872F762F05C0662371F096E8BC
:1035F000862F70E060E02AF09A95660F771F881F8B
:10360000DAF7880F9695879597F90895990F00082E
:10361000550FAA0BE0E8FEEF16161706E807F907A4
:10362000C0F012161306E407F50798F0621B730B3F
:10363000840B950B39F40A2661F0232B242B252BC0
:1036400021F408950A2609F4A140A6958FEF811D63
:10365000811D089597F99F6780E870E060E0089504
:103660009FEF80EC0895DF93CF931F930F93FF920A
:10367000EF92DF927B018C01689406C0DA2EEF0195
:103680000E942B1CFE01E894A5912591359145914E
:103690005591A6F3EF010E948D19FE019701A80133
:1036A000DA9469F7DF90EF90FF900F911F91CF911F
:1036B000DF91089500240A941616170618060906C5
:1036C000089500240A941216130614060506089598
:1036D000092E0394000C11F4882352F0BB0F40F420
:1036E000BF2B11F460FF04C06F5F7F4F8F4F9F4F60
:1036F000089557FD9058440F551F59F05F3F71F0E2
:103700004795880F97FB991F61F09F3F79F0879548
:103710000895121613061406551FF2CF4695F1DFD1
:1037200008C0161617061806991FF1CF8695710561
:10373000610508940895E894BB2766277727CB0195
:1037400097F908959B01AC0160E070E080E89FE389
:103750000C94E7190C942A1B0C941B1D0E94811BCE
:10376000D8F39923C9F3940F511DA3F391505040FE
:1037700094F059F0882332F0660F771F881F91501C
:103780005040C1F79E3F51052CF7880F911D96952B
:10379000879597F908955F3FACF0983E9CF0BB2762
:1037A000869577956795B79508F4B1609395C1F7BD
:1037B000BB0F58F711F460FFE8CF6F5F7F4F8F4F5B
:1037C0009F4FE3CF0C949C1BFA01DC01AA0FBB1F97
:1037D0009B01AC01BF5728F4222733274427507898
:1037E00020C0B75190F4AB2F00244695379527950C
:1037F000011CA395D2F3002071F0220F331F441F48
:10380000B395DAF30ED00C94751961307105A0E808
:103810008A07B94630F49B01AC01662777278827D1
:103820009078309621F0208331834283538308952A
:103830000E942B1C0C94681B0E945A1B38F00E949B
:10384000611B20F0952311F00C942A1B0C94301B63
:1038500011240C949C1B0E94791B70F3959FC1F35B
:10386000950F50E0551F629FF001729FBB27F00D2E
:10387000B11D639FAA27F00DB11DAA1F649F662783
:10388000B00DA11D661F829F2227B00DA11D621FD2
:10389000739FB00DA11D621F839FA00D611D221F8C
:1038A000749F3327A00D611D231F849F600D211D70
:1038B000822F762F6A2F11249F5750409AF0F1F0F3
:1038C00088234AF0EE0FFF1FBB1F661F771F881F5C
:1038D00091505040A9F79E3F510580F00C942A1B4F
:1038E0000C949C1B5F3FE4F3983ED4F38695779548
:1038F0006795B795F795E7959F5FC1F7FE2B880F02
:10390000911D9695879597F90895FA01EE0FFF1F7F
:10391000309621053105A1F16115710561F48038FA
:10392000BFE39B0749F168949038810561F08038C6
:10393000BFEF9B0741F099234AF5FF3FE1053105B1
:10394000210519F1E8940894E795D901AA2329F4EF
:10395000AB2FBE2FF85FD0F310C0FF5F70F4A695B9
:10396000E0F7F73950F019F0FF3A38F49F779F935A
:103970000DD00F9007FC9058089546F00C94301B22
:1039800060E070E080E89FE308954FE79F775F93E2
:103990004F933F932F930E94381D2F913F914F914A
:1039A0005F910E94181C0C94611A19F416F40C947F
:1039B000301B0C941B1D0E94811BB8F39923C9F383
:1039C000B6F39F57550B87FF0E94291D0024A0E6E0
:1039D00040EA900180585695979528F4805C660FD0
:1039E000771F881F20F026173707480730F4621B1F
:1039F000730B840B202931294A2BA6951794079421
:103A0000202531254A2758F7660F771F881F20F099
:103A100026173707480730F4620B730B840B200D11
:103A2000311D411DA09581F7B901842F9158880F50
:103A30009695879508959F3F31F0915020F4879592
:103A400077956795B795880F911D9695879597F906
:103A5000089591505040660F771F881FD2F7089540
:103A600016F00C941B1D0C94301B68940C942A1BAC
:103A70000E94811BA8F39923C1F3AEF3DF93CF9388
:103A80001F930F93FF92C92FDD2788232AF02197D8
:103A9000660F771F881FDAF720E030E040E85FEB21
:103AA0009FE3883920F0803E38F021968F770E947E
:103AB0007619E0E9F0E004C00E947619EDEBF0E041
:103AC0000E94331B8B01BE01EC01FB2E6F57710965
:103AD0007595771F880B990B0E94CB1A28E132E766
:103AE00041E35FE30E942B1CAF2D9801AE01FF90D4
:103AF0000F911F91CF91DF910E948D190C94681B3B
:103B00000F931F93CF93DF938230910510F482E0DF
:103B100090E0E0913906F0913A0630E020E0B0E024
:103B2000A0E0309799F42115310509F44AC0281B0B
:103B3000390B24303105D8F58A819B8161157105D7
:103B400089F1FB0193838283FE0111C04081518181
:103B50000281138148175907E0F04817590799F473
:103B6000109761F012960C93129713961C9332964D
:103B7000CF01DF91CF911F910F91089500933906E6
:103B800010933A06F4CF2115310551F0421753072F
:103B900038F0A901DB019A01BD01DF01F801C1CFB5
:103BA000EF01F9CF90933A0680933906CDCFFE010D
:103BB000E20FF31F819391932250310939832883B7
:103BC000D7CF2091370630913806232B41F420912E
:103BD000080130910901309338062093370620916F
:103BE0000601309107012115310541F42DB73EB78B
:103BF00040910A0150910B01241B350BE0913706CF
:103C0000F0913806E217F307A0F42E1B3F0B28179C
:103C1000390778F0AC014E5F5F4F2417350748F045
:103C20004E0F5F1F50933806409337068193919350
:103C30009FCFF0E0E0E09CCFCF93DF930097E9F0D7
:103C4000FC01329713821282A0913906B0913A0694
:103C5000ED0130E020E01097A1F420813181820F46
:103C6000931F20913706309138062817390709F03D
:103C700061C0F0933806E0933706DF91CF91089545
:103C8000EA01CE17DF07E8F54A815B819E01411505
:103C90005105B1F7E901FB83EA8349915991C40FBA
:103CA000D51FEC17FD0761F4808191810296840F86
:103CB000951FE90199838883828193819B838A83FD
:103CC000F0E0E0E012968D919C9113970097B9F582
:103CD0002D913C911197CD010296820F931F209157
:103CE0003706309138062817390739F6309751F5DD
:103CF00010923A0610923906B0933806A093370610
:103D0000BCCFD383C28340815181840F951FC817D4
:103D1000D90761F44E5F5F4F88819981480F591F21
:103D2000518340838A819B8193838283211531054E
:103D300009F0B0CFF0933A06E09339069ECFFD012B
:103D4000DC01C0CF13821282D7CFFB01DC014150CE
:103D5000504048F001900D920020C9F701C01D921B
:103D600041505040E0F70895AEE0B0E0EAEBFEE1EC
:103D70000C946C218C01FA0186E08C831A830983F0
:103D800077FF02C060E070E8615071097E836D8347
:103D9000A901BF01CE0101960E94E01E4D815E8106
:103DA00057FD0AC02F813885421753070CF49A013A
:103DB000020F131FF80110822E96E4E00C94882164
:103DC000ABE0B0E0E6EEFEE10C945E217C013B014D
:103DD0008A01FC0117821682838181FFC8C1CE014E
:103DE00001965C01F7019381F30193FD859193FFA7
:103DF00081913F01882309F453C1853239F493FD41
:103E0000859193FF81913F01853229F4B70190E0BC
:103E10000E94D020E7CF912C212C312CFFE1F3150B
:103E200038F08B3211F190F4803209F1833229F1AC
:103E300037FC3CC020ED280F2A3050F536FE20C05C
:103E40008AE0989E200D1124922E06C08D3291F0AA
:103E5000803371F7689430F8F30193FD859193FFF7
:103E600081913F018111DACF21C0689431F86894C3
:103E700032F8F2CF689433F8EFCF689434F8ECCF8F
:103E8000EAE02E9E200D1124222E689435F8E4CF0E
:103E90008E3229F436FC04C1689436F8DDCF8C36B6
:103EA00019F4689437F8D8CF8836B1F2982F9F7DEF
:103EB00095549330E0F08336A1F18337C1F1833517
:103EC00009F063C02801F2E04F0E511CF801C080D8
:103ED000D180692D70E036FC02C06FEF7FEFC60124
:103EE0000E94BA204C01689437F882010AC00C5F26
:103EF0001F4FFFE3F98388248394912C6501E89494
:103F000037F833FE2DC0522C8114910471F55520E1
:103F100009F468CFB70180E290E00E94D0205A9463
:103F2000F6CFF801808189830E5F1F4FE4CF28010F
:103F3000F2E04F0E511CF801C080D180692D70E075
:103F400036FC02C06FEF7FEFC6010E94C5204C0116
:103F50008201D5CFB70180E290E00E94D0202A9460
:103F60002814190409F0B0F7CECFF60137FC85917B
:103F700037FE81916F01B70190E00E94D02051106F
:103F80005A94F1E08F1A9108BFCF843619F0893620
:103F900009F077C0F80137FE6BC0608171818281C2
:103FA00093810C5F1F4FF32DFF763F2E97FF09C0C3
:103FB00090958095709561957F4F8F4F9F4F689436
:103FC00037F82AE030E0A5010E940021C82ECA1867
:103FD0008C2C432C36FE0CC0E89440F8C91440F4F5
:103FE00034FE05C032FC03C0F32DFE7E4F2E892C1B
:103FF00044FE95C0FE01EC0DF11D8081803309F077
:1040000087C0242D297E422E842D8870582E43FC93
:1040100095C040FE8FC09C2C821418F42C0C922C5E
:10402000981844FE91C0B70180E390E00E94D02030
:1040300042FE09C088E790E041FE02C088E590E0BA
:10404000B7010E94D020C91408F48AC0CA94D12CA8
:104050009FEFC91AD90ACA0CDB1CF60182916F01C5
:10406000B70190E00E94D020AC14BD04B1F74FCF4F
:1040700060817181072E000C880B990B0E5F1F4F1A
:1040800092CFD32CE894D4F82AE030E0853739F188
:10409000232D297FD22E8F3601F148F48835A9F0DF
:1040A000F701868197812B96E2E10C947A21803783
:1040B00049F08837A9F7D4FE02C06894D2F820E10D
:1040C00030E00DC06894D4F8F6CF34FE03C0822FE0
:1040D0008660D82E20E132E002C028E030E0F8010E
:1040E000D7FE0FC060817181828193810C5F1F4F69
:1040F000A5010E940021C82ECA183D2CE89437F86B
:1041000067CF6081718190E080E00E5F1F4FF0CF3C
:1041100042FC02C0839478CF8394839475CF842D1E
:10412000867809F471CFF6CFB70180E290E00E9463
:10413000D02083948214C0F3512C73CF522C581882
:10414000821408F46ECFF8CF842D867809F47BCFE3
:104150008BE241FE80E247FC8DE2B70190E071CF37
:10416000B70180E390E00E94D0209A946CCF8FEF4B
:104170009FEF99CFFC010590615070400110D8F776
:10418000809590958E0F9F1F0895FC01615070409F
:1041900001900110D8F7809590958E0F9F1F08957C
:1041A0000F931F93CF93DF93182F092FEB018B8170
:1041B00081FD09C01FEF0FEF812F902FDF91CF916D
:1041C0001F910F91089582FF14C02E813F818C8131
:1041D0009D81281739073CF4E881F981CF010196C8
:1041E0009983888310838E819F8101969F838E831C
:1041F000E3CFE885F985812F0995892BA1F3DACFE3
:10420000FA01AA27283051F1203181F1E8946F9307
:104210006E7F6E5F7F4F8F4F9F4FAF4FB1E03ED0AD
:10422000B4E03CD0670F781F891F9A1FA11D680F4B
:10423000791F8A1F911DA11D6A0F711D811D911D7E
:10424000A11D20D009F468943F912AE0269F1124F3
:104250003019305D3193DEF6CF010895462F477057
:10426000405D4193B3E00FD0C9F7F6CF462F4F70B2
:10427000405D4A3318F0495D31FD4052419302D010
:10428000A9F7EACFB4E0A6959795879577956795B6
:10429000BA95C9F700976105710508959B01AC01B6
:1042A0000A2E06945795479537952795BA95C9F7DD
:1042B000620F731F841F951FA01D08952F923F92B8
:1042C0004F925F926F927F928F929F92AF92BF9226
:1042D000CF92DF92EF92FF920F931F93CF93DF93D2
:1042E000CDB7DEB7CA1BDB0B0FB6F894DEBF0FBE2F
:1042F000CDBF09942A88398848885F846E847D847C
:104300008C849B84AA84B984C884DF80EE80FD807D
:104310000C811B81AA81B981CE0FD11D0FB6F894F3
:0E432000DEBF0FBECDBFED010895F894FFCFB4
:10432E009D050100000000003B06800000001D00FE
:10433E00000001001E002C00000000002D004400B3
:10434E000100000045005300000000005400590019
:10435E00000001005A0068000000000069008000A3
:10436E000100000081008F00000000009000950009
:10437E00000001009600A40000000000A500BC0093
:10438E0001000000BD00CB0000000000CC00D100F9
:10439E0000000100D200E00000000000E100F70084
:1043AE0001000000F80006010000000007010D01E9
:1043BE00000001000E011B01000000001C01330172
:1043CE0001000000340143010000000044014801D7
:1043DE0000000100490157010000000058016F0163
:1043EE000100000070017E01000000007F018401C9
:1043FE000000010085019301000000009401AB0153
:10440E0001000000AC01BA0100000000BB01C001B8
:10441E0000000100C101CF0100000000D001E90140
:10442E0001000000EA01F60100000000F701FC01A6
:10443E0000000100FD010B02000000000C0223022F
:10444E000100000024023202000000003302380294
:10445E0000000100390247020000000048025E021F
:10446E00010000005F02E8030100000000000000F0
:10447E004506A505D20592060306E105F50553741A
:10448E006172746572206F6E00537461727465721E
:10449E00206F666600456E64206F662064796E61DB
:1044AE006D696320746573740053657420636F6F58
:1044BE006C616E742074656D7020746F202564209D
:1044CE004600536574206169722074656D702074A6
:1044DE006F202564204600536574207468726F74D3
:1044EE00746C6520746F2025640053657420656EAE
:1044FE0067696E6520737065656420746F2025642E
:10450E002052504D005365742070756C7365206495
:10451E0077656C6C20616E676C6520746F20256406
:10452E0020646567005365742073746172746572DC
:10453E00206D6F746F7220737461746520746F20B8
:10454E002573005475726E656420656E67696E65BD
:10455E00206F666600456E67696E65206372616ED8
:10456E006B696E6700456E67696E65206372616E7A
:10457E006B696E67207769746820756E73746162FB
:10458E006C652052504D7300436F6C642069646CEF
:10459E006500486F742069646C65004372756973B9
:1045AE00652061742033304D504800437275697335
:1045BE00652061742037304D50480047656E746C2D
:1045CE006520616363656C65726174696F6E004D21
:1045DE006F64657261746520616363656C65726199
:1045EE0074696F6E004861726420616363656C6507
:1045FE00726174696F6E0044796E616D69632074C7
:10460E0065737420616C72656164792072756E6E6B
:10461E00696E672C2069676E6F72696E67206E65B2
:10462E007720726571756573740052756E6E696E62
:10463E00672064796E616D696320746573740044DC
:10464E00796E616D696320746573742073746F7015
:10465E00706564004D65726365646573205638003D
:10466E007372635C53657269616C2E6370700000C7
:00000001FF
