:100000000C94BB000C94E3000C94E3000C94E3000C
:100010000C94E3000C94E3000C94E3000C94E300D4
:100020000C94E3000C94E3000C94E3000C94E300C4
:100030000C94E3000C94560F0C94E3000C94E30032
:100040000C94B40E0C94E3000C94240F0C94FE0E4C
:100050000C94E3000C94E3000C94E3000C94E30094
:100060000C94E3000C94E30007634236B79BD8A7D7
:100070001A39685618AEBAAB558C1D3CB7CC5763CD
:10008000BD6DEDFD753EF6177231BF000000803F7B
:1000900008000000BE922449123EABAAAA2ABECD97
:1000A000CCCC4C3E00000080BEABAAAAAA3E000009
:1000B0000000BF000000803F000000000008417801
:1000C000D3BB4387D1133D190E3CC3BD4282AD2B38
:1000D0003E68EC8276BED98FE1A93E4C80EFFFBE30
:1000E00001C4FF7F3F000000000020494E48472028
:1000F0002A2A2A002A2A2A20414354494F4E3A20CC
:100100004D414E55414C4C59205345542050524579
:10011000535355524520544F200000000000230047
:100120002600290000000008000201000003040767
:100130000000000000000000000000002500280072
:100140002B0000000000240027002A0004040404FF
:100150000404040402020202020203030303030371
:10016000010204081020408001020408102001024E
:10017000040810207D0F11241FBECFEFD8E0DEBF92
:10018000CDBF15E0A0E0B1E0E6EBF5E302C00590DD
:100190000D92AA32B107D9F726E0AAE2B5E001C074
:1001A0001D92AD3CB207E1F710E0CBEBD0E004C00C
:1001B0002197FE010E949F12CA3BD107C9F70E94F6
:1001C00048100C94D91A0C940000089508950895CD
:1001D0000895089508950895862F642FE0914A05A3
:1001E000F0914B05309711F0A901099408950895F5
:1001F0000F931F93CF93DF938C01EB01DC018D9163
:100200009C9168816F77DC01ED91FC910190F08108
:10021000E02D0995F80180819181688170E0660F79
:10022000672F661F770BDC01ED91FC910190F08147
:10023000E02DDF91CF911F910F910994EF92FF92E2
:100240000F931F93CF93DF93C82F80914306909114
:1002500044060097A9F17A018B01DC01ED91FC9134
:100260000190F081E02D60EF099580914306909117
:100270004406DC01ED91FC910190F081E02D6C2FA2
:100280000995E7010E0D1F1DC017D10739F0BE01FA
:1002900083E496E00E94F8002196F6CF8091430611
:1002A00090914406DC01ED91FC910190F081E02DEC
:1002B00067EFDF91CF911F910F91FF90EF9009941D
:1002C000DF91CF911F910F91FF90EF9008951F93B1
:1002D000CF93DF93182FEB01809148069091490648
:1002E0006817790760F48091460690914706C80F19
:1002F000D91F188380E0DF91CF911F910895E0917D
:100300007506F0917606309711F481E0F4CF81E024
:1003100080934506809161069091620609958091CF
:10032000480690914906C817D90778F7DCCFCF93D4
:10033000DF93EC01FB0130E020E0C901880F991F39
:100340008C179D0778F44081DB014D93BD01119717
:100350009181979599279795942B9C932F5F3F4F69
:100360003296EBCFC901DF91CF91089590E0FC0167
:10037000E05AFE4F2491845B9E4FFC0184918823B8
:1003800099F090E0880F991FFC01EE5BFE4FA5915C
:10039000B491FC01E85CFE4F859194918FB7F8947D
:1003A000EC91E22BEC938FBF0895CF93DF93FC0188
:1003B000A081B181109701F1EC01ED91FC911197B1
:1003C0000190F081E02D69EFCD0109958881998137
:1003D000DC01ED91FC910190F081E02D62E0099546
:1003E00088819981DC01ED91FC910190F081E02DF3
:1003F00065E0DF91CF910994DF91CF91089583302B
:1004000081F028F4813099F08230A9F00895873086
:10041000A9F08830C9F08430B1F4809180008F7DDC
:1004200003C0809180008F7780938000089584B509
:100430008F7784BD089584B58F7DFBCF8091B00008
:100440008F778093B00008958091B0008F7DF9CFB1
:100450001F93CF93DF93282F30E0F901EC5DFE4F1F
:100460008491F901E05AFE4FD491F901E45BFE4F0B
:10047000C491CC23A9F0162F81110E94FF01EC2F0B
:10048000F0E0EE0FFF1FE85CFE4FA591B4918FB72F
:10049000F894EC91111108C0D095DE23DC938FBF46
:1004A000DF91CF911F910895DE2BF8CF3FB7F894DD
:1004B0008091620590916305A0916405B0916505F6
:1004C00026B5A89B05C02F3F19F00196A11DB11DAF
:1004D0003FBFBA2FA92F982F8827BC01CD01620FEB
:1004E000711D811D911D42E0660F771F881F991FA6
:1004F0004A95D1F708958F929F92AF92BF92CF9273
:10050000DF92EF92FF926B017C010E9456024B0139
:100510005C01C114D104E104F104B9F00E94560257
:10052000681979098A099B09683E7340810591051C
:1005300080F321E0C21AD108E108F10888EE880EA4
:1005400083E0981EA11CB11CE4CFFF90EF90DF90D8
:10055000CF90BF90AF909F908F9008952FB7F89451
:1005600060915E0570915F058091600590916105D5
:100570002FBF089520913C0530913D0580913805AD
:10058000909139052817390711F485B185B9209163
:100590003C0530913D05809136059091370528172F
:1005A000390711F485B185B920913C0530913D059D
:1005B00080913405909135052817390709F45D9A23
:1005C00020913C0530913D05809132059091330595
:1005D0002817390709F45D9820913C0530913D05B5
:1005E00080913005909131052817390709F45E9AFA
:1005F00020913C0530913D0580912E0590912F056D
:100600002817390709F45E9820913C0530913D0583
:1006100080912C0590912D052817390709F45B9AD4
:1006200020913C0530913D0580912A0590912B0544
:100630002817390709F45B9880913C0590913D0596
:10064000019690933D0580933C0520913A053091A9
:100650003B058217930720F010923D0510923C0550
:1006600081E08093500520E43FE1309387002093A0
:10067000860091E1909381002AEB32E030930101F2
:100680002093000180936F0008950895009721F052
:10069000805C9F4F0C94D5010895AF92BF92CF928A
:1006A000DF92EF92FF920F931F93CF93DF936C0132
:1006B0007B018B01040F151FEB015E01AE18BF0813
:1006C000C017D10759F06991D601ED91FC910190C5
:1006D000F081E02DC6010995892B79F7C501DF91DD
:1006E000CF911F910F91FF90EF90DF90CF90BF902F
:1006F000AF900895FC01538D448D252F30E0842F59
:1007000090E0821B930B541710F0CF960895019739
:100710000895FC01918D828D981761F0A28DAE0F26
:10072000BF2FB11D5D968C91928D9F5F9F73928FAD
:1007300090E008958FEF9FEF0895FC01918D828DD9
:10074000981731F0828DE80FF11D858D90E00895A6
:100750008FEF9FEF0895FC01918D228D892F90E0FE
:10076000805C9F4F821B91098F739927089586E6BD
:1007700095E00E94AB0321E0892B09F420E0822F51
:10078000089580E090E0892B29F00E94B703811141
:100790000C9400000895FC01A48DA80FB92FB11D81
:1007A000A35ABF4F2C91848D90E001968F739927A7
:1007B000848FA689B7892C93A089B1898C91837085
:1007C00080648C93938D848D981306C00288F3897E
:1007D000E02D80818F7D80830895EF92FF920F93AB
:1007E0001F93CF93DF93EC0181E0888F9B8D8C8DDD
:1007F00098131AC0E889F989808185FF15C09FB7D1
:10080000F894EE89FF896083E889F9898081837093
:10081000806480839FBF81E090E0DF91CF911F9142
:100820000F91FF90EF900895F62E0B8D10E00F5F63
:100830001F4F0F731127E02E8C8D8E110CC00FB639
:1008400007FCFACFE889F989808185FFF5CFCE01D1
:100850000E94CB03F1CFEB8DEC0FFD2FF11DE35A7E
:10086000FF4FF0829FB7F8940B8FEA89FB89808154
:100870008062CFCF0F931F93CF93DF938C01D0E093
:10088000C0E0F801EC0FFD1F6491662341F086E69D
:1008900095E00E94ED03892B11F02196F2CFCE0155
:1008A000DF91CF911F910F910895CF93DF93EC01CA
:1008B000888D8823B9F0AA89BB89E889F9898C9148
:1008C00085FD03C0808186FD0DC00FB607FCF7CF04
:1008D0008C9185FFF2CF808185FFEDCFCE010E9404
:1008E000CB03E9CFDF91CF910895CF93CFB7F894A1
:1008F00080914905811124C0E6E5F1E08491EAE6A2
:10090000F1E09491E82FF0E0EE0FFF1FEE5BFE4F59
:10091000A591B491EC91E92321F461E08AE00E9471
:1009200028028AE00E94B6018CB580618CBD8CB52E
:1009300080648CBD8DE00E94B6018BE00E94B60100
:10094000809149058F5F80934905CFBFCF9108956E
:10095000CF92DF92EF92FF920F931F93CF93DF938B
:10096000FC01E058FF4FE080EE2009F458C0EC0194
:10097000C05CDF4FA881B981109709F450C0FC0119
:10098000EF57FF4FC080D180F60111810081ED91BA
:10099000FC9111970190F081E02D60EFCD01099558
:1009A00088819981DC01ED91FC910190F081E02D2D
:1009B00069E7099588819981DC01ED91FC910190AD
:1009C000F081E02D602F099588819981DC01ED91FE
:1009D000FC910190F081E02D612F0995F12C01E04F
:1009E00010E00F5F1F4FE016F10639F0B601600FFF
:1009F000711FCE010E94F800F4CF88819981DC013B
:100A0000ED91FC910190F081E02D67EFDF91CF91A6
:100A10001F910F91FF90EF90DF90CF900994DF919D
:100A2000CF911F910F91FF90EF90DF90CF9008959D
:100A3000009711F00C94A8040895EF92FF920F9381
:100A40001F93CF93DF93EC010B811C81601771071B
:100A500008F48B01E980FA808D819E8101969E8346
:100A60008D83019781F48CB58F7D8CBD8CB5837F90
:100A70008CBD8CB583608CBD8DB58E7F8DBD60E0E7
:100A800088810E94280284E0EE0CFF1C8A95E1F721
:100A90006894E1F811701E291EBD00000DB407FE18
:100AA000FDCFFF24F3940EB401FC14C0F12C8D8112
:100AB0009E8101979E838D83892B21F461E088813B
:100AC0000E9428028F2DDF91CF911F910F91FF90EF
:100AD000EF9008950EBD00000DB407FEFDCF8EB55A
:100AE000E6CF8F929F92AF92BF92EF92FF920F93B9
:100AF0001F93CF93DF93CDB7DEB7E0970FB6F8948F
:100B0000DEBF0FBECDBF4901330FAA08BB088986DF
:100B10009A86AB86BC864B01770FAA08BB088D82EC
:100B20009E82AF82B886092E000CAA0BBB0B89836C
:100B30009A83AB83BC83C701FF0CAA0BBB0B898BC9
:100B40009A8BAB8BBC8B052E000C660B770B4D87FD
:100B50005E876F87788B198E1A8E1B8E1C8E1D8A6E
:100B60001E8A1F8A188E10E030E020E00D8F1E8F45
:100B70002F8F38A319A21AA21BA21CA21DA21EA26B
:100B80001FA218A619A61AA61BA61CA61DA61EA65D
:100B90001FA618AAAE014F5F5F4F60E370E080E1CF
:100BA0000E941E01E0960FB6F894DEBF0FBECDBFC7
:100BB000DF91CF911F910F91FF90EF90BF90AF9079
:100BC0009F908F900895EF92FF920F93E0904E05C3
:100BD000F0904F05209141053091420540914C0520
:100BE00050914D0560914705709148050091400571
:100BF00080915705909158050E9471050F91FF90C3
:100C0000EF900895FF920F931F93CF93DF93FF24EC
:100C1000F394C2E0D0E001E010E080918106909171
:100C20008206DC01ED91FC910084F185E02D0995AF
:100C3000892B09F4CEC18091810690918206DC0156
:100C4000ED91FC910284F385E02D09959C018F3F85
:100C5000980719F3982F80914E06882309F492C0C3
:100C6000973F09F07EC010924E06A0914606B091C3
:100C700047066C916137C1F1693709F05CC0E091BA
:100C80007B06F0917C06309741F280914F0690915F
:100C900050068330910560F430E020E050E040E001
:100CA00070E060E080915D0690915E060995B5CF99
:100CB000BD016D5F7F4F03970E949701BC016D5F7F
:100CC0007F4F80E00E946701E0914606F091470661
:100CD0009F012D5F3F4F428150E0618170E0E091C4
:100CE0007B06F0917C06DECF8091770690917806A6
:100CF000892B09F492CFBD016F5F7F4F80914F0622
:100D00009091500601970E949701BC016F5F7F4F41
:100D100080E00E94670160914606709147066F5F10
:100D20007F4FE0917706F09178068091630690916D
:100D30006406099572CFE0917906F0917A063097B2
:100D400009F46BCF9D012F5F3F4F40914F065091AB
:100D500050064150510980916506909166060995AB
:100D60005CCF60914F0670915006822F0E94670100
:100D700080914F0690915006019690935006809373
:100D80004F064BCF60914C0670914D066115710571
:100D900009F4B1C027FDAFC06150710970934D06D1
:100DA00060934C06822F0E94670180914C069091BF
:100DB0004D06892B09F031CF80914A06882309F42A
:100DC0002CCF803D09F483C040F4803949F1803C48
:100DD00009F469C010924A0620CF843FE1F1853FB3
:100DE00009F44DC0803EB1F7E0916906F0916A06C2
:100DF000309781F3A0914606B09147064C9120E8C8
:100E0000429FC001112411964C91480F592F511D3A
:100E100060914B0680915106909152060995DACF68
:100E2000E0916B06F0916C063097A1F2A091460616
:100E3000B09147064C9120E8429FC00111241196C1
:100E40004C91480F592F511D60914B0680915306CC
:100E500090915406E3CFE0917106F09172063097BD
:100E600009F4B8CFA0914606B09147064C9150E0E6
:100E700011966C918091590690915A06CFCFE091CE
:100E80007306F0917406309709F4A4CFA09146063A
:100E9000B09147064C9150E011966C9180915B06A1
:100EA00090915C06BBCFE0916D06F0916E06309795
:100EB00009F490CFA0914606B09147064C9150E0BE
:100EC00060914B068091550690915606A7CFE09110
:100ED0006F06F0917006309709F47CCFA09146061A
:100EE000B09147064C9150E060914B0680915706B7
:100EF0009091580693CF903F30F4822F8F7080935B
:100F00004B06922F907F903FF1F190F4903CB1F11D
:100F100050F4903909F081CED0934D06C0934C0621
:100F200090934A067ACE903D49F1903EA9F375CE52
:100F3000993F09F442C028F48CE0890F823060F3B5
:100F40006CCE9F3F09F069CE10924D0610924C0670
:100F500010924A0610924B0690E080E020914806DD
:100F60003091490682179307A8F4E0914606F09164
:100F70004706E80FF91F10820196F0CF10934D0637
:100F800000934C06CDCFF0924E0610925006109270
:100F90004F0643CE10924E061092500610924F0606
:100FA000E0917F06F0918006809167069091680637
:100FB000309709F432CE099530CEE0917D06F0915C
:100FC0007E06309709F429CE80915F0690916006E5
:100FD000F2CFDF91CF911F910F91FF9008958F92E3
:100FE0009F92AF92BF92CF92DF92EF92FF920F93B8
:100FF000CF93DF93C0904C05D0904D05C816D9060D
:1010000009F45CC0C816D9064CF51092460510923A
:101010004505EC018091450590914605892B09F025
:1010200049C0CC15DD050CF445C00E94AE024B0151
:101030005C0124E1820E911CA11CB11C0E94AE0235
:10104000681579058A059B0580F0681979098A0970
:101050009B0997FF14C00E940206F0CF21E030E008
:101060003093460520934505D4CFA5019401261B56
:10107000370B480B590BDA01C901B7FFECCFE090F1
:101080004E05F0904F052091410530914205609149
:1010900047057091480500914005A60180915705CC
:1010A000909158050E9471050E9402063FEFC31AF5
:1010B000D30AB7CFD0934D05C0934C05DF91CF91A4
:1010C0000F91FF90EF90DF90CF90BF90AF909F90E7
:1010D0008F9008954F925F926F927F928F929F921E
:1010E000AF92BF92CF92DF92EF92FF92CF93DF93B6
:1010F000CDB7DEB764970FB6F894DEBF0FBECDBF95
:1011000020E12093810025B125B95D985E985B9818
:101110009093580580935705181619060CF03FC197
:10112000BC01A0904E05B0904F05072E000C880B17
:10113000990B0E940F1420E030E040E752E40E9437
:101140002B1320E030E040E05FE30E945C159B0140
:10115000AC0160E070E080E89FE30E942B1320E088
:1011600030E04AE754E40E945C150E94DE1370935D
:101170003B0560933A0590E080E00E940D146B01FE
:101180007C01B501BB0C880B990B0E940F149B01CD
:10119000AC010E94BA1220E030E044E354E40E9423
:1011A0002B13A70196010E945C154B015C0120E006
:1011B00030E040E85EE3C701B6010E945C15698734
:1011C0007A878B879C8720E030E040E05FE3C701AF
:1011D000B6010E945C156D877E878F87988B20E013
:1011E00030E040E45FE3C701B6010E945C15698B03
:1011F0007A8B8B8B9C8B20E030E0A901C501B40178
:101200000E94BA1269837A838B839C839B01AC0111
:10121000C701B6010E94261387FF0CC0A7019601E3
:1012200069817A818B819C810E94B91269837A835A
:101230008B839C8329853A854B855C85C501B401E8
:101240000E94BA126D837E838F8398879B01AC01C5
:10125000C701B6010E94261387FF0CC0A7019601A3
:101260006D817E818F8198850E94B9126D837E8306
:101270008F8398872D853E854F855889C501B40198
:101280000E94BA122B013C01AC019B01C701B601BF
:101290000E94261387FF08C0A7019601C301B2016F
:1012A0000E94B9122B013C0129893A894B895C893A
:1012B000C501B4010E94BA124B015C01AC019B0153
:1012C000C701B6010E94261387FF08C0A701960137
:1012D000C501B4010E94B9124B015C01109239059D
:1012E0001092380569817A818B819C810E94DE137E
:1012F000709337056093360569857A858B859C8563
:101300000E94DE1370933505609334056D817E81F4
:101310008F8198850E94DE137093330560933205A8
:101320006D857E858F8598890E94DE1370933105C7
:1013300060933005C301B2010E94DE1370932F0544
:1013400060932E0569897A898B899C890E94DE13B6
:1013500070932D0560932C05C501B4010E94DE1326
:1013600070932B0560932A0510923D0510923C0561
:1013700081E08093500580E49FE190938700809303
:10138000860081E180938100109281001092850097
:101390001092840080915005806180938100649652
:1013A0000FB6F894DEBF0FBECDBFDF91CF91FF9097
:1013B000EF90DF90CF90BF90AF909F908F907F90F5
:1013C0006F905F904F9008958F929F92AF92BF92CF
:1013D0000F931F93CF93DF93CDB7DEB7A1970FB6CF
:1013E000F894DEBF0FBECDBF19A2423008F44AE028
:1013F0008E010F5D1F4F842E912CB12CA12CA501C5
:1014000094010E947D12E62FB901CA01EA3044F529
:10141000E05DD801EE938D01232B242B252B79F74A
:1014200090E080E0109769F0FD0101900020E9F75D
:101430003197AF014A1B5B0BBD0186E695E00E9428
:101440004D03A1960FB6F894DEBF0FBECDBFDF915E
:10145000CF911F910F91BF90AF909F908F90089563
:10146000E95CD7CFEF92FF920F931F93CF93DF9357
:10147000CDB7DEB7C058D1090FB6F894DEBF0FBEA6
:10148000CDBF9E0127573F4FF901419151919F01D7
:1014900060E870E08E010F5F1F4FC8010E94F817CF
:1014A0007C01F80101900020E9F73197BF01601B32
:1014B000710BA80181E70E941E01C701C058DF4FD0
:1014C0000FB6F894DEBF0FBECDBFDF91CF911F9155
:1014D0000F91FF90EF900895EF92FF920F931F935B
:1014E000CF93DF93EC017B018A011F934F9385E13A
:1014F00093E09F938F930E94320A89819A810F9083
:101500000F900F900F908017910728F0C881D0E0BE
:101510009F938F930CC0FE0190E080E02181328187
:1015200020173107B0F0C081D0E03F932F9385E3BF
:1015300093E09F938F930E94320A0F900F900F9029
:101540000F90CE01DF91CF911F910F91FF90EF90FF
:10155000089501963396E816F90601F7F701EE0FA4
:10156000FF1FEE0DFF1D3397EC0FFD1FC081D0E074
:1015700082818F938181CDCF4F925F926F927F92C4
:101580008F929F92AF92BF92CF92DF92EF92FF9293
:101590000F931F93CF93DF93809347059093480554
:1015A0009F938F9382E493E09F938F930E94320ADC
:1015B00020914705309148052052310915E0129FCE
:1015C000C001139F900D112469E070E00E94691220
:1015D000072E000C880B990B0E940F1423E333E9AC
:1015E00048E853E40E94BA129B01AC0160E070E04D
:1015F00080E89FE30E942B139B01AC0169EE7EE91A
:101600008AEA9AE30E94B91221EE31EC49E354E3ED
:101610000E942B136B017C01AC019B010E945C15A5
:1016200020E030E040E85EE30E945C1521E23EE409
:101630004CEE5CE40E94BA120E941F164B015C0142
:1016400020E030E040E05FE3C701B6010E945C1596
:101650006B017C01AC019B01C501B4010E94B91270
:101660002BEA3AEA4AEA5EE30E94C9152B013C01E3
:10167000A7019601C501B4010E94BA122BEA3AEA09
:101680004AEA5EE30E94C9159B01AC01C301B201A5
:101690000E94B9120E94A5130E94D7136B01DF921A
:1016A0006F9381E593E09F938F930E94320A1F927C
:1016B00083E08F9381E08F9380E88F931F928F93C5
:1016C0008DE593E09F938F930E94320A8DB79EB76A
:1016D00040960FB6F8949EBF0FBE8DBF99E6C9160F
:1016E00095E0D906DCF51F9388E68F9384E793E0B5
:1016F0009F938F930E94320A1F921F921F921F92F4
:1017000085E893E09F938F930E94320A70E060E037
:1017100080915305909154050E941D058DB79EB789
:101720000A960FB6F8949EBF0FBE8DBF70E060E0C2
:101730008091510590915205DF91CF911F910F91AA
:10174000FF90EF90DF90CF90BF90AF909F908F90E1
:101750007F906F905F904F900C941D0598EAC9168A
:101760009AE2D906B4F1DAE2DF93C8EACF9385E1D1
:101770008F9384E58F93DF92CF9289E993E09F93D3
:101780008F930E94320ADF93CF9381EB93E09F9374
:101790008F930E94320A1F928FE78F931F928F932D
:1017A00085E893E09F938F930E94320A6FE770E081
:1017B00080915305909154050E941D058DB79EB7E9
:1017C00042960FB6F8949EBF0FBE8DBF6FE770E0D4
:1017D000AFCF99E0C91698E1D90684F5A601445B1C
:1017E000524060E870E083E891E00E946C0AD82FD4
:1017F000C92FDF92CF9282EC93E09F938F930E9448
:10180000320ACF93DF931F921F9285E893E09F9354
:101810008F930E94320A70E060E0809153059091AE
:1018200054050E941D058DB79EB70A960FB6F89411
:101830009EBF0FBE8DBF6D2F7C2F7ACF44E555E143
:1018400060E870E083E891E00E946C0A8C01A601D8
:101850004455554160E870E083E891E00E946C0ACD
:10186000D82FC92FDF92CF9282EC93E09F938F9372
:101870000E94320ACF93DF931F930F9385E893E082
:101880009F938F930E94320AB801809153059091E3
:1018900054050E941D058DB79EB70A960FB6F894A1
:1018A0009EBF0FBE8DBFC7CF4F925F926F927F9248
:1018B0008F929F92AF92BF92CF92DF92EF92FF9260
:1018C0008132910514F080E290E08C3E2FEF920778
:1018D00014F48CEE9FEF20914105309142052817BA
:1018E000390709F4B6C090934205809341059F9350
:1018F0008F9385ED93E09F938F930E94320A2091FE
:101900004105309142052052310945E0429FC00116
:10191000439F900D112469E070E00E946912072E28
:10192000000C880B990B0E940F1423E333E948E85D
:1019300053E40E94BA129B01AC0160E070E080E8C1
:101940009FE30E942B139B01AC0160E075ED8CEED0
:101950009AE30E94B9122AE736E145E255E30E9474
:101960002B136B017C01AC019B010E945C1520E0F4
:1019700030E040E85EE30E945C1528EE3BE44DE277
:101980005AE40E94BA120E941F164B015C0120E02B
:1019900030E040E05FE3C701B6010E945C156B01D7
:1019A0007C01AC019B01C501B4010E94B9122BEA74
:1019B0003AEA4AEA5EE30E94C9152B013C01A701FD
:1019C0009601C501B4010E94BA122BEA3AEA4AEA2A
:1019D0005EE30E94C9159B01AC01C301B2010E94E4
:1019E000B9120E94A5130E94D7137B01FF926F9337
:1019F00081E593E09F938F930E94320AA70169E2E9
:101A000070E088E091E00E946C0A7C01FF928F9365
:101A100080EE93E09F938F930E94320A8DB79EB71A
:101A20000C960FB6F8949EBF0FBE8DBFB701809184
:101A3000550590915605FF90EF90DF90CF90BF90A5
:101A4000AF909F908F907F906F905F904F900C948D
:101A50001D05FF90EF90DF90CF90BF90AF909F90CB
:101A60008F907F906F905F904F900895CF92DF920C
:101A7000EF92FF920F93CF93DF937B016A01E9010D
:101A80000E946A088091470590914805E816F9067A
:101A900019F0C7010E94BC0AC6010E94EF07CF3FA0
:101AA000DC07C1F084EF90E00E943A044AE0BE01F6
:101AB0000D2E000C880B990B0E94E4098AEE90E031
:101AC0000E943A0442E050E069EE73E086E695E059
:101AD0000E944D03D0934405C093430500934005F5
:101AE000DF91CF910F91FF90EF90DF90CF9008950D
:101AF0000F9300E02FEF3FEF50E040E060E270E036
:101B000090E080E00E94360D0F910895EF92FF92D1
:101B10000F931F93CF93DF93E82EF62EEA01EFEF9A
:101B2000E80FE13108F03AC0F0E0E756F24F0C94CC
:101B30009F12CC0D370E440E520E600E6E0E7C0EB0
:101B40008A0E980EA60EDA0DF10D070EFC0D120E80
:101B5000CE0DAA0D10913E0500913F05612F702F0B
:101B600080915105909152050E941D050F931F937E
:101B70008CEE93E09F938F930E94320A80913E05F2
:101B800090913F05019690933F0580933E050F90FD
:101B90000F900F900F9002C00E94E3056F2D70E030
:101BA000AE018E2DDF91CF911F910F91FF90EF909D
:101BB0000C941E0108811981809147059091480578
:101BC0000817190719F0C8010E94BC0A1F930F9348
:101BD00084E094E09F938F930E94320A0E94E30571
:101BE000D6CF18810981812F902F0E94540C0F931A
:101BF0001F938DE194E0EECF18810981812F902F02
:101C00000E94EF070F931F9382E394E0E3CF1881C4
:101C10000981812F902F0E946A080F931F9385E4FA
:101C200094E0D8CF1881812F90E087329105E4F0BD
:101C300090934F0580934E0580914E0590914F05EE
:101C40008234914034F081E491E090934F05809389
:101C50004E0580915705909158050E946A081F9281
:101C60001F9380E694E0B6CF87E290E0E1CF0E9438
:101C7000780D80E894E09F938F930E94320A0E942F
:101C8000E3050F900F908ACF01E02FEF3FEF50E078
:101C900040E060E270E08CE291E00E94360D82E963
:101CA00094E0E9CF00E02FE030E050E040E060E277
:101CB00070E080EB94E00E94360D8CEA94E0DBCF7C
:101CC00000E02FE030E050E040E069EB70E08CEBAA
:101CD00092E00E94360D86EB94E0CDCF00E02BE041
:101CE00030E041E150E069EB70E088E795E00E9468
:101CF000360D8FEB94E0BFCF00E02BE030E049E100
:101D000050E069EB70E088EB9BE00E94360D8FECB1
:101D100094E0B1CF00E029E030E04EE150E069EB23
:101D200070E088E097E00E94360D8FED94E0A3CF3D
:101D300000E027E030E042E350E069EB70E08CEA3D
:101D40009DE00E94360D83EF94E095CF00E022E005
:101D500030E04FE550E069EB70E080E797E10E94EA
:101D6000360D89E095E087CF1F920F920FB60F9244
:101D700011242F933F938F939F93AF93BF938091A1
:101D80005E0590915F05A0916005B091610530916D
:101D90005D0523E0230F2D3758F50196A11DB11DD8
:101DA00020935D0580935E0590935F05A093600589
:101DB000B09361058091620590916305A0916405DF
:101DC000B09165050196A11DB11D809362059093A8
:101DD0006305A0936405B0936505BF91AF919F9192
:101DE0008F913F912F910F900FBE0F901F901895DC
:101DF00026E8230F0296A11DB11DD2CF1F920F928C
:101E00000FB60F9211242F933F934F935F936F93CD
:101E10007F938F939F93AF93BF93EF93FF9386E648
:101E200095E00E94CB03FF91EF91BF91AF919F91FD
:101E30008F917F916F915F914F913F912F910F9073
:101E40000FBE0F901F9018951F920F920FB60F9212
:101E500011242F938F939F93EF93FF93E091760537
:101E6000F09177058081E0917C05F0917D0582FD00
:101E70001BC0908180917F058F5F8F7320918005BB
:101E8000821741F0E0917F05F0E0EA59FA4F958F13
:101E900080937F05FF91EF919F918F912F910F90EC
:101EA0000FBE0F901F9018958081F4CF1F920F9254
:101EB0000FB60F9211242F933F934F935F936F931D
:101EC0007F938F939F93AF93BF93EF93FF93E09193
:101ED0000001F09101010995FF91EF91BF91AF9140
:101EE0009F918F917F916F915F914F913F912F9132
:101EF0000F900FBE0F901F901895E6E6F5E0138245
:101F0000128288EE93E0A0E0B0E084839583A683FC
:101F1000B78387E093E09183808385EC90E0958799
:101F2000848784EC90E09787868780EC90E0918BA3
:101F3000808B81EC90E0938B828B82EC90E0958B90
:101F4000848B86EC90E0978B868B118E128E138E8D
:101F5000148E83E096E0109244061092430690930C
:101F600047068093460620E430E0309349062093EC
:101F7000480610924A0610924B0610924D06109297
:101F80004C0610924E061092500610924F06109278
:101F90005206109251061092540610925306109257
:101FA0005606109255061092580610925706109237
:101FB0005A061092590610925C0610925B06109217
:101FC00062061092610610926406109263061092E7
:101FD00066061092650610926806109267061092C7
:101FE000760610927506109245061092830610929E
:101FF0008506109284061092C80625EE30E03093D4
:102000006A062093690626EE30E030936C06209332
:102010006B0627EE30E030936E0620936D0628EEB7
:1020200030E03093700620936F0629EE30E0309355
:102030007206209371062AEE30E0309374062093E6
:1020400073062BEE30E030937806209377062CEE63
:1020500030E030937A062093790628E135E030931A
:102060007C0620937B0690935E0680935D0626E4B3
:1020700033E030937E0620937D0690936006809334
:102080005F0687EF90E09093800680937F06089527
:10209000789484B5826084BD84B5816084BD85B543
:1020A000826085BD85B5816085BD80916E0081604F
:1020B00080936E00109281008091810082608093F5
:1020C00081008091810081608093810080918000F7
:1020D0008160809380008091B10084608093B10022
:1020E0008091B00081608093B00080917A0084601C
:1020F00080937A0080917A00826080937A00809148
:102100007A00816080937A0080917A008068809361
:102110007A001092C10088E0809383068091840643
:10212000909185060E946017C0918306D0E0CE0191
:1021300001960E94C4169093850680938406FC0144
:10214000EC0FFD1F108212E0FC0110831182AE0122
:10215000425051096FE175E002960E94E91786E846
:102160009DE090934B0580934A05E0917605F091B0
:1021700077051083E0917605F09177051082E09164
:102180007205F09173051082E0917405F091750568
:1021900080E1808310927E05E0917A05F0917B05C5
:1021A00086E08083E0917805F091790580818061F7
:1021B0008083E0917805F091790580818860808343
:1021C000E0917805F0917905808180688083E091C5
:1021D0007805F091790580818F7D80838091C80694
:1021E00081114EC08DE00E94B60162ED70E080E08A
:1021F00090E00E947B0261E08DE00E94280268E28C
:1022000070E080E090E00E947B0260E08DE00E9440
:10221000280262ED70E080E090E00E947B0261E0C5
:102220008DE00E94280268E270E080E090E00E9469
:102230007B0260E08DE00E9428026AEF70E080E09F
:1022400090E00E947B02C5E062ED70E080E090E0EB
:102250000E947B0261E08DE00E94280268E270E04B
:1022600080E090E00E947B0260E08DE00E94280206
:10227000C15051F76DE770E080E090E00E947B0272
:1022800086E695E0909382068093810690934406BB
:102290008093430683E496E00E94D50183E096E0B4
:1022A0000E94A80481E10E94B60161E081E10E94E0
:1022B000280284B184B985B185B9559A5D98569A3A
:1022C0005E98539A5B9883E10E94B60161E083E1D6
:1022D0000E94280282E10E94B60161E082E10E9430
:1022E000280288E00E94B60161E088E00E9428028E
:1022F00087E090E00E94C416EC0183E188831A8293
:10230000198200E810E01C830B831E821D820E944C
:10231000750488810E94B60161E088810E942802CC
:10232000D0935605C093550587E090E00E94C416EF
:10233000EC0182E188831A8219821C830B831E823E
:102340001D820E94750488810E94B60161E0888127
:102350000E942802D0935405C093530587E090E073
:102360000E94C416EC0188E088831A8219821C83BB
:102370000B831E821D820E94750488810E94B60113
:1023800061E088810E942802D0935205C0935105D4
:1023900080E1809381001092800091E0909350053D
:1023A000109287001092860021E1209381002AEB91
:1023B00032E0309301012093000190936F008093ED
:1023C000810087E890E090934F0580934E0510922E
:1023D0004D0510924C050E94780D80E290E00E941D
:1023E000540C0E94AE0268517C4F8F4F9F4F6093F8
:1023F000590570935A0580935B0590935C0505E33E
:1024000011E091E7E92E91E0F92E2DE5C22E21E0B1
:10241000D22EC0E0D0E00E94020680905905909034
:102420005A05A0905B05B0905C050E94AE0268154D
:1024300079058A059B0578F0681979098A099B094D
:1024400097FF0FC0209739F30E94B703882319F331
:102450000E940000E0CF861A970AA80AB90AB7FEC0
:10246000F1CFF8018491F701A490F601B490BB205C
:1024700079F081110E94FF01EB2DF0E0EE0FFF1FBC
:10248000E65EFE4FA591B4918C91A82260E009F41C
:1024900061E081E10E9428028091570590915805E2
:1024A000181619067CF40E94AE0266507F4F8F4FBB
:1024B0009F4F6093590570935A0580935B059093E5
:1024C0005C05C0CF0E94AE0268517C4F8F4F9F4F7A
:1024D000F0CF97FB072E16F4009407D077FD09D0B4
:1024E0000E94A51207FC05D03EF4909581959F4F60
:1024F0000895709561957F4F0895A1E21A2EAA1B49
:10250000BB1BFD010DC0AA1FBB1FEE1FFF1FA217A3
:10251000B307E407F50720F0A21BB30BE40BF50BA0
:10252000661F771F881F991F1A9469F76095709529
:10253000809590959B01AC01BD01CF010895EE0FF0
:10254000FF1F0590F491E02D0994AA1BBB1B51E1DC
:1025500007C0AA1FBB1FA617B70710F0A61BB70B13
:10256000881F991F5A95A9F780959095BC01CD01B8
:1025700008955058BB27AA270E94D1120C94AC147E
:102580000E949E1438F00E94A51420F039F49F3F59
:1025900019F426F40C9474140EF4E095E7FB0C94F3
:1025A0006E14E92F0E94BD1458F3BA17620773071F
:1025B0008407950720F079F4A6F50C94DF140EF447
:1025C000E0950B2EBA2FA02D0B01B90190010C0143
:1025D000CA01A0011124FF27591B99F0593F50F45B
:1025E000503E68F11A16F040A22F232F342F4427B3
:1025F000585FF3CF469537952795A795F0405395AB
:10260000C9F77EF41F16BA0B620B730B840BBAF07A
:102610009150A1F0FF0FBB1F661F771F881FC2F7E5
:102620000EC0BA0F621F731F841F48F487957795F9
:102630006795B795F7959E3F08F0B0CF9395880FB3
:1026400008F09927EE0F9795879508950E944A14F0
:1026500008F481E008950E943F130C94AC140E948A
:10266000A51458F00E949E1440F029F45F3F29F011
:102670000C946E1451110C94E0140C9474140E9478
:10268000BD1468F39923B1F3552391F3951B550BB2
:10269000BB27AA2762177307840738F09F5F5F4F35
:1026A000220F331F441FAA1FA9F335D00E2E3AF074
:1026B000E0E832D091505040E695001CCAF72BD08C
:1026C000FE2F29D0660F771F881FBB1F26173707DD
:1026D0004807AB07B0E809F0BB0B802DBF01FF270F
:1026E00093585F4F3AF09E3F510578F00C946E146A
:1026F0000C94E0145F3FE4F3983ED4F3869577950D
:102700006795B795F7959F5FC9F7880F911D9695C7
:10271000879597F90895E1E0660F771F881FBB1F23
:10272000621773078407BA0720F0621B730B840BD0
:10273000BA0BEE1F88F7E095089529F416F00C9473
:102740006E140C94DF140C9474140E94C514A8F336
:102750009638A0F707F80F92E8942BE33AEA48EB93
:102760005FE70E9472150F920F920F924DB75EB7FE
:102770000F920E942815E8E6F0E00E9477144F912E
:102780005F91EF91FF91E595EE1FFF1F49F0FE5716
:10279000E0684427EE0F441FFA95E1F74195550B89
:1027A0000E94F2140F9007FE0C94E61408950E9404
:1027B000DE136894B1110C94E01408950E94C514BE
:1027C00088F09F5798F0B92F9927B751B0F0E1F0F2
:1027D000660F771F881F991F1AF0BA95C9F714C0A2
:1027E000B13091F00E94DF14B1E008950C94DF1431
:1027F000672F782F8827B85F39F0B93FCCF38695DB
:1028000077956795B395D9F73EF490958095709537
:1028100061957F4F8F4F9F4F0895E89409C097FBB4
:102820003EF490958095709561957F4F8F4F9F4FA7
:102830009923A9F0F92F96E9BB279395F6958795EB
:1028400077956795B795F111F8CFFAF4BB0F11F4AE
:1028500060FF1BC06F5F7F4F8F4F9F4F16C0882355
:1028600011F096E911C0772321F09EE8872F762F8B
:1028700005C0662371F096E8862F70E060E02AF0CC
:102880009A95660F771F881FDAF7880F96958795B8
:1028900097F90895990F0008550FAA0BE0E8FEEF8D
:1028A00016161706E807F907C0F012161306E40714
:1028B000F50798F0621B730B840B950B39F40A260D
:1028C00061F0232B242B252B21F408950A2609F4EB
:1028D000A140A6958FEF811D811D089597F99F67EF
:1028E00080E870E060E008959FEF80EC0895DF934A
:1028F000CF931F930F93FF92EF92DF927B018C0196
:10290000689406C0DA2EEF010E946F15FE01E8946C
:10291000A5912591359145915591A6F3EF010E941E
:10292000D112FE019701A801DA9469F7DF90EF90C8
:10293000FF900F911F91CF91DF91089500240A9489
:102940001616170618060906089500240A9412168A
:102950001306140605060895092E0394000C11F4BD
:10296000882352F0BB0F40F4BF2B11F460FF04C06A
:102970006F5F7F4F8F4F9F4F089557FD9058440FC3
:10298000551F59F05F3F71F04795880F97FB991FCE
:1029900061F09F3F79F0879508951216130614068B
:1029A000551FF2CF4695F1DF08C016161706180618
:1029B000991FF1CF86957105610508940895E894F3
:1029C000BB2766277727CB0197F908959B01AC01B8
:1029D00060E070E080E89FE30C942B130C946E147D
:1029E0000C945F160E94C514D8F39923C9F3940F71
:1029F000511DA3F39150504094F059F0882332F0C8
:102A0000660F771F881F91505040C1F79E3F5105B8
:102A10002CF7880F911D9695879597F908955F3F3C
:102A2000ACF0983E9CF0BB27869577956795B79557
:102A300008F4B1609395C1F7BB0F58F711F460FF2C
:102A4000E8CF6F5F7F4F8F4F9F4FE3CF0C94E01421
:102A5000FA01DC01AA0FBB1F9B01AC01BF5728F490
:102A6000222733274427507820C0B75190F4AB2F4A
:102A70000024469537952795011CA395D2F3002095
:102A800071F0220F331F441FB395DAF30ED00C946C
:102A9000B91261307105A0E88A07B94630F49B018C
:102AA000AC016627772788279078309621F020831D
:102AB00031834283538308950E946F150C94AC14A4
:102AC0000E949E1438F00E94A51420F0952311F066
:102AD0000C946E140C94741411240C94E0140E9441
:102AE000BD1470F3959FC1F3950F50E0551F629F81
:102AF000F001729FBB27F00DB11D639FAA27F00D57
:102B0000B11DAA1F649F6627B00DA11D661F829F7D
:102B10002227B00DA11D621F739FB00DA11D621F62
:102B2000839FA00D611D221F749F3327A00D611D7F
:102B3000231F849F600D211D822F762F6A2F112461
:102B40009F5750409AF0F1F088234AF0EE0FFF1F94
:102B5000BB1F661F771F881F91505040A9F79E3FEB
:102B6000510580F00C946E140C94E0145F3FE4F374
:102B7000983ED4F3869577956795B795F795E79541
:102B80009F5FC1F7FE2B880F911D9695879597F94A
:102B90000895FA01EE0FFF1F309621053105A1F1CE
:102BA0006115710561F48038BFE39B0749F16894B2
:102BB0009038810561F08038BFEF9B0741F0992381
:102BC0004AF5FF3FE1053105210519F1E894089424
:102BD000E795D901AA2329F4AB2FBE2FF85FD0F3D4
:102BE00010C0FF5F70F4A695E0F7F73950F019F0C8
:102BF000FF3A38F49F779F930DD00F9007FC9058C1
:102C0000089546F00C94741460E070E080E89FE34F
:102C100008954FE79F775F934F933F932F930E94C1
:102C20007C162F913F914F915F910E945C150C94FF
:102C3000A51319F416F40C9474140C945F160E94E6
:102C4000C514B8F39923C9F3B6F39F57550B87FF03
:102C50000E946D160024A0E640EA90018058569527
:102C6000979528F4805C660F771F881F20F0261741
:102C70003707480730F4621B730B840B2029312976
:102C80004A2BA69517940794202531254A2758F7F3
:102C9000660F771F881F20F026173707480730F484
:102CA000620B730B840B200D311D411DA09581F724
:102CB000B901842F9158880F9695879508959F3F65
:102CC00031F0915020F4879577956795B795880FE7
:102CD000911D9695879597F9089591505040660FEC
:102CE000771F881FD2F7089516F00C945F160C9486
:102CF000741468940C946E140E94C514A8F399235C
:102D0000C1F3AEF3DF93CF931F930F93FF92C92FBD
:102D1000DD2788232AF02197660F771F881FDAF7AF
:102D200020E030E040E85FEB9FE3883920F0803E10
:102D300038F021968F770E94BA12E0E9F0E004C0E3
:102D40000E94BA12EDEBF0E00E9477148B01BE01F5
:102D5000EC01FB2E6F5771097595771F880B990B46
:102D60000E940F1428E132E741E35FE30E946F15F0
:102D7000AF2D9801AE01FF900F911F91CF91DF9180
:102D80000E94D1120C94AC140F931F93CF93DF9336
:102D90008230910510F482E090E0E091CB06F09152
:102DA000CC0630E020E0B0E0A0E0309799F42115A7
:102DB000310509F44AC0281B390B24303105D8F5F8
:102DC0008A819B816115710589F1FB01938382835F
:102DD000FE0111C0408151810281138148175907BA
:102DE000E0F04817590799F4109761F012960C9388
:102DF000129713961C933296CF01DF91CF911F91BA
:102E00000F9108950093CB061093CC06F4CF2115B3
:102E1000310551F04217530738F0A901DB019A013F
:102E2000BD01DF01F801C1CFEF01F9CF9093CC06CE
:102E30008093CB06CDCFFE01E20FF31F81939193D8
:102E40002250310939832883D7CF2091C906309188
:102E5000CA06232B41F420910401309105013093DF
:102E6000CA062093C9062091020130910301211561
:102E7000310541F42DB73EB740910601509107014D
:102E8000241B350BE091C906F091CA06E217F3073F
:102E9000A0F42E1B3F0B2817390778F0AC014E5FCA
:102EA0005F4F2417350748F04E0F5F1F5093CA0637
:102EB0004093C906819391939FCFF0E0E0E09CCFCF
:102EC000CF93DF930097E9F0FC01329713821282CF
:102ED000A091CB06B091CC06ED0130E020E0109738
:102EE000A1F420813181820F931F2091C906309176
:102EF000CA062817390709F061C0F093CA06E093A3
:102F0000C906DF91CF910895EA01CE17DF07E8F5F2
:102F10004A815B819E0141155105B1F7E901FB83AF
:102F2000EA8349915991C40FD51FEC17FD0761F44D
:102F3000808191810296840F951FE901998388838E
:102F4000828193819B838A83F0E0E0E012968D91E9
:102F50009C9113970097B9F52D913C911197CD0154
:102F60000296820F931F2091C9063091CA06281736
:102F7000390739F6309751F51092CC061092CB06EE
:102F8000B093CA06A093C906BCCFD383C283408145
:102F90005181840F951FC817D90761F44E5F5F4FA9
:102FA00088819981480F591F518340838A819B8171
:102FB000938382832115310509F0B0CFF093CC06BD
:102FC000E093CB069ECFFD01DC01C0CF13821282BD
:102FD000D7CFFB01DC014150504048F001900D92E9
:102FE0000020C9F701C01D9241505040E0F70895FC
:102FF000AEE0B0E0EEEFF7E10C94B01A8C01FA010C
:1030000086E08C831A83098377FF02C060E070E852
:10301000615071097E836D83A901BF01CE010196C4
:103020000E9424184D815E8157FD0AC02F8138858A
:10303000421753070CF49A01020F131FF801108274
:103040002E96E4E00C94CC1AABE0B0E0EAE2F8E1B2
:103050000C94A21A7C013B018A01FC0117821682A2
:10306000838181FFC8C1CE0101965C01F701938184
:10307000F30193FD859193FF81913F01882309F42A
:1030800053C1853239F493FD859193FF81913F01BE
:10309000853229F4B70190E00E94141AE7CF912CF1
:1030A000212C312CFFE1F31538F08B3211F190F423
:1030B000803209F1833229F137FC3CC020ED280F22
:1030C0002A3050F536FE20C08AE0989E200D11244B
:1030D000922E06C08D3291F0803371F7689430F8EB
:1030E000F30193FD859193FF81913F018111DACF27
:1030F00021C0689431F8689432F8F2CF689433F8BC
:10310000EFCF689434F8ECCFEAE02E9E200D112426
:10311000222E689435F8E4CF8E3229F436FC04C1AF
:10312000689436F8DDCF8C3619F4689437F8D8CF28
:103130008836B1F2982F9F7D95549330E0F0833616
:10314000A1F18337C1F1833509F063C02801F2E0B2
:103150004F0E511CF801C080D180692D70E036FC03
:1031600002C06FEF7FEFC6010E94FE194C01689408
:1031700037F882010AC00C5F1F4FFFE3F9838824F0
:103180008394912C6501E89437F833FE2DC0522CBE
:103190008114910471F5552009F468CFB70180E2DC
:1031A00090E00E94141A5A94F6CFF8018081898326
:1031B0000E5F1F4FE4CF2801F2E04F0E511CF801C3
:1031C000C080D180692D70E036FC02C06FEF7FEFC8
:1031D000C6010E94091A4C018201D5CFB70180E2D5
:1031E00090E00E94141A2A942814190409F0B0F7E8
:1031F000CECFF60137FC859137FE81916F01B70183
:1032000090E00E94141A51105A94F1E08F1A91081C
:10321000BFCF843619F0893609F077C0F80137FE40
:103220006BC060817181828193810C5F1F4FF32D90
:10323000FF763F2E97FF09C0909580957095619518
:103240007F4F8F4F9F4F689437F82AE030E0A501F9
:103250000E94441AC82ECA188C2C432C36FE0CC06F
:10326000E89440F8C91440F434FE05C032FC03C0B1
:10327000F32DFE7E4F2E892C44FE95C0FE01EC0DF1
:10328000F11D8081803309F087C0242D297E422ED4
:10329000842D8870582E43FC95C040FE8FC09C2C16
:1032A000821418F42C0C922C981844FE91C0B7018B
:1032B00080E390E00E94141A42FE09C088E790E083
:1032C00041FE02C088E590E0B7010E94141AC914BB
:1032D00008F48AC0CA94D12C9FEFC91AD90ACA0C23
:1032E000DB1CF60182916F01B70190E00E94141A75
:1032F000AC14BD04B1F74FCF60817181072E000C73
:10330000880B990B0E5F1F4F92CFD32CE894D4F803
:103310002AE030E0853739F1232D297FD22E8F36F0
:1033200001F148F48835A9F0F701868197812B9641
:10333000E2E10C94BE1A803749F08837A9F7D4FE31
:1033400002C06894D2F820E130E00DC06894D4F84F
:10335000F6CF34FE03C0822F8660D82E20E132E003
:1033600002C028E030E0F801D7FE0FC06081718113
:10337000828193810C5F1F4FA5010E94441AC82EC1
:10338000CA183D2CE89437F867CF6081718190E0CE
:1033900080E00E5F1F4FF0CF42FC02C0839478CFD5
:1033A0008394839475CF842D867809F471CFF6CFFA
:1033B000B70180E290E00E94141A83948214C0F353
:1033C000512C73CF522C5818821408F46ECFF8CFBA
:1033D000842D867809F47BCF8BE241FE80E247FCA6
:1033E0008DE2B70190E071CFB70180E390E00E94D9
:1033F000141A9A946CCF8FEF9FEF99CFFC01059030
:10340000615070400110D8F7809590958E0F9F1FE6
:103410000895FC016150704001900110D8F780952B
:1034200090958E0F9F1F08950F931F93CF93DF9357
:10343000182F092FEB018B8181FD09C01FEF0FEFC2
:10344000812F902FDF91CF911F910F91089582FFCF
:1034500014C02E813F818C819D81281739073CF44F
:10346000E881F981CF0101969983888310838E8149
:103470009F8101969F838E83E3CFE885F985812F15
:103480000995892BA1F3DACFFA01AA27283051F147
:10349000203181F1E8946F936E7F6E5F7F4F8F4F85
:1034A0009F4FAF4FB1E03ED0B4E03CD0670F781FE4
:1034B000891F9A1FA11D680F791F8A1F911DA11DC9
:1034C0006A0F711D811D911DA11D20D009F4689402
:1034D0003F912AE0269F11243019305D3193DEF6AA
:1034E000CF010895462F4770405D4193B3E00FD060
:1034F000C9F7F6CF462F4F70405D4A3318F0495D4B
:1035000031FD4052419302D0A9F7EACFB4E0A6952D
:103510009795879577956795BA95C9F7009761054F
:10352000710508959B01AC010A2E069457954795A5
:1035300037952795BA95C9F7620F731F841F951F9A
:10354000A01D08952F923F924F925F926F927F92AB
:103550008F929F92AF92BF92CF92DF92EF92FF92A3
:103560000F931F93CF93DF93CDB7DEB7CA1BDB0B4F
:103570000FB6F894DEBF0FBECDBF09942A883988F4
:1035800048885F846E847D848C849B84AA84B984FB
:10359000C884DF80EE80FD800C811B81AA81B98107
:1035A000CE0FD11D0FB6F894DEBF0FBECDBFED011B
:0635B0000895F894FFCF1E
:1035B60045030000CD06800000830201A90202CE69
:1035C6000203F302041A03054003066503078A0390
:1035D60008AD0309D2030AF7030B1C040C43040DC0
:1035E60068040E8D040FB20410D50411FA04121FDC
:1035F60005134405146A05158F0516B30517D80576
:1036060018F905191D061A41061B65061C8A061DB2
:10361600AD061ECF061FF2062012072135072256D9
:103626000723770724990725B907261608273E0892
:10363600285C0800B40201E902020B03033B030401
:10364600640305820306A40307C60308EC030910F6
:10365600040A37040B5B040C84040DA7040ECD0486
:103666000FF304101C05113F05126505139205148E
:10367600B20515D60516F105172206184B06196C64
:10368600061A93061BBA061CD6061D06071E2D072C
:103696001F510720750721990722B60723D0072453
:1036A6000208252008264808275C08288E0829C015
:1036B600082ADE082BFC082C2E092D4C092E74092D
:1036C6002F9C0930B00931E20932140A33320A3428
:1036D600500A35820A36A00A37C80A38E60A390E71
:1036E6000B3A360B3B5E0B3C860B3DA40B3ECC0BDC
:1036F6003FF40B40120C413A0C42620C438A0C44D4
:10370600A80C45D00C46F80C47200D48480D495CDE
:103716000D4A840D4BAC0D4CD40D4DFC0D4E240EB4
:103726004F4C0E50600E51920E52BA0E53D80E5494
:10373600000F55320F565A0F57780F58A00F59C819
:103746000F5AE60F5B04105C36105D54105E7C1059
:103756005FA41060CC1061F410621211633A116418
:10376600621165761166A81167C61168EE11690CBB
:10377600126A3E126B66126C8E126DB6126EDE12F5
:103786006F0613702E13714C1372741373921374A5
:10379600BA1375D813760014772814785014796EF6
:1037A600147A96147BBE147CE6147D0E15102C1527
:1037B6007F541500000000ED034D037A035504AB5A
:1037C6000389039D0347657474696E672077697082
:1037D600657220666F7220726573697374616E63B9
:1037E600653D2564004D61746368656420523D251E
:1037F6006400636F6F6C616E7474656D703D2564F3
:103806000043616C632052203D20256400546162B0
:103816006C6520656E74726965733D256420256448
:10382600202564004D617463686564206D696E20AF
:10383600523D2564005769706572313D25642057F5
:1038460069706572323D256400523D2564204469E5
:1038560067506F744D6178523D2564202825642990
:10386600004D617463686564206D617820523D2562
:1038760064004D61746368656420746F74616C20C4
:10388600523D25640061697274656D703D25640062
:1038960057697065723D2564000D0A00436F6F6CB1
:1038A600616E742074656D70203220776970657260
:1038B6003D25640053657420636F6F6C616E7420E0
:1038C60074656D7020746F202564204600536574FE
:1038D600206169722074656D7020746F20256420E4
:1038E6004600536574207468726F74746C65207436
:1038F6006F2025640053657420656E67696E6520C8
:10390600737065656420746F2025642052504D00E5
:103916005365742070756C7365206477656C6C20D4
:10392600616E676C6520746F20256420646567008E
:103936005475726E656420656E67696E65206F6684
:103946006600456E67696E65206372616E6B696EAF
:10395600672061742033303052504D00436F6C64E1
:103966002069646C6500486F742069646C65004367
:1039760072756973652061742033304D5048004379
:1039860072756973652061742037304D5048004761
:10399600656E746C6520616363656C6572617469DC
:1039A6006F6E004D6F646572617465206163636557
:1039B6006C65726174696F6E004861726420616340
:1039C60063656C65726174696F6E007372635C53D4
:0A39D600657269616C2E6370700069
:00000001FF
