:100000000C94DF020C9407030C9407030C94070371
:100010000C9407030C9407030C9407030C94070338
:100020000C9407030C9407030C9407030C94070328
:100030000C9407030C9433130C9407030C940703DC
:100040000C9491120C9407030C9401130C94DB1282
:100050000C9407030C9407030C9407030C940703F8
:100060000C9407030C94070307634236B79BD8A789
:100070001A39685618AEBAAB558C1D3CB7CC5763CD
:10008000BD6DEDFD753EF6177231BF000000803F7B
:1000900008000000BE922449123EABAAAA2ABECD97
:1000A000CCCC4C3E00000080BEABAAAAAA3E000009
:1000B0000000BF000000803F000000000008417801
:1000C000D3BB4387D1133D190E3CC3BD4282AD2B38
:1000D0003E68EC8276BED98FE1A93E4C80EFFFBE30
:1000E00001C4FF7F3F000000000000830201A9025D
:1000F00002CE0203F302041A030540030665030758
:100100008A0308AD0309D2030AF7030B1C040C434E
:10011000040D68040E8D040FB20410D50411FA0406
:10012000121F05134405146A05158F0516B305172C
:10013000D80518F905191D061A41061B65061C8A03
:10014000061DAD061ECF061FF20620120721350739
:1001500022560723770724990725B907261608276B
:100160003E08285C080000FC04010022050200474C
:100170000503006C05040091050500B5050600DACD
:10018000050700FF0508002006090043060A00686D
:10019000060B008C060C00AE060D00D1060E00F317
:1001A000060F0014071000350711005607120077DC
:1001B00007130097071400B8071500200816004819
:1001C0000817007008180098081900B6081A00DE11
:1001D000081B0006091C002E091D004C091E007496
:1001E000091F009C092000C4092100E20922000A1D
:1001F0000A2300320A24005A0A2500780A2600A0A1
:100200000A2700C80A2800F00A29000E0B2A003627
:100210000B2B005E0B2C00860B2D00A40B2E00CCAC
:100220000B2F00F40B3000120C31003A0C3200623C
:100230000C3300800C3400A80C3500D00C3600F8CC
:100240000C3700200D38003E0D3900660D3A008E47
:100250000D3B00AC0D3C00D40D3D00FC0D3E001AE2
:100260000E3F00420E40006A0E4100880E4200B070
:100270000E4300D80E4400F60E45001E0F46004601
:100280000F47006E0F48008C0F4900B40F4A00DC86
:100290000F4B00FA0F4C0022104D004A104E006820
:1002A000104F0090105000B8105100D6105200FEB0
:1002B00010530026115400441155006C115600943F
:1002C000115700B2115800DA11590002125A0020D9
:1002D000125B0048125C0070125D008E125E00B668
:1002E000125F00D4126000FC12610024136200420D
:1002F0001363006A13640088136500B0136600D8A6
:10030000136700F61368001E1469003C146A006449
:10031000146B0082146C00AA146D00C8146E00F0F7
:10032000146F001815700036157100541572007C9A
:100330001573009A157400C2157500E01576000853
:10034000167700261678004E1679006C167A0094FF
:10035000167B00B2167C00DA167D00F8167E0016B9
:10036000177F003E177F0166177F0284177F03A265
:10037000177F04CA177F05E8177F0610187F072E1E
:10038000187F084C187F096A187F0A92187F0BB0F3
:10039000187F0CCE187F0DEC187F0E14197F0F32CA
:1003A000197F1050197F116E197F128C197F13AAB3
:1003B000197F14D2197F15F0197F160E1A7F172C8A
:1003C0001A7F18401A7F19681A7F1A861A7F1B9A9B
:1003D0001A7F1CC21A7F1DE01A7F1EFE1A7F1F1C87
:1003E0001B7F20301B7F214E1B7F226C1B7F238AAB
:1003F0001B7F24A81B7F25C61B7F26E41B7F27F8B5
:100400001B7F28161C7F29341C7F2A481C7F2B66E3
:100410001C7F2C841C7F2DA21C7F2EB61C7F2FD40A
:100420001C7F30E81C7F31061D7F321A1D7F333858
:100430001D7F34561D7F356A1D7F36881D7F379C92
:100440001D7F38B01D7F39CE1D7F3AE21D7F3BF600
:100450001D7F3C141E7F3D281E7F3E461E7F3F5A57
:100460001E7F406E1E7F41821E7F42A01E7F43B4CE
:100470001E7F44C81E7F45DC1E7F46F01E7F470E50
:100480001F7F48221F7F49361F7F4A4A1F7F4B5ECE
:100490001F7F4C721F7F4D861F7F4E9A1F7F4FAE6E
:1004A0001F7F50C21F7F51D61F7F52EA1F7F53FE0E
:1004B0001F7F5412207F5526207F563A207F574EAB
:1004C000207F5862207F5976207F5A80207F5B945E
:1004D000207F5CA8207F5DBC207F5ED0207F5FDA1C
:1004E000207F60EE207F6102217F6216217F6320E2
:1004F000217F6434217F6548217F6652217F6766B2
:10050000217F687A217F698E217F6A98217F6BAC79
:10051000217F6CB6217F6DCA217F6ED4217F6FE869
:10052000217F70F2217F7106227F7210227F732457
:10053000227F742E227F7542227F764C227F776045
:10054000227F786A227F7974227F7A88227F7B9249
:10055000227F7CA6227F7DB0227F7EBA227F7FCE43
:1005600022000000002300260029000000000800EF
:10057000020100000304070000000000000000006A
:10058000000000250028002B0000000000240027A8
:10059000002A000404040404040404020202020207
:1005A0000203030303030301020408102040800137
:1005B0000204081020010204081020005A1311241C
:1005C0001FBECFEFD8E0DEBFCDBF14E0A0E0B1E0AA
:1005D000ECE4FFE302C005900D92A03FB107D9F70C
:1005E00026E0A0EFB4E001C01D92A23BB207E1F704
:1005F00012E0CFEDD2E004C02197FE010E946A17FD
:10060000CE3DD107C9F70E942B140C94A41F0C9463
:10061000000008950895089508950895089508958F
:10062000862F642FE0912B05F0912C05309711F067
:10063000A9010994089508950F931F93CF93DF9311
:100640008C01EB01DC018D919C9168816F77DC015D
:10065000ED91FC910190F081E02D0995F8018081E8
:100660009181688170E0660F672F661F770BDC0150
:10067000ED91FC910190F081E02DDF91CF911F91E0
:100680000F910994EF92FF920F931F93CF93DF93F3
:10069000C82F80912606909127060097A9F17A012C
:1006A0008B01DC01ED91FC910190F081E02D60EF78
:1006B00009958091260690912706DC01ED91FC9129
:1006C0000190F081E02D6C2F0995E7010E0D1F1DA3
:1006D000C017D10739F0BE0186E296E00E941C03E4
:1006E0002196F6CF8091260690912706DC01ED91A8
:1006F000FC910190F081E02D67EFDF91CF911F9188
:100700000F91FF90EF900994DF91CF911F910F917E
:10071000FF90EF9008951F93CF93DF93182FEB0175
:1007200080912B0690912C066817790760F48091D0
:10073000290690912A06C80FD91F188380E0DF91FF
:10074000CF911F910895E0915806F0915906309786
:1007500011F481E0F4CF81E0809328068091440673
:1007600090914506099580912B0690912C06C8170B
:10077000D90778F7DCCFCF93DF93EC01FB0130E0B2
:1007800020E0C901880F991F8C179D0778F44081DC
:10079000DB014D93BD01119791819795992797950D
:1007A000942B9C932F5F3F4F3296EBCFC901DF9183
:1007B000CF91089590E0FC01E955FA4F24918D56B0
:1007C0009A4FFC018491882399F090E0880F991F3B
:1007D000FC01E757FA4FA591B491FC01E158FA4F9B
:1007E000859194918FB7F894EC91E22BEC938FBFA5
:1007F0000895CF93DF93FC01A081B181109701F19F
:10080000EC01ED91FC9111970190F081E02D69EFE1
:10081000CD01099588819981DC01ED91FC910190D0
:10082000F081E02D62E0099588819981DC01ED91EC
:10083000FC910190F081E02D65E0DF91CF9109946A
:10084000DF91CF910895833081F028F4813099F0C1
:100850008230A9F008958730A9F08830C9F084303B
:10086000B1F4809180008F7D03C0809180008F77EC
:1008700080938000089584B58F7784BD089584B5F2
:100880008F7DFBCF8091B0008F778093B00008956B
:100890008091B0008F7DF9CFCF93DF93282F30E088
:1008A000F901E559FA4F8491F901E955FA4FD491CC
:1008B000F901ED56FA4FC491CC23A1F081110E94A9
:1008C0002304EC2FF0E0EE0FFF1FEF59FA4FA59134
:1008D000B491EC91ED2381E090E009F480E0DF91A8
:1008E000CF91089580E090E0FACF1F93CF93DF93EC
:1008F000282F30E0F901E559FA4F8491F901E955C3
:10090000FA4FD491F901ED56FA4FC491CC23A9F0D6
:10091000162F81110E942304EC2FF0E0EE0FFF1F31
:10092000E158FA4FA591B4918FB7F894EC91111159
:1009300008C0D095DE23DC938FBFDF91CF911F914C
:100940000895DE2BF8CF61E08091AC060C9475041D
:1009500081E58CBD1DBC60E08091AC060C947504F3
:100960003FB7F8948091450590914605A0914705C1
:10097000B091480526B5A89B05C02F3F19F00196F8
:10098000A11DB11D3FBFBA2FA92F982F8827BC01E9
:10099000CD01620F711D811D911D42E0660F771F11
:1009A000881F991F4A95D1F708958F929F92AF9211
:1009B000BF92CF92DF92EF92FF926B017C010E9477
:1009C000B0044B015C01C114D104E104F104B9F09D
:1009D0000E94B004681979098A099B09683E73402E
:1009E0008105910580F321E0C21AD108E108F108E0
:1009F00088EE880E83E0981EA11CB11CE4CFFF9006
:100A0000EF90DF90CF90BF90AF909F908F90089520
:100A10002FB7F8946091410570914205809143058C
:100A2000909144052FBF0895209102053091030550
:100A30008091FE049091FF042817390709F4299A40
:100A400020910205309103058091FC049091FD04F2
:100A50002817390709F429982091020530910305D8
:100A60008091FA049091FB042817390709F45E9AE3
:100A700020910205309103058091F8049091F904CA
:100A80002817390709F45E98209102053091030573
:100A90008091F6049091F7042817390709F45D9ABC
:100AA00020910205309103058091F4049091F504A2
:100AB0002817390709F45D98209102053091030544
:100AC0008091F2049091F3042817390709F45B9A96
:100AD00020910205309103058091F0049091F1047A
:100AE0002817390709F45B98809102059091030556
:100AF00001969093030580930205209100053091A3
:100B000001058217930720F0109203051092020549
:100B100081E08093390520E43FE130938700209302
:100B2000860091E19093810024E135E0309301014A
:100B30002093000180936F0008950895009721F09D
:100B4000805C9F4F0C94F9030895AF92BF92CF92AF
:100B5000DF92EF92FF920F931F93CF93DF936C017D
:100B60007B018B01040F151FEB015E01AE18BF085E
:100B7000C017D10759F06991D601ED91FC91019010
:100B8000F081E02DC6010995892B79F7C501DF9128
:100B9000CF911F910F91FF90EF90DF90CF90BF907A
:100BA000AF900895FC01538D448D252F30E0842FA4
:100BB00090E0821B930B541710F0CF960895019785
:100BC0000895FC01918D828D981761F0A28DAE0F72
:100BD000BF2FB11D5D968C91928D9F5F9F73928FF9
:100BE00090E008958FEF9FEF0895FC01918D828D25
:100BF000981731F0828DE80FF11D858D90E00895F2
:100C00008FEF9FEF0895FC01918D228D892F90E049
:100C1000805C9F4F821B91098F739927089589E407
:100C200095E00E94030621E0892B09F420E0822F41
:100C3000089580E090E0892B29F00E940F06811131
:100C40000C9400000895FC01A48DA80FB92FB11DCC
:100C5000A35ABF4F2C91848D90E001968F739927F2
:100C6000848FA689B7892C93A089B1898C918370D0
:100C700080648C93938D848D981306C00288F389C9
:100C8000E02D80818F7D80830895EF92FF920F93F6
:100C90001F93CF93DF93EC0181E0888F9B8D8C8D28
:100CA00098131AC0E889F989808185FF15C09FB71C
:100CB000F894EE89FF896083E889F98980818370DF
:100CC000806480839FBF81E090E0DF91CF911F918E
:100CD0000F91FF90EF900895F62E0B8D10E00F5FAF
:100CE0001F4F0F731127E02E8C8D8E110CC00FB685
:100CF00007FCFACFE889F989808185FFF5CFCE011D
:100D00000E942306F1CFEB8DEC0FFD2FF11DE35A6E
:100D1000FF4FF0829FB7F8940B8FEA89FB8980819F
:100D20008062CFCFCF93DF93EC01888D8823B9F019
:100D3000AA89BB89E889F9898C9185FD03C08081E6
:100D400086FD0DC00FB607FCF7CF8C9185FFF2CF63
:100D5000808185FFEDCFCE010E942306E9CFDF9190
:100D6000CF910895CF93CFB7F89480912A05811140
:100D700024C0EDE9F5E08491E1EBF5E09491E82FF2
:100D8000F0E0EE0FFF1FE757FA4FA591B491EC91F9
:100D9000E92321F461E08AE00E9475048AE00E9460
:100DA000DA038CB580618CBD8CB580648CBD8DE020
:100DB0000E94DA038BE00E94DA0380912A058F5F9C
:100DC00080932A05CFBFCF910895CF92DF92EF9203
:100DD000FF920F931F93CF93DF93FC01E058FF4FD7
:100DE000E080EE2009F458C0EC01C05CDF4FA88120
:100DF000B981109709F450C0FC01EF57FF4FC08034
:100E0000D180F60111810081ED91FC911197019043
:100E1000F081E02D60EFCD01099588819981DC0199
:100E2000ED91FC910190F081E02D69E709958881B1
:100E30009981DC01ED91FC910190F081E02D602F12
:100E4000099588819981DC01ED91FC910190F081F7
:100E5000E02D612F0995F12C01E010E00F5F1F4F8D
:100E6000E016F10639F0B601600F711FCE010E9445
:100E70001C03F4CF88819981DC01ED91FC910190F4
:100E8000F081E02D67EFDF91CF911F910F91FF90DF
:100E9000EF90DF90CF900994DF91CF911F910F9148
:100EA000FF90EF90DF90CF900895009711F00C9491
:100EB000E50608954F925F926F927F928F929F9274
:100EC000AF92BF92CF92DF92EF92FF920F931F9358
:100ED000CF93DF93CDB7DEB7A0970FB6F894DEBF00
:100EE0000FBECDBFC0902805D09029058090260563
:100EF0009090270540913505509136058091220547
:100F000090912305009137051091380540902005F8
:100F100050902105052C000C6608770849865A86F2
:100F20006B867C86092C000CAA08BB088D829E82E9
:100F3000AF82B8860D2C000CEE08FF08C982DA8259
:100F4000EB82FC82012E000C220B330B098B1A8BD7
:100F50002B8B3C8B052E000C660B770B4D875E8729
:100F60006F87788B198E1A8E1B8E1C8E1D8A1E8A97
:100F70001F8A188E092E000CAA0BBB0B8D8F9E8F1B
:100F8000AF8FB8A3AE014F5F5F4F60E270E080E1CA
:100F90000E944203A0960FB6F894DEBF0FBECDBFED
:100FA000DF91CF911F910F91FF90EF90DF90CF9045
:100FB000BF90AF909F908F907F906F905F904F9079
:100FC0000895FF920F931F93CF93DF93FF24F39421
:100FD000C2E0D0E001E010E08091640690916506E7
:100FE000DC01ED91FC910084F185E02D0995892BC0
:100FF00009F4CEC18091640690916506DC01ED9103
:10100000FC910284F385E02D09959C018F3F9807A0
:1010100019F3982F80913106882309F492C0973FE5
:1010200009F07EC010923106A0912906B0912A06DF
:101030006C916137C1F1693709F05CC0E0915E06DF
:10104000F0915F06309741F280913206909133061D
:101050008330910560F430E020E050E040E070E043
:1010600060E080914006909141060995B5CFBD01A1
:101070006D5F7F4F03970E94BB03BC016D5F7F4F85
:1010800080E00E948B03E0912906F0912A069F01DF
:101090002D5F3F4F428150E0618170E0E0915E063C
:1010A000F0915F06DECF80915A0690915B06892B06
:1010B00009F492CFBD016F5F7F4F8091320690910E
:1010C000330601970E94BB03BC016F5F7F4F80E036
:1010D0000E948B036091290670912A066F5F7F4FF3
:1010E000E0915A06F0915B06809146069091470682
:1010F000099572CFE0915C06F0915D06309709F496
:101100006BCF9D012F5F3F4F4091320650913306C8
:1011100041505109809148069091490609955CCF4C
:101120006091320670913306822F0E948B0380916A
:1011300032069091330601969093330680933206DF
:101140004BCF60912F06709130066115710509F43F
:10115000B1C027FDAFC06150710970933006609334
:101160002F06822F0E948B0380912F0690913006CC
:10117000892B09F031CF80912D06882309F42CCFDB
:10118000803D09F483C040F4803949F1803C09F482
:1011900069C010922D0620CF843FE1F1853F09F40C
:1011A0004DC0803EB1F7E0914C06F0914D0630976E
:1011B00081F3A0912906B0912A064C9120E8429F24
:1011C000C001112411964C91480F592F511D609167
:1011D0002E0680913406909135060995DACFE0917C
:1011E0004E06F0914F063097A1F2A0912906B091DA
:1011F0002A064C9120E8429FC001112411964C917F
:10120000480F592F511D60912E06809136069091FE
:101210003706E3CFE0915406F0915506309709F474
:10122000B8CFA0912906B0912A064C9150E01196B2
:101230006C9180913C0690913D06CFCFE09156068F
:10124000F0915706309709F4A4CFA0912906B091E8
:101250002A064C9150E011966C9180913E06909137
:101260003F06BBCFE0915006F0915106309709F44C
:1012700090CFA0912906B0912A064C9150E0609140
:101280002E068091380690913906A7CFE09152063C
:10129000F0915306309709F47CCFA0912906B091C4
:1012A0002A064C9150E060912E0680913A0690916A
:1012B0003B0693CF903F30F4822F8F7080932E06A1
:1012C000922F907F903FF1F190F4903CB1F150F467
:1012D000903909F081CED0933006C0932F069093B9
:1012E0002D067ACE903D49F1903EA9F375CE993FF7
:1012F00009F442C028F48CE0890F823060F36CCE90
:101300009F3F09F069CE1092300610922F0610927E
:101310002D0610922E0690E080E020912B06309151
:101320002C0682179307A8F4E0912906F0912A066B
:10133000E80FF91F10820196F0CF1093300600934A
:101340002F06CDCFF092310610923306109232065E
:1013500043CE109231061092330610923206E0917D
:101360006206F091630680914A0690914B06309791
:1013700009F432CE099530CEE0916006F091610615
:10138000309709F429CE8091420690914306F2CF1E
:10139000DF91CF911F910F91FF9008958EBD0000B6
:1013A0000DB407FEFDCF8EB50895CF93C82F0E94D0
:1013B000A8048091AD0681600E94CE098C2F0E9406
:1013C000CE0980E00E94CE09C82F0E94A3048C2F72
:1013D000CF910895CF93DF93D82FC62F0E94A804F2
:1013E0008091AD060E94CE098D2F0E94CE098C2FD0
:1013F0000E94CE09DF91CF910C94A304CF93DF9389
:10140000D82FC62F8AE00E94D50961E070E00D2E2A
:1014100001C0660F0A94EAF7609568238C2F01C01B
:10142000880FDA95EAF7682B8AE0DF91CF910C9468
:10143000EA091F93CF93DF93C1E0D0E001C0CC0F46
:101440008A95EAF71C2F109580E0613091F00E9498
:10145000D5096C2F682B80E00E94EA0986E00E9483
:10146000D509682F612386E0DF91CF911F910C94FD
:10147000EA090E94D509C0956C2F6823ECCFEF9242
:10148000FF920F931F93CF93DF93EC010B811C818D
:101490006017710708F48B01E980FA808D819E81C5
:1014A00001969E838D83019781F48CB58F7D8CBDD1
:1014B0008CB5837F8CBD8CB583608CBD8DB58E7FE4
:1014C0008DBD60E088810E94750484E0EE0CFF1CF5
:1014D0008A95E1F76894E1F811701E29812F0E9426
:1014E000CE09FF24F39481FD14C0F12C8D819E81DF
:1014F00001979E838D83892B21F461E088810E946E
:1015000075048F2DDF91CF911F910F91FF90EF9078
:101510000895802F0E94CE09E9CFEF92FF920F939A
:101520001F93CF93DF93EC017B01842F8901988176
:10153000911114C00E944C04892B49F40E94B004FC
:10154000F701608371838283938381E08883DF91D5
:10155000CF911F910F91FF90EF9008950E944C043E
:10156000892BA9F318820E94B004F70120813181F0
:10157000621B730B6D3DF5E07F0748F3F801718343
:101580006083E5CFCF93DF93893E23E0920714F089
:1015900088EE93E097FF02C090E080E0ECE0F1E09D
:1015A000D0E0C0E040815181841795071CF1428151
:1015B000538148175907F4F083E0CC0FDD1F8A955B
:1015C000E1F7FE01E45FFE4F8481958161E00197C0
:1015D00009F060E083E00E94FE09C45FDE4F8E8167
:1015E0009F8161E0019709F060E082E0DF91CF9197
:1015F0000C94FE0921963896C832D10599F6DF91F0
:10160000CF910895CF93DF93EC01459734F461E0D7
:1016100084E00E94FE0960E008C060E084E00E946F
:10162000FE0961E0CA32D340B4F385E0DF91CF9187
:101630000C94FE09CF92DF92EF92FF926B017C0136
:101640000E9408056C157D058E059F05C0F09B0165
:10165000AC012C193D094E095F0969017A01C0945A
:10166000D094E094F094CC24F7FCC394DD24EE24D1
:10167000FF248C2DFF90EF90DF90CF900895C61A35
:10168000D70AE80AF90AEFCFCF93DF93CDB7DEB7D9
:1016900060970FB6F894DEBF0FBECDBF60913105E5
:1016A0007091320580913305909134050E941A0B98
:1016B000882301F181E10E944C0461E0019709F463
:1016C00060E081E10E9475048091280590912905D0
:1016D000181619060CF098C00E94080566507F4F36
:1016E0008F4F9F4F60933105709332058093330580
:1016F0009093340528E135E042E063E175E087E14D
:1017000095E00E948D0A2AE135E047E06EE075E041
:1017100082E195E00E948D0A2CE135E044E069E029
:1017200075E08DE095E00E948D0A2EE135E04EE0F7
:1017300064E075E088E095E00E948D0A60912D05D7
:1017400070912E0580912F05909130050E941A0B03
:10175000882309F450C090911E0580911F05309197
:101760001C0520911D0550911A0540911B05709193
:1017700018056091190579836A835B834C833D83E7
:101780002E839F838887AE014F5F5F4F68E070E0D4
:1017900085E10E94420389E00E94D50986FB8827E3
:1017A00080F98983AE014F5F5F4F61E070E083E1B4
:1017B0000E94420389E00E94D50990E0880F892F9A
:1017C000881F990B21E082278983AE014F5F5F4F0D
:1017D00061E070E084E10E9442030E9408056C50C1
:1017E0007E4F8F4F9F4F60932D0570932E058093F2
:1017F0002F059093300560960FB6F894DEBF0FBEAC
:10180000CDBFDF91CF91089510921F0510921E0554
:1018100010921D0510921C0510921B0510921A05BE
:1018200010921905109218051982AE014F5F5F4F93
:1018300061E070E084E10E9442030E940805685163
:101840007C4F8F4F9F4F4ECF4F925F926F927F9200
:10185000AF92BF92CF92DF92EF92FF920F931F93BE
:10186000CF93DF931F92CDB7DEB78C018091350502
:10187000909136058017910701F50115110521F4A6
:1018800090E080E00E94C20A8AE0282F209FC001D9
:10189000219F900D11240E94020B0F90DF91CF9198
:1018A0001F910F91FF90EF90DF90CF90BF90AF907E
:1018B0007F906F905F904F90089580179107BCF5CF
:1018C00010922505109224052AE0209F6001219F97
:1018D000D00C11244091240550912505452B09F089
:1018E00040C0289F7001299FF00C11248AE0A82E87
:1018F000B12CCE14DF040CF446C0C7010E94020BC9
:10190000C7010E94C20A0E9408052B013C0123E086
:10191000420E511C611C711CC301B2010E941A0BC2
:1019200081110CC00E94E1070E94440BF5CF21E019
:1019300030E03093250520932405C6CFC701B501BB
:101940000E9456176983AE014F5F5F4F61E070E000
:1019500082E10E9442030E94E1078FEFE81AF80A31
:10196000C8CF60E083E00E94FE0960E082E00E9450
:10197000FE09C6010E94020B0115110521F490E039
:1019800080E00E94C20A109336050093350585CF8A
:10199000EF92FF920F931F93CF93DF93CDB7DEB7F4
:1019A000C058D1090FB6F894DEBF0FBECDBF9E015F
:1019B00027573F4FF901419151919F0160E870E035
:1019C0008E010F5F1F4FC8010E94C31C7C01F801EC
:1019D00001900020E9F73197BF01601B710BA8014E
:1019E00081E70E944203C701C058DF4F0FB6F89449
:1019F000DEBF0FBECDBFDF91CF911F910F91FF9042
:101A0000EF9008954F925F926F927F928F929F9284
:101A1000AF92BF92CF92DF92EF92FF92CF93DF937C
:101A2000CDB7DEB764970FB6F894DEBF0FBECDBF5B
:101A300020E12093810029985E985D985B989093AF
:101A4000290580932805181619060CF092C1BC01CF
:101A5000A0903705B0903805072E000C880B990B25
:101A60000E94DA1820E030E040E752E40E94F617C6
:101A700020E030E040E05FE30E94271A9B01AC01C8
:101A800060E070E080E89FE30E94F61720E030E01D
:101A90004AE754E40E94271A0E94A918709301058E
:101AA0006093000590E080E00E94D8186B017C01F3
:101AB000B501BB0C880B990B0E94DA189B01AC0195
:101AC0000E94851720E030E044E354E40E94F617BA
:101AD000A70196010E94271A4B015C0120E030E02B
:101AE00040E85EE3C701B6010E94271A69877A873A
:101AF0008B879C8720E030E040E05FE3C701B601C0
:101B00000E94271A6D877E878F87988B20E030E0B0
:101B100040E45FE3C701B6010E94271A698B7A8B04
:101B20008B8B9C8B20E030E0A901C501B4010E94A1
:101B3000851769837A838B839C839B01AC01C701E2
:101B4000B6010E94F11787FF0CC0A70196016981B9
:101B50007A818B819C810E94841769837A838B832D
:101B60009C8329853A854B855C85C501B4010E941B
:101B700085176D837E838F8398879B01AC01C70196
:101B8000B6010E94F11787FF0CC0A70196016D8175
:101B90007E818F8198850E9484176D837E838F83D9
:101BA00098872D853E854F855889C501B4010E94CF
:101BB00085172B013C01AC019B01C701B6010E94B6
:101BC000F11787FF08C0A7019601C301B2010E9467
:101BD00084172B013C0129893A894B895C89C5010D
:101BE000B4010E9485174B015C01AC019B01C70148
:101BF000B6010E94F11787FF08C0A7019601C50131
:101C0000B4010E9484174B015C011092FF041092F2
:101C1000FE0469817A818B819C810E94A918F62E2D
:101C2000E72E6093FC047093FD0469857A858B85AB
:101C30009C850E94A9187093FB046093FA046D813F
:101C40007E818F8198850E94A9187093F904609312
:101C5000F8046D857E858F8598890E94A9187093F8
:101C6000F7046093F604C301B2010E94A9187093AF
:101C7000F5046093F40469897A898B899C890E94B0
:101C8000A9187093F3046093F204C501B4010E9493
:101C9000A9187093F1046093F004EF92FF921F92E1
:101CA0001F928EE592E09F938F930E94C80C8091C3
:101CB000F9048F938091F8048F938091FB048F93A4
:101CC0008091FA048F938FE692E09F938F930E9406
:101CD000C80C8091F5048F938091F4048F938091C8
:101CE000F7048F938091F6048F9380E892E09F939E
:101CF0008F930E94C80C8091F1048F938091F0041F
:101D00008F938091F3048F938091F2048F9381E9F4
:101D100092E09F938F930E94C80C809101058F934E
:101D2000809100058F9382EA92E09F938F930E94A7
:101D3000C80C109203051092020581E080933905CA
:101D400080E49FE1909387008093860081E18093F7
:101D50008100109281001092850010928400809181
:101D600039058061809381000FB6F894DEBF0FBE05
:101D7000CDBF64960FB6F894DEBF0FBECDBFDF9126
:101D8000CF91FF90EF90DF90CF90BF90AF909F905A
:101D90008F907F906F905F904F9008954F925F92D9
:101DA0006F927F928F929F92AF92BF92CF92DF926B
:101DB000EF92FF920F931F93CF93DF9300D000D049
:101DC000CDB7DEB78636910514F085E690E08F300A
:101DD000910514F48FE090E09093270580932605F9
:101DE0009F938F9383EB92E09F938F930E94C80CF5
:101DF00020912605309127052052310945E0429F68
:101E0000C001439F900D112469E070E00E945617B5
:101E1000072E000C880B990B0E94DA1823E333E994
:101E200048E853E40E9485179B01AC0160E070E034
:101E300080E89FE30E94F6179B01AC0169EE7EE902
:101E40008AEA9AE30E94841721EE31EC49E354E3D5
:101E50000E94F6176B017C01AC019B010E94271ABE
:101E600020E030E040E85EE30E94271A21E23EE4F1
:101E70004CEE5CE40E9485170E94EA1A4B015C015B
:101E800020E030E040E05FE3C701B6010E94271A7E
:101E90006B017C01AC019B01C501B4010E94841758
:101EA0002BEA3AEA4AEA5EE30E94941A2B013C01CB
:101EB000A7019601C501B4010E9485172BEA3AEAF1
:101EC0004AEA5EE30E94941A9B01AC01C301B2018D
:101ED0000E9484170E9470180E94A2187B01FF9232
:101EE0006F9382EC92E09F938F930E94C80C8701BE
:101EF000FF92EF928EEC92E09F938F930E94C80C1A
:101F00001F928FEF8F9384E08F938CEF8F9387EFE7
:101F100092E09F938F930E94C80C44E050E065E6E6
:101F200071E0CE0101960E94EA168B819C810FB66A
:101F3000F894DEBF0FBECDBF8E159F0508F450C0CC
:101F40009F938F93FF92EF9286E193E09F938F93FD
:101F50000E94C80CE980F12C0A8110E08C818F93DB
:101F60008B818F938FE193E09F938F930E94C80C96
:101F70000FB6F894DEBF0FBECDBF1F930F93FF9235
:101F8000EF9282E493E09F938F930E94C80CB70175
:101F900080913C0590913D050E943F0AB8018091D7
:101FA0003A0590913B050E943F0A0F900F900F90C9
:101FB0000F900F900F900F900F900F900F90DF9158
:101FC000CF911F910F91FF90EF90DF90CF90BF9036
:101FD000AF909F908F907F906F905F904F900895FB
:101FE00085E6E82E81E0F82ED12CC12C44E050E0AB
:101FF000B701CE0101960E94EA168B819C81801761
:10200000910708F19F938F931F930F9386E193E0BD
:102010009F938F930E94C80C8981E82EF12C9A819E
:10202000092F10E01F929F931F928F93DF92CF9200
:102030008C818F938B818F9380E393E09F938F9319
:102040000E94C80C95CF3FEFC31AD30A84E0E80E74
:10205000F11C9FEFC916D10449F686E593E09F93E2
:102060008F930E94C80C44E050E06DE575E0CE010E
:1020700001960E94EA16E980F12C0A8110E01F9275
:102080008EEF8F938C818F938B818F9382E793E078
:102090009F938F930E94C80C6BCFEF92FF920F9388
:1020A0001F93CF93DF937B018A01E9010E94020D08
:1020B000C7010E94CE0EC8010E94240CD0932305B4
:1020C000C0932205DF91CF911F910F91FF90EF9068
:1020D00008954F925F926F927F928F929F92AF92EC
:1020E000BF92CF92DF92EF92FF920F931F93CF9305
:1020F000DF9300D01F92CDB7DEB78132910514F087
:1021000080E290E08B3E2FEF920714F48BEE9FEF6E
:1021100090932105809320059F938F9384E893E00B
:102120009F938F930E94C80C209120053091210528
:102130002052310945E0429FC001439F900D112478
:1021400069E070E00E945617072E000C880B990B6F
:102150000E94DA1823E333E948E853E40E94851724
:102160009B01AC0160E070E080E89FE30E94F617FD
:102170009B01AC0160E075ED8CEE9AE30E94841740
:102180002AE736E145E255E30E94F6176B017C0130
:10219000AC019B010E94271A20E030E040E85EE39A
:1021A0000E94271A28EE3BE44DE25AE40E9485176C
:1021B0000E94EA1A4B015C0120E030E040E05FE35E
:1021C000C701B6010E94271A6B017C01AC019B017B
:1021D000C501B4010E9484172BEA3AEA4AEA5EE399
:1021E0000E94941A2B013C01A7019601C501B4017C
:1021F0000E9485172BEA3AEA4AEA5EE30E94941AA3
:102200009B01AC01C301B2010E9484170E947018A7
:102210000E94A2187B01FF926F9382EC92E09F9341
:102220008F930E94C80C8701FF92EF928FE893E092
:102230009F938F930E94C80C43E050E06AEE70E0D9
:10224000CE0101960E94EA168A819B810FB6F8940E
:10225000DEBF0FBECDBF8E159F05A8F1098110E02E
:102260009F938F9383EB93E09F938F930E94C80C6F
:102270000F900F900F900F901F930F9380EC93E0AF
:102280009F938F930E94C80CB80180913E05909156
:102290003F050E943F0A0F900F900F900F900F90F4
:1022A0000F900F90DF91CF911F910F91FF90EF90C2
:1022B000DF90CF90BF90AF909F908F907F906F9066
:1022C0005F904F9008958AEEE82E80E0F82E43E06C
:1022D00050E0B701CE0101960E94EA168A819B81E7
:1022E0008017910708F0BACF33E0E30EF11C85E6C2
:1022F000E81681E0F80659F743E050E062E671E045
:10230000CE0101960E94EA16098110E08B818F931D
:102310008A81A7CFEF92FF920F931F93CF93DF9302
:10232000082F162FEA01EFEFE80FEF30B0F4F0E0DE
:10233000E456FE4E0C946A17AB1114122912361291
:10234000431250125D126A1277128412B911CE1123
:10235000E411D911EF110E945A07612F70E0AE010C
:10236000802FDF91CF911F910F91FF90EF900C94F0
:102370004203F880E9808F2D9E2D0E94CE0EEF92B1
:10238000FF9289EC93E09F938F930E94C80C0E9468
:102390005A070F900F900F900F90DFCFF880E980D1
:1023A0008F2D9E2D0E946910EF92FF9282EE93E096
:1023B000EACFF880E9808F2D9E2D0E94240CEF92A9
:1023C000FF9287EF93E0DFCFF880E9808F2D9E2D7D
:1023D0000E94020DEF92FF928AE094E0D4CFF88041
:1023E0008F2D90E087329105E4F09093380580932B
:1023F000370580913705909138058234914034F04B
:1024000081E491E090933805809337058091280509
:10241000909129050E94020D1F92FF9285E294E09F
:10242000B2CF87E290E0E1CF30E020E050E040E042
:1024300060E270E090E080E00E944D1085E494E05E
:102440009F938F930E94C80C0E945A070F900F9081
:1024500084CF30E020E050E040E060E270E08CE2C9
:1024600091E00E944D1087E594E0EACF2FE030E044
:1024700050E040E060E270E080EB94E00E944D109C
:1024800081E794E0DDCF2FE030E050E040E069EB01
:1024900070E08CEB92E00E944D108BE794E0D0CF7F
:1024A0002BE030E041E150E069EB70E088E795E037
:1024B0000E944D1084E894E0C3CF2BE030E049E166
:1024C00050E069EB70E088EB9BE00E944D1084E9DE
:1024D00094E0B6CF29E030E04EE150E069EB70E0E7
:1024E00088E097E00E944D1084EA94E0A9CF27E0AD
:1024F00030E042E350E069EB70E08CEA9DE00E943E
:102500004D1088EB94E09CCF22E030E04FE550E0A6
:1025100069EB70E080E797E10E944D108EEC94E04B
:102520008FCF1F920F920FB60F9211242F933F93CC
:102530008F939F93AF93BF938091410590914205F4
:10254000A0914305B09144053091400523E0230F4D
:102550002D3758F50196A11DB11D2093400580939C
:10256000410590934205A0934305B09344058091A3
:10257000450590914605A0914705B0914805019603
:10258000A11DB11D8093450590934605A093470575
:10259000B0934805BF91AF919F918F913F912F913B
:1025A0000F900FBE0F901F90189526E8230F0296EC
:1025B000A11DB11DD2CF1F920F920FB60F92112401
:1025C0002F933F934F935F936F937F938F939F933B
:1025D000AF93BF93EF93FF9389E495E00E942306A6
:1025E000FF91EF91BF91AF919F918F917F916F91EB
:1025F0005F914F913F912F910F900FBE0F901F90C1
:1026000018951F920F920FB60F9211242F938F934C
:102610009F93EF93FF93E0915905F0915A058081C4
:10262000E0915F05F091600582FD1BC09081809173
:1026300062058F5F8F7320916305821741F0E091EF
:102640006205F0E0E75BFA4F958F80936205FF919A
:10265000EF919F918F912F910F900FBE0F901F9030
:1026600018958081F4CF1F920F920FB60F9211240C
:102670002F933F934F935F936F937F938F939F938A
:10268000AF93BF93EF93FF93E0910001F0910101AD
:102690000995FF91EF91BF91AF919F918F917F919C
:1026A0006F915F914F913F912F910F900FBE0F90BF
:1026B0001F901895E9E4F5E01382128288EE93E00A
:1026C000A0E0B0E084839583A683B78380E592E0A1
:1026D0009183808385EC90E09587848784EC90E0FB
:1026E0009787868780EC90E0918B808B81EC90E0DF
:1026F000938B828B82EC90E0958B848B86EC90E0C0
:10270000978B868B118E128E138E148E86EE95E02B
:10271000109227061092260690932A068093290687
:1027200020E430E030932C0620932B0610922D06E7
:1027300010922E061092300610922F06109231063B
:10274000109233061092320610923506109234061B
:1027500010923706109236061092390610923806FB
:1027600010923B0610923A0610923D0610923C06DB
:1027700010923F0610923E061092450610924406B3
:10278000109247061092460610924906109248068B
:1027900010924B0610924A06109259061092580653
:1027A000109228061092660610926806109267062C
:1027B0001092AB0629E033E030934D0620934C068F
:1027C0002AE033E030934F0620934E062BE033E0AF
:1027D00030935106209350062CE033E0309353069B
:1027E000209352062DE033E0309355062093540693
:1027F0002EE033E030935706209356062FE033E067
:1028000030935B0620935A0620E133E030935D0657
:1028100020935C0625E537E030935F0620935E0643
:1028200090934106809340062EE935E0309361068F
:102830002093600690934306809342068BE193E0D9
:102840009093630680936206ECEAF6E080E1808371
:1028500080E481830895789484B5826084BD84B5D2
:10286000816084BD85B5826085BD85B5816085BD8B
:1028700080916E00816080936E0010928100809143
:1028800081008260809381008091810081608093CB
:102890008100809180008160809380008091B100F0
:1028A00084608093B1008091B00081608093B0001B
:1028B00080917A00846080937A0080917A008260AF
:1028C00080937A0080917A00816080937A00809171
:1028D0007A00806880937A001092C10088E080932B
:1028E000660680916706909168060E942B1CC09135
:1028F0006606D0E0CE0101960E948F1B9093680679
:1029000080936706FC01EC0FFD1F108212E0FC01B2
:10291000108321E02183AE014250510964EE74E03E
:1029200002960E94B41C8AE891E190932C05809352
:102930002B05E0915905F0915A051083E091590556
:10294000F0915A051082E0915505F09156051082DC
:10295000E0915705F091580580E180831092610560
:10296000E0915D05F0915E0586E08083E0915B0576
:10297000F0915C05808180618083E0915B05F0913E
:102980005C05808188608083E0915B05F0915C0547
:10299000808180688083E0915B05F0915C05808197
:1029A0008F7D80838091AB0681114EC08DE00E94A7
:1029B000DA0362ED70E080E090E00E94D50461E00F
:1029C0008DE00E94750468E270E080E090E00E9473
:1029D000D50460E08DE00E94750462ED70E080E057
:1029E00090E00E94D50461E08DE00E94750468E2E9
:1029F00070E080E090E00E94D50460E08DE00E94ED
:102A000075046AEF70E080E090E00E94D504C5E0B4
:102A100062ED70E080E090E00E94D50461E08DE01E
:102A20000E94750468E270E080E090E00E94D504A6
:102A300060E08DE00E947504C15051F76DE770E0D1
:102A400080E090E00E94D50489E495E090936506CB
:102A500080936406909327068093260686E296E08C
:102A60000E94F90386EE95E00E94E50681E10E944E
:102A7000DA0361E081E10E947504219A2998569A4F
:102A80005E98559A5D98539A5B9883E10E94DA03A9
:102A900061E083E10E94750482E10E94DA0361E053
:102AA00082E10E94750488E00E94DA0361E088E018
:102AB0000E94750480E10E94DA0361E080E10E94D7
:102AC000750487E090E00E948F1BEC0183E188830E
:102AD0001A82198200E810E01C830B831E821D827B
:102AE0000E94B20688810E94DA0361E088810E9418
:102AF0007504D0933F05C0933E0587E090E00E94A7
:102B00008F1BEC0182E188831A8219821C830B835C
:102B10001E821D820E94B20688810E94DA0361E053
:102B200088810E947504D0933D05C0933C0587E0E1
:102B300090E00E948F1BEC0188E088831A82198242
:102B40001C830B831E821D820E94B20688810E9414
:102B5000DA0361E088810E947504D0933B05C0933D
:102B60003A0561E082E00E94190A61E083E00E9478
:102B7000190A61E084E00E94190A61E085E00E9480
:102B8000190A60E086E00E94190A60E087E00E946E
:102B9000190A6CE386E00E94EA0980E180938100D3
:102BA0001092800091E09093390510928700109266
:102BB000860021E12093810024E135E0309301017A
:102BC0002093000190936F008093810087E890E04C
:102BD000909338058093370510923605109235058D
:102BE00086E480937C0080917A00806480937A00F0
:102BF00080917A0086FDFCCF809178006091790009
:102C0000762F682F072E000C880B990B6115710524
:102C10008105910511F00E94E11630E020E050E0BE
:102C200040E060E270E090E080E00E944D1080E2C1
:102C300090E00E9469100E94080568517C4F8F4FF8
:102C40009F4F6093310570933205809333059093C5
:102C500034050E9408056C507E4F8F4F9F4F609344
:102C60002D0570932E0580932F0590933005C0E0BD
:102C7000D0E00E94E1070E94440B2097D1F30E940C
:102C80000F068823B1F30E940000F3CF8F929F922A
:102C9000AF92BF92CF92DF92EF92FF92CF93DF93EA
:102CA000EC01688179818A819B81611571058105BB
:102CB000910521F464E279ED8BE597E02DE133EFA6
:102CC00041E050E00E94F31649015A019B01AC011A
:102CD000A7EAB1E40E9412176B017C01ACEEB4EFDD
:102CE000A50194010E942017C60ED71EE81EF91EEA
:102CF000F7FE06C081E0C81AD108E10880E8F80AAA
:102D0000C882D982EA82FB82C701B6019F77DF9130
:102D1000CF91FF90EF90DF90CF90BF90AF909F90BA
:102D20008F9008958F929F92AF92BF92CF92DF9231
:102D3000EF92FF9260910201709103018091040172
:102D400090910501611571058105910521F464E2F9
:102D500079ED8BE597E02DE133EF41E050E00E9403
:102D6000F31649015A019B01AC01A7EAB1E40E94A4
:102D700012176B017C01ACEEB4EFA50194010E9427
:102D80002017C60ED71EE81EF91EF7FE06C081E00A
:102D9000C81AD108E10880E8F80AC0920201D0926E
:102DA0000301E0920401F0920501C701B6019F778B
:102DB000FF90EF90DF90CF90BF90AF909F908F905B
:102DC000089560930201709303018093040190932E
:102DD00005010895FB01DC0102C005900D924150F0
:102DE0005040D8F70895052E97FB1EF400940E94DA
:102DF0000A1757FD07D00E94251707FC03D04EF491
:102E00000C940A1750954095309521953F4F4F4FA0
:102E10005F4F089590958095709561957F4F8F4F86
:102E20009F4F08950E944717A59F900DB49F900D46
:102E3000A49F800D911D11240895B7FF0C941217C3
:102E40000E941217821B930B0895A1E21A2EAA1B4F
:102E5000BB1BFD010DC0AA1FBB1FEE1FFF1FA2174A
:102E6000B307E407F50720F0A21BB30BE40BF50B47
:102E7000661F771F881F991F1A9469F760957095D0
:102E8000809590959B01AC01BD01CF010895A29F53
:102E9000B001B39FC001A39F700D811D1124911D2E
:102EA000B29F700D811D1124911D089597FB072E6F
:102EB00016F4009407D077FD09D00E94701707FC24
:102EC00005D03EF4909581959F4F0895709561953A
:102ED0007F4F0895EE0FFF1F0590F491E02D0994A8
:102EE000AA1BBB1B51E107C0AA1FBB1FA617B70730
:102EF00010F0A61BB70B881F991F5A95A9F780954C
:102F00009095BC01CD0108955058BB27AA270E9477
:102F10009C170C9477190E94691938F00E94701957
:102F200020F039F49F3F19F426F40C943F190EF465
:102F3000E095E7FB0C943919E92F0E94881958F3A2
:102F4000BA17620773078407950720F079F4A6F58E
:102F50000C94AA190EF4E0950B2EBA2FA02D0B019C
:102F6000B90190010C01CA01A0011124FF27591BCE
:102F700099F0593F50F4503E68F11A16F040A22FD4
:102F8000232F342F4427585FF3CF46953795279545
:102F9000A795F0405395C9F77EF41F16BA0B620B44
:102FA000730B840BBAF09150A1F0FF0FBB1F661F8B
:102FB000771F881FC2F70EC0BA0F621F731F841FCE
:102FC00048F4879577956795B795F7959E3F08F0F4
:102FD000B0CF9395880F08F09927EE0F97958795B6
:102FE00008950E94151908F481E008950E940A18B6
:102FF0000C9477190E94701958F00E94691940F0DA
:1030000029F45F3F29F00C94391951110C94AB1934
:103010000C943F190E94881968F39923B1F3552342
:1030200091F3951B550BBB27AA27621773078407DB
:1030300038F09F5F5F4F220F331F441FAA1FA9F371
:1030400035D00E2E3AF0E0E832D091505040E6955F
:10305000001CCAF72BD0FE2F29D0660F771F881FC0
:10306000BB1F261737074807AB07B0E809F0BB0BB3
:10307000802DBF01FF2793585F4F3AF09E3F5105C7
:1030800078F00C9439190C94AB195F3FE4F3983E37
:10309000D4F3869577956795B795F7959F5FC9F7B0
:1030A000880F911D9695879597F90895E1E0660F31
:1030B000771F881FBB1F621773078407BA0720F0AA
:1030C000621B730B840BBA0BEE1F88F7E095089513
:1030D00029F416F00C9439190C94AA190C943F1980
:1030E0000E949019A8F39638A0F707F80F92E89479
:1030F0002BE33AEA48EB5FE70E943D1A0F920F92EA
:103100000F924DB75EB70F920E94F319E8E6F0E018
:103110000E9442194F915F91EF91FF91E595EE1F4B
:10312000FF1F49F0FE57E0684427EE0F441FFA9551
:10313000E1F74195550B0E94BD190F9007FE0C94C5
:10314000B11908950E94A9186894B1110C94AB1993
:1031500008950E94901988F09F5798F0B92F9927E9
:10316000B751B0F0E1F0660F771F881F991F1AF072
:10317000BA95C9F714C0B13091F00E94AA19B1E014
:1031800008950C94AA19672F782F8827B85F39F013
:10319000B93FCCF3869577956795B395D9F73EF40B
:1031A00090958095709561957F4F8F4F9F4F0895B3
:1031B000E89409C097FB3EF49095809570956195D1
:1031C0007F4F8F4F9F4F9923A9F0F92F96E9BB2787
:1031D0009395F695879577956795B795F111F8CF03
:1031E000FAF4BB0F11F460FF1BC06F5F7F4F8F4F6E
:1031F0009F4F16C0882311F096E911C0772321F064
:103200009EE8872F762F05C0662371F096E8862FFB
:1032100070E060E02AF09A95660F771F881FDAF752
:10322000880F9695879597F90895990F0008550F7F
:10323000AA0BE0E8FEEF16161706E807F907C0F03C
:1032400012161306E407F50798F0621B730B840B44
:10325000950B39F40A2661F0232B242B252B21F41E
:1032600008950A2609F4A140A6958FEF811D811DBE
:10327000089597F99F6780E870E060E008959FEFF8
:1032800080EC0895DF93CF931F930F93FF92EF92FB
:10329000DF927B018C01689406C0DA2EEF010E9458
:1032A0003A1AFE01E894A5912591359145915591E1
:1032B000A6F3EF010E949C17FE019701A801DA9482
:1032C00069F7DF90EF90FF900F911F91CF91DF9101
:1032D000089500240A94161617061806090608957C
:1032E00000240A9412161306140605060895092EE2
:1032F0000394000C11F4882352F0BB0F40F4BF2B51
:1033000011F460FF04C06F5F7F4F8F4F9F4F089590
:1033100057FD9058440F551F59F05F3F71F0479586
:10332000880F97FB991F61F09F3F79F0879508956B
:10333000121613061406551FF2CF4695F1DF08C08A
:10334000161617061806991FF1CF869571056105A7
:1033500008940895E894BB2766277727CB0197F94F
:1033600008959B01AC0160E070E080E89FE30C945D
:10337000F6170C9439190C942A1B0E949019D8F353
:103380009923C9F3940F511DA3F39150504094F029
:1033900059F0882332F0660F771F881F91505040F4
:1033A000C1F79E3F51052CF7880F911D9695879583
:1033B00097F908955F3FACF0983E9CF0BB27869547
:1033C00077956795B79508F4B1609395C1F7BB0FF2
:1033D00058F711F460FFE8CF6F5F7F4F8F4F9F4F1B
:1033E000E3CF0C94AB19FA01DC01AA0FBB1F9B01C0
:1033F000AC01BF5728F4222733274427507820C038
:10340000B75190F4AB2F0024469537952795011CB2
:10341000A395D2F3002071F0220F331F441FB39500
:10342000DAF30ED00C94841761307105A0E88A0796
:10343000B94630F49B01AC0166277727882790783E
:10344000309621F0208331834283538308950E9474
:103450003A1A0C9477190E94691938F00E94701971
:1034600020F0952311F00C9439190C943F19112474
:103470000C94AB190E94881970F3959FC1F3950FB6
:1034800050E0551F629FF001729FBB27F00DB11DE8
:10349000639FAA27F00DB11DAA1F649F6627B00D78
:1034A000A11D661F829F2227B00DA11D621F739F61
:1034B000B00DA11D621F839FA00D611D221F749F6F
:1034C0003327A00D611D231F849F600D211D822FB6
:1034D000762F6A2F11249F5750409AF0F1F08823DD
:1034E0004AF0EE0FFF1FBB1F661F771F881F91500A
:1034F0005040A9F79E3F510580F00C9439190C9467
:10350000AB195F3FE4F3983ED4F3869577956795C2
:10351000B795F795E7959F5FC1F7FE2B880F911D33
:103520009695879597F90895FA01EE0FFF1F30964B
:1035300021053105A1F16115710561F48038BFE302
:103540009B0749F168949038810561F08038BFEF9E
:103550009B0741F099234AF5FF3FE105310521051D
:1035600019F1E8940894E795D901AA2329F4AB2F1F
:10357000BE2FF85FD0F310C0FF5F70F4A695E0F7A0
:10358000F73950F019F0FF3A38F49F779F930DD038
:103590000F9007FC9058089546F00C943F1960E096
:1035A00070E080E89FE308954FE79F775F934F9324
:1035B0003F932F930E94471B2F913F914F915F9113
:1035C0000E94271A0C94701819F416F40C943F19E1
:1035D0000C942A1B0E949019B8F39923C9F3B6F3EF
:1035E0009F57550B87FF0E94381B0024A0E640EA36
:1035F000900180585695979528F4805C660F771F48
:10360000881F20F026173707480730F4621B730B1A
:10361000840B202931294A2BA6951794079420253D
:1036200031254A2758F7660F771F881F20F0261785
:103630003707480730F4620B730B840B200D311DE4
:10364000411DA09581F7B901842F9158880F969557
:10365000879508959F3F31F0915020F48795779595
:103660006795B795880F911D9695879597F9089559
:1036700091505040660F771F881FD2F7089516F0BB
:103680000C942A1B0C943F1968940C9439190E94CD
:103690009019A8F39923C1F3AEF3DF93CF931F934F
:1036A0000F93FF92C92FDD2788232AF02197660FF9
:1036B000771F881FDAF720E030E040E85FEB9FE3F8
:1036C000883920F0803E38F021968F770E94851748
:1036D000E0E9F0E004C00E948517EDEBF0E00E9405
:1036E00042198B01BE01EC01FB2E6F5771097595D4
:1036F000771F880B990B0E94DA1828E132E741E323
:103700005FE30E943A1AAF2D9801AE01FF900F912E
:103710001F91CF91DF910E949C170C9477190F9302
:103720001F93CF93DF938230910510F482E090E0F5
:10373000E091B006F091B10630E020E0B0E0A0E00A
:10374000309799F42115310509F44AC0281B390B2B
:1037500024303105D8F58A819B816115710589F185
:10376000FB0193838283FE0111C04081518102815C
:10377000138148175907E0F04817590799F4109733
:1037800061F012960C93129713961C933296CF0108
:10379000DF91CF911F910F9108950093B006109380
:1037A000B106F4CF2115310551F04217530738F017
:1037B000A901DB019A01BD01DF01F801C1CFEF01D1
:1037C000F9CF9093B1068093B006CDCFFE01E20F02
:1037D000F31F819391932250310939832883D7CFE6
:1037E0002091AE063091AF06232B41F420910801C1
:1037F000309109013093AF062093AE062091060167
:10380000309107012115310541F42DB73EB74091A4
:103810000A0150910B01241B350BE091AE06F0918B
:10382000AF06E217F307A0F42E1B3F0B281739074A
:1038300078F0AC014E5F5F4F2417350748F04E0F0C
:103840005F1F5093AF064093AE06819391939FCF35
:10385000F0E0E0E09CCFCF93DF930097E9F0FC012C
:10386000329713821282A091B006B091B106ED0199
:1038700030E020E01097A1F420813181820F931F66
:103880002091AE063091AF062817390709F061C0C4
:10389000F093AF06E093AE06DF91CF910895EA0171
:1038A000CE17DF07E8F54A815B819E01411551057E
:1038B000B1F7E901FB83EA8349915991C40FD51F00
:1038C000EC17FD0761F4808191810296840F951FAA
:1038D000E90199838883828193819B838A83F0E0C5
:1038E000E0E012968D919C9113970097B9F52D9178
:1038F0003C911197CD010296820F931F2091AE0645
:103900003091AF062817390739F6309751F51092E4
:10391000B1061092B006B093AF06A093AE06BCCF2E
:10392000D383C28340815181840F951FC817D90763
:1039300061F44E5F5F4F88819981480F591F518311
:1039400040838A819B81938382832115310509F00D
:10395000B0CFF093B106E093B0069ECFFD01DC013D
:10396000C0CF13821282D7CFFB01DC0141505040FF
:1039700048F001900D920020C9F701C01D924150FE
:103980005040E0F70895AEE0B0E0E9ECFCE10C94C3
:103990007B1F8C01FA0186E08C831A83098377FFF1
:1039A00002C060E070E8615071097E836D83A901F7
:1039B000BF01CE0101960E94EF1C4D815E8157FD33
:1039C0000AC02F813885421753070CF49A01020F61
:1039D000131FF80110822E96E4E00C94971FABE0C1
:1039E000B0E0E5EFFCE10C946D1F7C013B018A0126
:1039F000FC0117821682838181FFC8C1CE01019626
:103A00005C01F7019381F30193FD859193FF81910F
:103A10003F01882309F453C1853239F493FD859120
:103A200093FF81913F01853229F4B70190E00E9414
:103A3000DF1EE7CF912C212C312CFFE1F31538F05C
:103A40008B3211F190F4803209F1833229F137FC85
:103A50003CC020ED280F2A3050F536FE20C08AE009
:103A6000989E200D1124922E06C08D3291F0803345
:103A700071F7689430F8F30193FD859193FF81917C
:103A80003F018111DACF21C0689431F8689432F88F
:103A9000F2CF689433F8EFCF689434F8ECCFEAE0D3
:103AA0002E9E200D1124222E689435F8E4CF8E32FC
:103AB00029F436FC04C1689436F8DDCF8C3619F44D
:103AC000689437F8D8CF8836B1F2982F9F7D9554F7
:103AD0009330E0F08336A1F18337C1F1833509F0EB
:103AE00063C02801F2E04F0E511CF801C080D18064
:103AF000692D70E036FC02C06FEF7FEFC6010E94B7
:103B0000C91E4C01689437F882010AC00C5F1F4F30
:103B1000FFE3F98388248394912C6501E89437F8B6
:103B200033FE2DC0522C8114910471F5552009F4F7
:103B300068CFB70180E290E00E94DF1E5A94F6CF72
:103B4000F801808189830E5F1F4FE4CF2801F2E0E6
:103B50004F0E511CF801C080D180692D70E036FCF9
:103B600002C06FEF7FEFC6010E94D41E4C0182019C
:103B7000D5CFB70180E290E00E94DF1E2A9428147E
:103B8000190409F0B0F7CECFF60137FC859137FE66
:103B900081916F01B70190E00E94DF1E51105A948D
:103BA000F1E08F1A9108BFCF843619F0893609F0F9
:103BB00077C0F80137FE6BC060817181828193818B
:103BC0000C5F1F4FF32DFF763F2E97FF09C0909596
:103BD0008095709561957F4F8F4F9F4F689437F810
:103BE0002AE030E0A5010E940F1FC82ECA188C2CB5
:103BF000432C36FE0CC0E89440F8C91440F434FE5F
:103C000005C032FC03C0F32DFE7E4F2E892C44FEEE
:103C100095C0FE01EC0DF11D8081803309F087C055
:103C2000242D297E422E842D8870582E43FC95C069
:103C300040FE8FC09C2C821418F42C0C922C9818E7
:103C400044FE91C0B70180E390E00E94DF1E42FE77
:103C500009C088E790E041FE02C088E590E0B70126
:103C60000E94DF1EC91408F48AC0CA94D12C9FEFA9
:103C7000C91AD90ACA0CDB1CF60182916F01B7017F
:103C800090E00E94DF1EAC14BD04B1F74FCF6081FD
:103C90007181072E000C880B990B0E5F1F4F92CF7E
:103CA000D32CE894D4F82AE030E0853739F1232D7D
:103CB000297FD22E8F3601F148F48835A9F0F7011B
:103CC000868197812B96E2E10C94891F803749F019
:103CD0008837A9F7D4FE02C06894D2F820E130E01A
:103CE0000DC06894D4F8F6CF34FE03C0822F8660EE
:103CF000D82E20E132E002C028E030E0F801D7FE03
:103D00000FC060817181828193810C5F1F4FA5017B
:103D10000E940F1FC82ECA183D2CE89437F867CFB1
:103D20006081718190E080E00E5F1F4FF0CF42FC18
:103D300002C0839478CF8394839475CF842D867842
:103D400009F471CFF6CFB70180E290E00E94DF1E48
:103D500083948214C0F3512C73CF522C58188214C0
:103D600008F46ECFF8CF842D867809F47BCF8BE2F0
:103D700041FE80E247FC8DE2B70190E071CFB701D0
:103D800080E390E00E94DF1E9A946CCF8FEF9FEF4C
:103D900099CFFC010590615070400110D8F78095D3
:103DA00090958E0F9F1F0895FC0161507040019007
:103DB0000110D8F7809590958E0F9F1F08950F934F
:103DC0001F93CF93DF93182F092FEB018B8181FD78
:103DD00009C01FEF0FEF812F902FDF91CF911F911F
:103DE0000F91089582FF14C02E813F818C819D81A7
:103DF000281739073CF4E881F981CF0101969983AE
:103E0000888310838E819F8101969F838E83E3CF69
:103E1000E885F985812F0995892BA1F3DACFFA017D
:103E2000AA27283051F1203181F1E8946F936E7FF9
:103E30006E5F7F4F8F4F9F4FAF4FB1E03ED0B4E0EA
:103E40003CD0670F781F891F9A1FA11D680F791F2B
:103E50008A1F911DA11D6A0F711D811D911DA11D3C
:103E600020D009F468943F912AE0269F112430194C
:103E7000305D3193DEF6CF010895462F4770405DE7
:103E80004193B3E00FD0C9F7F6CF462F4F70405D96
:103E90004A3318F0495D31FD4052419302D0A9F7F1
:103EA000EACFB4E0A6959795879577956795BA95EB
:103EB000C9F700976105710508959B01AC010A2EB1
:103EC00006945795479537952795BA95C9F7620F88
:103ED000731F841F951FA01D08952F923F924F922C
:103EE0005F926F927F928F929F92AF92BF92CF928A
:103EF000DF92EF92FF920F931F93CF93DF93CDB793
:103F0000DEB7CA1BDB0B0FB6F894DEBF0FBECDBF0A
:103F100009942A88398848885F846E847D848C84DB
:103F20009B84AA84B984C884DF80EE80FD800C81E4
:103F30001B81AA81B981CE0FD11D0FB6F894DEBFC7
:0C3F40000FBECDBFED010895F894FFCF37
:103F4C009D05010000000000B206800000001D006D
:103F5C00000001001E002C00000000002D00440099
:103F6C0001000000450053000000000054005900FF
:103F7C00000001005A006800000000006900800089
:103F8C000100000081008F000000000090009500EF
:103F9C00000001009600A40000000000A500BC0079
:103FAC0001000000BD00CB0000000000CC00D100DF
:103FBC0000000100D200E00000000000E100F7006A
:103FCC0001000000F80006010000000007010D01CF
:103FDC00000001000E011B01000000001C01330158
:103FEC0001000000340143010000000044014801BD
:103FFC0000000100490157010000000058016F0149
:10400C000100000070017E01000000007F018401AE
:10401C000000010085019301000000009401AB0138
:10402C0001000000AC01BA0100000000BB01C0019E
:10403C0000000100C101CF0100000000D001E90126
:10404C0001000000EA01F60100000000F701FC018C
:10405C0000000100FD010B02000000000C02230215
:10406C00010000002402320200000000330238027A
:10407C0000000100390247020000000048025E0205
:10408C00010000005F02E8030100000000000000D6
:10409C004506A505D20592060306E105F50547314F
:1040AC004F6E3D25642047314F66663D25640047C1
:1040BC00324F6E3D25642047324F66663D256400C5
:1040CC0047334F6E3D25642047334F66663D25646C
:1040DC000047344F6E3D25642047344F66663D25BE
:1040EC006400466972696E6720706572696F643D21
:1040FC00256400636F6F6C616E7474656D703D2523
:10410C00640043616C632052203D202564004765A8
:10411C007474696E6720636F6F6C616E742077695D
:10412C007065727320666F72207265736973746147
:10413C006E63653D2564004C6F7765737420523D4A
:10414C002564204E756D5461626C65456E747269A0
:10415C0065733D2564002564203C3D202564004D9D
:10416C0061746368656420523D2564202830290001
:10417C004D61746368656420523D25642028256474
:10418C0029205769706572313D2564205769706527
:10419C0072323D2564004E6F206D617463682C2073
:1041AC00757365206C6172676573742076616C75CC
:1041BC0065004D61746368656420523D2564202858
:1041CC002564290061697274656D703D2564004732
:1041DC00657474696E6720616972207769706572A5
:1041EC0020666F7220726573697374616E63653DCE
:1041FC002564004D61746368656420523D2564003C
:10420C0057697065723D25640053657420636F6F48
:10421C006C616E742074656D7020746F2025642041
:10422C004600536574206169722074656D7020744A
:10423C006F202564204600536574207468726F7477
:10424C00746C6520746F2025640053657420656E52
:10425C0067696E6520737065656420746F202564D2
:10426C002052504D005365742070756C736520643A
:10427C0077656C6C20616E676C6520746F202564AB
:10428C0020646567005475726E656420656E67699D
:10429C006E65206F666600456E67696E6520637299
:1042AC00616E6B696E672061742033303052504DF3
:1042BC0000436F6C642069646C6500486F742069FE
:1042CC00646C6500437275697365206174203330CA
:1042DC004D50480043727569736520617420373006
:1042EC004D50480047656E746C6520616363656C66
:1042FC0065726174696F6E004D6F6465726174658F
:10430C0020616363656C65726174696F6E004861EE
:10431C00726420616363656C65726174696F6E00B1
:10432C007372635C53657269616C2E63707000000C
:00000001FF
