:100000000C94BB000C94E3000C94E3000C94E3000C
:100010000C94E3000C94E3000C94E3000C94E300D4
:100020000C94E3000C94E3000C94E3000C94E300C4
:100030000C94E3000C94FD0D0C94E3000C94E3008D
:100040000C945B0D0C94E3000C94CB0D0C94A50D5B
:100050000C94E3000C94E3000C94E3000C94E30094
:100060000C94E3000C94E30007634236B79BD8A7D7
:100070001A39685618AEBAAB558C1D3CB7CC5763CD
:10008000BD6DEDFD753EF6177231BF000000803F7B
:1000900008000000BE922449123EABAAAA2ABECD97
:1000A000CCCC4C3E00000080BEABAAAAAA3E000009
:1000B0000000BF000000803F000000000008417801
:1000C000D3BB4387D1133D190E3CC3BD4282AD2B38
:1000D0003E68EC8276BED98FE1A93E4C80EFFFBE30
:1000E00001C4FF7F3F000000000020494E48472028
:1000F0002A2A2A002A2A2A20414354494F4E3A20CC
:100100004D414E55414C4C59205345542050524579
:10011000535355524520544F200000000000230047
:100120002600290000000008000201000003040767
:100130000000000000000000000000002500280072
:100140002B0000000000240027002A0004040404FF
:100150000404040402020202020203030303030371
:10016000010204081020408001020408102001024E
:1001700004081020240E11241FBECFEFD8E0DEBFEC
:10018000CDBF12E0A0E0B1E0E8EFF2E302C00590DD
:100190000D92A434B107D9F723E0A4E4B2E001C082
:1001A0001D92AB3EB207E1F710E0CBEBD0E004C00C
:1001B0002197FE010E944011CA3BD107C9F70E9456
:1001C000EF0E0C947A190C94000008950895089588
:1001D0000895089508950895862F642FE091600290
:1001E000F0916102309711F0A901099408950895E2
:1001F0001F93CF93DF93182FEB01809166039091AB
:1002000067036817790760F4809164039091650330
:10021000C80FD91F188380E0DF91CF911F910895F7
:10022000E0919303F0919403309711F481E0F4CFBF
:1002300081E08093630380917F039091800309950F
:100240008091660390916703C817D90778F7DCCFD0
:10025000CF93DF93EC01FB0130E020E0C901880F70
:10026000991F8C179D0778F44081DB014D93BD01E8
:1002700011979181979599279795942B9C932F5F30
:100280003F4F3296EBCFC901DF91CF9108950F9385
:100290001F93CF93DF938C01EB01DC018D919C9137
:1002A00068816F77DC01ED91FC910190F081E02D88
:1002B0000995F80180819181688170E0660F672F50
:1002C000661F770BDC01ED91FC910190F081E02D30
:1002D000DF91CF911F910F910994EF92FF920F93AD
:1002E0001F93CF93DF93C82F809161039091620396
:1002F0000097A9F17A018B01DC01ED91FC9101904D
:10030000F081E02D60EF0995809161039091620387
:10031000DC01ED91FC910190F081E02D6C2F0995AD
:10032000E7010E0D1F1DC017D10739F0BE0181E690
:1003300093E00E9447012196F6CF8091610390914E
:100340006203DC01ED91FC910190F081E02D67EFFB
:10035000DF91CF911F910F91FF90EF900994DF9162
:10036000CF911F910F91FF90EF90089590E0FC01C5
:10037000E05AFE4F2491845B9E4FFC0184918823B8
:1003800099F090E0880F991FFC01EE5BFE4FA5915C
:10039000B491FC01E85CFE4F859194918FB7F8947D
:1003A000EC91E22BEC938FBF0895CF93DF93FC0188
:1003B000A081B181109701F1EC01ED91FC911197B1
:1003C0000190F081E02D69EFCD0109958881998137
:1003D000DC01ED91FC910190F081E02D62E0099546
:1003E00088819981DC01ED91FC910190F081E02DF3
:1003F00065E0DF91CF910994DF91CF91089583302B
:1004000081F028F4813099F08230A9F00895873086
:10041000A9F08830C9F08430B1F4809180008F7DDC
:1004200003C0809180008F7780938000089584B509
:100430008F7784BD089584B58F7DFBCF8091B00008
:100440008F778093B00008958091B0008F7DF9CFB1
:100450001F93CF93DF93282F30E0F901EC5DFE4F1F
:100460008491F901E05AFE4FD491F901E45BFE4F0B
:10047000C491CC23A9F0162F81110E94FF01EC2F0B
:10048000F0E0EE0FFF1FE85CFE4FA591B4918FB72F
:10049000F894EC91111108C0D095DE23DC938FBF46
:1004A000DF91CF911F910895DE2BF8CFEF92FF924D
:1004B0000F931F93CF93DF93EC017B018A018D8112
:1004C0009E8101969E838D83019781F48CB58F7DEB
:1004D0008CBD8CB5837F8CBD8CB583608CBD8DB598
:1004E0008E7F8DBD60E088810E94280284E0EE0C42
:1004F000FF1C8A95E1F76894E1F8A80151705E2924
:100500005EBD00000DB407FEFDCF11E00EB401FC8E
:1005100014C010E08D819E8101979E838D83892B6D
:1005200021F461E088810E942802812FDF91CF9120
:100530001F910F91FF90EF9008954EBD00000DB4F4
:1005400007FEFDCF8EB5E6CF3FB7F89480918002CD
:1005500090918102A0918202B091830226B5A89B5E
:1005600005C02F3F19F00196A11DB11D3FBFBA2F45
:10057000A92F982F8827BC01CD01620F711D811D05
:10058000911D42E0660F771F881F991F4A95D1F78A
:1005900008958F929F92AF92BF92CF92DF92EF9287
:1005A000FF926B017C010E94A4024B015C01C1140B
:1005B000D104E104F104B9F00E94A4026819790998
:1005C0008A099B09683E73408105910580F321E00B
:1005D000C21AD108E108F10888EE880E83E0981E5F
:1005E000A11CB11CE4CFFF90EF90DF90CF90BF90A3
:1005F000AF909F908F9008952FB7F89460917C02F0
:1006000070917D0280917E0290917F022FBF0895AC
:1006100020915602309157028091520290915302DC
:100620002817390711F485B185B920915602309108
:10063000570280915002909151022817390711F406
:1006400085B185B9209156023091570280914E02B2
:1006500090914F022817390709F45D9A20915602AC
:100660003091570280914C0290914D022817390722
:1006700009F45D98209156023091570280914A0208
:1006800090914B022817390709F45E9A209156027F
:1006900030915702809148029091490228173907FA
:1006A00009F45E98209156023091570280914602DB
:1006B000909147022817390709F45B9A2091560256
:1006C00030915702809144029091450228173907D2
:1006D00009F45B988091560290915702019690938D
:1006E000570280935602209154023091550282178E
:1006F000930720F0109257021092560281E08093E7
:10070000680220E43FE1309387002093860091E166
:100710009093810028E033E03093010120930001A1
:1007200080936F0008950895009721F0805C9F4F9B
:100730000C94D5010895AF92BF92CF92DF92EF92C1
:10074000FF920F931F93CF93DF936C017B018B017B
:10075000040F151FEB015E01AE18BF08C017D107CB
:1007600059F06991D601ED91FC910190F081E02D55
:10077000C6010995892B79F7C501DF91CF911F91AA
:100780000F91FF90EF90DF90CF90BF90AF900895C2
:10079000FC01538D448D252F30E0842F90E0821B87
:1007A000930B541710F0CF96089501970895FC010C
:1007B000918D828D981761F0A28DAE0FBF2FB11D64
:1007C0005D968C91928D9F5F9F73928F90E00895BC
:1007D0008FEF9FEF0895FC01918D828D981731F076
:1007E000828DE80FF11D858D90E008958FEF9FEFCA
:1007F0000895FC01918D228D892F90E0805C9F4FA0
:10080000821B91098F739927089584E892E00E94D2
:10081000F90321E0892B09F420E0822F089580E07C
:1008200090E0892B29F00E94050481110C940000AE
:100830000895FC01A48DA80FB92FB11DA35ABF4F75
:100840002C91848D90E001968F739927848FA689CF
:10085000B7892C93A089B1898C91837080648C9323
:10086000938D848D981306C00288F389E02D8081D2
:100870008F7D80830895EF92FF920F931F93CF9304
:10088000DF93EC0181E0888F9B8D8C8D98131AC0CB
:10089000E889F989808185FF15C09FB7F894EE89B2
:1008A000FF896083E889F98980818370806480830F
:1008B0009FBF81E090E0DF91CF911F910F91FF905A
:1008C000EF900895F62E0B8D10E00F5F1F4F0F7302
:1008D0001127E02E8C8D8E110CC00FB607FCFACFBD
:1008E000E889F989808185FFF5CFCE010E9419043E
:1008F000F1CFEB8DEC0FFD2FF11DE35AFF4FF0828E
:100900009FB7F8940B8FEA89FB8980818062CFCFF3
:100910000F931F93CF93DF938C01D0E0C0E0F801D9
:10092000EC0FFD1F6491662341F084E892E00E9481
:100930003B04892B11F02196F2CFCE01DF91CF91AC
:100940001F910F910895CF93DF93EC01888D882339
:10095000B9F0AA89BB89E889F9898C9185FD03C022
:10096000808186FD0DC00FB607FCF7CF8C9185FF07
:10097000F2CF808185FFEDCFCE010E941904E9CF2F
:10098000DF91CF910895CF93CFB7F89480915F0214
:10099000811124C0E6E5F1E08491EAE6F1E094916A
:1009A000E82FF0E0EE0FFF1FEE5BFE4FA591B49134
:1009B000EC91E92321F461E08AE00E9428028AE0B8
:1009C0000E94B6018CB580618CBD8CB580648CBDF5
:1009D0008DE00E94B6018BE00E94B60180915F021B
:1009E0008F5F80935F02CFBFCF910895CF92DF9248
:1009F000EF92FF920F931F93CF93DF93FC01E05888
:100A0000FF4FE080EE2009F458C0EC01C05CDF4FDE
:100A1000A881B981109709F450C0FC01EF57FF4F2E
:100A2000C080D180F60111810081ED91FC91119778
:100A30000190F081E02D60EFCD01099588819981C9
:100A4000DC01ED91FC910190F081E02D69E70995C1
:100A500088819981DC01ED91FC910190F081E02D7C
:100A6000602F099588819981DC01ED91FC910190BD
:100A7000F081E02D612F0995F12C01E010E00F5F6E
:100A80001F4FE016F10639F0B601600F711FCE015D
:100A90000E944701F4CF88819981DC01ED91FC919E
:100AA0000190F081E02D67EFDF91CF911F910F91C1
:100AB000FF90EF90DF90CF900994DF91CF911F913D
:100AC0000F91FF90EF90DF90CF900895009711F075
:100AD0000C94F60408958F929F92AF92BF92EF927A
:100AE000FF920F931F93CF93DF93CDB7DEB7E097BD
:100AF0000FB6F894DEBF0FBECDBF4901330FAA0871
:100B0000BB0889869A86AB86BC864B01770FAA08FC
:100B1000BB088D829E82AF82B886092E000CAA0B7C
:100B2000BB0B89839A83AB83BC83C701FF0CAA0BE1
:100B3000BB0B898B9A8BAB8BBC8B052E000C660B89
:100B4000770B4D875E876F87788B198E1A8E1B8E79
:100B50001C8E1D8A1E8A1F8A188E10E030E020E04D
:100B60000D8F1E8F2F8F38A319A21AA21BA21CA2B1
:100B70001DA21EA21FA218A619A61AA61BA61CA675
:100B80001DA61EA61FA618AAAE014F5F5F4F60E309
:100B900070E080E10E946D01E0960FB6F894DEBF30
:100BA0000FBECDBFDF91CF911F910F91FF90EF90BE
:100BB000BF90AF909F908F900895EF92FF920F9308
:100BC000E0906602F0906702209162023091630229
:100BD000409164025091650260915D0270915E02E5
:100BE0000091580280917502909176020E946B05E7
:100BF0000F91FF90EF900895FF920F931F93CF9363
:100C0000DF93FF24F394C2E0D0E001E010E0809194
:100C10009F039091A003DC01ED91FC910084F1858C
:100C2000E02D0995892B09F4CEC180919F03909105
:100C3000A003DC01ED91FC910284F385E02D099580
:100C40009C018F3F980719F3982F80916C0388239C
:100C500009F492C0973F09F07EC010926C03A091F6
:100C60006403B09165036C916137C1F1693709F094
:100C70005CC0E0919903F0919A03309741F2809122
:100C80006D0390916E038330910560F430E020E0B5
:100C900050E040E070E060E080917B0390917C0345
:100CA0000995B5CFBD016D5F7F4F03970E94280165
:100CB000BC016D5F7F4F80E00E94F800E09164030B
:100CC000F09165039F012D5F3F4F428150E06181AC
:100CD00070E0E0919903F0919A03DECF8091950343
:100CE00090919603892B09F492CFBD016F5F7F4FDE
:100CF00080916D0390916E0301970E942801BC01C1
:100D00006F5F7F4F80E00E94F800609164037091F4
:100D100065036F5F7F4FE0919503F091960380919B
:100D2000810390918203099572CFE0919703F0912E
:100D30009803309709F46BCF9D012F5F3F4F40918F
:100D40006D0350916E03415051098091830390913E
:100D5000840309955CCF60916D0370916E03822FBF
:100D60000E94F80080916D0390916E03019690931C
:100D70006E0380936D034BCF60916A0370916B0398
:100D80006115710509F4B1C027FDAFC0615071094B
:100D900070936B0360936A03822F0E94F800809126
:100DA0006A0390916B03892B09F031CF809168031E
:100DB000882309F42CCF803D09F483C040F48039A6
:100DC00049F1803C09F469C01092680320CF843F48
:100DD000E1F1853F09F44DC0803EB1F7E091870312
:100DE000F0918803309781F3A0916403B09165037B
:100DF0004C9120E8429FC001112411964C91480F5C
:100E0000592F511D6091690380916F039091700378
:100E10000995DACFE0918903F0918A033097A1F226
:100E2000A0916403B09165034C9120E8429FC001FA
:100E3000112411964C91480F592F511D609169034F
:100E40008091710390917203E3CFE0918F03F09151
:100E50009003309709F4B8CFA0916403B091650373
:100E60004C9150E011966C918091770390917803AA
:100E7000CFCFE0919103F0919203309709F4A4CF82
:100E8000A0916403B09165034C9150E011966C9170
:100E90008091790390917A03BBCFE0918B03F0911D
:100EA0008C03309709F490CFA0916403B09165034F
:100EB0004C9150E0609169038091730390917403A9
:100EC000A7CFE0918D03F0918E03309709F47CCF8A
:100ED000A0916403B09165034C9150E06091690367
:100EE000809175039091760393CF903F30F4822FD9
:100EF0008F7080936903922F907F903FF1F190F46F
:100F0000903CB1F150F4903909F081CED0936B034D
:100F1000C0936A03909368037ACE903D49F1903E66
:100F2000A9F375CE993F09F442C028F48CE0890FEB
:100F3000823060F36CCE9F3F09F069CE10926B0354
:100F400010926A03109268031092690390E080E0A7
:100F5000209166033091670382179307A8F4E0910C
:100F60006403F0916503E80FF91F10820196F0CF3A
:100F700010936B0300936A03CDCFF0926C03109231
:100F80006E0310926D0343CE10926C0310926E03A9
:100F900010926D03E0919D03F0919E038091850373
:100FA00090918603309709F432CE099530CEE091C6
:100FB0009B03F0919C03309709F429CE80917D0327
:100FC00090917E03F2CFDF91CF911F910F91FF900F
:100FD00008958F929F92AF92BF92CF92DF92EF923D
:100FE000FF920F93CF93DF93C0906402D09065027D
:100FF000C816D90609F45CC0C816D9064CF510927B
:101000005C0210925B02EC0180915B0290915C02A9
:10101000892B09F049C0CC15DD050CF445C00E94B0
:10102000FC024B015C0124E1820E911CA11CB11C4D
:101030000E94FC02681579058A059B0580F06819F5
:1010400079098A099B0997FF14C00E94FC05F0CF1B
:1010500021E030E030935C0220935B02D4CFA50105
:101060009401261B370B480B590BDA01C901B7FF56
:10107000ECCFE0906602F09067022091620230911E
:10108000630260915D0270915E0200915802A601B8
:1010900080917502909176020E946B050E94FC057A
:1010A0003FEFC31AD30AB7CFD0936502C09364024F
:1010B000DF91CF910F91FF90EF90DF90CF90BF9095
:1010C000AF909F908F9008954F925F926F927F9212
:1010D0008F929F92AF92BF92CF92DF92EF92FF9248
:1010E000CF93DF93CDB7DEB764970FB6F894DEBF2A
:1010F0000FBECDBF20E12093810025B125B95D98B9
:101100005E985B9890937602809375021816190684
:101110000CF03FC1BC01A0906602B0906702072EA0
:10112000000C880B990B0E94B01220E030E040E7E1
:1011300052E40E94CC1120E030E040E05FE30E94E6
:10114000FD139B01AC0160E070E080E89FE30E942A
:10115000CC1120E030E04AE754E40E94FD130E94E5
:101160007F12709355026093540290E080E00E94D9
:10117000AE126B017C01B501BB0C880B990B0E9470
:10118000B0129B01AC010E945B1120E030E044E30F
:1011900054E40E94CC11A70196010E94FD134B015B
:1011A0005C0120E030E040E85EE3C701B6010E9448
:1011B000FD1369877A878B879C8720E030E040E0C9
:1011C0005FE3C701B6010E94FD136D877E878F879D
:1011D000988B20E030E040E45FE3C701B6010E9455
:1011E000FD13698B7A8B8B8B9C8B20E030E0A901FF
:1011F000C501B4010E945B1169837A838B839C8350
:101200009B01AC01C701B6010E94C71187FF0CC04A
:10121000A701960169817A818B819C810E945A1174
:1012200069837A838B839C8329853A854B855C858A
:10123000C501B4010E945B116D837E838F83988703
:101240009B01AC01C701B6010E94C71187FF0CC00A
:10125000A70196016D817E818F8198850E945A1128
:101260006D837E838F8398872D853E854F85588932
:10127000C501B4010E945B112B013C01AC019B0133
:10128000C701B6010E94C71187FF08C0A7019601D8
:10129000C301B2010E945A112B013C0129893A89EC
:1012A0004B895C89C501B4010E945B114B015C0153
:1012B000AC019B01C701B6010E94C71187FF08C09E
:1012C000A7019601C501B4010E945A114B015C01AE
:1012D000109253021092520269817A818B819C8113
:1012E0000E947F12709351026093500269857A8543
:1012F0008B859C850E947F1270934F0260934E02F3
:101300006D817E818F8198850E947F1270934D023E
:1013100060934C026D857E858F8598890E947F122F
:1013200070934B0260934A02C301B2010E947F1284
:10133000709349026093480269897A898B899C89F4
:101340000E947F127093470260934602C501B40168
:101350000E947F12709345026093440210925702DC
:101360001092560281E08093680280E49FE190939E
:1013700087008093860081E1809381001092810034
:1013800010928500109284008091680280618093A1
:10139000810064960FB6F894DEBF0FBECDBFDF911B
:1013A000CF91FF90EF90DF90CF90BF90AF909F9044
:1013B0008F907F906F905F904F9008958F929F9243
:1013C000AF92BF920F931F93CF93DF93CDB7DEB74A
:1013D000A1970FB6F894DEBF0FBECDBF19A2423061
:1013E00008F44AE08E010F5D1F4F842E912CB12C22
:1013F000A12CA50194010E941E11E62FB901CA017A
:10140000EA3044F5E05DD801EE938D01232B242BC7
:10141000252B79F790E080E0109769F0FD010190AD
:101420000020E9F73197AF014A1B5B0BBD0184E84F
:1014300092E00E949B03A1960FB6F894DEBF0FBE08
:10144000CDBFDF91CF911F910F91BF90AF909F9033
:101450008F900895E95CD7CFEF92FF920F931F937F
:10146000CF93DF93CDB7DEB7C058D1090FB6F8944C
:10147000DEBF0FBECDBF9E0127573F4FF9014191FF
:1014800051919F0160E870E08E010F5F1F4FC8010E
:101490000E9499167C01F80101900020E9F731972C
:1014A000BF01601B710BA80181E70E946D01C7019C
:1014B000C058DF4F0FB6F894DEBF0FBECDBFDF912F
:1014C000CF911F910F91FF90EF9008954F925F92EF
:1014D0006F927F928F929F92AF92BF92CF92DF9244
:1014E000EF92FF9290935E0280935D029C012052E6
:1014F000310945E0429FC001439F900D112469E0EE
:1015000070E00E940A11072E000C880B990B0E94B4
:10151000B01223E333E948E853E40E945B119B01D6
:10152000AC0160E070E080E89FE30E94CC119B0179
:10153000AC0169EE7EE98AEA9AE30E945A1121EE33
:1015400031EC49E354E30E94CC116B017C01AC0106
:101550009B010E94FD1320E030E040E85EE30E9422
:10156000FD1321E23EE44CEE5CE40E945B110E941C
:10157000C0144B015C0120E030E040E05FE3C701B4
:10158000B6010E94FD136B017C01AC019B01C501FA
:10159000B4010E945A112BEA3AEA4AEA5EE30E9439
:1015A0006A142B013C01A7019601C501B4010E94F8
:1015B0005B112BEA3AEA4AEA5EE30E946A149B0155
:1015C000AC01C301B2010E945A110E9446120E944E
:1015D0007812683782E1780714F067E772E16F30BC
:1015E000710514F46FE070E0695E7109072E000C5C
:1015F000880B990B0E94B0122091690230916A0207
:1016000040916B0250916C020E94CC110E947812A2
:1016100077FF02C070E060E08091710290917202E9
:101620006F3F710519F014F06FEF70E0FC0123813A
:101630003481AB012617370708F4A901FC01618149
:101640007281FF90EF90DF90CF90BF90AF909F900E
:101650008F907F906F905F904F900C9456024F92B6
:101660005F926F927F928F929F92AF92BF92CF9232
:10167000DF92EF92FF9290936302809362029C014B
:101680002052310945E0429FC001439F900D112433
:1016900069E070E00E940A11072E000C880B990B7C
:1016A0000E94B01223E333E948E853E40E945B113F
:1016B0009B01AC0160E070E080E89FE30E94CC11E8
:1016C0009B01AC0160E075ED8CEE9AE30E945A112B
:1016D0002AE736E145E255E30E94CC116B017C011B
:1016E000AC019B010E94FD1320E030E040E85EE386
:1016F0000E94FD1328EE3BE44DE25AE40E945B1188
:101700000E94C0144B015C0120E030E040E05FE348
:10171000C701B6010E94FD136B017C01AC019B0166
:10172000C501B4010E945A112BEA3AEA4AEA5EE383
:101730000E946A142B013C01A7019601C501B40166
:101740000E945B112BEA3AEA4AEA5EE30E946A14BD
:101750009B01AC01C301B2010E945A110E944612C2
:101760000E947812693782E1780714F068E772E125
:101770006031710514F460E170E0685E7109072E54
:10178000000C880B990B0E94B01220916D023091D1
:101790006E0240916F02509170020E94CC110E9423
:1017A000781277FF02C070E060E080917302909140
:1017B00074026F3F710519F014F06FEF70E0FC01D7
:1017C00023813481AB012617370708F4A901FC01F6
:1017D00061817281FF90EF90DF90CF90BF90AF90CA
:1017E0009F908F907F906F905F904F900C945602D7
:1017F000CF92DF92EF92FF920F93CF93DF937B0113
:101800006A01E9010E94640880915D0290915E0284
:10181000E816F90619F0C7010E94660AC6010E947F
:10182000E907CF3FDC07C1F084EF90E00E94880415
:101830004AE0BE010D2E000C880B990B0E94DE09B8
:101840008AEE90E00E94880442E050E06AE171E094
:1018500084E892E00E949B03D0935A02C0935902FD
:1018600000935802DF91CF910F91FF90EF90DF909E
:10187000CF9008950F9300E02FEF3FEF50E040E04E
:1018800068E470E090E080E00E94F80B0F9108950A
:10189000EF92FF920F931F93CF93DF93E82EF62ED4
:1018A000EA01EFEFE80FEF30B0F4F0E0E65AF34F63
:1018B0000C944011690CDE0CEB0CF90C070D150DA6
:1018C000230D310D3F0D4D0D770C920CAE0CA30C7A
:1018D000B90C0E94DD056F2D70E0AE018E2DDF91F9
:1018E000CF911F910F91FF90EF900C946D010881A3
:1018F000198180915D0290915E020817190719F015
:10190000C8010E94660A1F930F938DE191E09F9397
:101910008F930E942C0A0E94DD050F900F900F906C
:101920000F90D9CF08811981809162029091630252
:101930000817190719F0C8010E942F0B1F930F9366
:1019400086E391E0E4CF18810981812F902F0E94D6
:10195000E9070F931F938BE491E0D9CF1881098198
:10196000812F902F0E9464080F931F938EE591E0C2
:10197000CECF1881812F90E087329105E4F09093CB
:1019800067028093660280916602909167028234BA
:10199000914034F081E491E0909367028093660275
:1019A00080917502909176020E9464081F921F93A5
:1019B00089E791E0ACCF87E290E0E1CF0E943A0C5A
:1019C00089E991E09F938F930E942C0A0E94DD0584
:1019D0000F900F9080CF01E02FEF3FEF50E040E0FD
:1019E00068E470E08CE291E00E94F80B8BEA91E0F1
:1019F000E9CF00E02FE030E050E040E068E470E044
:101A000080EB94E00E94F80B85EC91E0DBCF00E0E6
:101A10002FE030E050E040E069EB70E08CEB92E0CA
:101A20000E94F80B8FEC91E0CDCF00E02BE030E08E
:101A300041E150E069EB70E088E795E00E94F80B27
:101A400088ED91E0BFCF00E02BE030E049E150E0CD
:101A500069EB70E088EB9BE00E94F80B88EE91E068
:101A6000B1CF00E029E030E04EE150E069EB70E0FA
:101A700088E097E00E94F80B88EF91E0A3CF00E0A8
:101A800027E030E042E350E069EB70E08CEA9DE053
:101A90000E94F80B8CE092E095CF00E022E030E06D
:101AA0004FE550E069EB70E080E797E10E94F80BAA
:101AB00082E292E087CF1F920F920FB60F9211240D
:101AC0002F933F938F939F93AF93BF9380917C020B
:101AD00090917D02A0917E02B0917F0230917B02B5
:101AE00023E0230F2D3758F50196A11DB11D20933A
:101AF0007B0280937C0290937D02A0937E02B09340
:101B00007F028091800290918102A0918202B09127
:101B100083020196A11DB11D8093800290938102E2
:101B2000A0938202B0938302BF91AF919F918F9156
:101B30003F912F910F900FBE0F901F90189526E8A0
:101B4000230F0296A11DB11DD2CF1F920F920FB687
:101B50000F9211242F933F934F935F936F937F9333
:101B60008F939F93AF93BF93EF93FF9384E892E09B
:101B70000E941904FF91EF91BF91AF919F918F91B6
:101B80007F916F915F914F913F912F910F900FBE79
:101B90000F901F9018951F920F920FB60F9211245D
:101BA0002F938F939F93EF93FF93E0919402F09183
:101BB00095028081E0919A02F0919B0282FD1BC008
:101BC000908180919D028F5F8F7320919E0282177A
:101BD00041F0E0919D02F0E0EC57FD4F958F80932E
:101BE0009D02FF91EF919F918F912F910F900FBECA
:101BF0000F901F9018958081F4CF1F920F920FB60F
:101C00000F9211242F933F934F935F936F937F9382
:101C10008F939F93AF93BF93EF93FF93E091000156
:101C2000F09101010995FF91EF91BF91AF919F91C3
:101C30008F917F916F915F914F913F912F910F9075
:101C40000FBE0F901F901895E4E8F2E01382128205
:101C500088EE93E0A0E0B0E084839583A683B78309
:101C60008CE091E09183808385EC90E09587848778
:101C700084EC90E09787868780EC90E0918B808B56
:101C800081EC90E0938B828B82EC90E0958B848B3F
:101C900086EC90E0978B868B118E128E138E148EAD
:101CA00081E293E0109262031092610390936503C6
:101CB0008093640320E430E030936703209366034D
:101CC000109268031092690310926B0310926A03DA
:101CD00010926C0310926E0310926D0310927003B9
:101CE00010926F031092720310927103109274039A
:101CF000109273031092760310927503109278037A
:101D00001092770310927A03109279031092800355
:101D100010927F0310928203109281031092840329
:101D200010928303109286031092850310929403FD
:101D300010929303109263031092A1031092A303D5
:101D40001092A2031092E60325EE30E03093880350
:101D50002093870326EE30E030938A032093890393
:101D600027EE30E030938C0320938B0328EE30E095
:101D700030938E0320938D0329EE30E0309390034F
:101D800020938F032AEE30E0309392032093910347
:101D90002BEE30E030939603209395032CEE30E049
:101DA000309398032093970326E635E030939A0307
:101DB0002093990390937C0380937B0324E933E081
:101DC00030939C0320939B0390937E0380937D0329
:101DD00087EF90E090939E0380939D0308957894FD
:101DE00084B5826084BD84B5816084BD85B5826020
:101DF00085BD85B5816085BD80916E0081608093D1
:101E00006E00109281008091810082608093810039
:101E10008091810081608093810080918000816049
:101E2000809380008091B10084608093B1008091A4
:101E3000B00081608093B00080917A0084608093CC
:101E40007A0080917A00826080937A0080917A0093
:101E5000816080937A0080917A00806880937A0014
:101E60001092C10088E08093A1038091A203909119
:101E7000A3030E940116C091A103D0E0CE010196F8
:101E80000E9465159093A3038093A203FC01EC0FBD
:101E9000FD1F108212E0FC0110831182AE0142503E
:101EA000510968E372E002960E948A1688E49CE079
:101EB0009093610280936002E0919402F091950208
:101EC0001083E0919402F09195021082E0919002CB
:101ED000F09191021082E0919202F091930280E1E0
:101EE000808310929C02E0919802F091990286E022
:101EF0008083E0919602F0919702808180618083D7
:101F0000E0919602F0919702808188608083E09151
:101F10009602F0919702808180688083E09196021A
:101F2000F091970280818F7D80838091E6038111FB
:101F30004EC08DE00E94B60162ED70E080E090E05E
:101F40000E94C90261E08DE00E94280268E270E010
:101F500080E090E00E94C90260E08DE00E942802CB
:101F600062ED70E080E090E00E94C90261E08DE0E7
:101F70000E94280268E270E080E090E00E94C902BE
:101F800060E08DE00E9428026AEF70E080E090E05F
:101F90000E94C902C5E062ED70E080E090E00E941E
:101FA000C90261E08DE00E94280268E270E080E0F2
:101FB00090E00E94C90260E08DE00E942802C150BA
:101FC00051F76DE770E080E090E00E94C90284E87C
:101FD00092E09093A00380939F0390936203809379
:101FE000610381E693E00E94D50181E293E00E94C3
:101FF000F60481E10E94B60161E081E10E942802BD
:1020000084B184B985B185B9559A5D98569A5E9820
:10201000539A5B9883E10E94B60161E083E10E94DC
:10202000280282E10E94B60161E082E10E9428025A
:1020300087E090E00E946515EC0183E188831A82B5
:10204000198200E011E01C830B831E821D820E9416
:10205000C30488810E94B60161E088810E94280241
:10206000D0937402C093730287E090E00E946515DC
:10207000EC0182E188831A8219821C830B831E8201
:102080001D820E94C30488810E94B60161E088819C
:102090000E942802D0937202C093710280E090E403
:1020A000A3E9B1E480936D0290936E02A0936F0256
:1020B000B09370028093690290936A02A0936B02BE
:1020C000B0936C0280E1809381001092800091E0D7
:1020D00090936802109287001092860021E120936D
:1020E000810028E033E030930101209300019093B8
:1020F0006F008093810087E890E09093670280935F
:10210000660210926502109264020E943A0C80915D
:102110006202909163028834910521F088E490E096
:102120000E942F0B0E94FC0268517C4F8F4F9F4FE3
:1021300060937702709378028093790290937A0289
:1021400005E311E091E7E92E91E0F92E2DE5C22E8D
:1021500021E0D22EC0E0D0E00E94FC058090770202
:1021600090907802A0907902B0907A020E94FC02CE
:10217000681579058A059B0578F0681979098A0937
:102180009B0997FF0FC0209739F30E94050488230D
:1021900019F30E940000E0CF861A970AA80AB90A2C
:1021A000B7FEF1CFF8018491F701A490F601B49045
:1021B000BB2079F081110E94FF01EB2DF0E0EE0FC2
:1021C000FF1FE65EFE4FA591B4918C91A82260E0BE
:1021D00009F461E081E10E942802809175029091EA
:1021E0007602181619067CF40E94FC0266507F4F96
:1021F0008F4F9F4F6093770270937802809379029C
:1022000090937A02C0CF0E94FC0268517C4F8F4F9E
:102210009F4FF0CF97FB072E16F4009407D077FD61
:1022200009D00E94461107FC05D03EF49095819597
:102230009F4F0895709561957F4F0895A1E21A2EE2
:10224000AA1BBB1BFD010DC0AA1FBB1FEE1FFF1F5A
:10225000A217B307E407F50720F0A21BB30BE40BAA
:10226000F50B661F771F881F991F1A9469F76095F1
:102270007095809590959B01AC01BD01CF010895AB
:10228000EE0FFF1F0590F491E02D0994AA1BBB1BD4
:1022900051E107C0AA1FBB1FA617B70710F0A61B66
:1022A000B70B881F991F5A95A9F780959095BC0187
:1022B000CD0108955058BB27AA270E9472110C9493
:1022C0004D130E943F1338F00E94461320F039F45A
:1022D0009F3F19F426F40C9415130EF4E095E7FBD8
:1022E0000C940F13E92F0E945E1358F3BA1762077C
:1022F00073078407950720F079F4A6F50C948013F2
:102300000EF4E0950B2EBA2FA02D0B01B901900110
:102310000C01CA01A0011124FF27591B99F0593F54
:1023200050F4503E68F11A16F040A22F232F342F9C
:102330004427585FF3CF469537952795A795F040EA
:102340005395C9F77EF41F16BA0B620B730B840BFF
:10235000BAF09150A1F0FF0FBB1F661F771F881FB7
:10236000C2F70EC0BA0F621F731F841F48F487950F
:1023700077956795B795F7959E3F08F0B0CF939501
:10238000880F08F09927EE0F9795879508950E947A
:10239000EB1208F481E008950E94E0110C944D13B3
:1023A0000E94461358F00E943F1340F029F45F3F0B
:1023B00029F00C940F1351110C9481130C941513E4
:1023C0000E945E1368F39923B1F3552391F3951B93
:1023D000550BBB27AA2762177307840738F09F5F46
:1023E0005F4F220F331F441FAA1FA9F335D00E2EB3
:1023F0003AF0E0E832D091505040E695001CCAF720
:102400002BD0FE2F29D0660F771F881FBB1F2617E2
:1024100037074807AB07B0E809F0BB0B802DBF01B9
:10242000FF2793585F4F3AF09E3F510578F00C9488
:102430000F130C9481135F3FE4F3983ED4F3869519
:1024400077956795B795F7959F5FC9F7880F911DA9
:102450009695879597F90895E1E0660F771F881F95
:10246000BB1F621773078407BA0720F0621B730B48
:10247000840BBA0BEE1F88F7E095089529F416F047
:102480000C940F130C9480130C9415130E94661374
:10249000A8F39638A0F707F80F92E8942BE33AEAEE
:1024A00048EB5FE70E9413140F920F920F924DB703
:1024B0005EB70F920E94C913E8E6F0E00E9418137D
:1024C0004F915F91EF91FF91E595EE1FFF1F49F04E
:1024D000FE57E0684427EE0F441FFA95E1F7419557
:1024E000550B0E9493130F9007FE0C9487130895C9
:1024F0000E947F126894B1110C94811308950E9478
:10250000661388F09F5798F0B92F9927B751B0F00C
:10251000E1F0660F771F881F991F1AF0BA95C9F767
:1025200014C0B13091F00E948013B1E008950C9472
:102530008013672F782F8827B85F39F0B93FCCF325
:10254000869577956795B395D9F73EF490958095E4
:10255000709561957F4F8F4F9F4F0895E89409C004
:1025600097FB3EF490958095709561957F4F8F4FC6
:102570009F4F9923A9F0F92F96E9BB279395F695DC
:10258000879577956795B795F111F8CFFAF4BB0F5A
:1025900011F460FF1BC06F5F7F4F8F4F9F4F16C0BE
:1025A000882311F096E911C0772321F09EE8872F48
:1025B000762F05C0662371F096E8862F70E060E004
:1025C0002AF09A95660F771F881FDAF7880F96957D
:1025D000879597F90895990F0008550FAA0BE0E821
:1025E000FEEF16161706E807F907C0F012161306D5
:1025F000E407F50798F0621B730B840B950B39F415
:102600000A2661F0232B242B252B21F408950A267A
:1026100009F4A140A6958FEF811D811D089597F9BA
:102620009F6780E870E060E008959FEF80EC089578
:10263000DF93CF931F930F93FF92EF92DF927B0173
:102640008C01689406C0DA2EEF010E941014FE017E
:10265000E894A5912591359145915591A6F3EF0107
:102660000E947211FE019701A801DA9469F7DF90C8
:10267000EF90FF900F911F91CF91DF91089500246B
:102680000A941616170618060906089500240A94D7
:1026900012161306140605060895092E0394000C5D
:1026A00011F4882352F0BB0F40F4BF2B11F460FFEC
:1026B00004C06F5F7F4F8F4F9F4F089557FD905815
:1026C000440F551F59F05F3F71F04795880F97FBF6
:1026D000991F61F09F3F79F08795089512161306B0
:1026E0001406551FF2CF4695F1DF08C016161706DF
:1026F0001806991FF1CF8695710561050894089514
:10270000E894BB2766277727CB0197F908959B01AB
:10271000AC0160E070E080E89FE30C94CC110C9475
:102720000F130C9400150E946613D8F39923C9F374
:10273000940F511DA3F39150504094F059F0882309
:1027400032F0660F771F881F91505040C1F79E3FAF
:1027500051052CF7880F911D9695879597F9089547
:102760005F3FACF0983E9CF0BB27869577956795C8
:10277000B79508F4B1609395C1F7BB0F58F711F402
:1027800060FFE8CF6F5F7F4F8F4F9F4FE3CF0C9479
:102790008113FA01DC01AA0FBB1F9B01AC01BF57DB
:1027A00028F4222733274427507820C0B75190F4CB
:1027B000AB2F0024469537952795011CA395D2F39E
:1027C000002071F0220F331F441FB395DAF30ED0AF
:1027D0000C945A1161307105A0E88A07B94630F4AB
:1027E0009B01AC016627772788279078309621F0E7
:1027F000208331834283538308950E9410140C94E4
:102800004D130E943F1338F00E94461320F0952389
:1028100011F00C940F130C94151311240C948113C4
:102820000E945E1370F3959FC1F3950F50E0551F02
:10283000629FF001729FBB27F00DB11D639FAA2715
:10284000F00DB11DAA1F649F6627B00DA11D661F64
:10285000829F2227B00DA11D621F739FB00DA11D85
:10286000621F839FA00D611D221F749F3327A00D3F
:10287000611D231F849F600D211D822F762F6A2FDB
:1028800011249F5750409AF0F1F088234AF0EE0F40
:10289000FF1FBB1F661F771F881F91505040A9F76D
:1028A0009E3F510580F00C940F130C9481135F3FF1
:1028B000E4F3983ED4F3869577956795B795F795A9
:1028C000E7959F5FC1F7FE2B880F911D9695879521
:1028D00097F90895FA01EE0FFF1F30962105310593
:1028E000A1F16115710561F48038BFE39B0749F1DF
:1028F00068949038810561F08038BFEF9B0741F004
:1029000099234AF5FF3FE1053105210519F1E894C6
:102910000894E795D901AA2329F4AB2FBE2FF85FBD
:10292000D0F310C0FF5F70F4A695E0F7F73950F0D0
:1029300019F0FF3A38F49F779F930DD00F9007FC62
:102940009058089546F00C94151360E070E080E80C
:102950009FE308954FE79F775F934F933F932F93A4
:102960000E941D152F913F914F915F910E94FD1381
:102970000C94461219F416F40C9415130C940015CB
:102980000E946613B8F39923C9F3B6F39F57550B0A
:1029900087FF0E940E150024A0E640EA90018058AF
:1029A0005695979528F4805C660F771F881F20F056
:1029B00026173707480730F4621B730B840B202956
:1029C00031294A2BA69517940794202531254A27AB
:1029D00058F7660F771F881F20F02617370748071C
:1029E00030F4620B730B840B200D311D411DA0953B
:1029F00081F7B901842F9158880F9695879508958E
:102A00009F3F31F0915020F4879577956795B79562
:102A1000880F911D9695879597F90895915050408C
:102A2000660F771F881FD2F7089516F00C940015D3
:102A30000C94151368940C940F130E946613A8F35A
:102A40009923C1F3AEF3DF93CF931F930F93FF92BC
:102A5000C92FDD2788232AF02197660F771F881F4B
:102A6000DAF720E030E040E85FEB9FE3883920F0C0
:102A7000803E38F021968F770E945B11E0E9F0E00C
:102A800004C00E945B11EDEBF0E00E9418138B0173
:102A9000BE01EC01FB2E6F5771097595771F880BEE
:102AA000990B0E94B01228E132E741E35FE30E94F4
:102AB0001014AF2D9801AE01FF900F911F91CF918F
:102AC000DF910E9472110C944D130F931F93CF93BB
:102AD000DF938230910510F482E090E0E091E90309
:102AE000F091EA0330E020E0B0E0A0E0309799F404
:102AF0002115310509F44AC0281B390B2430310552
:102B0000D8F58A819B816115710589F1FB01938359
:102B10008283FE0111C040815181028113814817D7
:102B20005907E0F04817590799F4109761F0129689
:102B30000C93129713961C933296CF01DF91CF918D
:102B40001F910F9108950093E9031093EA03F4CFC6
:102B50002115310551F04217530738F0A901DB0167
:102B60009A01BD01DF01F801C1CFEF01F9CF9093C8
:102B7000EA038093E903CDCFFE01E20FF31F8193B7
:102B800091932250310939832883D7CF2091E703CD
:102B90003091E803232B41F4209104013091050189
:102BA0003093E8032093E703209102013091030161
:102BB0002115310541F42DB73EB7409106015091E2
:102BC0000701241B350BE091E703F091E803E217BE
:102BD000F307A0F42E1B3F0B2817390778F0AC0140
:102BE0004E5F5F4F2417350748F04E0F5F1F50931D
:102BF000E8034093E703819391939FCFF0E0E0E0F7
:102C00009CCFCF93DF930097E9F0FC0132971382BA
:102C10001282A091E903B091EA03ED0130E020E0D7
:102C20001097A1F420813181820F931F2091E70337
:102C30003091E8032817390709F061C0F093E803E1
:102C4000E093E703DF91CF910895EA01CE17DF0704
:102C5000E8F54A815B819E0141155105B1F7E90113
:102C6000FB83EA8349915991C40FD51FEC17FD07E7
:102C700061F4808191810296840F951FE901998307
:102C80008883828193819B838A83F0E0E0E01296BF
:102C90008D919C9113970097B9F52D913C911197C7
:102CA000CD010296820F931F2091E7033091E80334
:102CB0002817390739F6309751F51092EA03109228
:102CC000E903B093E803A093E703BCCFD383C283A7
:102CD00040815181840F951FC817D90761F44E5F59
:102CE0005F4F88819981480F591F518340838A81A2
:102CF0009B81938382832115310509F0B0CFF09336
:102D0000EA03E093E9039ECFFD01DC01C0CF13820B
:102D10001282D7CFFB01DC014150504048F00190B6
:102D20000D920020C9F701C01D9241505040E0F7BC
:102D30000895AEE0B0E0EFE9F6E10C9451198C0192
:102D4000FA0186E08C831A83098377FF02C060E072
:102D500070E8615071097E836D83A901BF01CE01C6
:102D600001960E94C5164D815E8157FD0AC02F81D4
:102D70003885421753070CF49A01020F131FF8010C
:102D800010822E96E4E00C946D19ABE0B0E0EBEC11
:102D9000F6E10C9443197C013B018A01FC01178286
:102DA0001682838181FFC8C1CE0101965C01F701C3
:102DB0009381F30193FD859193FF81913F018823D6
:102DC00009F453C1853239F493FD859193FF8191C4
:102DD0003F01853229F4B70190E00E94B518E7CF92
:102DE000912C212C312CFFE1F31538F08B3211F1AD
:102DF00090F4803209F1833229F137FC3CC020ED98
:102E0000280F2A3050F536FE20C08AE0989E200D0B
:102E10001124922E06C08D3291F0803371F76894A0
:102E200030F8F30193FD859193FF81913F0181116A
:102E3000DACF21C0689431F8689432F8F2CF689400
:102E400033F8EFCF689434F8ECCFEAE02E9E200DF3
:102E50001124222E689435F8E4CF8E3229F436FC02
:102E600004C1689436F8DDCF8C3619F4689437F8CD
:102E7000D8CF8836B1F2982F9F7D95549330E0F0EB
:102E80008336A1F18337C1F1833509F063C028018E
:102E9000F2E04F0E511CF801C080D180692D70E026
:102EA00036FC02C06FEF7FEFC6010E949F184C01F5
:102EB000689437F882010AC00C5F1F4FFFE3F98363
:102EC00088248394912C6501E89437F833FE2DC053
:102ED000522C8114910471F5552009F468CFB70183
:102EE00080E290E00E94B5185A94F6CFF8018081F4
:102EF00089830E5F1F4FE4CF2801F2E04F0E511C73
:102F0000F801C080D180692D70E036FC02C06FEFFF
:102F10007FEFC6010E94AA184C018201D5CFB701EC
:102F200080E290E00E94B5182A942814190409F050
:102F3000B0F7CECFF60137FC859137FE81916F0156
:102F4000B70190E00E94B51851105A94F1E08F1A21
:102F50009108BFCF843619F0893609F077C0F8019F
:102F600037FE6BC060817181828193810C5F1F4F3E
:102F7000F32DFF763F2E97FF09C0909580957095B1
:102F800061957F4F8F4F9F4F689437F82AE030E06C
:102F9000A5010E94E518C82ECA188C2C432C36FEB9
:102FA0000CC0E89440F8C91440F434FE05C032FC6B
:102FB00003C0F32DFE7E4F2E892C44FE95C0FE01EA
:102FC000EC0DF11D8081803309F087C0242D297E0E
:102FD000422E842D8870582E43FC95C040FE8FC031
:102FE0009C2C821418F42C0C922C981844FE91C03E
:102FF000B70180E390E00E94B51842FE09C088E75F
:1030000090E041FE02C088E590E0B7010E94B5184B
:10301000C91408F48AC0CA94D12C9FEFC91AD90ADE
:10302000CA0CDB1CF60182916F01B70190E00E948F
:10303000B518AC14BD04B1F74FCF60817181072E74
:10304000000C880B990B0E5F1F4F92CFD32CE89486
:10305000D4F82AE030E0853739F1232D297FD22EAC
:103060008F3601F148F48835A9F0F7018681978100
:103070002B96E2E10C945F19803749F08837A9F765
:10308000D4FE02C06894D2F820E130E00DC068940C
:10309000D4F8F6CF34FE03C0822F8660D82E20E10C
:1030A00032E002C028E030E0F801D7FE0FC06081B6
:1030B0007181828193810C5F1F4FA5010E94E518E9
:1030C000C82ECA183D2CE89437F867CF608171810B
:1030D00090E080E00E5F1F4FF0CF42FC02C083946F
:1030E00078CF8394839475CF842D867809F471CF3B
:1030F000F6CFB70180E290E00E94B5188394821465
:10310000C0F3512C73CF522C5818821408F46ECF90
:10311000F8CF842D867809F47BCF8BE241FE80E2E4
:1031200047FC8DE2B70190E071CFB70180E390E0FA
:103130000E94B5189A946CCF8FEF9FEF99CFFC0146
:103140000590615070400110D8F7809590958E0FD2
:103150009F1F0895FC016150704001900110D8F745
:10316000809590958E0F9F1F08950F931F93CF9377
:10317000DF93182F092FEB018B8181FD09C01FEF11
:103180000FEF812F902FDF91CF911F910F91089515
:1031900082FF14C02E813F818C819D8128173907C1
:1031A0003CF4E881F981CF010196998388831083EB
:1031B0008E819F8101969F838E83E3CFE885F98579
:1031C000812F0995892BA1F3DACFFA01AA2728309C
:1031D00051F1203181F1E8946F936E7F6E5F7F4FE4
:1031E0008F4F9F4FAF4FB1E03ED0B4E03CD0670F60
:1031F000781F891F9A1FA11D680F791F8A1F911DB3
:10320000A11D6A0F711D811D911DA11D20D009F402
:1032100068943F912AE0269F11243019305D319344
:10322000DEF6CF010895462F4770405D4193B3E02D
:103230000FD0C9F7F6CF462F4F70405D4A3318F0D4
:10324000495D31FD4052419302D0A9F7EACFB4E085
:10325000A6959795879577956795BA95C9F700973D
:103260006105710508959B01AC010A2E06945795DE
:10327000479537952795BA95C9F7620F731F841F35
:10328000951FA01D08952F923F924F925F926F92CB
:103290007F928F929F92AF92BF92CF92DF92EF92E6
:1032A000FF920F931F93CF93DF93CDB7DEB7CA1B67
:1032B000DB0B0FB6F894DEBF0FBECDBF09942A8892
:1032C000398848885F846E847D848C849B84AA843A
:1032D000B984C884DF80EE80FD800C811B81AA81C7
:1032E000B981CE0FD11D0FB6F894DEBF0FBECDBF92
:0832F000ED010895F894FFCFF1
:1032F80093030000EB038000000000003B049B03E5
:10330800C803A304F903D703EB030D0A005365743C
:1033180020636F6F6C616E742074656D7020746FBC
:103328002025642046005365742061697220746505
:103338006D7020746F2025642046005365742074D6
:1033480068726F74746C6520746F2025640053650F
:103358007420656E67696E65207370656564207496
:103368006F2025642052504D005365742070756C91
:103378007365206477656C6C20616E676C6520747A
:103388006F20256420646567005475726E6564203B
:10339800656E67696E65206F666600456E67696E63
:1033A80065206372616E6B696E67206174203330CB
:1033B8003052504D00436F6C642069646C6500485E
:1033C8006F742069646C6500437275697365206168
:1033D800742033304D50480043727569736520611D
:1033E800742037304D50480047656E746C65206115
:1033F8006363656C65726174696F6E004D6F6465B7
:103408007261746520616363656C65726174696F6C
:103418006E004861726420616363656C65726174F3
:10342800696F6E007372635C53657269616C2E63B9
:0434380070700000B0
:00000001FF
