:100000000C94DF020C9407030C9407030C94070371
:100010000C9407030C9407030C9407030C94070338
:100020000C9407030C9407030C9407030C94070328
:100030000C9407030C9484140C9407030C9407038A
:100040000C94E2130C9407030C9452140C942C148B
:100050000C9407030C9407030C9407030C940703F8
:100060000C9407030C94070307634236B79BD8A789
:100070001A39685618AEBAAB558C1D3CB7CC5763CD
:10008000BD6DEDFD753EF6177231BF000000803F7B
:1000900008000000BE922449123EABAAAA2ABECD97
:1000A000CCCC4C3E00000080BEABAAAAAA3E000009
:1000B0000000BF000000803F000000000008417801
:1000C000D3BB4387D1133D190E3CC3BD4282AD2B38
:1000D0003E68EC8276BED98FE1A93E4C80EFFFBE30
:1000E00001C4FF7F3F000000000000830201A9025D
:1000F00002CE0203F302041A030540030665030758
:100100008A0308AD0309D2030AF7030B1C040C434E
:10011000040D68040E8D040FB20410D50411FA0406
:10012000121F05134405146A05158F0516B305172C
:10013000D80518F905191D061A41061B65061C8A03
:10014000061DAD061ECF061FF20620120721350739
:1001500022560723770724990725B907261608276B
:100160003E08285C080000FC04010022050200474C
:100170000503006C05040091050500B5050600DACD
:10018000050700FF0508002006090043060A00686D
:10019000060B008C060C00AE060D00D1060E00F317
:1001A000060F0014071000350711005607120077DC
:1001B00007130097071400B8071500200816004819
:1001C0000817007008180098081900B6081A00DE11
:1001D000081B0006091C002E091D004C091E007496
:1001E000091F009C092000C4092100E20922000A1D
:1001F0000A2300320A24005A0A2500780A2600A0A1
:100200000A2700C80A2800F00A29000E0B2A003627
:100210000B2B005E0B2C00860B2D00A40B2E00CCAC
:100220000B2F00F40B3000120C31003A0C3200623C
:100230000C3300800C3400A80C3500D00C3600F8CC
:100240000C3700200D38003E0D3900660D3A008E47
:100250000D3B00AC0D3C00D40D3D00FC0D3E001AE2
:100260000E3F00420E40006A0E4100880E4200B070
:100270000E4300D80E4400F60E45001E0F46004601
:100280000F47006E0F48008C0F4900B40F4A00DC86
:100290000F4B00FA0F4C0022104D004A104E006820
:1002A000104F0090105000B8105100D6105200FEB0
:1002B00010530026115400441155006C115600943F
:1002C000115700B2115800DA11590002125A0020D9
:1002D000125B0048125C0070125D008E125E00B668
:1002E000125F00D4126000FC12610024136200420D
:1002F0001363006A13640088136500B0136600D8A6
:10030000136700F61368001E1469003C146A006449
:10031000146B0082146C00AA146D00C8146E00F0F7
:10032000146F001815700036157100541572007C9A
:100330001573009A157400C2157500E01576000853
:10034000167700261678004E1679006C167A0094FF
:10035000167B00B2167C00DA167D00F8167E0016B9
:10036000177F003E177F0166177F0284177F03A265
:10037000177F04CA177F05E8177F0610187F072E1E
:10038000187F084C187F096A187F0A92187F0BB0F3
:10039000187F0CCE187F0DEC187F0E14197F0F32CA
:1003A000197F1050197F116E197F128C197F13AAB3
:1003B000197F14D2197F15F0197F160E1A7F172C8A
:1003C0001A7F18401A7F19681A7F1A861A7F1B9A9B
:1003D0001A7F1CC21A7F1DE01A7F1EFE1A7F1F1C87
:1003E0001B7F20301B7F214E1B7F226C1B7F238AAB
:1003F0001B7F24A81B7F25C61B7F26E41B7F27F8B5
:100400001B7F28161C7F29341C7F2A481C7F2B66E3
:100410001C7F2C841C7F2DA21C7F2EB61C7F2FD40A
:100420001C7F30E81C7F31061D7F321A1D7F333858
:100430001D7F34561D7F356A1D7F36881D7F379C92
:100440001D7F38B01D7F39CE1D7F3AE21D7F3BF600
:100450001D7F3C141E7F3D281E7F3E461E7F3F5A57
:100460001E7F406E1E7F41821E7F42A01E7F43B4CE
:100470001E7F44C81E7F45DC1E7F46F01E7F470E50
:100480001F7F48221F7F49361F7F4A4A1F7F4B5ECE
:100490001F7F4C721F7F4D861F7F4E9A1F7F4FAE6E
:1004A0001F7F50C21F7F51D61F7F52EA1F7F53FE0E
:1004B0001F7F5412207F5526207F563A207F574EAB
:1004C000207F5862207F5976207F5A80207F5B945E
:1004D000207F5CA8207F5DBC207F5ED0207F5FDA1C
:1004E000207F60EE207F6102217F6216217F6320E2
:1004F000217F6434217F6548217F6652217F6766B2
:10050000217F687A217F698E217F6A98217F6BAC79
:10051000217F6CB6217F6DCA217F6ED4217F6FE869
:10052000217F70F2217F7106227F7210227F732457
:10053000227F742E227F7542227F764C227F776045
:10054000227F786A227F7974227F7A88227F7B9249
:10055000227F7CA6227F7DB0227F7EBA227F7FCE43
:1005600022000000002300260029000000000800EF
:10057000020100000304070000000000000000006A
:10058000000000250028002B0000000000240027A8
:10059000002A000404040404040404020202020207
:1005A0000203030303030301020408102040800137
:1005B000020408102001020408102000AB141124CA
:1005C0001FBECFEFD8E0DEBFCDBF14E0A0E0B1E0AA
:1005D000E6E1F2E402C005900D92A035B107D9F72B
:1005E00026E0A0E5B4E001C01D92A432B207E1F715
:1005F00012E0CFEDD2E004C02197FE010E94CF1897
:10060000CE3DD107C9F70E947E150C9409210C94A8
:10061000000008950895089508950895089508958F
:10062000862F642FE0917704F0917804309711F0D1
:10063000A9010994089508950F931F93CF93DF9311
:100640008C01EB01DC018D919C9168816F77DC015D
:10065000ED91FC910190F081E02D0995F8018081E8
:100660009181688170E0660F672F661F770BDC0150
:10067000ED91FC910190F081E02DDF91CF911F91E0
:100680000F910994EF92FF920F931F93CF93DF93F3
:10069000C82F8091790590917A050097A9F17A0188
:1006A0008B01DC01ED91FC910190F081E02D60EF78
:1006B00009958091790590917A05DC01ED91FC9185
:1006C0000190F081E02D6C2F0995E7010E0D1F1DA3
:1006D000C017D10739F0BE0189E795E00E941C03DD
:1006E0002196F6CF8091790590917A05DC01ED9104
:1006F000FC910190F081E02D67EFDF91CF911F9188
:100700000F91FF90EF900994DF91CF911F910F917E
:10071000FF90EF9008951F93CF93DF93182FEB0175
:1007200080917E0590917F056817790760F480912C
:100730007C0590917D05C80FD91F188380E0DF915B
:10074000CF911F910895E091AB05F091AC053097E2
:1007500011F481E0F4CF81E080937B0580919705CF
:1007600090919805099580917E0590917F05C81715
:10077000D90778F7DCCFCF93DF93EC01FB0130E0B2
:1007800020E0C901880F991F8C179D0778F44081DC
:10079000DB014D93BD01119791819795992797950D
:1007A000942B9C932F5F3F4F3296EBCFC901DF9183
:1007B000CF91089590E0FC01E955FA4F24918D56B0
:1007C0009A4FFC018491882399F090E0880F991F3B
:1007D000FC01E757FA4FA591B491FC01E158FA4F9B
:1007E000859194918FB7F894EC91E22BEC938FBFA5
:1007F0000895CF93DF93FC01A081B181109701F19F
:10080000EC01ED91FC9111970190F081E02D69EFE1
:10081000CD01099588819981DC01ED91FC910190D0
:10082000F081E02D62E0099588819981DC01ED91EC
:10083000FC910190F081E02D65E0DF91CF9109946A
:10084000DF91CF910895833081F028F4813099F0C1
:100850008230A9F008958730A9F08830C9F084303B
:10086000B1F4809180008F7D03C0809180008F77EC
:1008700080938000089584B58F7784BD089584B5F2
:100880008F7DFBCF8091B0008F778093B00008956B
:100890008091B0008F7DF9CF1F93CF93DF93282FE6
:1008A00030E0F901E559FA4F8491F901E955FA4F21
:1008B000D491F901ED56FA4FC491CC23A9F0162F2B
:1008C00081110E942304EC2FF0E0EE0FFF1FE1588E
:1008D000FA4FA591B4918FB7F894EC91111108C01B
:1008E000D095DE23DC938FBFDF91CF911F910895C8
:1008F000DE2BF8CF61E08091FF050C944C0481E57C
:100900008CBD1DBC60E08091FF050C944C043FB78A
:10091000F8948091980490919904A0919A04B091D0
:100920009B0426B5A89B05C02F3F19F00196A11D79
:10093000B11D3FBFBA2FA92F982F8827BC01CD0129
:10094000620F711D811D911D42E0660F771F881F88
:10095000991F4A95D1F708958F929F92AF92BF92B7
:10096000CF92DF92EF92FF926B017C010E9487048D
:100970004B015C01C114D104E104F104B9F00E94FF
:100980008704681979098A099B09683E73408105C3
:10099000910580F321E0C21AD108E108F10888EE40
:1009A000880E83E0981EA11CB11CE4CFFF90EF904D
:1009B000DF90CF90BF90AF909F908F9008952FB70A
:1009C000F8946091940470919504809196049091AC
:1009D00097042FBF089520916204309163048091A1
:1009E0005E0490915F042817390709F4299A209131
:1009F00062043091630480915C0490915D04281737
:100A0000390709F429982091620430916304809198
:100A10005A0490915B042817390709F45E9A2091D3
:100A2000620430916304809158049091590428170E
:100A3000390709F45E982091620430916304809133
:100A40005604909157042817390709F45D9A2091AC
:100A500062043091630480915404909155042817E6
:100A6000390709F45D982091620430916304809104
:100A70005204909153042817390709F45B9A209186
:100A800062043091630480915004909151042817BE
:100A9000390709F45B988091620490916304019690
:100AA0009093630480936204209160043091610408
:100AB0008217930720F0109263041092620481E081
:100AC00080938C0420E43FE13093870020938600DC
:100AD00091E1909381002BEE34E03093010120935B
:100AE000000180936F0008950895009721F0805CC5
:100AF0009F4F0C94F9030895AF92BF92CF92DF926B
:100B0000EF92FF920F931F93CF93DF936C017B01C2
:100B10008B01040F151FEB015E01AE18BF08C01753
:100B2000D10759F06991D601ED91FC910190F081C6
:100B3000E02DC6010995892B79F7C501DF91CF9189
:100B40001F910F91FF90EF90DF90CF90BF90AF90EB
:100B50000895FC01538D448D252F30E0842F90E0C3
:100B6000821B930B541710F0CF96089501970895A8
:100B7000FC01918D828D981761F0A28DAE0FBF2F71
:100B8000B11D5D968C91928D9F5F9F73928F90E0C7
:100B900008958FEF9FEF0895FC01918D828D981736
:100BA00031F0828DE80FF11D858D90E008958FEF73
:100BB0009FEF0895FC01918D228D892F90E0805C3C
:100BC0009F4F821B91098F73992708958CE994E0B8
:100BD0000E94DA0521E0892B09F420E0822F089594
:100BE00080E090E0892B29F00E94E60581110C94A9
:100BF00000000895FC01A48DA80FB92FB11DA35AC0
:100C0000BF4F2C91848D90E001968F739927848F2C
:100C1000A689B7892C93A089B1898C91837080644F
:100C20008C93938D848D981306C00288F389E02DF0
:100C300080818F7D80830895EF92FF920F931F93A1
:100C4000CF93DF93EC0181E0888F9B8D8C8D98137F
:100C50001AC0E889F989808185FF15C09FB7F8948B
:100C6000EE89FF896083E889F989808183708064D7
:100C700080839FBF81E090E0DF91CF911F910F9122
:100C8000FF90EF900895F62E0B8D10E00F5F1F4F31
:100C90000F731127E02E8C8D8E110CC00FB607FC40
:100CA000FACFE889F989808185FFF5CFCE010E94CE
:100CB000FA05F1CFEB8DEC0FFD2FF11DE35AFF4F3D
:100CC000F0829FB7F8940B8FEA89FB89808180625C
:100CD000CFCFCF93DF93EC01888D8823B9F0AA8919
:100CE000BB89E889F9898C9185FD03C0808186FDE7
:100CF0000DC00FB607FCF7CF8C9185FFF2CF808136
:100D000085FFEDCFCE010E94FA05E9CFDF91CF91AB
:100D10000895CF93CFB7F89480917604811124C0C1
:100D2000EDE9F5E08491E1EBF5E09491E82FF0E056
:100D3000EE0FFF1FE757FA4FA591B491EC91E9230D
:100D400021F461E08AE00E944C048AE00E94DA0308
:100D50008CB580618CBD8CB580648CBD8DE00E94AB
:100D6000DA038BE00E94DA03809176048F5F809330
:100D70007604CFBFCF910895CF92DF92EF92FF928A
:100D80000F931F93CF93DF93FC01E058FF4FE08058
:100D9000EE2009F458C0EC01C05CDF4FA881B98196
:100DA000109709F450C0FC01EF57FF4FC080D1806D
:100DB000F60111810081ED91FC9111970190F08174
:100DC000E02D60EFCD01099588819981DC01ED91DD
:100DD000FC910190F081E02D69E709958881998166
:100DE000DC01ED91FC910190F081E02D602F0995DF
:100DF00088819981DC01ED91FC910190F081E02DD9
:100E0000612F0995F12C01E010E00F5F1F4FE016F4
:100E1000F10639F0B601600F711FCE010E941C036C
:100E2000F4CF88819981DC01ED91FC910190F081F2
:100E3000E02D67EFDF91CF911F910F91FF90EF9021
:100E4000DF90CF900994DF91CF911F910F91FF9088
:100E5000EF90DF90CF900895009711F00C94BC06AE
:100E600008954F925F926F927F928F929F92AF926E
:100E7000BF92CF92DF92EF92FF920F931F93CF9387
:100E8000DF93CDB7DEB768970FB6F894DEBF0FBE1D
:100E9000CDBFC0907404D09075048090720490907F
:100EA0007304409188045091890480916E0490915C
:100EB0006F0400918A0410918B0440906C04509050
:100EC0006D04052C000C6608770849865A866B86E7
:100ED0007C86092C000CAA08BB088D829E82AF82FA
:100EE000B8860D2C000CEE08FF08C982DA82EB826E
:100EF000FC82012E000C220B330B098B1A8B2B8BDF
:100F00003C8B052E000C660B770B4D875E876F8739
:100F1000788B092E000CAA0BBB0B8D8B9E8BAF8B95
:100F2000B88FAE014F5F5F4F68E170E080E10E94D3
:100F3000420368960FB6F894DEBF0FBECDBFDF91B7
:100F4000CF911F910F91FF90EF90DF90CF90BF90C6
:100F5000AF909F908F907F906F905F904F9008958B
:100F6000FF920F931F93CF93DF93FF24F394C2E07C
:100F7000D0E001E010E08091B7059091B805DC0168
:100F8000ED91FC910084F185E02D0995892B09F400
:100F9000CEC18091B7059091B805DC01ED91FC912F
:100FA0000284F385E02D09959C018F3F980719F382
:100FB000982F80918405882309F492C0973F09F007
:100FC0007EC010928405A0917C05B0917D056C9146
:100FD0006137C1F1693709F05CC0E091B105F0916A
:100FE000B205309741F28091850590918605833056
:100FF000910560F430E020E050E040E070E060E017
:1010000080919305909194050995B5CFBD016D5FD1
:101010007F4F03970E94BB03BC016D5F7F4F80E051
:101020000E948B03E0917C05F0917D059F012D5F6F
:101030003F4F428150E0618170E0E091B105F09155
:10104000B205DECF8091AD059091AE05892B09F4F4
:1010500092CFBD016F5F7F4F80918505909186058E
:1010600001970E94BB03BC016F5F7F4F80E00E942D
:101070008B0360917C0570917D056F5F7F4FE091E0
:10108000AD05F091AE058091990590919A0509956D
:1010900072CFE091AF05F091B005309709F46BCFB6
:1010A0009D012F5F3F4F409185055091860541502E
:1010B000510980919B0590919C0509955CCF6091A9
:1010C000850570918605822F0E948B03809185058E
:1010D00090918605019690938605809385054BCF68
:1010E00060918205709183056115710509F4B1C0A5
:1010F00027FDAFC06150710970938305609382052D
:10110000822F0E948B038091820590918305892B09
:1011100009F031CF80918005882309F42CCF803DE0
:1011200009F483C040F4803949F1803C09F469C076
:101130001092800520CF843FE1F1853F09F44DC036
:10114000803EB1F7E0919F05F091A005309781F3C3
:10115000A0917C05B0917D054C9120E8429FC00193
:10116000112411964C91480F592F511D6091810502
:1011700080918705909188050995DACFE091A105C6
:10118000F091A2053097A1F2A0917C05B0917D0568
:101190004C9120E8429FC001112411964C91480FB8
:1011A000592F511D609181058091890590918A0583
:1011B000E3CFE091A705F091A805309709F4B8CFE7
:1011C000A0917C05B0917D054C9150E011966C91F9
:1011D00080918F0590919005CFCFE091A905F09176
:1011E000AA05309709F4A4CFA0917C05B0917D05A4
:1011F0004C9150E011966C918091910590919205DF
:10120000BBCFE091A305F091A405309709F490CFEE
:10121000A0917C05B0917D054C9150E060918105D5
:1012200080918B0590918C05A7CFE091A505F09159
:10123000A605309709F47CCFA0917C05B0917D057F
:101240004C9150E06091810580918D0590918E05C3
:1012500093CF903F30F4822F8F7080938105922F2F
:10126000907F903FF1F190F4903CB1F150F49039BF
:1012700009F081CED0938305C093820590938005B9
:101280007ACE903D49F1903EA9F375CE993F09F48D
:1012900042C028F48CE0890F823060F36CCE9F3F0F
:1012A00009F069CE10928305109282051092800594
:1012B0001092810590E080E020917E0530917F05BD
:1012C00082179307A8F4E0917C05F0917D05E80F63
:1012D000F91F10820196F0CF1093830500938205C9
:1012E000CDCFF0928405109286051092850543CEED
:1012F000109284051092860510928505E091B5053F
:10130000F091B60580919D0590919E05309709F466
:1013100032CE099530CEE091B305F091B405309707
:1013200009F429CE8091950590919605F2CFDF9131
:10133000CF911F910F91FF9008958EBD00000DB4C5
:1013400007FEFDCF8EB50895CF93C82F0E947F046E
:101350008091000681600E949D098C2F0E949D094A
:1013600080E00E949D09C82F0E947A048C2FCF91A3
:101370000895CF93DF93D82FC62F0E947F048091CA
:1013800000060E949D098D2F0E949D098C2F0E94AE
:101390009D09DF91CF910C947A04CF93DF93D82FDE
:1013A000C62F8AE00E94A40961E070E00D2E01C002
:1013B000660F0A94EAF7609568238C2F01C0880FA6
:1013C000DA95EAF7682B8AE0DF91CF910C94B9099E
:1013D0001F93CF93DF93C1E0D0E001C0CC0F8A957B
:1013E000EAF71C2F109580E0613091F00E94A4096B
:1013F0006C2F682B80E00E94B90986E00E94A40946
:10140000682F612386E0DF91CF911F910C94B90979
:101410000E94A409C0956C2F6823ECCFEF92FF9235
:101420000F931F93CF93DF93EC010B811C81601707
:10143000710708F48B01E980FA808D819E81019605
:101440009E838D83019781F48CB58F7D8CBD8CB587
:10145000837F8CBD8CB583608CBD8DB58E7F8DBD3B
:1014600060E088810E944C0484E0EE0CFF1C8A95A9
:10147000E1F76894E1F811701E29812F0E949D09FF
:10148000FF24F39481FD14C0F12C8D819E8101977E
:101490009E838D83892B21F461E088810E944C0416
:1014A0008F2DDF91CF911F910F91FF90EF900895B5
:1014B000802F0E949D09E9CF4F925F926F927F9299
:1014C0008F929F92AF92BF92CF92DF92EF92FF9254
:1014D000CF93DF93CDB7DEB764970FB6F894DEBF36
:1014E0000FBECDBF20E12093810029985E985D98C2
:1014F0005B989093750480937404181619060CF089
:101500003FC1BC01A0908A04B0908B04072E000C50
:10151000880B990B0E943F1A20E030E040E752E42C
:101520000E945B1920E030E040E05FE30E948C1BEA
:101530009B01AC0160E070E080E89FE30E945B19D2
:1015400020E030E04AE754E40E948C1B0E940E1A0F
:10155000709361046093600490E080E00E943D1A03
:101560006B017C01B501BB0C880B990B0E943F1AE3
:101570009B01AC010E94EA1820E030E044E354E40F
:101580000E945B19A70196010E948C1B4B015C0114
:1015900020E030E040E85EE3C701B6010E948C1B0A
:1015A00069877A878B879C8720E030E040E05FE3A3
:1015B000C701B6010E948C1B6D877E878F87988B31
:1015C00020E030E040E45FE3C701B6010E948C1BDD
:1015D000698B7A8B8B8B9C8B20E030E0A901C50155
:1015E000B4010E94EA1869837A838B839C839B01F0
:1015F000AC01C701B6010E94561987FF0CC0A701B4
:10160000960169817A818B819C810E94E9186983A6
:101610007A838B839C8329853A854B855C85C501BC
:10162000B4010E94EA186D837E838F8398879B01A3
:10163000AC01C701B6010E94561987FF0CC0A70173
:1016400096016D817E818F8198850E94E9186D8356
:101650007E838F8398872D853E854F855889C50168
:10166000B4010E94EA182B013C01AC019B01C701A7
:10167000B6010E94561987FF08C0A7019601C30151
:10168000B2010E94E9182B013C0129893A894B8952
:101690005C89C501B4010E94EA184B015C01AC01F0
:1016A0009B01C701B6010E94561987FF08C0A70118
:1016B0009601C501B4010E94E9184B015C0110922A
:1016C0005F0410925E0469817A818B819C810E9403
:1016D0000E1A70935D0460935C0469857A858B852E
:1016E0009C850E940E1A70935B0460935A046D816E
:1016F0007E818F8198850E940E1A709359046093A1
:1017000058046D857E858F8598890E940E1A709386
:10171000570460935604C301B2010E940E1A7093DD
:1017200055046093540469897A898B899C890E9445
:101730000E1A7093530460935204C501B4010E94C1
:101740000E1A709351046093500410926304109227
:10175000620481E080938C0480E49FE19093870091
:101760008093860081E18093810010928100109225
:1017700085001092840080918C04806180938100A8
:1017800064960FB6F894DEBF0FBECDBFDF91CF9148
:10179000FF90EF90DF90CF90BF90AF909F908F9091
:1017A0007F906F905F904F900895CF93DF93893E25
:1017B00023E0920714F088EE93E097FF02C090E0D8
:1017C00080E0ECE0F1E0D0E0C0E04081518184179E
:1017D00095071CF14281538148175907F4F083E0C3
:1017E000CC0FDD1F8A95E1F7FE01E45FFE4F848197
:1017F000958161E0019709F060E083E00E94CD09E6
:10180000C45FDE4F8E819F8161E0019709F060E047
:1018100082E0DF91CF910C94CD0921963896C832A1
:10182000D10599F6DF91CF910895CF93DF93EC0125
:10183000459734F461E084E00E94CD0960E008C07F
:1018400060E084E00E94CD0961E0CA32D340B4F385
:1018500085E0DF91CF910C94CD09CF92DF92EF928A
:10186000FF926B017C010E94DF046C157D058E05E3
:101870009F05C0F09B01AC012C193D094E095F0981
:1018800069017A01C094D094E094F094CC24F7FCE0
:10189000C394DD24EE24FF248C2DFF90EF90DF9085
:1018A000CF900895C61AD70AE80AF90AEFCFEF9247
:1018B000FF920F931F93CF93DF93CDB7DEB7C0583E
:1018C000D1090FB6F894DEBF0FBECDBF9E012757DA
:1018D0003F4FF901419151919F0160E870E08E0105
:1018E0000F5F1F4FC8010E94281E7C01F801019064
:1018F0000020E9F73197BF01601B710BA80181E758
:101900000E944203C701C058DF4F0FB6F894DEBFF4
:101910000FBECDBFDF91CF911F910F91FF90EF9040
:101920000895CF93DF9320917404309175041216BB
:10193000130694F4EC010E94F71720E233E040E034
:1019400050E00E945818645A744D8F4F9F4F79830E
:101950006883DF91CF910895FC0111821082F9CF45
:101960004F925F926F927F928F929F92AF92BF92AF
:10197000CF92DF92EF92FF920F931F93CF93DF935B
:1019800000D000D0CDB7DEB78636910514F085E6DD
:1019900090E08F30910514F48FE090E09093730401
:1019A000809372049C012052310945E0429FC0019E
:1019B000439F900D112469E070E00E94BB18072E30
:1019C000000C880B990B0E943F1A23E333E948E887
:1019D00053E40E94EA189B01AC0160E070E080E8EB
:1019E0009FE30E945B199B01AC0169EE7EE98AEAE4
:1019F0009AE30E94E91821EE31EC49E354E30E9496
:101A00005B196B017C01AC019B010E948C1B20E0E7
:101A100030E040E85EE30E948C1B21E23EE44CEEA5
:101A20005CE40E94EA180E944F1C4B015C0120E01C
:101A300030E040E05FE3C701B6010E948C1B6B0100
:101A40007C01AC019B01C501B4010E94E9182BEA9D
:101A50003AEA4AEA5EE30E94F91B2B013C01A70126
:101A60009601C501B4010E94EA182BEA3AEA4AEA53
:101A70005EE30E94F91B9B01AC01C301B2010E940D
:101A8000E9180E94D5190E94071A7B0144E050E032
:101A900065E671E0CE0101960E944F188B819C8112
:101AA0008E159F0530F1698170E00A8110E0809108
:101AB0008F04909190040E940E0AB80180918D04C9
:101AC00090918E040E940E0A0F900F900F900F902D
:101AD000DF91CF911F910F91FF90EF90DF90CF900A
:101AE000BF90AF909F908F907F906F905F904F903E
:101AF000089505E611E081E6C82E85E0D82E44E081
:101B000050E0B801CE0101960E944F188B819C8154
:101B10008E159F0540F60C5F1F4FC016D10679F752
:101B200044E050E06DE575E0CE0101960E944F184B
:101B3000BACF4F925F926F927F928F929F92AF92A5
:101B4000BF92CF92DF92EF92FF920F931F93CF93AA
:101B5000DF9300D01F92CDB7DEB78132910514F02C
:101B600080E290E08B3E2FEF920714F48BEE9FEF14
:101B700090936D0480936C049C012052310945E0E0
:101B8000429FC001439F900D112469E070E00E94C4
:101B9000BB18072E000C880B990B0E943F1A23E3F9
:101BA00033E948E853E40E94EA189B01AC0160E085
:101BB00070E080E89FE30E945B199B01AC0160E04C
:101BC00075ED8CEE9AE30E94E9182AE736E145E2CA
:101BD00055E30E945B196B017C01AC019B010E94E3
:101BE0008C1B20E030E040E85EE30E948C1B28EE76
:101BF0003BE44DE25AE40E94EA180E944F1C4B015C
:101C00005C0120E030E040E05FE3C701B6010E94E4
:101C10008C1B6B017C01AC019B01C501B4010E94CE
:101C2000E9182BEA3AEA4AEA5EE30E94F91B2B0123
:101C30003C01A7019601C501B4010E94EA182BEAF4
:101C40003AEA4AEA5EE30E94F91B9B01AC01C30138
:101C5000B2010E94E9180E94D5190E94071A7B015F
:101C600043E050E06AEE70E0CE0101960E944F180A
:101C70008A819B818E159F05E0F0698170E08091DB
:101C80009104909192040E940E0A0F900F900F9071
:101C9000DF91CF911F910F91FF90EF90DF90CF9048
:101CA000BF90AF909F908F907F906F905F904F907C
:101CB00008950AEE10E043E050E0B801CE0101962D
:101CC0000E944F188A819B818E159F05B0F60D5F8B
:101CD0001F4F81E00536180771F743E050E062E6D8
:101CE00071E0CE0101960E944F18C7CF8F929F924C
:101CF000AF92BF92CF92DF92EF92FF920F931F931A
:101D0000CF93DF93CDB7DEB760970FB6F894DEBF01
:101D10000FBECDBF609183047091840480918504CF
:101D2000909186040E942D0C882309F434C0ECE7BE
:101D3000F5E08491E8EBF5E00491E4EAF5E0149134
:101D4000112379F081110E942304E12FF0E0EE0FBE
:101D5000FF1FEF59FA4FA591B491EC91E02360E099
:101D600009F461E081E10E944C0480917404909137
:101D70007504181619060CF017C20E94DF0466508D
:101D80007F4F8F4F9F4F60938304709384048093A1
:101D900085049093860484E694E00E94910C86E684
:101DA00094E00E94910C88E694E00E94910C8AE6EF
:101DB00094E00E94910C60917F0470918004809166
:101DC0008104909182040E942D0C882309F450C054
:101DD00090916A0480916B043091680420916904A9
:101DE00050916604409167047091640460916504A9
:101DF00079836A835B834C833D832E839F838887AB
:101E0000AE014F5F5F4F68E070E085E10E944203E2
:101E100089E00E94A40986FB882780F98983AE01A6
:101E20004F5F5F4F61E070E083E10E94420389E011
:101E30000E94A40990E0880F892F881F990B21E048
:101E400082278983AE014F5F5F4F61E070E084E1DC
:101E50000E9442030E94DF046C507E4F8F4F9F4FC1
:101E600060937F0470938004809381049093820434
:101E700080918704882361F160917B0470917C04D8
:101E800080917D0490917E040E942D0C882301F1A5
:101E90000E94F71724E130E040E050E00E9458181B
:101EA000DC01CB0183539F4FAF4FBF4F0E945C0AB1
:101EB0000E9431070E94DF0468537F4F8F4F9F4F6E
:101EC00060937B0470937C0480937D0490937E04E4
:101ED00080911506882309F454C160911C06709105
:101EE0001D0680911E0690911F060E942D0C8823CE
:101EF00081F00E9431070E94DF04625E7F4F8F4FA6
:101F00009F4F60931C0670931D0680931E0690934E
:101F10001F06609116067091170680911806909121
:101F200019060E942D0C882309F42BC100911A0672
:101F300010911B060F5F1F4F10931B0600931A068C
:101F4000E0900706F0900806E114F10471F1B80181
:101F500090E080E00E943D1A4B015C01B701FF0C4C
:101F6000880B990B0E943F1A9B01AC01C501B4017B
:101F70000E948C1B20E030E040E251E40E945B199B
:101F80006B017C01609105067091060690E080E08F
:101F90000E943D1A9B01AC01C701B6010E94EA18DC
:101FA0000E94071ACB010E945C0AE0900B06F09099
:101FB0000C06E114F10481F1B80190E080E00E9488
:101FC0003D1A4B015C01B701FF0C880B990B0E9475
:101FD0003F1A9B01AC01C501B4010E948C1B20E09B
:101FE00030E048EC52E40E945B196B017C01609187
:101FF000090670910A06072E000C880B990B0E94A7
:102000003F1A9B01AC01C701B6010E94EA180E9469
:10201000071ACB010E94990D00910F06109110062E
:102020000115110599F160911A0670911B0690E057
:1020300080E00E943D1A6B017C01B801110F880BF2
:10204000990B0E943F1A9B01AC01C701B6010E9487
:102050008C1B20E030E048EC52E40E945B196B01DD
:102060007C0160910D0670910E06072E000C880B06
:10207000990B0E943F1A9B01AC01C701B6010E9457
:10208000EA180E94071ACB010E94B00C8091110639
:10209000909112068F3F980709F452C020911306C1
:1020A000309114062F3F3F4F09F44AC06091030658
:1020B0007091040640911A0650911B06649F90018E
:1020C000659F300D749F300D11242817390788F053
:1020D00089E00E94A40986FD0CC061E086E00E94B0
:1020E000CD098EE592E09F938F930E94570C0F903D
:1020F0000F9040911A0650911B0680910306909113
:102100000406489F9001499F300D589F300D1124BF
:1021100080911306909114062817390788F089E0FA
:102120000E94A40986FF0CC061E086E00E94CD09F0
:1021300089E692E09F938F930E94570C0F900F9027
:1021400020911A0630911B0680910106909102069B
:102150002817390709F048C01092150685E792E064
:102160009F938F930E94570C1982AE014F5F5F4F70
:1021700061E070E08CE10E9442030E9431070F9001
:102180000F9060960FB6F894DEBF0FBECDBFDF9103
:10219000CF911F910F91FF90EF90DF90CF90BF9064
:1021A000AF909F908F90089510926B0410926A04E4
:1021B00010926904109268041092670410926604E9
:1021C00010926504109264041982AE014F5F5F4F54
:1021D00061E070E084E10E9442030E94DF046851E4
:1021E0007C4F8F4F9F4FCFCD0E94DF04209103067D
:1021F00030910406620F731F811D911D60931606B6
:10220000709317068093180690931906BACF4F92D1
:102210005F926F927F92AF92BF92CF92DF92EF92D6
:10222000FF920F931F93CF93DF931F92CDB7DEB72B
:102230008C0180918804909189048017910701F5A1
:102240000115110521F490E080E00E94D50B8AE091
:10225000282F209FC001219F900D11240E94150C52
:102260000F90DF91CF911F910F91FF90EF90DF9032
:10227000CF90BF90AF907F906F905F904F900895F8
:1022800080179107BCF510927104109270042AE037
:10229000209F6001219FD00C112440917004509127
:1022A0007104452B09F040C0289F7001299FF00C54
:1022B00011248AE0A82EB12CCE14DF040CF446C001
:1022C000C7010E94150CC7010E94D50B0E94DF04B4
:1022D0002B013C0123E0420E511C611C711CC30107
:1022E000B2010E942D0C81110CC00E94B0070E9407
:1022F000760EF5CF21E030E0309371042093700426
:10230000C6CFC701B5010E94BB186983AE014F5FFC
:102310005F4F61E070E082E10E9442030E94B007DB
:102320008FEFE81AF80AC8CF60E083E00E94CD0979
:1023300060E082E00E94CD09C6010E94150C0115E3
:10234000110521F490E080E00E94D50B10938904E0
:102350000093880485CFEF92FF920F931F93CF9342
:10236000DF937B018A01E9010E945C0AC7010E9498
:10237000B00CC8010E940711D0936F04C0936E0483
:1023800010928704DF91CF911F910F91FF90EF90F2
:1023900008951092870430E020E050E040E060E2D1
:1023A00070E090E080E00E94AB1161E086E00C9468
:1023B000CD09AF92BF92CF92DF92EF92FF920F932F
:1023C0001F93CF93DF93082F162FEA01EFEFE80F4B
:1023D000EB3110F5F0E0E151FE4E0C94CF180A12EB
:1023E000A212AF12E412F7120A131D133013431393
:1023F00056132D12421258124D1265120C120C1265
:102400000C120C120C120C128A12C21269130C124A
:102410001C12DD130E943107612F70E0AE01802F86
:10242000DF91CF911F910F91FF90EF90DF90CF90B0
:10243000BF90AF900C9442034091790450917A047C
:10244000FA0101900020E9F73197BF01641B750B79
:10245000772789E10E944203DFCFF880E9808F2D42
:102460009E2D0E94B00CEF92FF9289E892E09F931C
:102470008F930E94570C0E9431070F900F900F907E
:102480000F90CACFF880E9808F2D9E2D0E94990D64
:10249000EF92FF9282EA92E0EACFF880E9808F2DF6
:1024A0009E2D0E940711EF92FF9287EB92E0DFCF03
:1024B00010928704F880E9808F2D9E2D0E945C0A7F
:1024C000EF92FF928AEC92E0D2CFF8808F2D90E0CD
:1024D00087329105E4F090938B0480938A04809175
:1024E0008A0490918B048234914034F081E491E02D
:1024F00090938B0480938A04809174049091750466
:102500000E945C0A1F92FF9285EE92E0B0CF87E2B4
:1025100090E0E1CF888161E0882371F086E00E943D
:10252000CD0986E692E09F938F9385E093E09F9399
:102530008F930E94570CA1CF86E00E94CD0981E3C2
:1025400093E0F1CF0E94C91183E293E09F938F93B0
:102550000E94570C0E9431070F900F905DCF109290
:10256000870430E020E050E040E060E270E087ED7A
:1025700090E00E94AB1161E086E00E94CD0985E306
:1025800093E0E4CF30E020E050E040E060E270E033
:1025900087ED90E00E94AB1161E086E00E94CD09DA
:1025A00081E0809387040E94DF0468537F4F8F4F40
:1025B0009F4F60937B0470937C0480937D04909381
:1025C0007E0485E493E0C2CF109287042FE030E0D0
:1025D00050E040E060E270E080EB94E00E94AB11DC
:1025E00061E086E00E94CD0988E693E0AFCF1092CB
:1025F00087042FE030E050E040E069EB70E08CEBC6
:1026000092E00E94AB1161E086E00E94CD0982E772
:1026100093E09CCF109287042BE030E041E150E042
:1026200069EB70E088E795E00E94AB1161E086E01D
:102630000E94CD098BE793E089CF109287042BE0AD
:1026400030E049E150E069EB70E088EB9BE00E94EC
:10265000AB1161E086E00E94CD098BE893E076CF74
:102660001092870429E030E04EE150E069EB70E021
:1026700088E097E00E94AB1161E086E00E94CD09FE
:102680008BE993E063CF1092870427E030E042E3C8
:1026900050E069EB70E08CEA9DE00E94AB1161E0D4
:1026A00086E00E94CD098FEA93E050CF1092870414
:1026B00022E030E04FE550E069EB70E080E797E121
:1026C0000E94AB1161E086E00E94CD0985EC93E0A9
:1026D0003DCF888199819093020680930106AA805C
:1026E000BB80B0920406A0920306EC80FD80F092BD
:1026F0000606E0920506CE80DF80D0920806C092E2
:1027000007068885998590930A06809309068A852D
:102710009B8590930C0680930B068C859D859093EA
:102720000E0680930D068E859F85909310068093EC
:102730000F068889998990931206809311068A89D9
:102740009B89909314068093130680911506882325
:1027500059F087ED93E09F938F930E94570C0F9051
:102760000F908AE094E0F2CE81E0809315060E94FB
:10277000DF046A0D7B1D811D911D60931606709309
:10278000170680931806909319060E94DF04625E74
:102790007F4F8F4F9F4F60931C0670931D06809351
:1027A0001E0690931F0610921B0610921A06CD2843
:1027B000C1F2C7010E945C0AD4CF109215068FE1C6
:1027C00094E0C4CE1F920F920FB60F9211242F9354
:1027D0003F938F939F93AF93BF9380919404909175
:1027E0009504A0919604B09197043091930423E04E
:1027F000230F2D3758F50196A11DB11D2093930489
:102800008093940490939504A0939604B0939704B6
:102810008091980490919904A0919A04B0919B049E
:102820000196A11DB11D8093980490939904A093E3
:102830009A04B0939B04BF91AF919F918F913F9168
:102840002F910F900FBE0F901F90189526E8230F21
:102850000296A11DB11DD2CF1F920F920FB60F92FB
:1028600011242F933F934F935F936F937F938F9395
:102870009F93AF93BF93EF93FF938CE994E00E94F3
:10288000FA05FF91EF91BF91AF919F918F917F9149
:102890006F915F914F913F912F910F900FBE0F90CD
:1028A0001F9018951F920F920FB60F9211242F931D
:1028B0008F939F93EF93FF93E091AC04F091AD045D
:1028C0008081E091B204F091B30482FD1BC090813D
:1028D0008091B5048F5F8F732091B604821741F009
:1028E000E091B504F0E0E456FB4F958F8093B5047A
:1028F000FF91EF919F918F912F910F900FBE0F90AD
:102900001F9018958081F4CF1F920F920FB60F92EF
:1029100011242F933F934F935F936F937F938F93E4
:102920009F93AF93BF93EF93FF93E0910001F091DA
:1029300001010995FF91EF91BF91AF919F918F9107
:102940007F916F915F914F913F912F910F900FBEAB
:102950000F901F901895ECE9F4E01382128288EE34
:1029600093E0A0E0B0E084839583A683B78380E5FD
:1029700092E09183808385EC90E09587848784EC56
:1029800090E09787868780EC90E0918B808B81EC3C
:1029900090E0938B828B82EC90E0958B848B86EC1D
:1029A00090E0978B868B118E128E138E148E89E396
:1029B00095E010927A051092790590937D058093A9
:1029C0007C0520E430E030937F0520937E05109253
:1029D0008005109281051092830510928205109255
:1029E0008405109286051092850510928805109234
:1029F000870510928A051092890510928C05109215
:102A00008B0510928E0510928D05109290051092F4
:102A10008F051092920510929105109298051092D0
:102A2000970510929A051092990510929C051092A4
:102A30009B0510929E0510929D051092AC05109278
:102A4000AB0510927B051092B9051092BB05109250
:102A5000BA051092FE0529E033E03093A0052093DB
:102A60009F052AE033E03093A2052093A1052BE0D7
:102A700033E03093A4052093A3052CE033E030939A
:102A8000A6052093A5052DE033E03093A8052093FB
:102A9000A7052EE033E03093AA052093A9052FE087
:102AA00033E03093AE052093AD0520E133E0309361
:102AB000B0052093AF052CE237E03093B2052093A8
:102AC000B105909394058093930525E735E0309305
:102AD000B4052093B30590939605809395058BE1FB
:102AE00093E09093B6058093B50510921506EFEF2D
:102AF000F5E080E1808380E481830895789484B553
:102B0000826084BD84B5816084BD85B5826085BDE9
:102B100085B5816085BD80916E00816080936E0077
:102B20001092810080918100826080938100809169
:102B3000810081608093810080918000816080931A
:102B400080008091B10084608093B1008091B000DA
:102B500081608093B00080917A00846080937A00D5
:102B600080917A00826080937A0080917A008160FF
:102B700080937A0080917A00806880937A00109226
:102B8000C10084E394E090937A048093790488E010
:102B90008093B9058091BA059091BB050E94901D64
:102BA000C091B905D0E0CE0101960E94F41C90932B
:102BB000BB058093BA05FC01EC0FFD1F108212E0EB
:102BC000FC01108321E02183AE014250510964E4ED
:102BD00074E002960E94191E89ED91E190937804A9
:102BE00080937704E091AC04F091AD041083E09100
:102BF000AC04F091AD041082E091A804F091A90416
:102C00001082E091AA04F091AB0480E180831092DD
:102C1000B404E091B004F091B10486E08083E091C7
:102C2000AE04F091AF04808180618083E091AE04B6
:102C3000F091AF04808188608083E091AE04F091D0
:102C4000AF04808180688083E091AE04F091AF048E
:102C500080818F7D80838091FE0581114EC08DE043
:102C60000E94DA0362ED70E080E090E00E94AC0424
:102C700061E08DE00E944C0468E270E080E090E04A
:102C80000E94AC0460E08DE00E944C0462ED70E0B4
:102C900080E090E00E94AC0461E08DE00E944C0472
:102CA00068E270E080E090E00E94AC0460E08DE0BB
:102CB0000E944C046AEF70E080E090E00E94AC0457
:102CC000C5E062ED70E080E090E00E94AC0461E05D
:102CD0008DE00E944C0468E270E080E090E00E9489
:102CE000AC0460E08DE00E944C04C15051F76DE7E8
:102CF00070E080E090E00E94AC048CE994E0909356
:102D0000B8058093B70590937A058093790589E794
:102D100095E00E94F90389E395E00E94BC0681E1F9
:102D20000E94DA0361E081E10E944C04219A299813
:102D3000569A5E98559A5D98539A5B9883E10E94E3
:102D4000DA0361E083E10E944C0482E10E94DA032D
:102D500061E082E10E944C0488E00E94DA0361E0B5
:102D600088E00E944C0480E10E94DA0361E080E187
:102D70000E944C0487E090E00E94F41CEC0183E187
:102D800088831A82198200E810E01C830B831E825C
:102D90001D820E94890688810E94DA0361E0888191
:102DA0000E944C04D0939204C093910487E090E079
:102DB0000E94F41CEC0182E188831A8219821C8330
:102DC0000B831E821D820E94890688810E94DA037D
:102DD00061E088810E944C04D0939004C0938F04DA
:102DE00087E090E00E94F41CEC0188E088831A825E
:102DF00019821C830B831E821D820E948906888192
:102E00000E94DA0361E088810E944C04D0938E0412
:102E1000C0938D0461E082E00E94E80961E083E0F4
:102E20000E94E80961E084E00E94E80961E085E031
:102E30000E94E80961E086E00E94E80960E087E01E
:102E40000E94E8096CE386E00E94B90961E086E02F
:102E50000E94CD0980E1809381001092800091E072
:102E600090938C04109287001092860021E12093A9
:102E700081002BEE34E03093010120930001909308
:102E80006F008093810087E890E090938B0480939B
:102E90008A0410928904109288041092870486E4B0
:102EA00080937C0080917A00806480937A00809186
:102EB0007A0086FDFCCF8091780060917900762FB2
:102EC000682F072E000C880B990B61157105810581
:102ED000910511F00E9446180E94C91180E290E00D
:102EE0000E94990D0E94DF0468517C4F8F4F9F4FC5
:102EF0006093830470938404809385049093860484
:102F00000E94DF046C507E4F8F4F9F4F60937F0471
:102F10007093800480938104909382040E94DF0464
:102F200068537F4F8F4F9F4F60937B0470937C0457
:102F300080937D0490937E04C0E0D0E00E94B007AF
:102F40000E94760E2097D1F30E94E6058823B1F304
:102F50000E940000F3CF8F929F92AF92BF92CF92C8
:102F6000DF92EF92FF92CF93DF93EC01688179813A
:102F70008A819B81611571058105910521F464E2C7
:102F800079ED8BE597E02DE133EF41E050E00E94D1
:102F9000581849015A019B01AC01A7EAB1E40E940B
:102FA00077186B017C01ACEEB4EFA50194010E948F
:102FB0008518C60ED71EE81EF91EF7FE06C081E072
:102FC000C81AD108E10880E8F80AC882D982EA82E2
:102FD000FB82C701B6019F77DF91CF91FF90EF9001
:102FE000DF90CF90BF90AF909F908F9008958F9279
:102FF0009F92AF92BF92CF92DF92EF92FF92609139
:103000000201709103018091040190910501611505
:1030100071058105910521F464E279ED8BE597E076
:103020002DE133EF41E050E00E94581849015A0168
:103030009B01AC01A7EAB1E40E9477186B017C0107
:10304000ACEEB4EFA50194010E948518C60ED71E00
:10305000E81EF91EF7FE06C081E0C81AD108E10893
:1030600080E8F80AC0920201D0920301E0920401C4
:10307000F0920501C701B6019F77FF90EF90DF90B6
:10308000CF90BF90AF909F908F9008956093020172
:103090007093030180930401909305010895FB014F
:1030A000DC0102C005900D9241505040D8F70895C0
:1030B000052E97FB1EF400940E946F1857FD07D051
:1030C0000E948A1807FC03D04EF40C946F18509598
:1030D0004095309521953F4F4F4F5F4F0895909504
:1030E0008095709561957F4F8F4F9F4F08950E94F7
:1030F000AC18A59F900DB49F900DA49F800D911DBD
:1031000011240895B7FF0C9477180E947718821B3A
:10311000930B0895A1E21A2EAA1BBB1BFD010DC043
:10312000AA1FBB1FEE1FFF1FA217B307E407F50777
:1031300020F0A21BB30BE40BF50B661F771F881F53
:10314000991F1A9469F760957095809590959B01E9
:10315000AC01BD01CF010895A29FB001B39FC00192
:10316000A39F700D811D1124911DB29F700D811DB3
:103170001124911D089597FB072E16F4009407D093
:1031800077FD09D00E94D51807FC05D03EF4909534
:1031900081959F4F0895709561957F4F0895EE0F2B
:1031A000FF1F0590F491E02D0994AA1BBB1B51E170
:1031B00007C0AA1FBB1FA617B70710F0A61BB70BA7
:1031C000881F991F5A95A9F780959095BC01CD014C
:1031D00008955058BB27AA270E9401190C94DC1AA5
:1031E0000E94CE1A38F00E94D51A20F039F49F3F81
:1031F00019F426F40C94A41A0EF4E095E7FB0C9451
:103200009E1AE92F0E94ED1A58F3BA176207730746
:103210008407950720F079F4A6F50C940F1B0EF4A3
:10322000E0950B2EBA2FA02D0B01B90190010C01D6
:10323000CA01A0011124FF27591B99F0593F50F4EE
:10324000503E68F11A16F040A22F232F342F442746
:10325000585FF3CF469537952795A795F04053953E
:10326000C9F77EF41F16BA0B620B730B840BBAF00E
:103270009150A1F0FF0FBB1F661F771F881FC2F779
:103280000EC0BA0F621F731F841F48F4879577958D
:103290006795B795F7959E3F08F0B0CF9395880F47
:1032A00008F09927EE0F9795879508950E947A1A4E
:1032B00008F481E008950E946F190C94DC1A0E94B2
:1032C000D51A58F00E94CE1A40F029F45F3F29F039
:1032D0000C949E1A51110C94101B0C94A41A0E9469
:1032E000ED1A68F39923B1F3552391F3951B550B10
:1032F000BB27AA2762177307840738F09F5F5F4FC9
:10330000220F331F441FAA1FA9F335D00E2E3AF007
:10331000E0E832D091505040E695001CCAF72BD01F
:10332000FE2F29D0660F771F881FBB1F2617370770
:103330004807AB07B0E809F0BB0B802DBF01FF27A2
:1033400093585F4F3AF09E3F510578F00C949E1AC7
:103350000C94101B5F3FE4F3983ED4F38695779569
:103360006795B795F7959F5FC9F7880F911D96955B
:10337000879597F90895E1E0660F771F881FBB1FB7
:10338000621773078407BA0720F0621B730B840B64
:10339000BA0BEE1F88F7E095089529F416F00C9407
:1033A0009E1A0C940F1B0C94A41A0E94F51AA8F3F1
:1033B0009638A0F707F80F92E8942BE33AEA48EB27
:1033C0005FE70E94A21B0F920F920F924DB75EB75C
:1033D0000F920E94581BE8E6F0E00E94A71A4F9156
:1033E0005F91EF91FF91E595EE1FFF1F49F0FE57AA
:1033F000E0684427EE0F441FFA95E1F74195550B1D
:103400000E94221B0F9007FE0C94161B08950E9429
:103410000E1A6894B1110C94101B08950E94F51AAD
:1034200088F09F5798F0B92F9927B751B0F0E1F085
:10343000660F771F881F991F1AF0BA95C9F714C035
:10344000B13091F00E940F1BB1E008950C940F1B56
:10345000672F782F8827B85F39F0B93FCCF386956E
:1034600077956795B395D9F73EF4909580957095CB
:1034700061957F4F8F4F9F4F0895E89409C097FB48
:103480003EF490958095709561957F4F8F4F9F4F3B
:103490009923A9F0F92F96E9BB279395F69587957F
:1034A00077956795B795F111F8CFFAF4BB0F11F442
:1034B00060FF1BC06F5F7F4F8F4F9F4F16C08823E9
:1034C00011F096E911C0772321F09EE8872F762F1F
:1034D00005C0662371F096E8862F70E060E02AF060
:1034E0009A95660F771F881FDAF7880F969587954C
:1034F00097F90895990F0008550FAA0BE0E8FEEF21
:1035000016161706E807F907C0F012161306E407A7
:10351000F50798F0621B730B840B950B39F40A26A0
:1035200061F0232B242B252B21F408950A2609F47E
:10353000A140A6958FEF811D811D089597F99F6782
:1035400080E870E060E008959FEF80EC0895DF93DD
:10355000CF931F930F93FF92EF92DF927B018C0129
:10356000689406C0DA2EEF010E949F1BFE01E894CA
:10357000A5912591359145915591A6F3EF010E94B2
:103580000119FE019701A801DA9469F7DF90EF9025
:10359000FF900F911F91CF91DF91089500240A941D
:1035A0001616170618060906089500240A9412161E
:1035B0001306140605060895092E0394000C11F451
:1035C000882352F0BB0F40F4BF2B11F460FF04C0FE
:1035D0006F5F7F4F8F4F9F4F089557FD9058440F57
:1035E000551F59F05F3F71F04795880F97FB991F62
:1035F00061F09F3F79F0879508951216130614061F
:10360000551FF2CF4695F1DF08C0161617061806AB
:10361000991FF1CF86957105610508940895E89486
:10362000BB2766277727CB0197F908959B01AC014B
:1036300060E070E080E89FE30C945B190C949E1AA4
:103640000C948F1C0E94F51AD8F39923C9F3940F98
:10365000511DA3F39150504094F059F0882332F05B
:10366000660F771F881F91505040C1F79E3F51054C
:103670002CF7880F911D9695879597F908955F3FD0
:10368000ACF0983E9CF0BB27869577956795B795EB
:1036900008F4B1609395C1F7BB0F58F711F460FFC0
:1036A000E8CF6F5F7F4F8F4F9F4FE3CF0C94101B7E
:1036B000FA01DC01AA0FBB1F9B01AC01BF5728F424
:1036C000222733274427507820C0B75190F4AB2FDE
:1036D0000024469537952795011CA395D2F3002029
:1036E00071F0220F331F441FB395DAF30ED00C9400
:1036F000E91861307105A0E88A07B94630F49B01EA
:10370000AC016627772788279078309621F02083B0
:1037100031834283538308950E949F1B0C94DC1ACB
:103720000E94CE1A38F00E94D51A20F0952311F08D
:103730000C949E1A0C94A41A11240C94101B0E9431
:10374000ED1A70F3959FC1F3950F50E0551F629FDE
:10375000F001729FBB27F00DB11D639FAA27F00DEA
:10376000B11DAA1F649F6627B00DA11D661F829F11
:103770002227B00DA11D621F739FB00DA11D621FF6
:10378000839FA00D611D221F749F3327A00D611D13
:10379000231F849F600D211D822F762F6A2F1124F5
:1037A0009F5750409AF0F1F088234AF0EE0FFF1F28
:1037B000BB1F661F771F881F91505040A9F79E3F7F
:1037C000510580F00C949E1A0C94101B5F3FE4F39B
:1037D000983ED4F3869577956795B795F795E795D5
:1037E0009F5FC1F7FE2B880F911D9695879597F9DE
:1037F0000895FA01EE0FFF1F309621053105A1F162
:103800006115710561F48038BFE39B0749F1689445
:103810009038810561F08038BFEF9B0741F0992314
:103820004AF5FF3FE1053105210519F1E8940894B7
:10383000E795D901AA2329F4AB2FBE2FF85FD0F367
:1038400010C0FF5F70F4A695E0F7F73950F019F05B
:10385000FF3A38F49F779F930DD00F9007FC905854
:10386000089546F00C94A41A60E070E080E89FE3AD
:1038700008954FE79F775F934F933F932F930E9455
:10388000AC1C2F913F914F915F910E948C1B0C9427
:10389000D51919F416F40C94A41A0C948F1C0E94D8
:1038A000F51AB8F39923C9F3B6F39F57550B87FF61
:1038B0000E949D1C0024A0E640EA90018058569585
:1038C000979528F4805C660F771F881F20F02617D5
:1038D0003707480730F4621B730B840B202931290A
:1038E0004A2BA69517940794202531254A2758F787
:1038F000660F771F881F20F026173707480730F418
:10390000620B730B840B200D311D411DA09581F7B7
:10391000B901842F9158880F9695879508959F3FF8
:1039200031F0915020F4879577956795B795880F7A
:10393000911D9695879597F9089591505040660F7F
:10394000771F881FD2F7089516F00C948F1C0C94E3
:10395000A41A68940C949E1A0E94F51AA8F399234D
:10396000C1F3AEF3DF93CF931F930F93FF92C92F51
:10397000DD2788232AF02197660F771F881FDAF743
:1039800020E030E040E85FEB9FE3883920F0803EA4
:1039900038F021968F770E94EA18E0E9F0E004C041
:1039A0000E94EA18EDEBF0E00E94A71A8B01BE011D
:1039B000EC01FB2E6F5771097595771F880B990BDA
:1039C0000E943F1A28E132E741E35FE30E949F1B18
:1039D000AF2D9801AE01FF900F911F91CF91DF9114
:1039E0000E9401190C94DC1A0F931F93CF93DF935D
:1039F0008230910510F482E090E0E0912206F0918F
:103A0000230630E020E0B0E0A0E0309799F42115E3
:103A1000310509F44AC0281B390B24303105D8F58B
:103A20008A819B816115710589F1FB0193838283F2
:103A3000FE0111C04081518102811381481759074D
:103A4000E0F04817590799F4109761F012960C931B
:103A5000129713961C933296CF01DF91CF911F914D
:103A60000F9108950093220610932306F4CF211599
:103A7000310551F04217530738F0A901DB019A01D3
:103A8000BD01DF01F801C1CFEF01F9CF909323060B
:103A900080932206CDCFFE01E20FF31F8193919315
:103AA0002250310939832883D7CF209120063091C5
:103AB0002106232B41F42091080130910901309314
:103AC000210620932006209106013091070121153F
:103AD000310541F42DB73EB740910A0150910B01D9
:103AE000241B350BE0912006F0912106E217F30725
:103AF000A0F42E1B3F0B2817390778F0AC014E5F5E
:103B00005F4F2417350748F04E0F5F1F5093210673
:103B100040932006819391939FCFF0E0E0E09CCF0B
:103B2000CF93DF930097E9F0FC0132971382128262
:103B3000A0912206B0912306ED0130E020E010971D
:103B4000A1F420813181820F931F209120063091B2
:103B500021062817390709F061C0F0932106E09388
:103B60002006DF91CF910895EA01CE17DF07E8F52F
:103B70004A815B819E0141155105B1F7E901FB8343
:103B8000EA8349915991C40FD51FEC17FD0761F4E1
:103B9000808191810296840F951FE9019983888322
:103BA000828193819B838A83F0E0E0E012968D917D
:103BB0009C9113970097B9F52D913C911197CD01E8
:103BC0000296820F931F209120063091210628171C
:103BD000390739F6309751F51092230610922206D4
:103BE000B0932106A0932006BCCFD383C28340812B
:103BF0005181840F951FC817D90761F44E5F5F4F3D
:103C000088819981480F591F518340838A819B8104
:103C1000938382832115310509F0B0CFF0932306F9
:103C2000E09322069ECFFD01DC01C0CF13821282F9
:103C3000D7CFFB01DC014150504048F001900D927C
:103C40000020C9F701C01D9241505040E0F708958F
:103C5000AEE0B0E0EEE2FEE10C94E0208C01FA016F
:103C600086E08C831A83098377FF02C060E070E8E6
:103C7000615071097E836D83A901BF01CE01019658
:103C80000E94541E4D815E8157FD0AC02F813885E8
:103C9000421753070CF49A01020F131FF801108208
:103CA0002E96E4E00C94FC20ABE0B0E0EAE5FEE107
:103CB0000C94D2207C013B018A01FC011782168200
:103CC000838181FFC8C1CE0101965C01F701938118
:103CD000F30193FD859193FF81913F01882309F4BE
:103CE00053C1853239F493FD859193FF81913F0152
:103CF000853229F4B70190E00E944420E7CF912C4F
:103D0000212C312CFFE1F31538F08B3211F190F4B6
:103D1000803209F1833229F137FC3CC020ED280FB5
:103D20002A3050F536FE20C08AE0989E200D1124DE
:103D3000922E06C08D3291F0803371F7689430F87E
:103D4000F30193FD859193FF81913F018111DACFBA
:103D500021C0689431F8689432F8F2CF689433F84F
:103D6000EFCF689434F8ECCFEAE02E9E200D1124BA
:103D7000222E689435F8E4CF8E3229F436FC04C143
:103D8000689436F8DDCF8C3619F4689437F8D8CFBC
:103D90008836B1F2982F9F7D95549330E0F08336AA
:103DA000A1F18337C1F1833509F063C02801F2E046
:103DB0004F0E511CF801C080D180692D70E036FC97
:103DC00002C06FEF7FEFC6010E942E204C01689465
:103DD00037F882010AC00C5F1F4FFFE3F983882484
:103DE0008394912C6501E89437F833FE2DC0522C52
:103DF0008114910471F5552009F468CFB70180E270
:103E000090E00E9444205A94F6CFF8018081898383
:103E10000E5F1F4FE4CF2801F2E04F0E511CF80156
:103E2000C080D180692D70E036FC02C06FEF7FEF5B
:103E3000C6010E9439204C018201D5CFB70180E232
:103E400090E00E9444202A942814190409F0B0F745
:103E5000CECFF60137FC859137FE81916F01B70116
:103E600090E00E94442051105A94F1E08F1A91087A
:103E7000BFCF843619F0893609F077C0F80137FED4
:103E80006BC060817181828193810C5F1F4FF32D24
:103E9000FF763F2E97FF09C09095809570956195AC
:103EA0007F4F8F4F9F4F689437F82AE030E0A5018D
:103EB0000E947420C82ECA188C2C432C36FE0CC0CD
:103EC000E89440F8C91440F434FE05C032FC03C045
:103ED000F32DFE7E4F2E892C44FE95C0FE01EC0D85
:103EE000F11D8081803309F087C0242D297E422E68
:103EF000842D8870582E43FC95C040FE8FC09C2CAA
:103F0000821418F42C0C922C981844FE91C0B7011E
:103F100080E390E00E94442042FE09C088E790E0E0
:103F200041FE02C088E590E0B7010E944420C91418
:103F300008F48AC0CA94D12C9FEFC91AD90ACA0CB6
:103F4000DB1CF60182916F01B70190E00E944420D2
:103F5000AC14BD04B1F74FCF60817181072E000C06
:103F6000880B990B0E5F1F4F92CFD32CE894D4F897
:103F70002AE030E0853739F1232D297FD22E8F3684
:103F800001F148F48835A9F0F701868197812B96D5
:103F9000E2E10C94EE20803749F08837A9F7D4FE8F
:103FA00002C06894D2F820E130E00DC06894D4F8E3
:103FB000F6CF34FE03C0822F8660D82E20E132E097
:103FC00002C028E030E0F801D7FE0FC060817181A7
:103FD000828193810C5F1F4FA5010E947420C82E1F
:103FE000CA183D2CE89437F867CF6081718190E062
:103FF00080E00E5F1F4FF0CF42FC02C0839478CF69
:104000008394839475CF842D867809F471CFF6CF8D
:10401000B70180E290E00E94442083948214C0F3B0
:10402000512C73CF522C5818821408F46ECFF8CF4D
:10403000842D867809F47BCF8BE241FE80E247FC39
:104040008DE2B70190E071CFB70180E390E00E946C
:1040500044209A946CCF8FEF9FEF99CFFC0105908D
:10406000615070400110D8F7809590958E0F9F1F7A
:104070000895FC016150704001900110D8F78095BF
:1040800090958E0F9F1F08950F931F93CF93DF93EB
:10409000182F092FEB018B8181FD09C01FEF0FEF56
:1040A000812F902FDF91CF911F910F91089582FF63
:1040B00014C02E813F818C819D81281739073CF4E3
:1040C000E881F981CF0101969983888310838E81DD
:1040D0009F8101969F838E83E3CFE885F985812FA9
:1040E0000995892BA1F3DACFFA01AA27283051F1DB
:1040F000203181F1E8946F936E7F6E5F7F4F8F4F19
:104100009F4FAF4FB1E03ED0B4E03CD0670F781F77
:10411000891F9A1FA11D680F791F8A1F911DA11D5C
:104120006A0F711D811D911DA11D20D009F4689495
:104130003F912AE0269F11243019305D3193DEF63D
:10414000CF010895462F4770405D4193B3E00FD0F3
:10415000C9F7F6CF462F4F70405D4A3318F0495DDE
:1041600031FD4052419302D0A9F7EACFB4E0A695C1
:104170009795879577956795BA95C9F700976105E3
:10418000710508959B01AC010A2E06945795479539
:1041900037952795BA95C9F7620F731F841F951F2E
:1041A000A01D08952F923F924F925F926F927F923F
:1041B0008F929F92AF92BF92CF92DF92EF92FF9237
:1041C0000F931F93CF93DF93CDB7DEB7CA1BDB0BE3
:1041D0000FB6F894DEBF0FBECDBF09942A88398888
:1041E00048885F846E847D848C849B84AA84B9848F
:1041F000C884DF80EE80FD800C811B81AA81B9819B
:10420000CE0FD11D0FB6F894DEBF0FBECDBFED01AE
:064210000895F894FFCFB1
:1042160074050100000000002406800000001D0057
:10422600000001001E002C00000000002D004400CC
:104236000100000045005300000000005400590032
:10424600000001005A0068000000000069008000BC
:104256000100000081008F00000000009000950022
:10426600000001009600A40000000000A500BC00AC
:1042760001000000BD00CB0000000000CC00D10012
:1042860000000100D200E00000000000E100F7009D
:1042960001000000F80006010000000007010D0102
:1042A600000001000E011B01000000001C0133018B
:1042B60001000000340143010000000044014801F0
:1042C60000000100490157010000000058016F017C
:1042D6000100000070017E01000000007F018401E2
:1042E6000000010085019301000000009401AB016C
:1042F60001000000AC01BA0100000000BB01C001D2
:1043060000000100C101CF0100000000D001E90159
:1043160001000000EA01F60100000000F701FC01BF
:1043260000000100FD010B02000000000C02230248
:1043360001000000240232020000000033023802AD
:1043460000000100390247020000000048025E0238
:10435600010000005F02E803010000000000000009
:104366001C067C05A9056906DA05B805CC05537453
:104376006172746572206F6E005374617274657237
:10438600206F666600456E64206F662064796E61F4
:104396006D696320746573740053657420636F6F71
:1043A6006C616E742074656D7020746F20256420B6
:1043B6004600536574206169722074656D702074BF
:1043C6006F202564204600536574207468726F74EC
:1043D600746C6520746F2025640053657420656EC7
:1043E60067696E6520737065656420746F20256447
:1043F6002052504D005365742070756C73652064AF
:1044060077656C6C20616E676C6520746F2025641F
:1044160020646567005365742073746172746572F5
:10442600206D6F746F7220737461746520746F20D1
:104436002573005475726E656420656E67696E65D6
:10444600206F666600456E67696E65206372616EF1
:104456006B696E6700456E67696E65206372616E93
:104466006B696E67207769746820756E7374616214
:104476006C652052504D7300436F6C642069646C08
:104486006500486F742069646C65004372756973D2
:10449600652061742033304D50480043727569734E
:1044A600652061742037304D50480047656E746C46
:1044B6006520616363656C65726174696F6E004D3A
:1044C6006F64657261746520616363656C657261B2
:1044D60074696F6E004861726420616363656C6520
:1044E600726174696F6E0044796E616D69632074E0
:1044F60065737420616C72656164792072756E6E85
:10450600696E672C2069676E6F72696E67206E65CB
:104516007720726571756573740052756E6E696E7B
:10452600672064796E616D696320746573740044F5
:10453600796E616D696320746573742073746F702E
:10454600706564004D657263656465732056380056
:104556007372635C53657269616C2E6370700000E0
:00000001FF
