:100000000C94DF020C9407030C9407030C94070371
:100010000C9407030C9407030C9407030C94070338
:100020000C9407030C9407030C9407030C94070328
:100030000C9407030C94E0120C9407030C94070330
:100040000C943E120C9407030C94AE120C9488127C
:100050000C9407030C9407030C9407030C940703F8
:100060000C9407030C94070307634236B79BD8A789
:100070001A39685618AEBAAB558C1D3CB7CC5763CD
:10008000BD6DEDFD753EF6177231BF000000803F7B
:1000900008000000BE922449123EABAAAA2ABECD97
:1000A000CCCC4C3E00000080BEABAAAAAA3E000009
:1000B0000000BF000000803F000000000008417801
:1000C000D3BB4387D1133D190E3CC3BD4282AD2B38
:1000D0003E68EC8276BED98FE1A93E4C80EFFFBE30
:1000E00001C4FF7F3F000000000000830201A9025D
:1000F00002CE0203F302041A030540030665030758
:100100008A0308AD0309D2030AF7030B1C040C434E
:10011000040D68040E8D040FB20410D50411FA0406
:10012000121F05134405146A05158F0516B305172C
:10013000D80518F905191D061A41061B65061C8A03
:10014000061DAD061ECF061FF20620120721350739
:1001500022560723770724990725B907261608276B
:100160003E08285C080000FC04010022050200474C
:100170000503006C05040091050500B5050600DACD
:10018000050700FF0508002006090043060A00686D
:10019000060B008C060C00AE060D00D1060E00F317
:1001A000060F0014071000350711005607120077DC
:1001B00007130097071400B8071500200816004819
:1001C0000817007008180098081900B6081A00DE11
:1001D000081B0006091C002E091D004C091E007496
:1001E000091F009C092000C4092100E20922000A1D
:1001F0000A2300320A24005A0A2500780A2600A0A1
:100200000A2700C80A2800F00A29000E0B2A003627
:100210000B2B005E0B2C00860B2D00A40B2E00CCAC
:100220000B2F00F40B3000120C31003A0C3200623C
:100230000C3300800C3400A80C3500D00C3600F8CC
:100240000C3700200D38003E0D3900660D3A008E47
:100250000D3B00AC0D3C00D40D3D00FC0D3E001AE2
:100260000E3F00420E40006A0E4100880E4200B070
:100270000E4300D80E4400F60E45001E0F46004601
:100280000F47006E0F48008C0F4900B40F4A00DC86
:100290000F4B00FA0F4C0022104D004A104E006820
:1002A000104F0090105000B8105100D6105200FEB0
:1002B00010530026115400441155006C115600943F
:1002C000115700B2115800DA11590002125A0020D9
:1002D000125B0048125C0070125D008E125E00B668
:1002E000125F00D4126000FC12610024136200420D
:1002F0001363006A13640088136500B0136600D8A6
:10030000136700F61368001E1469003C146A006449
:10031000146B0082146C00AA146D00C8146E00F0F7
:10032000146F001815700036157100541572007C9A
:100330001573009A157400C2157500E01576000853
:10034000167700261678004E1679006C167A0094FF
:10035000167B00B2167C00DA167D00F8167E0016B9
:10036000177F003E177F0166177F0284177F03A265
:10037000177F04CA177F05E8177F0610187F072E1E
:10038000187F084C187F096A187F0A92187F0BB0F3
:10039000187F0CCE187F0DEC187F0E14197F0F32CA
:1003A000197F1050197F116E197F128C197F13AAB3
:1003B000197F14D2197F15F0197F160E1A7F172C8A
:1003C0001A7F18401A7F19681A7F1A861A7F1B9A9B
:1003D0001A7F1CC21A7F1DE01A7F1EFE1A7F1F1C87
:1003E0001B7F20301B7F214E1B7F226C1B7F238AAB
:1003F0001B7F24A81B7F25C61B7F26E41B7F27F8B5
:100400001B7F28161C7F29341C7F2A481C7F2B66E3
:100410001C7F2C841C7F2DA21C7F2EB61C7F2FD40A
:100420001C7F30E81C7F31061D7F321A1D7F333858
:100430001D7F34561D7F356A1D7F36881D7F379C92
:100440001D7F38B01D7F39CE1D7F3AE21D7F3BF600
:100450001D7F3C141E7F3D281E7F3E461E7F3F5A57
:100460001E7F406E1E7F41821E7F42A01E7F43B4CE
:100470001E7F44C81E7F45DC1E7F46F01E7F470E50
:100480001F7F48221F7F49361F7F4A4A1F7F4B5ECE
:100490001F7F4C721F7F4D861F7F4E9A1F7F4FAE6E
:1004A0001F7F50C21F7F51D61F7F52EA1F7F53FE0E
:1004B0001F7F5412207F5526207F563A207F574EAB
:1004C000207F5862207F5976207F5A80207F5B945E
:1004D000207F5CA8207F5DBC207F5ED0207F5FDA1C
:1004E000207F60EE207F6102217F6216217F6320E2
:1004F000217F6434217F6548217F6652217F6766B2
:10050000217F687A217F698E217F6A98217F6BAC79
:10051000217F6CB6217F6DCA217F6ED4217F6FE869
:10052000217F70F2217F7106227F7210227F732457
:10053000227F742E227F7542227F764C227F776045
:10054000227F786A227F7974227F7A88227F7B9249
:10055000227F7CA6227F7DB0227F7EBA227F7FCE43
:1005600022000000002300260029000000000800EF
:10057000020100000304070000000000000000006A
:10058000000000250028002B0000000000240027A8
:10059000002A000404040404040404020202020207
:1005A0000203030303030301020408102040800137
:1005B000020408102001020408102000071311246F
:1005C0001FBECFEFD8E0DEBFCDBF14E0A0E0B1E0AA
:1005D000E4EAFEE302C005900D92AA39B107D9F70B
:1005E00026E0AAE9B4E001C01D92AC35B207E1F7FC
:1005F00012E0CFEDD2E004C02197FE010E94161751
:10060000CE3DD107C9F70E94D8130C94501F0C940B
:10061000000008950895089508950895089508958F
:10062000862F642FE091D504F091D604309711F015
:10063000A9010994089508950F931F93CF93DF9311
:100640008C01EB01DC018D919C9168816F77DC015D
:10065000ED91FC910190F081E02D0995F8018081E8
:100660009181688170E0660F672F661F770BDC0150
:10067000ED91FC910190F081E02DDF91CF911F91E0
:100680000F910994EF92FF920F931F93CF93DF93F3
:10069000C82F8091D0059091D1050097A9F17A01DA
:1006A0008B01DC01ED91FC910190F081E02D60EF78
:1006B00009958091D0059091D105DC01ED91FC91D7
:1006C0000190F081E02D6C2F0995E7010E0D1F1DA3
:1006D000C017D10739F0BE0180ED95E00E941C03E0
:1006E0002196F6CF8091D0059091D105DC01ED9156
:1006F000FC910190F081E02D67EFDF91CF911F9188
:100700000F91FF90EF900994DF91CF911F910F917E
:10071000FF90EF9008951F93CF93DF93182FEB0175
:100720008091D5059091D6056817790760F480917E
:10073000D3059091D405C80FD91F188380E0DF91AD
:10074000CF911F910895E0910206F0910306309732
:1007500011F481E0F4CF81E08093D2058091EE0521
:100760009091EF0509958091D5059091D605C81710
:10077000D90778F7DCCFCF93DF93EC01FB0130E0B2
:1007800020E0C901880F991F8C179D0778F44081DC
:10079000DB014D93BD01119791819795992797950D
:1007A000942B9C932F5F3F4F3296EBCFC901DF9183
:1007B000CF91089590E0FC01E955FA4F24918D56B0
:1007C0009A4FFC018491882399F090E0880F991F3B
:1007D000FC01E757FA4FA591B491FC01E158FA4F9B
:1007E000859194918FB7F894EC91E22BEC938FBFA5
:1007F0000895CF93DF93FC01A081B181109701F19F
:10080000EC01ED91FC9111970190F081E02D69EFE1
:10081000CD01099588819981DC01ED91FC910190D0
:10082000F081E02D62E0099588819981DC01ED91EC
:10083000FC910190F081E02D65E0DF91CF9109946A
:10084000DF91CF910895833081F028F4813099F0C1
:100850008230A9F008958730A9F08830C9F084303B
:10086000B1F4809180008F7D03C0809180008F77EC
:1008700080938000089584B58F7784BD089584B5F2
:100880008F7DFBCF8091B0008F778093B00008956B
:100890008091B0008F7DF9CFCF93DF93282F30E088
:1008A000F901E559FA4F8491F901E955FA4FD491CC
:1008B000F901ED56FA4FC491CC23A1F081110E94A9
:1008C0002304EC2FF0E0EE0FFF1FEF59FA4FA59134
:1008D000B491EC91ED2381E090E009F480E0DF91A8
:1008E000CF91089580E090E0FACF1F93CF93DF93EC
:1008F000282F30E0F901E559FA4F8491F901E955C3
:10090000FA4FD491F901ED56FA4FC491CC23A9F0D6
:10091000162F81110E942304EC2FF0E0EE0FFF1F31
:10092000E158FA4FA591B4918FB7F894EC91111159
:1009300008C0D095DE23DC938FBFDF91CF911F914C
:100940000895DE2BF8CF61E0809156060C94750473
:1009500081E58CBD1DBC60E0809156060C94750449
:100960003FB7F8948091EF049091F004A091F104C6
:10097000B091F20426B5A89B05C02F3F19F001964F
:10098000A11DB11D3FBFBA2FA92F982F8827BC01E9
:10099000CD01620F711D811D911D42E0660F771F11
:1009A000881F991F4A95D1F708958F929F92AF9211
:1009B000BF92CF92DF92EF92FF926B017C010E9477
:1009C000B0044B015C01C114D104E104F104B9F09D
:1009D0000E94B004681979098A099B09683E73402E
:1009E0008105910580F321E0C21AD108E108F108E0
:1009F00088EE880E83E0981EA11CB11CE4CFFF9006
:100A0000EF90DF90CF90BF90AF909F908F90089520
:100A10002FB7F8946091EB047091EC048091ED0491
:100A20009091EE042FBF08952091AC043091AD0455
:100A30008091A8049091A9042817390709F4299AEC
:100A40002091AC043091AD048091A6049091A7044C
:100A50002817390709F429982091AC043091AD0486
:100A60008091A4049091A5042817390709F45E9A8F
:100A70002091AC043091AD048091A2049091A30424
:100A80002817390709F45E982091AC043091AD0421
:100A90008091A0049091A1042817390709F45D9A68
:100AA0002091AC043091AD0480919E0490919F04FC
:100AB0002817390709F45D982091AC043091AD04F2
:100AC00080919C0490919D042817390709F45B9A42
:100AD0002091AC043091AD0480919A0490919B04D4
:100AE0002817390709F45B988091AC049091AD0404
:100AF00001969093AD048093AC042091AA043091A8
:100B0000AB048217930720F01092AD041092AC044E
:100B100081E08093E30420E43FE130938700209359
:100B2000860091E19093810024E135E0309301014A
:100B30002093000180936F0008950895009721F09D
:100B4000805C9F4F0C94F9030895AF92BF92CF92AF
:100B5000DF92EF92FF920F931F93CF93DF936C017D
:100B60007B018B01040F151FEB015E01AE18BF085E
:100B7000C017D10759F06991D601ED91FC91019010
:100B8000F081E02DC6010995892B79F7C501DF9128
:100B9000CF911F910F91FF90EF90DF90CF90BF907A
:100BA000AF900895FC01538D448D252F30E0842FA4
:100BB00090E0821B930B541710F0CF960895019785
:100BC0000895FC01918D828D981761F0A28DAE0F72
:100BD000BF2FB11D5D968C91928D9F5F9F73928FF9
:100BE00090E008958FEF9FEF0895FC01918D828D25
:100BF000981731F0828DE80FF11D858D90E00895F2
:100C00008FEF9FEF0895FC01918D228D892F90E049
:100C1000805C9F4F821B91098F739927089583EF02
:100C200094E00E94030621E0892B09F420E0822F42
:100C3000089580E090E0892B29F00E940F06811131
:100C40000C9400000895FC01A48DA80FB92FB11DCC
:100C5000A35ABF4F2C91848D90E001968F739927F2
:100C6000848FA689B7892C93A089B1898C918370D0
:100C700080648C93938D848D981306C00288F389C9
:100C8000E02D80818F7D80830895EF92FF920F93F6
:100C90001F93CF93DF93EC0181E0888F9B8D8C8D28
:100CA00098131AC0E889F989808185FF15C09FB71C
:100CB000F894EE89FF896083E889F98980818370DF
:100CC000806480839FBF81E090E0DF91CF911F918E
:100CD0000F91FF90EF900895F62E0B8D10E00F5FAF
:100CE0001F4F0F731127E02E8C8D8E110CC00FB685
:100CF00007FCFACFE889F989808185FFF5CFCE011D
:100D00000E942306F1CFEB8DEC0FFD2FF11DE35A6E
:100D1000FF4FF0829FB7F8940B8FEA89FB8980819F
:100D20008062CFCFCF93DF93EC01888D8823B9F019
:100D3000AA89BB89E889F9898C9185FD03C08081E6
:100D400086FD0DC00FB607FCF7CF8C9185FFF2CF63
:100D5000808185FFEDCFCE010E942306E9CFDF9190
:100D6000CF910895CF93CFB7F8948091D404811197
:100D700024C0EDE9F5E08491E1EBF5E09491E82FF2
:100D8000F0E0EE0FFF1FE757FA4FA591B491EC91F9
:100D9000E92321F461E08AE00E9475048AE00E9460
:100DA000DA038CB580618CBD8CB580648CBD8DE020
:100DB0000E94DA038BE00E94DA038091D4048F5FF3
:100DC0008093D404CFBFCF910895CF92DF92EF925A
:100DD000FF920F931F93CF93DF93FC01E058FF4FD7
:100DE000E080EE2009F458C0EC01C05CDF4FA88120
:100DF000B981109709F450C0FC01EF57FF4FC08034
:100E0000D180F60111810081ED91FC911197019043
:100E1000F081E02D60EFCD01099588819981DC0199
:100E2000ED91FC910190F081E02D69E709958881B1
:100E30009981DC01ED91FC910190F081E02D602F12
:100E4000099588819981DC01ED91FC910190F081F7
:100E5000E02D612F0995F12C01E010E00F5F1F4F8D
:100E6000E016F10639F0B601600F711FCE010E9445
:100E70001C03F4CF88819981DC01ED91FC910190F4
:100E8000F081E02D67EFDF91CF911F910F91FF90DF
:100E9000EF90DF90CF900994DF91CF911F910F9148
:100EA000FF90EF90DF90CF900895009711F00C9491
:100EB000E50608954F925F926F927F928F929F9274
:100EC000AF92BF92CF92DF92EF92FF920F931F9358
:100ED000CF93DF93CDB7DEB7A0970FB6F894DEBF00
:100EE0000FBECDBFC090D204D090D3048090D00468
:100EF0009090D1044091DF045091E0048091CC04A3
:100F00009091CD040091E1041091E2044090CA0454
:100F10005090CB04052C000C6608770849865A8649
:100F20006B867C86092C000CAA08BB088D829E82E9
:100F3000AF82B8860D2C000CEE08FF08C982DA8259
:100F4000EB82FC82012E000C220B330B098B1A8BD7
:100F50002B8B3C8B052E000C660B770B4D875E8729
:100F60006F87788B198E1A8E1B8E1C8E1D8A1E8A97
:100F70001F8A188E092E000CAA0BBB0B8D8F9E8F1B
:100F8000AF8FB8A3AE014F5F5F4F60E270E080E1CA
:100F90000E944203A0960FB6F894DEBF0FBECDBFED
:100FA000DF91CF911F910F91FF90EF90DF90CF9045
:100FB000BF90AF909F908F907F906F905F904F9079
:100FC0000895FF920F931F93CF93DF93FF24F39421
:100FD000C2E0D0E001E010E080910E0690910F0693
:100FE000DC01ED91FC910084F185E02D0995892BC0
:100FF00009F4CEC180910E0690910F06DC01ED91AF
:10100000FC910284F385E02D09959C018F3F9807A0
:1010100019F3982F8091DB05882309F492C0973F3C
:1010200009F07EC01092DB05A091D305B091D405E4
:101030006C916137C1F1693709F05CC0E091080635
:10104000F0910906309741F28091DC059091DD0521
:101050008330910560F430E020E050E040E070E043
:1010600060E08091EA059091EB050995B5CFBD014F
:101070006D5F7F4F03970E94BB03BC016D5F7F4F85
:1010800080E00E948B03E091D305F091D4059F018D
:101090002D5F3F4F428150E0618170E0E091080692
:1010A000F0910906DECF8091040690910506892B08
:1010B00009F492CFBD016F5F7F4F8091DC05909165
:1010C000DD0501970E94BB03BC016F5F7F4F80E08D
:1010D0000E948B036091D3057091D4056F5F7F4FA1
:1010E000E0910406F09105068091F0059091F105DC
:1010F000099572CFE0910606F0910706309709F442
:101100006BCF9D012F5F3F4F4091DC055091DD0576
:10111000415051098091F2059091F30509955CCFFA
:101120006091DC057091DD05822F0E948B03809118
:10113000DC059091DD0501969093DD058093DC053B
:101140004BCF6091D9057091DA056115710509F4ED
:10115000B1C027FDAFC0615071097093DA0560938B
:10116000D905822F0E948B038091D9059091DA05D1
:10117000892B09F031CF8091D705882309F42CCF32
:10118000803D09F483C040F4803949F1803C09F482
:1011900069C01092D70520CF843FE1F1853F09F463
:1011A0004DC0803EB1F7E091F605F091F70530971C
:1011B00081F3A091D305B091D4054C9120E8429FD2
:1011C000C001112411964C91480F592F511D609167
:1011D000D8058091DE059091DF050995DACFE09181
:1011E000F805F091F9053097A1F2A091D305B091DF
:1011F000D4054C9120E8429FC001112411964C91D6
:10120000480F592F511D6091D8058091E0059091AC
:10121000E105E3CFE091FE05F091FF05309709F479
:10122000B8CFA091D305B091D4054C9150E0119660
:101230006C918091E6059091E705CFCFE091000693
:10124000F0910106309709F4A4CFA091D305B09195
:10125000D4054C9150E011966C918091E8059091E5
:10126000E905BBCFE091FA05F091FB05309709F451
:1012700090CFA091D305B091D4054C9150E06091EE
:10128000D8058091E2059091E305A7CFE091FC0598
:10129000F091FD05309709F47CCFA091D305B09172
:1012A000D4054C9150E06091D8058091E40590916F
:1012B000E50593CF903F30F4822F8F708093D8054F
:1012C000922F907F903FF1F190F4903CB1F150F467
:1012D000903909F081CED093DA05C093D905909367
:1012E000D7057ACE903D49F1903EA9F375CE993F4E
:1012F00009F442C028F48CE0890F823060F36CCE90
:101300009F3F09F069CE1092DA051092D90510922C
:10131000D7051092D80590E080E02091D505309156
:10132000D60582179307A8F4E091D305F091D40570
:10133000E80FF91F10820196F0CF1093DA050093A1
:10134000D905CDCFF092DB051092DD051092DC05BA
:1013500043CE1092DB051092DD051092DC05E09182
:101360000C06F0910D068091F4059091F5053097EB
:1013700009F432CE099530CEE0910A06F0910B06C1
:10138000309709F429CE8091EC059091ED05F2CFCC
:10139000DF91CF911F910F91FF9008958EBD0000B6
:1013A0000DB407FEFDCF8EB50895CF93C82F0E94D0
:1013B000A8048091570681600E94CE098C2F0E945C
:1013C000CE0980E00E94CE09C82F0E94A3048C2F72
:1013D000CF910895CF93DF93D82FC62F0E94A804F2
:1013E000809157060E94CE098D2F0E94CE098C2F26
:1013F0000E94CE09DF91CF910C94A304CF93DF9389
:10140000D82FC62F8AE00E94D50961E070E00D2E2A
:1014100001C0660F0A94EAF7609568238C2F01C01B
:10142000880FDA95EAF7682B8AE0DF91CF910C9468
:10143000EA091F93CF93DF93C1E0D0E001C0CC0F46
:101440008A95EAF71C2F109580E0613091F00E9498
:10145000D5096C2F682B80E00E94EA0986E00E9483
:10146000D509682F612386E0DF91CF911F910C94FD
:10147000EA090E94D509C0956C2F6823ECCFEF9242
:10148000FF920F931F93CF93DF93EC010B811C818D
:101490006017710708F48B01E980FA808D819E81C5
:1014A00001969E838D83019781F48CB58F7D8CBDD1
:1014B0008CB5837F8CBD8CB583608CBD8DB58E7FE4
:1014C0008DBD60E088810E94750484E0EE0CFF1CF5
:1014D0008A95E1F76894E1F811701E29812F0E9426
:1014E000CE09FF24F39481FD14C0F12C8D819E81DF
:1014F00001979E838D83892B21F461E088810E946E
:1015000075048F2DDF91CF911F910F91FF90EF9078
:101510000895802F0E94CE09E9CFEF92FF920F939A
:101520001F93CF93DF93EC017B01842F8901988176
:10153000911114C00E944C04892B49F40E94B004FC
:10154000F701608371838283938381E08883DF91D5
:10155000CF911F910F91FF90EF9008950E944C043E
:10156000892BA9F318820E94B004F70120813181F0
:10157000621B730B6D3DF5E07F0748F3F801718343
:101580006083E5CF4F925F926F927F928F929F928E
:10159000AF92BF92CF92DF92EF92FF92CF93DF9301
:1015A000CDB7DEB764970FB6F894DEBF0FBECDBFE0
:1015B00020E12093810029985E985D985B98909334
:1015C000D3048093D204181619060CF03FC1BC0155
:1015D000A090E104B090E204072E000C880B990B58
:1015E0000E94861820E030E040E752E40E94A217F3
:1015F00020E030E040E05FE30E94D3199B01AC01A2
:1016000060E070E080E89FE30E94A21720E030E0F5
:101610004AE754E40E94D3190E9455187093AB0412
:101620006093AA0490E080E00E9484186B017C0122
:10163000B501BB0C880B990B0E9486189B01AC016D
:101640000E94311720E030E044E354E40E94A217E6
:10165000A70196010E94D3194B015C0120E030E004
:1016600040E85EE3C701B6010E94D31969877A8713
:101670008B879C8720E030E040E05FE3C701B60144
:101680000E94D3196D877E878F87988B20E030E08A
:1016900040E45FE3C701B6010E94D319698B7A8BDE
:1016A0008B8B9C8B20E030E0A901C501B4010E9426
:1016B000311769837A838B839C839B01AC01C701BB
:1016C000B6010E949D1787FF0CC0A7019601698192
:1016D0007A818B819C810E94301769837A838B8306
:1016E0009C8329853A854B855C85C501B4010E94A0
:1016F00031176D837E838F8398879B01AC01C7016F
:10170000B6010E949D1787FF0CC0A70196016D814D
:101710007E818F8198850E9430176D837E838F83B1
:1017200098872D853E854F855889C501B4010E9453
:1017300031172B013C01AC019B01C701B6010E948E
:101740009D1787FF08C0A7019601C301B2010E943F
:1017500030172B013C0129893A894B895C89C501E5
:10176000B4010E9431174B015C01AC019B01C70120
:10177000B6010E949D1787FF08C0A7019601C50109
:10178000B4010E9430174B015C011092A904109221
:10179000A80469817A818B819C810E94551870937D
:1017A000A7046093A60469857A858B859C850E9431
:1017B00055187093A5046093A4046D817E818F8178
:1017C00098850E9455187093A3046093A2046D85B8
:1017D0007E858F8598890E9455187093A104609327
:1017E000A004C301B2010E94551870939F04609336
:1017F0009E0469897A898B899C890E945518709307
:101800009D0460939C04C501B4010E945518709317
:101810009B0460939A041092AD041092AC0481E092
:101820008093E30480E49FE1909387008093860097
:1018300081E18093810010928100109285001092C6
:1018400084008091E30480618093810064960FB6E8
:10185000F894DEBF0FBECDBFDF91CF91FF90EF9028
:10186000DF90CF90BF90AF909F908F907F906F90C0
:101870005F904F900895CF93DF93893E23E09207C6
:1018800014F088EE93E097FF02C090E080E0ECE077
:10189000F1E0D0E0C0E040815181841795071CF150
:1018A0004281538148175907F4F083E0CC0FDD1FC4
:1018B0008A95E1F7FE01E45FFE4F8481958161E046
:1018C000019709F060E083E00E94FE09C45FDE4FEB
:1018D0008E819F8161E0019709F060E082E0DF91F5
:1018E000CF910C94FE0921963896C832D10599F60D
:1018F000DF91CF910895CF93DF93EC01459734F4B6
:1019000061E084E00E94FE0960E008C060E084E0DD
:101910000E94FE0961E0CA32D340B4F385E0DF9152
:10192000CF910C94FE09CF92DF92EF92FF926B0160
:101930007C010E9408056C157D058E059F05C0F091
:101940009B01AC012C193D094E095F0969017A011F
:10195000C094D094E094F094CC24F7FCC394DD249C
:10196000EE24FF248C2DFF90EF90DF90CF90089510
:10197000C61AD70AE80AF90AEFCFCF93DF93CDB79B
:10198000DEB760970FB6F894DEBF0FBECDBF609193
:10199000DB047091DC048091DD049091DE040E94F0
:1019A000930C882301F181E10E944C0461E00197CE
:1019B00009F460E081E10E9475048091D204909165
:1019C000D304181619060CF098C00E94080566503A
:1019D0007F4F8F4F9F4F6093DB047093DC048093A5
:1019E000DD049093DE0422EC34E042E06DEB74E021
:1019F00081EC94E00E948D0A24EC34E047E068EB2F
:101A000074E08CEB94E00E948D0A26EC34E044E014
:101A100063EB74E087EB94E00E948D0A28EC34E0DD
:101A20004EE06EEA74E082EB94E00E948D0A6091D1
:101A3000D7047091D8048091D9049091DA040E945F
:101A4000930C882309F450C09091C8048091C90474
:101A50003091C6042091C7045091C4044091C5043C
:101A60007091C2046091C30479836A835B834C8361
:101A70003D832E839F838887AE014F5F5F4F68E071
:101A800070E085E10E94420389E00E94D50986FB4F
:101A9000882780F98983AE014F5F5F4F61E070E076
:101AA00083E10E94420389E00E94D50990E0880FFB
:101AB000892F881F990B21E082278983AE014F5F10
:101AC0005F4F61E070E084E10E9442030E940805DC
:101AD0006C507E4F8F4F9F4F6093D7047093D80404
:101AE0008093D9049093DA0460960FB6F894DEBF21
:101AF0000FBECDBFDF91CF9108951092C90410920F
:101B0000C8041092C7041092C6041092C504109223
:101B1000C4041092C3041092C2041982AE014F5F34
:101B20005F4F61E070E084E10E9442030E9408057B
:101B300068517C4F8F4F9F4F4ECF4F925F926F9265
:101B40007F92AF92BF92CF92DF92EF92FF920F936C
:101B50001F93CF93DF931F92CDB7DEB78C01809197
:101B6000DF049091E0048017910701F5011511053C
:101B700021F490E080E00E943B0C8AE0282F209F17
:101B8000C001219F900D11240E947B0C0F90DF91CA
:101B9000CF911F910F91FF90EF90DF90CF90BF906A
:101BA000AF907F906F905F904F900895801791074E
:101BB000BCF51092CF041092CE042AE0209F600161
:101BC000219FD00C11244091CE045091CF04452B7D
:101BD00009F040C0289F7001299FF00C11248AE071
:101BE000A82EB12CCE14DF040CF446C0C7010E940D
:101BF0007B0CC7010E943B0C0E9408052B013C0195
:101C000023E0420E511C611C711CC301B2010E94F1
:101C1000930C81110CC00E94E1070E94BD0CF5CF0E
:101C200021E030E03093CF042093CE04C6CFC7012B
:101C3000B5010E9402176983AE014F5F5F4F61E0FB
:101C400070E082E10E9442030E94E1078FEFE81AF0
:101C5000F80AC8CF60E083E00E94FE0960E082E0FD
:101C60000E94FE09C6010E947B0C0115110521F49A
:101C700090E080E00E943B0C1093E0040093DF04AE
:101C800085CFEF92FF920F931F93CF93DF93CDB742
:101C9000DEB7C058D1090FB6F894DEBF0FBECDBF76
:101CA0009E0127573F4FF901419151919F0160E8F3
:101CB00070E08E010F5F1F4FC8010E946F1C7C01F6
:101CC000F80101900020E9F73197BF01601B710B0B
:101CD000A80181E70E944203C701C058DF4F0FB639
:101CE000F894DEBF0FBECDBFDF91CF911F910F9152
:101CF000FF90EF9008954F925F926F927F928F9234
:101D00009F92AF92BF92CF92DF92EF92FF920F938A
:101D10001F93CF93DF9300D000D0CDB7DEB78636C8
:101D2000910514F085E690E08F30910514F48FE072
:101D300090E09093D1048093D0049F938F938EE58D
:101D400092E09F938F930E94410E2091D004309196
:101D5000D1042052310945E0429FC001439F900DBC
:101D6000112469E070E00E940217072E000C880B16
:101D7000990B0E94861823E333E948E853E40E9454
:101D800031179B01AC0160E070E080E89FE30E94A6
:101D9000A2179B01AC0169EE7EE98AEA9AE30E94F0
:101DA000301721EE31EC49E354E30E94A2176B0196
:101DB0007C01AC019B010E94D31920E030E040E897
:101DC0005EE30E94D31921E23EE44CEE5CE40E9403
:101DD00031170E94961A4B015C0120E030E040E090
:101DE0005FE3C701B6010E94D3196B017C01AC010E
:101DF0009B01C501B4010E9430172BEA3AEA4AEA76
:101E00005EE30E94401A2B013C01A7019601C50127
:101E1000B4010E9431172BEA3AEA4AEA5EE30E94D3
:101E2000401A9B01AC01C301B2010E9430170E940D
:101E30001C180E944E187B01FF926F938DE692E072
:101E40009F938F930E94410E8701FF92EF9289E743
:101E500092E09F938F930E94410E1F928FEF8F937A
:101E600084E08F938CEF8F9382EA92E09F938F931D
:101E70000E94410E44E050E065E671E0CE0101961B
:101E80000E9496168B819C810FB6F894DEBF0FBE20
:101E9000CDBF8E159F0508F450C09F938F93FF927E
:101EA000EF9281EC92E09F938F930E94410EE98024
:101EB000F12C0A8110E08C818F938B818F938AECB7
:101EC00092E09F938F930E94410E0FB6F894DEBF6D
:101ED0000FBECDBF1F930F93FF92EF928DEE92E056
:101EE0009F938F930E94410EB7018091E6049091D9
:101EF000E7040E943F0AB8018091E4049091E50450
:101F00000E943F0A0F900F900F900F900F900F902C
:101F10000F900F900F900F90DF91CF911F910F9125
:101F2000FF90EF90DF90CF90BF90AF909F908F90F9
:101F30007F906F905F904F90089585E6E82E81E046
:101F4000F82ED12CC12C44E050E0B701CE0101960F
:101F50000E9496168B819C818017910708F19F93B0
:101F60008F931F930F9381EC92E09F938F930E9426
:101F7000410E8981E82EF12C9A81092F10E01F92E1
:101F80009F931F928F93DF92CF928C818F938B813F
:101F90008F938BED92E09F938F930E94410E95CF8C
:101FA0003FEFC31AD30A84E0E80EF11C9FEFC91675
:101FB000D10449F681E093E09F938F930E94410EF4
:101FC00044E050E06DE575E0CE0101960E94961662
:101FD000E980F12C0A8110E01F928EEF8F938C81A3
:101FE0008F938B818F938DE193E09F938F930E94CA
:101FF000410E6BCFEF92FF920F931F93CF93DF931E
:102000007B018A01E9010E94C20AC7010E947B0E7E
:10201000C8010E949D0DD093CD04C093CC04DF91E4
:10202000CF911F910F91FF90EF9008954F925F9283
:102030006F927F928F929F92AF92BF92CF92DF92D8
:10204000EF92FF920F931F93CF93DF9300D01F92D5
:10205000CDB7DEB78132910514F080E290E08B3E7F
:102060002FEF920714F48BEE9FEF9093CB048093A5
:10207000CA049F938F938FE293E09F938F930E9464
:10208000410E2091CA043091CB042052310945E021
:10209000429FC001439F900D112469E070E00E94AF
:1020A0000217072E000C880B990B0E94861823E359
:1020B00033E948E853E40E9431179B01AC0160E02A
:1020C00070E080E89FE30E94A2179B01AC0160E0F2
:1020D00075ED8CEE9AE30E9430172AE736E145E26F
:1020E00055E30E94A2176B017C01AC019B010E9489
:1020F000D31920E030E040E85EE30E94D31928EED7
:102100003BE44DE25AE40E9431170E94961A4B01BB
:102110005C0120E030E040E05FE3C701B6010E94CF
:10212000D3196B017C01AC019B01C501B4010E9474
:1021300030172BEA3AEA4AEA5EE30E94401A2B0182
:102140003C01A7019601C501B4010E9431172BEA99
:102150003AEA4AEA5EE30E94401A9B01AC01C301DD
:10216000B2010E9430170E941C180E944E187B0179
:10217000FF926F938DE692E09F938F930E94410EA2
:102180008701FF92EF928AE393E09F938F930E94DF
:10219000410E43E050E06AEE70E0CE0101960E94ED
:1021A00096168A819B810FB6F894DEBF0FBECDBF15
:1021B0008E159F05A8F1098110E09F938F938EE5FE
:1021C00093E09F938F930E94410E0F900F900F907A
:1021D0000F901F930F938BE693E09F938F930E9432
:1021E000410EB8018091E8049091E9040E943F0AF1
:1021F0000F900F900F900F900F900F900F90DF9116
:10220000CF911F910F91FF90EF90DF90CF90BF90F3
:10221000AF909F908F907F906F905F904F900895B8
:102220008AEEE82E80E0F82E43E050E0B701CE01C0
:1022300001960E9496168A819B818017910708F06B
:10224000BACF33E0E30EF11C85E6E81681E0F8062C
:1022500059F743E050E062E671E0CE0101960E943A
:102260009616098110E08B818F938A81A7CFEF9218
:10227000FF920F931F93CF93DF93082F162FEA013E
:10228000EFEFE80FEF30B0F4F0E0E75BFE4E0C94B8
:1022900016175811C111D611E311F011FD110A12D0
:1022A00017122412311266117B11911186119C11A3
:1022B0000E945A07612F70E0AE01802FDF91CF910D
:1022C0001F910F91FF90EF900C944203F880E980EA
:1022D0008F2D9E2D0E947B0EEF92FF9284E793E05C
:1022E0009F938F930E94410E0E945A070F900F9068
:1022F0000F900F90DFCFF880E9808F2D9E2D0E94E8
:102300001610EF92FF928DE893E0EACFF880E98013
:102310008F2D9E2D0E949D0DEF92FF9282EA93E0F9
:10232000DFCFF880E9808F2D9E2D0E94C20AEF92A8
:10233000FF9285EB93E0D4CFF8808F2D90E0873229
:102340009105E4F09093E2048093E1048091E1042C
:102350009091E2048234914034F081E491E09093D2
:10236000E2048093E1048091D2049091D3040E940E
:10237000C20A1F92FF9280ED93E0B2CF87E290E015
:10238000E1CF30E020E050E040E060E270E090E03B
:1023900080E00E94FA0F80EF93E09F938F930E945A
:1023A000410E0E945A070F900F9084CF30E020E03A
:1023B00050E040E060E270E08CE291E00E94FA0FB1
:1023C00082E094E0EACF2FE030E050E040E060E2CD
:1023D00070E080EB94E00E94FA0F8CE194E0DDCF96
:1023E0002FE030E050E040E069EB70E08CEB92E0F1
:1023F0000E94FA0F86E294E0D0CF2BE030E041E17A
:1024000050E069EB70E088E795E00E94FA0F8FE2F8
:1024100094E0C3CF2BE030E049E150E069EB70E09D
:1024200088EB9BE00E94FA0F8FE394E0B6CF29E09F
:1024300030E04EE150E069EB70E088E097E00E9408
:10244000FA0F8FE494E0A9CF27E030E042E350E0B8
:1024500069EB70E08CEA9DE00E94FA0F83E694E05D
:102460009CCF22E030E04FE550E069EB70E080E780
:1024700097E10E94FA0F89E794E08FCF1F920F92A5
:102480000FB60F9211242F933F938F939F93AF9387
:10249000BF938091EB049091EC04A091ED04B09176
:1024A000EE043091EA0423E0230F2D3758F501960E
:1024B000A11DB11D2093EA048093EB049093EC04DA
:1024C000A093ED04B093EE048091EF049091F0049A
:1024D000A091F104B091F2040196A11DB11D809369
:1024E000EF049093F004A093F104B093F204BF9131
:1024F000AF919F918F913F912F910F900FBE0F90B1
:102500001F90189526E8230F0296A11DB11DD2CF6A
:102510001F920F920FB60F9211242F933F934F9358
:102520005F936F937F938F939F93AF93BF93EF933B
:10253000FF9383EF94E00E942306FF91EF91BF91F8
:10254000AF919F918F917F916F915F914F913F914B
:102550002F910F900FBE0F901F9018951F920F9202
:102560000FB60F9211242F938F939F93EF93FF93A6
:10257000E0910305F09104058081E0910905F09157
:102580000A0582FD1BC0908180910C058F5F8F73BF
:1025900020910D05821741F0E0910C05F0E0ED501F
:1025A000FB4F958F80930C05FF91EF919F918F9139
:1025B0002F910F900FBE0F901F9018958081F4CF30
:1025C0001F920F920FB60F9211242F933F934F93A8
:1025D0005F936F937F938F939F93AF93BF93EF938B
:1025E000FF93E0910001F09101010995FF91EF91B6
:1025F000BF91AF919F918F917F916F915F914F911B
:102600003F912F910F900FBE0F901F901895E3EF01
:10261000F4E01382128288EE93E0A0E0B0E08483BD
:102620009583A683B78380E592E09183808385ECD0
:1026300090E09587848784EC90E09787868780EC8C
:1026400090E0918B808B81EC90E0938B828B82EC7D
:1026500090E0958B848B86EC90E0978B868B118E27
:10266000128E138E148E80E995E01092D10510928F
:10267000D0059093D4058093D30520E430E03093C7
:10268000D6052093D5051092D7051092D805109243
:10269000DA051092D9051092DB051092DD05109233
:1026A000DC051092DF051092DE051092E105109214
:1026B000E0051092E3051092E2051092E5051092F4
:1026C000E4051092E7051092E6051092E9051092D4
:1026D000E8051092EF051092EE051092F1051092A8
:1026E000F0051092F3051092F2051092F505109284
:1026F000F40510920306109202061092D205109271
:10270000100610921206109211061092550629E03A
:1027100033E03093F7052093F6052AE033E0309359
:10272000F9052093F8052BE033E03093FB05209367
:10273000FA052CE033E03093FD052093FC052DE0F5
:1027400033E03093FF052093FE052EE033E0309315
:102750000106209300062FE033E030930506209316
:10276000040620E133E0309307062093060625E5B2
:1027700037E030930906209308069093EB05809389
:10278000EA052EE935E030930B0620930A06909374
:10279000ED058093EC058BE193E090930D0680931B
:1027A0000C06E6E5F6E080E1808380E4818308950D
:1027B000789484B5826084BD84B5816084BD85B51C
:1027C000826085BD85B5816085BD80916E00816028
:1027D00080936E00109281008091810082608093CE
:1027E00081008091810081608093810080918000D0
:1027F0008160809380008091B10084608093B100FB
:102800008091B00081608093B00080917A008460F4
:1028100080937A0080917A00826080937A00809120
:102820007A00816080937A0080917A00806880933A
:102830007A001092C10088E0809310068091110602
:10284000909112060E94D71BC0911006D0E0CE01D5
:1028500001960E943B1B9093120680931106FC0187
:10286000EC0FFD1F108212E0FC0110831182AE01FB
:10287000425051096FE874E002960E94601C87E3A1
:1028800091E19093D6048093D504E0910305F091F3
:1028900004051083E0910305F09104051082E09196
:1028A000FF04F09100051082E0910105F09102050E
:1028B00080E1808310920B05E0910705F0910805F7
:1028C00086E08083E0910505F091060580818061B6
:1028D0008083E0910505F091060580818860808302
:1028E000E0910505F0910605808180688083E09184
:1028F0000505F091060580818F7D808380915506C6
:1029000081114EC08DE00E94DA0362ED70E080E03C
:1029100090E00E94D50461E08DE00E94750468E2B9
:1029200070E080E090E00E94D50460E08DE00E94BD
:10293000750462ED70E080E090E00E94D50461E0F3
:102940008DE00E94750468E270E080E090E00E94F3
:10295000D50460E08DE00E9475046AEF70E080E0CD
:1029600090E00E94D504C5E062ED70E080E090E068
:102970000E94D50461E08DE00E94750468E270E079
:1029800080E090E00E94D50460E08DE00E94750434
:10299000C15051F76DE770E080E090E00E94D504EF
:1029A00083EF94E090930F0680930E069093D105E9
:1029B0008093D00580ED95E00E94F90380E995E0D1
:1029C0000E94E50681E10E94DA0361E081E10E9454
:1029D0007504219A2998569A5E98559A5D98539A4B
:1029E0005B9883E10E94DA0361E083E10E94750451
:1029F00082E10E94DA0361E082E10E94750488E0CE
:102A00000E94DA0361E088E00E94750480E10E9480
:102A1000DA0361E080E10E94750487E090E00E94A3
:102A20003B1BEC0183E188831A82198200E810E0E5
:102A30001C830B831E821D820E94B20688810E9425
:102A4000DA0361E088810E947504D093E904C093A1
:102A5000E80487E090E00E943B1BEC0182E1888360
:102A60001A8219821C830B831E821D820E94B20669
:102A700088810E94DA0361E088810E947504D09306
:102A8000E704C093E60487E090E00E943B1BEC0162
:102A900088E088831A8219821C830B831E821D8220
:102AA0000E94B20688810E94DA0361E088810E9458
:102AB0007504D093E504C093E40461E082E00E94D1
:102AC000190A61E083E00E94190A61E084E00E9433
:102AD000190A61E085E00E94190A60E086E00E9420
:102AE000190A60E087E00E94190A6CE386E00E9400
:102AF000EA0980E1809381001092800091E0909338
:102B0000E304109287001092860021E12093810057
:102B100024E135E0309301012093000190936F0090
:102B20008093810087E890E09093E2048093E10431
:102B30001092E0041092DF0486E480937C00809180
:102B40007A00806480937A0080917A0086FDFCCFC1
:102B50008091780060917900762F682F072E000C05
:102B6000880B990B611571058105910511F00E9483
:102B70008D1630E020E050E040E060E270E090E050
:102B800080E00E94FA0F80E290E00E9416100E94FE
:102B9000080568517C4F8F4F9F4F6093DB04709303
:102BA000DC048093DD049093DE040E9408056C50E1
:102BB0007E4F8F4F9F4F6093D7047093D8048093BC
:102BC000D9049093DA04C0E0D0E00E94E1070E94AB
:102BD000BD0C2097D1F30E940F068823B1F30E9409
:102BE0000000F3CF8F929F92AF92BF92CF92DF926D
:102BF000EF92FF92CF93DF93EC01688179818A8114
:102C00009B81611571058105910521F464E279EDDF
:102C10008BE597E02DE133EF41E050E00E949F16F5
:102C200049015A019B01AC01A7EAB1E40E94BE161A
:102C30006B017C01ACEEB4EFA50194010E94CC16AF
:102C4000C60ED71EE81EF91EF7FE06C081E0C81AA0
:102C5000D108E10880E8F80AC882D982EA82FB82BA
:102C6000C701B6019F77DF91CF91FF90EF90DF9082
:102C7000CF90BF90AF909F908F9008958F929F922A
:102C8000AF92BF92CF92DF92EF92FF9260910201DA
:102C90007091030180910401909105016115710506
:102CA0008105910521F464E279ED8BE597E02DE152
:102CB00033EF41E050E00E949F1649015A019B0109
:102CC000AC01A7EAB1E40E94BE166B017C01ACEE38
:102CD000B4EFA50194010E94CC16C60ED71EE81EC3
:102CE000F91EF7FE06C081E0C81AD108E10880E8A5
:102CF000F80AC0920201D0920301E0920401F0921E
:102D00000501C701B6019F77FF90EF90DF90CF904C
:102D1000BF90AF909F908F90089560930201709341
:102D2000030180930401909305010895FB01DC01E8
:102D300002C005900D9241505040D8F70895052EDD
:102D400097FB1EF400940E94B61657FD07D00E9410
:102D5000D11607FC03D04EF40C94B616509540954E
:102D6000309521953F4F4F4F5F4F08959095809537
:102D7000709561957F4F8F4F9F4F08950E94F31676
:102D8000A59F900DB49F900DA49F800D911D1124BF
:102D90000895B7FF0C94BE160E94BE16821B930BBB
:102DA0000895A1E21A2EAA1BBB1BFD010DC0AA1F8C
:102DB000BB1FEE1FFF1FA217B307E407F50720F0A4
:102DC000A21BB30BE40BF50B661F771F881F991F1F
:102DD0001A9469F760957095809590959B01AC0168
:102DE000BD01CF010895A29FB001B39FC001A39F71
:102DF000700D811D1124911DB29F700D811D112434
:102E0000911D089597FB072E16F4009407D077FDC7
:102E100009D00E941C1707FC05D03EF490958195BF
:102E20009F4F0895709561957F4F0895EE0FFF1F96
:102E30000590F491E02D0994AA1BBB1B51E107C03A
:102E4000AA1FBB1FA617B70710F0A61BB70B881F3A
:102E5000991F5A95A9F780959095BC01CD010895C9
:102E60005058BB27AA270E9448170C9423190E9488
:102E7000151938F00E941C1920F039F49F3F19F4FD
:102E800026F40C94EB180EF4E095E7FB0C94E5188F
:102E9000E92F0E94341958F3BA17620773078407A1
:102EA000950720F079F4A6F50C9456190EF4E095E8
:102EB0000B2EBA2FA02D0B01B90190010C01CA01F4
:102EC000A0011124FF27591B99F0593F50F4503E9F
:102ED00068F11A16F040A22F232F342F4427585F91
:102EE000F3CF469537952795A795F0405395C9F7A9
:102EF0007EF41F16BA0B620B730B840BBAF0915061
:102F0000A1F0FF0FBB1F661F771F881FC2F70EC0FF
:102F1000BA0F621F731F841F48F4879577956795D2
:102F2000B795F7959E3F08F0B0CF9395880F08F0BE
:102F30009927EE0F9795879508950E94C11808F478
:102F400081E008950E94B6170C9423190E941C1961
:102F500058F00E94151940F029F45F3F29F00C94B5
:102F6000E51851110C9457190C94EB180E94341960
:102F700068F39923B1F3552391F3951B550BBB27A8
:102F8000AA2762177307840738F09F5F5F4F220FED
:102F9000331F441FAA1FA9F335D00E2E3AF0E0E8E4
:102FA00032D091505040E695001CCAF72BD0FE2F2E
:102FB00029D0660F771F881FBB1F261737074807C2
:102FC000AB07B0E809F0BB0B802DBF01FF2793587A
:102FD0005F4F3AF09E3F510578F00C94E5180C9441
:102FE00057195F3FE4F3983ED4F38695779567953C
:102FF000B795F7959F5FC9F7880F911D96958795AF
:1030000097F90895E1E0660F771F881FBB1F6217CD
:1030100073078407BA0720F0621B730B840BBA0B8B
:10302000EE1F88F7E095089529F416F00C94E51842
:103030000C9456190C94EB180E943C19A8F396387E
:10304000A0F707F80F92E8942BE33AEA48EB5FE722
:103050000E94E9190F920F920F924DB75EB70F922F
:103060000E949F19E8E6F0E00E94EE184F915F91F0
:10307000EF91FF91E595EE1FFF1F49F0FE57E068C5
:103080004427EE0F441FFA95E1F74195550B0E9436
:1030900069190F9007FE0C945D1908950E94551848
:1030A0006894B1110C94571908950E943C1988F046
:1030B0009F5798F0B92F9927B751B0F0E1F0660FFC
:1030C000771F881F991F1AF0BA95C9F714C0B1303D
:1030D00091F00E945619B1E008950C945619672F8B
:1030E000782F8827B85F39F0B93FCCF3869577956C
:1030F0006795B395D9F73EF4909580957095619555
:103100007F4F8F4F9F4F0895E89409C097FB3EF47F
:1031100090958095709561957F4F8F4F9F4F992324
:10312000A9F0F92F96E9BB279395F69587957795A2
:103130006795B795F111F8CFFAF4BB0F11F460FF62
:103140001BC06F5F7F4F8F4F9F4F16C0882311F0BA
:1031500096E911C0772321F09EE8872F762F05C0CE
:10316000662371F096E8862F70E060E02AF09A9569
:10317000660F771F881FDAF7880F9695879597F95E
:103180000895990F0008550FAA0BE0E8FEEF1616F8
:103190001706E807F907C0F012161306E407F5074B
:1031A00098F0621B730B840B950B39F40A2661F0BF
:1031B000232B242B252B21F408950A2609F4A14062
:1031C000A6958FEF811D811D089597F99F6780E86F
:1031D00070E060E008959FEF80EC0895DF93CF9357
:1031E0001F930F93FF92EF92DF927B018C01689403
:1031F00006C0DA2EEF010E94E619FE01E894A591BF
:103200002591359145915591A6F3EF010E944817FC
:10321000FE019701A801DA9469F7DF90EF90FF9023
:103220000F911F91CF91DF91089500240A941616F3
:10323000170618060906089500240A9412161306A4
:10324000140605060895092E0394000C11F4882332
:1032500052F0BB0F40F4BF2B11F460FF04C06F5F4E
:103260007F4F8F4F9F4F089557FD9058440F551F24
:1032700059F05F3F71F04795880F97FB991F61F0F8
:103280009F3F79F087950895121613061406551F6F
:10329000F2CF4695F1DF08C0161617061806991FDB
:1032A000F1CF86957105610508940895E894BB27D0
:1032B00066277727CB0197F908959B01AC0160E061
:1032C00070E080E89FE30C94A2170C94E5180C942E
:1032D000D61A0E943C19D8F39923C9F3940F511DB3
:1032E000A3F39150504094F059F0882332F0660FC8
:1032F000771F881F91505040C1F79E3F51052CF712
:10330000880F911D9695879597F908955F3FACF0CA
:10331000983E9CF0BB27869577956795B79508F4FE
:10332000B1609395C1F7BB0F58F711F460FFE8CF78
:103330006F5F7F4F8F4F9F4FE3CF0C945719FA0168
:10334000DC01AA0FBB1F9B01AC01BF5728F4222749
:1033500033274427507820C0B75190F4AB2F002476
:10336000469537952795011CA395D2F3002071F05F
:10337000220F331F441FB395DAF30ED00C9430178D
:1033800061307105A0E88A07B94630F49B01AC01B1
:103390006627772788279078309621F0208331831D
:1033A0004283538308950E94E6190C9423190E94C6
:1033B000151938F00E941C1920F0952311F00C9477
:1033C000E5180C94EB1811240C9457190E94341929
:1033D00070F3959FC1F3950F50E0551F629FF00168
:1033E000729FBB27F00DB11D639FAA27F00DB11D81
:1033F000AA1F649F6627B00DA11D661F829F22270A
:10340000B00DA11D621F739FB00DA11D621F839F90
:10341000A00D611D221F749F3327A00D611D231F66
:10342000849F600D211D822F762F6A2F11249F57B4
:1034300050409AF0F1F088234AF0EE0FFF1FBB1FB7
:10344000661F771F881F91505040A9F79E3F510576
:1034500080F00C94E5180C9457195F3FE4F3983E04
:10346000D4F3869577956795B795F795E7959F5F20
:10347000C1F7FE2B880F911D9695879597F90895B2
:10348000FA01EE0FFF1F309621053105A1F16115FC
:10349000710561F48038BFE39B0749F16894903867
:1034A000810561F08038BFEF9B0741F099234AF511
:1034B000FF3FE1053105210519F1E8940894E795EE
:1034C000D901AA2329F4AB2FBE2FF85FD0F310C087
:1034D000FF5F70F4A695E0F7F73950F019F0FF3A66
:1034E00038F49F779F930DD00F9007FC9058089564
:1034F00046F00C94EB1860E070E080E89FE30895DC
:103500004FE79F775F934F933F932F930E94F31A58
:103510002F913F914F915F910E94D3190C941C18E9
:1035200019F416F40C94EB180C94D61A0E943C195A
:10353000B8F39923C9F3B6F39F57550B87FF0E9441
:10354000E41A0024A0E640EA900180585695979529
:1035500028F4805C660F771F881F20F02617370736
:10356000480730F4621B730B840B202931294A2B46
:10357000A69517940794202531254A2758F7660FFA
:10358000771F881F20F026173707480730F4620B93
:10359000730B840B200D311D411DA09581F7B901DE
:1035A000842F9158880F9695879508959F3F31F005
:1035B000915020F4879577956795B795880F911D61
:1035C0009695879597F9089591505040660F771F0B
:1035D000881FD2F7089516F00C94D61A0C94EB18A5
:1035E00068940C94E5180E943C19A8F39923C1F340
:1035F000AEF3DF93CF931F930F93FF92C92FDD2775
:1036000088232AF02197660F771F881FDAF720E0BA
:1036100030E040E85FEB9FE3883920F0803E38F0EF
:1036200021968F770E943117E0E9F0E004C00E94F4
:103630003117EDEBF0E00E94EE188B01BE01EC01BA
:10364000FB2E6F5771097595771F880B990B0E9498
:10365000861828E132E741E35FE30E94E619AF2DC7
:103660009801AE01FF900F911F91CF91DF910E94C1
:1036700048170C9423190F931F93CF93DF93823035
:10368000910510F482E090E0E0915A06F0915B061B
:1036900030E020E0B0E0A0E0309799F4211531054A
:1036A00009F44AC0281B390B24303105D8F58A812A
:1036B0009B816115710589F1FB0193838283FE0172
:1036C00011C0408151810281138148175907E0F0F0
:1036D0004817590799F4109761F012960C931297B6
:1036E00013961C933296CF01DF91CF911F910F91CA
:1036F000089500935A0610935B06F4CF2115310507
:1037000051F04217530738F0A901DB019A01BD01BE
:10371000DF01F801C1CFEF01F9CF90935B068093F1
:103720005A06CDCFFE01E20FF31F819391932250F1
:10373000310939832883D7CF209158063091590613
:10374000232B41F42091080130910901309359064F
:10375000209358062091060130910701211531056B
:1037600041F42DB73EB740910A0150910B01241B43
:10377000350BE0915806F0915906E217F307A0F4D3
:103780002E1B3F0B2817390778F0AC014E5F5F4FB7
:103790002417350748F04E0F5F1F5093590640938A
:1037A0005806819391939FCFF0E0E0E09CCFCF93B8
:1037B000DF930097E9F0FC01329713821282A09107
:1037C0005A06B0915B06ED0130E020E01097A1F4BD
:1037D00020813181820F931F209158063091590624
:1037E0002817390709F061C0F0935906E09358068D
:1037F000DF91CF910895EA01CE17DF07E8F54A81FE
:103800005B819E0141155105B1F7E901FB83EA8314
:1038100049915991C40FD51FEC17FD0761F48081C0
:1038200091810296840F951FE90199838883828193
:1038300093819B838A83F0E0E0E012968D919C91C6
:1038400013970097B9F52D913C911197CD010296F0
:10385000820F931F20915806309159062817390777
:1038600039F6309751F510925B0610925A06B093D4
:103870005906A0935806BCCFD383C283408151819F
:10388000840F951FC817D90761F44E5F5F4F888179
:103890009981480F591F518340838A819B8193836B
:1038A00082832115310509F0B0CFF0935B06E093D8
:1038B0005A069ECFFD01DC01C0CF13821282D7CF02
:1038C000FB01DC014150504048F001900D92002076
:1038D000C9F701C01D9241505040E0F70895AEE095
:1038E000B0E0E5E7FCE10C94271F8C01FA0186E0CB
:1038F0008C831A83098377FF02C060E070E861500F
:1039000071097E836D83A901BF01CE0101960E94DA
:103910009B1C4D815E8157FD0AC02F81388542175F
:1039200053070CF49A01020F131FF80110822E9610
:10393000E4E00C94431FABE0B0E0E1EAFCE10C945E
:10394000191F7C013B018A01FC01178216828381C9
:1039500081FFC8C1CE0101965C01F7019381F3019B
:1039600093FD859193FF81913F01882309F453C111
:10397000853239F493FD859193FF81913F01853222
:1039800029F4B70190E00E948B1EE7CF912C212CE7
:10399000312CFFE1F31538F08B3211F190F48032C5
:1039A00009F1833229F137FC3CC020ED280F2A3081
:1039B00050F536FE20C08AE0989E200D1124922EEC
:1039C00006C08D3291F0803371F7689430F8F301BE
:1039D00093FD859193FF81913F018111DACF21C041
:1039E000689431F8689432F8F2CF689433F8EFCFE6
:1039F000689434F8ECCFEAE02E9E200D1124222E9C
:103A0000689435F8E4CF8E3229F436FC04C168940A
:103A100036F8DDCF8C3619F4689437F8D8CF88366D
:103A2000B1F2982F9F7D95549330E0F08336A1F149
:103A30008337C1F1833509F063C02801F2E04F0EEE
:103A4000511CF801C080D180692D70E036FC02C0A5
:103A50006FEF7FEFC6010E94751E4C01689437F826
:103A600082010AC00C5F1F4FFFE3F983882483940F
:103A7000912C6501E89437F833FE2DC0522C811447
:103A8000910471F5552009F468CFB70180E290E008
:103A90000E948B1E5A94F6CFF801808189830E5FB5
:103AA0001F4FE4CF2801F2E04F0E511CF801C080F7
:103AB000D180692D70E036FC02C06FEF7FEFC60148
:103AC0000E94801E4C018201D5CFB70180E290E0B8
:103AD0000E948B1E2A942814190409F0B0F7CECF47
:103AE000F60137FC859137FE81916F01B70190E0B7
:103AF0000E948B1E51105A94F1E08F1A9108BFCF8B
:103B0000843619F0893609F077C0F80137FE6BC0AA
:103B100060817181828193810C5F1F4FF32DFF764D
:103B20003F2E97FF09C090958095709561957F4FC6
:103B30008F4F9F4F689437F82AE030E0A5010E942C
:103B4000BB1EC82ECA188C2C432C36FE0CC0E89421
:103B500040F8C91440F434FE05C032FC03C0F32D14
:103B6000FE7E4F2E892C44FE95C0FE01EC0DF11D0A
:103B70008081803309F087C0242D297E422E842D38
:103B80008870582E43FC95C040FE8FC09C2C821438
:103B900018F42C0C922C981844FE91C0B70180E3C5
:103BA00090E00E948B1E42FE09C088E790E041FE33
:103BB00002C088E590E0B7010E948B1EC91408F48A
:103BC0008AC0CA94D12C9FEFC91AD90ACA0CDB1C2F
:103BD000F60182916F01B70190E00E948B1EAC1438
:103BE000BD04B1F74FCF60817181072E000C880BA7
:103BF000990B0E5F1F4F92CFD32CE894D4F82AE094
:103C000030E0853739F1232D297FD22E8F3601F10F
:103C100048F48835A9F0F701868197812B96E2E177
:103C20000C94351F803749F08837A9F7D4FE02C0BD
:103C30006894D2F820E130E00DC06894D4F8F6CF53
:103C400034FE03C0822F8660D82E20E132E002C00D
:103C500028E030E0F801D7FE0FC0608171818281D9
:103C600093810C5F1F4FA5010E94BB1EC82ECA186E
:103C70003D2CE89437F867CF6081718190E080E057
:103C80000E5F1F4FF0CF42FC02C0839478CF839425
:103C9000839475CF842D867809F471CFF6CFB70160
:103CA00080E290E00E948B1E83948214C0F3512C1A
:103CB00073CF522C5818821408F46ECFF8CF842D8D
:103CC000867809F47BCF8BE241FE80E247FC8DE2EF
:103CD000B70190E071CFB70180E390E00E948B1EA6
:103CE0009A946CCF8FEF9FEF99CFFC0105906150B4
:103CF00070400110D8F7809590958E0F9F1F089502
:103D0000FC016150704001900110D8F780959095AA
:103D10008E0F9F1F08950F931F93CF93DF93182F3C
:103D2000092FEB018B8181FD09C01FEF0FEF812F60
:103D3000902FDF91CF911F910F91089582FF14C0B2
:103D40002E813F818C819D81281739073CF4E881C1
:103D5000F981CF0101969983888310838E819F8199
:103D600001969F838E83E3CFE885F985812F09959E
:103D7000892BA1F3DACFFA01AA27283051F120319B
:103D800081F1E8946F936E7F6E5F7F4F8F4F9F4FEF
:103D9000AF4FB1E03ED0B4E03CD0670F781F891F31
:103DA0009A1FA11D680F791F8A1F911DA11D6A0FFF
:103DB000711D811D911DA11D20D009F468943F91B2
:103DC0002AE0269F11243019305D3193DEF6CF01B1
:103DD0000895462F4770405D4193B3E00FD0C9F777
:103DE000F6CF462F4F70405D4A3318F0495D31FDE4
:103DF0004052419302D0A9F7EACFB4E0A695979537
:103E0000879577956795BA95C9F70097610571050C
:103E100008959B01AC010A2E069457954795379556
:103E20002795BA95C9F7620F731F841F951FA01DB0
:103E300008952F923F924F925F926F927F928F924E
:103E40009F92AF92BF92CF92DF92EF92FF920F9329
:103E50001F93CF93DF93CDB7DEB7CA1BDB0B0FB633
:103E6000F894DEBF0FBECDBF09942A8839884888F0
:103E70005F846E847D848C849B84AA84B984C88486
:103E8000DF80EE80FD800C811B81AA81B981CE0F7D
:103E9000D11D0FB6F894DEBF0FBECDBFED01089562
:043EA000F894FFCFC4
:103EA4009D050100000000005C06800000001D006C
:103EB400000001001E002C00000000002D00440042
:103EC40001000000450053000000000054005900A8
:103ED400000001005A006800000000006900800032
:103EE4000100000081008F00000000009000950098
:103EF400000001009600A40000000000A500BC0022
:103F040001000000BD00CB0000000000CC00D10087
:103F140000000100D200E00000000000E100F70012
:103F240001000000F80006010000000007010D0177
:103F3400000001000E011B01000000001C01330100
:103F44000100000034014301000000004401480165
:103F540000000100490157010000000058016F01F1
:103F64000100000070017E01000000007F01840157
:103F74000000010085019301000000009401AB01E1
:103F840001000000AC01BA0100000000BB01C00147
:103F940000000100C101CF0100000000D001E901CF
:103FA40001000000EA01F60100000000F701FC0135
:103FB40000000100FD010B02000000000C022302BE
:103FC4000100000024023202000000003302380223
:103FD40000000100390247020000000048025E02AE
:103FE400010000005F02E80301000000000000007F
:103FF4004506A505D20592060306E105F505636F9E
:104004006F6C616E7474656D703D25640043616C02
:10401400632052203D2025640047657474696E67EF
:1040240020636F6F6C616E742077697065727320A2
:10403400666F7220726573697374616E63653D2582
:1040440064004C6F7765737420523D2564204E756F
:104054006D5461626C65456E74726965733D256467
:10406400002564203C3D202564004D61746368652F
:104074006420523D256420283029004D6174636812
:10408400656420523D2564202825642920576970E1
:104094006572313D2564205769706572323D25642F
:1040A400004E6F206D617463682C20757365206CFD
:1040B4006172676573742076616C7565004D617417
:1040C4006368656420523D256420282564290061C5
:1040D400697274656D703D25640047657474696E1A
:1040E400672061697220776970657220666F72203B
:1040F400726573697374616E63653D2564004D6117
:10410400746368656420523D256400576970657264
:104114003D25640053657420636F6F6C616E742079
:1041240074656D7020746F20256420460053657497
:10413400206169722074656D7020746F202564207D
:104144004600536574207468726F74746C652074CF
:104154006F2025640053657420656E67696E652061
:10416400737065656420746F2025642052504D007F
:104174005365742070756C7365206477656C6C206E
:10418400616E676C6520746F202564206465670028
:104194005475726E656420656E67696E65206F661E
:1041A4006600456E67696E65206372616E6B696E49
:1041B400672061742033303052504D00436F6C647B
:1041C4002069646C6500486F742069646C65004301
:1041D40072756973652061742033304D5048004313
:1041E40072756973652061742037304D50480047FB
:1041F400656E746C6520616363656C657261746976
:104204006F6E004D6F6465726174652061636365F0
:104214006C65726174696F6E0048617264206163D9
:1042240063656C65726174696F6E007372635C536D
:0A423400657269616C2E6370700002
:00000001FF
