:100000000C94DF020C9407030C9407030C94070371
:100010000C9407030C9407030C9407030C94070338
:100020000C9407030C9407030C9407030C94070328
:100030000C9407030C946A150C9407030C940703A3
:100040000C94C8140C9407030C9438150C941215D6
:100050000C9407030C9407030C9407030C940703F8
:100060000C9407030C94070307634236B79BD8A789
:100070001A39685618AEBAAB558C1D3CB7CC5763CD
:10008000BD6DEDFD753EF6177231BF000000803F7B
:1000900008000000BE922449123EABAAAA2ABECD97
:1000A000CCCC4C3E00000080BEABAAAAAA3E000009
:1000B0000000BF000000803F000000000008417801
:1000C000D3BB4387D1133D190E3CC3BD4282AD2B38
:1000D0003E68EC8276BED98FE1A93E4C80EFFFBE30
:1000E00001C4FF7F3F000000000000830201A9025D
:1000F00002CE0203F302041A030540030665030758
:100100008A0308AD0309D2030AF7030B1C040C434E
:10011000040D68040E8D040FB20410D50411FA0406
:10012000121F05134405146A05158F0516B305172C
:10013000D80518F905191D061A41061B65061C8A03
:10014000061DAD061ECF061FF20620120721350739
:1001500022560723770724990725B907261608276B
:100160003E08285C080000FC04010022050200474C
:100170000503006C05040091050500B5050600DACD
:10018000050700FF0508002006090043060A00686D
:10019000060B008C060C00AE060D00D1060E00F317
:1001A000060F0014071000350711005607120077DC
:1001B00007130097071400B8071500200816004819
:1001C0000817007008180098081900B6081A00DE11
:1001D000081B0006091C002E091D004C091E007496
:1001E000091F009C092000C4092100E20922000A1D
:1001F0000A2300320A24005A0A2500780A2600A0A1
:100200000A2700C80A2800F00A29000E0B2A003627
:100210000B2B005E0B2C00860B2D00A40B2E00CCAC
:100220000B2F00F40B3000120C31003A0C3200623C
:100230000C3300800C3400A80C3500D00C3600F8CC
:100240000C3700200D38003E0D3900660D3A008E47
:100250000D3B00AC0D3C00D40D3D00FC0D3E001AE2
:100260000E3F00420E40006A0E4100880E4200B070
:100270000E4300D80E4400F60E45001E0F46004601
:100280000F47006E0F48008C0F4900B40F4A00DC86
:100290000F4B00FA0F4C0022104D004A104E006820
:1002A000104F0090105000B8105100D6105200FEB0
:1002B00010530026115400441155006C115600943F
:1002C000115700B2115800DA11590002125A0020D9
:1002D000125B0048125C0070125D008E125E00B668
:1002E000125F00D4126000FC12610024136200420D
:1002F0001363006A13640088136500B0136600D8A6
:10030000136700F61368001E1469003C146A006449
:10031000146B0082146C00AA146D00C8146E00F0F7
:10032000146F001815700036157100541572007C9A
:100330001573009A157400C2157500E01576000853
:10034000167700261678004E1679006C167A0094FF
:10035000167B00B2167C00DA167D00F8167E0016B9
:10036000177F003E177F0166177F0284177F03A265
:10037000177F04CA177F05E8177F0610187F072E1E
:10038000187F084C187F096A187F0A92187F0BB0F3
:10039000187F0CCE187F0DEC187F0E14197F0F32CA
:1003A000197F1050197F116E197F128C197F13AAB3
:1003B000197F14D2197F15F0197F160E1A7F172C8A
:1003C0001A7F18401A7F19681A7F1A861A7F1B9A9B
:1003D0001A7F1CC21A7F1DE01A7F1EFE1A7F1F1C87
:1003E0001B7F20301B7F214E1B7F226C1B7F238AAB
:1003F0001B7F24A81B7F25C61B7F26E41B7F27F8B5
:100400001B7F28161C7F29341C7F2A481C7F2B66E3
:100410001C7F2C841C7F2DA21C7F2EB61C7F2FD40A
:100420001C7F30E81C7F31061D7F321A1D7F333858
:100430001D7F34561D7F356A1D7F36881D7F379C92
:100440001D7F38B01D7F39CE1D7F3AE21D7F3BF600
:100450001D7F3C141E7F3D281E7F3E461E7F3F5A57
:100460001E7F406E1E7F41821E7F42A01E7F43B4CE
:100470001E7F44C81E7F45DC1E7F46F01E7F470E50
:100480001F7F48221F7F49361F7F4A4A1F7F4B5ECE
:100490001F7F4C721F7F4D861F7F4E9A1F7F4FAE6E
:1004A0001F7F50C21F7F51D61F7F52EA1F7F53FE0E
:1004B0001F7F5412207F5526207F563A207F574EAB
:1004C000207F5862207F5976207F5A80207F5B945E
:1004D000207F5CA8207F5DBC207F5ED0207F5FDA1C
:1004E000207F60EE207F6102217F6216217F6320E2
:1004F000217F6434217F6548217F6652217F6766B2
:10050000217F687A217F698E217F6A98217F6BAC79
:10051000217F6CB6217F6DCA217F6ED4217F6FE869
:10052000217F70F2217F7106227F7210227F732457
:10053000227F742E227F7542227F764C227F776045
:10054000227F786A227F7974227F7A88227F7B9249
:10055000227F7CA6227F7DB0227F7EBA227F7FCE43
:1005600022000000002300260029000000000800EF
:10057000020100000304070000000000000000006A
:10058000000000250028002B0000000000240027A8
:10059000002A000404040404040404020202020207
:1005A0000203030303030301020408102040800137
:1005B00002040810200102040810200091151124E3
:1005C0001FBECFEFD8E0DEBFCDBF14E0A0E0B1E0AA
:1005D000EEEEF3E402C005900D92A035B107D9F715
:1005E00026E0A0E5B4E001C01D92AB34B207E1F70C
:1005F00012E0CFEDD2E004C02197FE010E94CF1996
:10060000CE3DD107C9F70E9464160C94F5210C94D5
:10061000000008950895089508950895089508958F
:10062000862F642FE0919B04F0919C04309711F089
:10063000A9010994089508950F931F93CF93DF9311
:100640008C01EB01DC018D919C9168816F77DC015D
:10065000ED91FC910190F081E02D0995F8018081E8
:100660009181688170E0660F672F661F770BDC0150
:10067000ED91FC910190F081E02DDF91CF911F91E0
:100680000F910994EF92FF920F931F93CF93DF93F3
:10069000C82F8091A0059091A1050097A9F17A013A
:1006A0008B01DC01ED91FC910190F081E02D60EF78
:1006B00009958091A0059091A105DC01ED91FC9137
:1006C0000190F081E02D6C2F0995E7010E0D1F1DA3
:1006D000C017D10739F0BE0180EA95E00E941C03E3
:1006E0002196F6CF8091A0059091A105DC01ED91B6
:1006F000FC910190F081E02D67EFDF91CF911F9188
:100700000F91FF90EF900994DF91CF911F910F917E
:10071000FF90EF9008951F93CF93DF93182FEB0175
:100720008091A5059091A6056817790760F48091DE
:10073000A3059091A405C80FD91F188380E0DF910D
:10074000CF911F910895E091D205F091D305309794
:1007500011F481E0F4CF81E08093A2058091BE0581
:100760009091BF0509958091A5059091A605C817A0
:10077000D90778F7DCCFCF93DF93EC01FB0130E0B2
:1007800020E0C901880F991F8C179D0778F44081DC
:10079000DB014D93BD01119791819795992797950D
:1007A000942B9C932F5F3F4F3296EBCFC901DF9183
:1007B000CF91089590E0FC01E955FA4F24918D56B0
:1007C0009A4FFC018491882399F090E0880F991F3B
:1007D000FC01E757FA4FA591B491FC01E158FA4F9B
:1007E000859194918FB7F894EC91E22BEC938FBFA5
:1007F0000895CF93DF93FC01A081B181109701F19F
:10080000EC01ED91FC9111970190F081E02D69EFE1
:10081000CD01099588819981DC01ED91FC910190D0
:10082000F081E02D62E0099588819981DC01ED91EC
:10083000FC910190F081E02D65E0DF91CF9109946A
:10084000DF91CF910895833081F028F4813099F0C1
:100850008230A9F008958730A9F08830C9F084303B
:10086000B1F4809180008F7D03C0809180008F77EC
:1008700080938000089584B58F7784BD089584B5F2
:100880008F7DFBCF8091B0008F778093B00008956B
:100890008091B0008F7DF9CFCF93DF93282F30E088
:1008A000F901E559FA4F8491F901E955FA4FD491CC
:1008B000F901ED56FA4FC491CC23A1F081110E94A9
:1008C0002304EC2FF0E0EE0FFF1FEF59FA4FA59134
:1008D000B491EC91ED2381E090E009F480E0DF91A8
:1008E000CF91089580E090E0FACF1F93CF93DF93EC
:1008F000282F30E0F901E559FA4F8491F901E955C3
:10090000FA4FD491F901ED56FA4FC491CC23A9F0D6
:10091000162F81110E942304EC2FF0E0EE0FFF1F31
:10092000E158FA4FA591B4918FB7F894EC91111159
:1009300008C0D095DE23DC938FBFDF91CF911F914C
:100940000895DE2BF8CF61E0809126060C947504A3
:1009500081E58CBD1DBC60E0809126060C94750479
:100960003FB7F8948091BF049091C004A091C10456
:10097000B091C20426B5A89B05C02F3F19F001967F
:10098000A11DB11D3FBFBA2FA92F982F8827BC01E9
:10099000CD01620F711D811D911D42E0660F771F11
:1009A000881F991F4A95D1F708958F929F92AF9211
:1009B000BF92CF92DF92EF92FF926B017C010E9477
:1009C000B0044B015C01C114D104E104F104B9F09D
:1009D0000E94B004681979098A099B09683E73402E
:1009E0008105910580F321E0C21AD108E108F108E0
:1009F00088EE880E83E0981EA11CB11CE4CFFF9006
:100A0000EF90DF90CF90BF90AF909F908F90089520
:100A10002FB7F8946091BB047091BC048091BD0421
:100A20009091BE042FBF0895209162043091630419
:100A300080915E0490915F042817390709F4299A80
:100A4000209162043091630480915C0490915D0474
:100A50002817390709F4299820916204309163041A
:100A600080915A0490915B042817390709F45D9A24
:100A7000209162043091630480915804909159044C
:100A80002817390709F45D982091620430916304B6
:100A900080915604909157042817390709F45E9AFB
:100AA0002091620430916304809154049091550424
:100AB0002817390709F45E98209162043091630485
:100AC00080915204909153042817390709F45B9AD6
:100AD00020916204309163048091500490915104FC
:100AE0002817390709F45B98809162049091630498
:100AF0000196909363048093620420916004309186
:100B000061048217930720F010926304109262042C
:100B100081E08093B30420E43FE130938700209389
:100B2000860091E19093810024E135E0309301014A
:100B30002093000180936F0008950895009721F09D
:100B4000805C9F4F0C94F9030895AF92BF92CF92AF
:100B5000DF92EF92FF920F931F93CF93DF936C017D
:100B60007B018B01040F151FEB015E01AE18BF085E
:100B7000C017D10759F06991D601ED91FC91019010
:100B8000F081E02DC6010995892B79F7C501DF9128
:100B9000CF911F910F91FF90EF90DF90CF90BF907A
:100BA000AF900895FC01538D448D252F30E0842FA4
:100BB00090E0821B930B541710F0CF960895019785
:100BC0000895FC01918D828D981761F0A28DAE0F72
:100BD000BF2FB11D5D968C91928D9F5F9F73928FF9
:100BE00090E008958FEF9FEF0895FC01918D828D25
:100BF000981731F0828DE80FF11D858D90E00895F2
:100C00008FEF9FEF0895FC01918D228D892F90E049
:100C1000805C9F4F821B91098F739927089583EC05
:100C200094E00E94030621E0892B09F420E0822F42
:100C3000089580E090E0892B29F00E940F06811131
:100C40000C9400000895FC01A48DA80FB92FB11DCC
:100C5000A35ABF4F2C91848D90E001968F739927F2
:100C6000848FA689B7892C93A089B1898C918370D0
:100C700080648C93938D848D981306C00288F389C9
:100C8000E02D80818F7D80830895EF92FF920F93F6
:100C90001F93CF93DF93EC0181E0888F9B8D8C8D28
:100CA00098131AC0E889F989808185FF15C09FB71C
:100CB000F894EE89FF896083E889F98980818370DF
:100CC000806480839FBF81E090E0DF91CF911F918E
:100CD0000F91FF90EF900895F62E0B8D10E00F5FAF
:100CE0001F4F0F731127E02E8C8D8E110CC00FB685
:100CF00007FCFACFE889F989808185FFF5CFCE011D
:100D00000E942306F1CFEB8DEC0FFD2FF11DE35A6E
:100D1000FF4FF0829FB7F8940B8FEA89FB8980819F
:100D20008062CFCFCF93DF93EC01888D8823B9F019
:100D3000AA89BB89E889F9898C9185FD03C08081E6
:100D400086FD0DC00FB607FCF7CF8C9185FFF2CF63
:100D5000808185FFEDCFCE010E942306E9CFDF9190
:100D6000CF910895CF93CFB7F89480919A048111D1
:100D700024C0EDE9F5E08491E1EBF5E09491E82FF2
:100D8000F0E0EE0FFF1FE757FA4FA591B491EC91F9
:100D9000E92321F461E08AE00E9475048AE00E9460
:100DA000DA038CB580618CBD8CB580648CBD8DE020
:100DB0000E94DA038BE00E94DA0380919A048F5F2D
:100DC00080939A04CFBFCF910895CF92DF92EF9294
:100DD000FF920F931F93CF93DF93FC01E058FF4FD7
:100DE000E080EE2009F458C0EC01C05CDF4FA88120
:100DF000B981109709F450C0FC01EF57FF4FC08034
:100E0000D180F60111810081ED91FC911197019043
:100E1000F081E02D60EFCD01099588819981DC0199
:100E2000ED91FC910190F081E02D69E709958881B1
:100E30009981DC01ED91FC910190F081E02D602F12
:100E4000099588819981DC01ED91FC910190F081F7
:100E5000E02D612F0995F12C01E010E00F5F1F4F8D
:100E6000E016F10639F0B601600F711FCE010E9445
:100E70001C03F4CF88819981DC01ED91FC910190F4
:100E8000F081E02D67EFDF91CF911F910F91FF90DF
:100E9000EF90DF90CF900994DF91CF911F910F9148
:100EA000FF90EF90DF90CF900895009711F00C9491
:100EB000E50608954F925F926F927F928F929F9274
:100EC000AF92BF92CF92DF92EF92FF920F931F9358
:100ED000CF93DF93CDB7DEB768970FB6F894DEBF38
:100EE0000FBECDBFC0909804D09099048090960416
:100EF000909097044091AF045091B0048091920477
:100F0000909193040091B1041091B2044090900428
:100F100050909104052C000C6608770849865A8683
:100F20006B867C86092C000CAA08BB088D829E82E9
:100F3000AF82B8860D2C000CEE08FF08C982DA8259
:100F4000EB82FC82012E000C220B330B098B1A8BD7
:100F50002B8B3C8B052E000C660B770B4D875E8729
:100F60006F87788B092E000CAA0BBB0B8D8B9E8B89
:100F7000AF8BB88FAE014F5F5F4F68E170E080E1EB
:100F80000E94420368960FB6F894DEBF0FBECDBF35
:100F9000DF91CF911F910F91FF90EF90DF90CF9055
:100FA000BF90AF909F908F907F906F905F904F9089
:100FB0000895CF93DF931F92CDB7DEB78983AE013B
:100FC0004F5F5F4F61E070E082E10E9442030F904B
:100FD000DF91CF910895FF920F931F93CF93DF93EB
:100FE000FF24F394C2E0D0E001E010E08091DE0540
:100FF0009091DF05DC01ED91FC910084F185E02DFD
:101000000995892B09F4CEC18091DE059091DF0509
:10101000DC01ED91FC910284F385E02D09959C01A2
:101020008F3F980719F3982F8091AB05882309F417
:1010300092C0973F09F07EC01092AB05A091A30526
:10104000B091A4056C916137C1F1693709F05CC0BA
:10105000E091D805F091D905309741F28091AC0527
:101060009091AD058330910560F430E020E050E0D0
:1010700040E070E060E08091BA059091BB05099571
:10108000B5CFBD016D5F7F4F03970E94BB03BC01CD
:101090006D5F7F4F80E00E948B03E091A305F0918C
:1010A000A4059F012D5F3F4F428150E0618170E0B8
:1010B000E091D805F091D905DECF8091D4059091CB
:1010C000D505892B09F492CFBD016F5F7F4F8091C9
:1010D000AC059091AD0501970E94BB03BC016F5F09
:1010E0007F4F80E00E948B036091A3057091A4055F
:1010F0006F5F7F4FE091D405F091D5058091C005D9
:101100009091C105099572CFE091D605F091D70570
:10111000309709F46BCF9D012F5F3F4F4091AC0595
:101120005091AD05415051098091C2059091C30580
:1011300009955CCF6091AC057091AD05822F0E943E
:101140008B038091AC059091AD0501969093AD0510
:101150008093AC054BCF6091A9057091AA056115EC
:10116000710509F4B1C027FDAFC0615071097093DA
:10117000AA056093A905822F0E948B038091A9057F
:101180009091AA05892B09F031CF8091A70588237A
:1011900009F42CCF803D09F483C040F4803949F133
:1011A000803C09F469C01092A70520CF843FE1F18B
:1011B000853F09F44DC0803EB1F7E091C605F0913E
:1011C000C705309781F3A091A305B091A4054C9178
:1011D00020E8429FC001112411964C91480F592FCD
:1011E000511D6091A8058091AE059091AF050995BC
:1011F000DACFE091C805F091C9053097A1F2A0912E
:10120000A305B091A4054C9120E8429FC001112490
:1012100011964C91480F592F511D6091A80580914E
:10122000B0059091B105E3CFE091CE05F091CF05E7
:10123000309709F4B8CFA091A305B091A4054C91C3
:1012400050E011966C918091B6059091B705CFCF83
:10125000E091D005F091D105309709F4A4CFA09189
:10126000A305B091A4054C9150E011966C9180912A
:10127000B8059091B905BBCFE091CA05F091CB05B7
:10128000309709F490CFA091A305B091A4054C919B
:1012900050E06091A8058091B2059091B305A7CF69
:1012A000E091CC05F091CD05309709F47CCFA09169
:1012B000A305B091A4054C9150E06091A8058091E0
:1012C000B4059091B50593CF903F30F4822F8F7085
:1012D0008093A805922F907F903FF1F190F4903C7D
:1012E000B1F150F4903909F081CED093AA05C093A2
:1012F000A9059093A7057ACE903D49F1903EA9F3B8
:1013000075CE993F09F442C028F48CE0890F8230F1
:1013100060F36CCE9F3F09F069CE1092AA0510923F
:10132000A9051092A7051092A80590E080E02091F1
:10133000A5053091A60582179307A8F4E091A305AF
:10134000F091A405E80FF91F10820196F0CF1093D9
:10135000AA050093A905CDCFF092AB051092AD057B
:101360001092AC0543CE1092AB051092AD051092D1
:10137000AC05E091DC05F091DD058091C40590910C
:10138000C505309709F432CE099530CEE091DA05E3
:10139000F091DB05309709F429CE8091BC0590913E
:1013A000BD05F2CFDF91CF911F910F91FF9008956E
:1013B0008EBD00000DB407FEFDCF8EB50895CF930E
:1013C000C82F0E94A8048091270681600E94D80936
:1013D0008C2F0E94D80980E00E94D809C82F0E9453
:1013E000A3048C2FCF910895CF93DF93D82FC62FCE
:1013F0000E94A804809127060E94D8098D2F0E9480
:10140000D8098C2F0E94D809DF91CF910C94A304A6
:10141000CF93DF93D82FC62F8AE00E94DF0961E0C7
:1014200070E00D2E01C0660F0A94EAF760956823FC
:101430008C2F01C0880FDA95EAF7682B8AE0DF91DC
:10144000CF910C94F4091F93CF93DF93C1E0D0E0C8
:1014500001C0CC0F8A95EAF71C2F109580E061300F
:1014600091F00E94DF096C2F682B80E00E94F40944
:1014700086E00E94DF09682F612386E0DF91CF912B
:101480001F910C94F4090E94DF09C0956C2F68230A
:10149000ECCFEF92FF920F931F93CF93DF93EC016A
:1014A0000B811C816017710708F48B01E980FA80B9
:1014B0008D819E8101969E838D83019781F48CB5E9
:1014C0008F7D8CBD8CB5837F8CBD8CB583608CBDCE
:1014D0008DB58E7F8DBD60E088810E94750484E0AB
:1014E000EE0CFF1C8A95E1F76894E1F811701E2953
:1014F000812F0E94D809FF24F39481FD14C0F12CA0
:101500008D819E8101979E838D83892B21F461E0DB
:1015100088810E9475048F2DDF91CF911F910F91CB
:10152000FF90EF900895802F0E94D809E9CF4F9245
:101530005F926F927F928F929F92AF92BF92CF9263
:10154000DF92EF92FF92CF93DF93CDB7DEB7649730
:101550000FB6F894DEBF0FBECDBF20E1209381000F
:1015600029985D985E985B9890939904809398046D
:10157000181619060CF03FC1BC01A090B104B09040
:10158000B204072E000C880B990B0E942B1B20E045
:1015900030E040E752E40E94471A20E030E040E0AB
:1015A0005FE30E94781C9B01AC0160E070E080E882
:1015B0009FE30E94471A20E030E04AE754E40E948B
:1015C000781C0E94FA1A709361046093600490E0A2
:1015D00080E00E94291B6B017C01B501BB0C880BCC
:1015E000990B0E942B1B9B01AC010E94D61920E095
:1015F00030E044E354E40E94471AA70196010E9498
:10160000781C4B015C0120E030E040E85EE3C7015C
:10161000B6010E94781C69877A878B879C8720E0B7
:1016200030E040E05FE3C701B6010E94781C6D879F
:101630007E878F87988B20E030E040E45FE3C7012E
:10164000B6010E94781C698B7A8B8B8B9C8B20E077
:1016500030E0A901C501B4010E94D61969837A83DB
:101660008B839C839B01AC01C701B6010E94421A87
:1016700087FF0CC0A701960169817A818B819C81CB
:101680000E94D51969837A838B839C8329853A8547
:101690004B855C85C501B4010E94D6196D837E839C
:1016A0008F8398879B01AC01C701B6010E94421A43
:1016B00087FF0CC0A70196016D817E818F8198857F
:1016C0000E94D5196D837E838F8398872D853E85F3
:1016D0004F855889C501B4010E94D6192B013C01E0
:1016E000AC019B01C701B6010E94421A87FF08C0E6
:1016F000A7019601C301B2010E94D5192B013C013B
:1017000029893A894B895C89C501B4010E94D6199F
:101710004B015C01AC019B01C701B6010E94421A5A
:1017200087FF08C0A7019601C501B4010E94D51921
:101730004B015C0110925F0410925E0469817A8112
:101740008B819C810E94FA1A70935D0460935C0403
:1017500069857A858B859C850E94FA1A70935B0453
:1017600060935A046D817E818F8198850E94FA1A58
:1017700070935904609358046D857E858F85988990
:101780000E94FA1A7093570460935604C301B20181
:101790000E94FA1A709355046093540469897A89F7
:1017A0008B899C890E94FA1A7093530460935204A7
:1017B000C501B4010E94FA1A709351046093500459
:1017C000109263041092620481E08093B30480E479
:1017D0009FE1909387008093860081E18093810050
:1017E0001092810010928500109284008091B304C1
:1017F00080618093810064960FB6F894DEBF0FBEBF
:10180000CDBFDF91CF91FF90EF90DF90CF90BF9051
:10181000AF909F908F907F906F905F904F900895C2
:10182000CF93DF93893E23E0920714F088EE93E094
:1018300097FF02C090E080E0ECE0F1E0D0E0C0E093
:1018400040815181841795071CF1428153814817CB
:101850005907F4F083E0CC0FDD1F8A95E1F7FE0114
:10186000E45FFE4F8481958161E0019709F060E0BB
:1018700083E00E94080AC45FDE4F8E819F8161E091
:10188000019709F060E082E0DF91CF910C94080AA3
:1018900021963896C832D10599F6DF91CF910895F7
:1018A000CF93DF93EC01459734F461E084E00E942C
:1018B000080A60E008C060E084E00E94080A61E075
:1018C000CA32D340B4F385E0DF91CF910C94080A7B
:1018D000CF92DF92EF92FF926B017C010E9408058C
:1018E0006C157D058E059F05C0F09B01AC012C1980
:1018F0003D094E095F0969017A01C094D094E094D2
:10190000F094CC24F7FCC394DD24EE24FF248C2D2A
:10191000FF90EF90DF90CF900895C61AD70AE80A9B
:10192000F90AEFCFAF92BF92CF92DF92EF92FF9280
:101930000F931F93CF93DF936C017B015A01822F8A
:10194000E801F6019081911136C00E944C04892B68
:1019500089F40E94B004F7016083718382839383CA
:1019600081E0F60180830E940805F50160837183A0
:1019700082839383F50160817181828193816851B3
:101980007C4F8F4F9F4F0E94680C882349F019822B
:1019900018820E940805F501608371838283938316
:1019A000DF91CF911F910F91FF90EF90DF90CF903B
:1019B000BF90AF9008950E944C04892B89F3F601E3
:1019C00010820E94B004F70120813181621B730BE9
:1019D0006D3DF5E07F0720F379836883E1CFEF92D7
:1019E000FF920F931F93CF93DF93CDB7DEB7C0580D
:1019F000D1090FB6F894DEBF0FBECDBF9E012757A9
:101A00003F4FF901419151919F0160E870E08E01D3
:101A10000F5F1F4FC8010E94141F7C01F801019045
:101A20000020E9F73197BF01601B710BA80181E726
:101A30000E944203C701C058DF4F0FB6F894DEBFC3
:101A40000FBECDBFDF91CF911F910F91FF90EF900F
:101A500008954F925F926F927F928F929F92AF9272
:101A6000BF92CF92DF92EF92FF920F931F93CF938B
:101A7000DF9300D000D0CDB7DEB78636910514F0E5
:101A800085E690E08F30910514F48FE090E090931C
:101A90009704809396049C012052310945E0429FAF
:101AA000C001439F900D112469E070E00E94A719C6
:101AB000072E000C880B990B0E942B1B23E333E9A4
:101AC00048E853E40E94D6199B01AC0160E070E045
:101AD00080E89FE30E94471A9B01AC0169EE7EE912
:101AE0008AEA9AE30E94D51921EE31EC49E354E3E6
:101AF0000E94471A6B017C01AC019B010E94781C7B
:101B000020E030E040E85EE30E94781C21E23EE401
:101B10004CEE5CE40E94D6190E943B1D4B015C0117
:101B200020E030E040E05FE3C701B6010E94781C8E
:101B30006B017C01AC019B01C501B4010E94D51968
:101B40002BEA3AEA4AEA5EE30E94E51C2B013C01DB
:101B5000A7019601C501B4010E94D6192BEA3AEA01
:101B60004AEA5EE30E94E51C9B01AC01C301B2019D
:101B70000E94D5190E94C11A0E94F31A7B0144E009
:101B800050E065E671E0CE0101960E943B198B8121
:101B90009C818E159F0530F1698170E00A8110E00B
:101BA0008091B6049091B7040E94490AB8018091CF
:101BB000B4049091B5040E94490A0F900F900F90C1
:101BC0000F90DF91CF911F910F91FF90EF90DF90D9
:101BD000CF90BF90AF909F908F907F906F905F90CD
:101BE0004F90089505E611E081E6C82E85E0D82ED5
:101BF00044E050E0B801CE0101960E943B198B8170
:101C00009C818E159F0540F60C5F1F4FC016D106B4
:101C100079F744E050E06DE575E0CE0101960E9451
:101C20003B19BACF4F925F926F927F928F929F92A1
:101C3000AF92BF92CF92DF92EF92FF920F931F93DA
:101C4000CF93DF9300D01F92CDB7DEB781329105DD
:101C500014F080E290E08B3E2FEF920714F48BEEAD
:101C60009FEF90939104809390049C01205231093E
:101C700045E0429FC001439F900D112469E070E050
:101C80000E94A719072E000C880B990B0E942B1B92
:101C900023E333E948E853E40E94D6199B01AC01E1
:101CA00060E070E080E89FE30E94471A9B01AC016E
:101CB00060E075ED8CEE9AE30E94D5192AE736E1D3
:101CC00045E255E30E94471A6B017C01AC019B0180
:101CD0000E94781C20E030E040E85EE30E94781C1F
:101CE00028EE3BE44DE25AE40E94D6190E943B1DC7
:101CF0004B015C0120E030E040E05FE3C701B6014A
:101D00000E94781C6B017C01AC019B01C501B401F0
:101D10000E94D5192BEA3AEA4AEA5EE30E94E51CE2
:101D20002B013C01A7019601C501B4010E94D619FF
:101D30002BEA3AEA4AEA5EE30E94E51C9B01AC0109
:101D4000C301B2010E94D5190E94C11A0E94F31A60
:101D50007B0143E050E06AEE70E0CE0101960E9404
:101D60003B198A819B818E159F05E0F0698170E0A7
:101D70008091B8049091B9040E94490A0F900F9085
:101D80000F90DF91CF911F910F91FF90EF90DF9017
:101D9000CF90BF90AF909F908F907F906F905F900B
:101DA0004F9008950AEE10E043E050E0B801CE01F4
:101DB00001960E943B198A819B818E159F05B0F682
:101DC0000D5F1F4F81E00536180771F743E050E0C3
:101DD00062E671E0CE0101960E943B19C7CF8F9257
:101DE0009F92AF92BF92CF92DF92EF92FF920F93AA
:101DF0001F93CF93DF93CDB7DEB760970FB6F894FC
:101E0000DEBF0FBECDBF6091AA047091AB0480917C
:101E1000AC049091AD040E94680C882301F181E12B
:101E20000E944C0461E0019709F460E081E10E94A6
:101E300075048091980490919904181619060CF075
:101E400033C20E94080566507F4F8F4F9F4F6093AB
:101E5000AA047093AB048093AC049093AD0408E89B
:101E600014E022E04FE754E063E874E087E894E090
:101E70000E94920C0AE814E027E046E754E06AE783
:101E800074E08EE794E00E94920C0CE814E024E0E9
:101E90004DE654E061E774E085E794E00E94920C1F
:101EA0000EE814E02EE044E654E068E674E08CE6C8
:101EB00094E00E94920C6091A6047091A704809116
:101EC000A8049091A9040E94680C882309F450C0CA
:101ED00090918E0480918F0430918C0420918D0418
:101EE00050918A0440918B04709188046091890418
:101EF00079836A835B834C833D832E839F838887AA
:101F0000AE014F5F5F4F68E070E085E10E944203E1
:101F100089E00E94DF0986FB882780F98983AE016A
:101F20004F5F5F4F61E070E083E10E94420389E010
:101F30000E94DF0990E0880F892F881F990B21E00C
:101F400082278983AE014F5F5F4F61E070E084E1DB
:101F50000E9442030E9408056C507E4F8F4F9F4F96
:101F60006093A6047093A7048093A8049093A90497
:101F70008091AE04882361F16091A2047091A30462
:101F80008091A4049091A5040E94680C882301F11B
:101F90000E94E31824E130E040E050E00E94441940
:101FA000DC01CB0183539F4FAF4FBF4F0E94970A75
:101FB0000E945A070E94080568537F4F8F4F9F4F1A
:101FC0006093A2047093A3048093A4049093A50447
:101FD00080913C06882309F454C1609143067091B6
:101FE000440680914506909146060E94680C88231D
:101FF00081F00E945A070E940805625E7F4F8F4F52
:102000009F4F6093430670934406809345069093D8
:10201000460660913D0670913E0680913F06909184
:1020200040060E94680C882309F42BC100914106E8
:10203000109142060F5F1F4F109342060093410616
:10204000E0902E06F0902F06E114F10471F1B80132
:1020500090E080E00E94291B4B015C01B701FF0C5E
:10206000880B990B0E942B1B9B01AC01C501B4018D
:102070000E94781C20E030E040E251E40E94471AC0
:102080006B017C0160912C0670912D0690E080E040
:102090000E94291B9B01AC01C701B6010E94D61901
:1020A0000E94F31ACB010E94970AE0903206F0904A
:1020B0003306E114F10481F1B80190E080E00E9460
:1020C000291B4B015C01B701FF0C880B990B0E9487
:1020D0002B1B9B01AC01C501B4010E94781C20E0C0
:1020E00030E048EC52E40E94471A6B017C01609199
:1020F000300670913106072E000C880B990B0E9458
:102100002B1B9B01AC01C701B6010E94D6190E948E
:10211000F31ACB010E94120E009136061091370679
:102120000115110599F1609141067091420690E008
:1021300080E00E94291B6B017C01B801110F880B04
:10214000990B0E942B1B9B01AC01C701B6010E9499
:10215000781C20E030E048EC52E40E94471A6B0102
:102160007C016091340670913506072E000C880BB7
:10217000990B0E942B1B9B01AC01C701B6010E9469
:10218000D6190E94F31ACB010E94290D80913806BE
:10219000909139068F3F980709F452C020913A0672
:1021A00030913B062F3F3F4F09F44AC060912A0609
:1021B00070912B064091410650914206649F900118
:1021C000659F300D749F300D11242817390788F052
:1021D00089E00E94DF0986FD0CC061E086E00E9474
:1021E000080A8EE592E09F938F930E94EF0C0F9068
:1021F0000F90409141065091420680912A0690919D
:102200002B06489F9001499F300D589F300D112497
:1022100080913A0690913B062817390788F089E0AB
:102220000E94DF0986FF0CC060E086E00E94080A79
:1022300089E692E09F938F930E94EF0C0F900F908E
:1022400020914106309142068091280690912906FE
:102250002817390709F048C010923C0685E792E03C
:102260009F938F930E94EF0C1982AE014F5F5F4FD7
:1022700061E070E08CE10E9442030E945A070F90D7
:102280000F9060960FB6F894DEBF0FBECDBFDF9102
:10229000CF911F910F91FF90EF90DF90CF90BF9063
:1022A000AF909F908F90089510928F0410928E049B
:1022B00010928D0410928C0410928B0410928A0458
:1022C00010928904109288041982AE014F5F5F4F0B
:1022D00061E070E084E10E9442030E9408056851B9
:1022E0007C4F8F4F9F4FB3CD0E94080520912A0647
:1022F00030912B06620F731F811D911D60933D0667
:1023000070933E0680933F0690934006BACF8F921B
:102310009F92AF92BF92CF92DF92EF92FF920F9374
:102320001F93CF93DF938C018091AF049091B00401
:1023300080179107E1F40115110521F490E080E088
:102340000E94100C8AE0282F209FC001219F900D31
:102350001124DF91CF911F910F91FF90EF90DF90AB
:10236000CF90BF90AF909F908F900C94500C80179F
:102370009107B4F510929504109294042AE0209FDE
:102380007001219FF00C1124289FE001299FD00D9E
:1023900011248091940490919504892B99F59AE0E9
:1023A000C92ED12CEC16FD060CF462C0CE010E94A1
:1023B000500CCE010E94100C0E9408054B015C01DC
:1023C00023E0820E911CA11CB11CC501B4010E9426
:1023D000680C81110CC00E94EB070E94EF0EF5CF34
:1023E00021E030E03093950420939404C7CFCE01D0
:1023F000B6010E94A719CB010E94D9070E94EB07E2
:102400002196D0CF60E083E00E94080A60E082E07D
:102410000E94080A8AE0C82ED12CCE15DF0514F1DF
:10242000CE010E94500C0E9408054B015C0123E084
:10243000820E911CA11CB11CC501B4010E94680C44
:10244000811105C00E94EB070E94EF0EF5CFCE016F
:10245000B6010E94A719CB010E94D9070E94EB0781
:102460002197DBCFC8010E94D907C8010E94100C38
:102470001093B0040093AF04DF91CF911F910F919F
:10248000FF90EF90DF90CF90BF90AF909F908F9094
:102490000895EF92FF920F931F93CF93DF937B01E9
:1024A0008A01E9010E94970AC7010E94290DC8010B
:1024B0000E948711D0939304C09392041092AE04AB
:1024C000DF91CF911F910F91FF90EF90089510929F
:1024D000AE0430E020E050E040E060E270E090E0E8
:1024E00080E00E94491260E086E00C94080A8F9216
:1024F0009F92AF92BF92CF92DF92EF92FF920F9393
:102500001F93CF93DF9300D01F92CDB7DEB7182F64
:10251000062F7A018B3009F425C108F06EC0853092
:1025200009F4BBC1A8F5823009F475C1C8F4813043
:1025300009F406C1602F70E0A701812F0E944203B9
:102540000F900F900F90DF91CF911F910F91FF90FF
:10255000EF90DF90CF90BF90AF909F908F900895B5
:10256000833009F465C1843029F71092AE042FE05E
:1025700030E050E040E060E270E080EB94E00E94E8
:10258000491260E086E00E94080A88E693E047C1AD
:10259000883009F4A8C1C0F4863009F491C18730AD
:1025A00049F61092AE042BE030E049E150E069EBCF
:1025B00070E088EB9BE00E94491260E086E00E9498
:1025C000080A8BE893E02BC1893009F49FC18A3057
:1025D00009F0B0CF1092AE0422E030E04FE550E0B9
:1025E00069EB70E080E797E10E94491260E086E0C5
:1025F0000E94080A85EC93E012C1863109F4F1C00B
:1026000078F58D3009F4DCC008F4C2C08E3009F4CE
:10261000CBC08F3009F08ECFFA01D0808D2D90E0A5
:10262000873291050CF4DAC09093B2048093B10420
:102630008091B1049091B2048234914034F081E4ED
:1026400091E09093B2048093B104809198049091AA
:1026500099040E94970A1F92DF9285EE92E08DC046
:102660008A3109F470C008F053C0873109F4F3C00F
:10267000883109F05FCFFA0180819181909329061A
:10268000809328068280938090922B0680922A065F
:10269000C480D580D0922D06C0922C06A680B7802B
:1026A000B0922F06A0922E068085918590933106D8
:1026B000809330068285938590933306809332060B
:1026C0008485958590933506809334068685978515
:1026D00090933706809336068089918990933906C6
:1026E000809338068289938990933B0680933A06BB
:1026F00080913C06882309F41CC187ED93E09F93E9
:102700008F930E94EF0C0F900F908AE094E087C0A7
:102710008B3109F438C1803F09F00CCF80919F04C0
:10272000898380919E048A8380919D048B83AE016E
:102730004F5F5F4F63E070E081EF0E944203FACE8B
:102740000E945A07F7CE4091A0045091A104FA01CB
:1027500001900020E9F73197BF01641B750B7727C3
:1027600089E1EBCFFA01D080C1808D2D9C2D0E9494
:10277000290DCF92DF9289E892E09F938F930E9478
:10278000EF0C0E945A070F900F900F900F90D2CE2F
:10279000FA01D080C1808D2D9C2D0E94120ECF9207
:1027A000DF9282EA92E0E9CFFA01D080C1808D2DDC
:1027B0009C2D0E948711CF92DF9287EB92E0DDCFB4
:1027C0001092AE04FA01D080C1808D2D9C2D0E9404
:1027D000970ACF92DF928AEC92E0CFCF87E290E027
:1027E00023CFFA018081882379F061E086E00E949E
:1027F000080A86E692E09F938F9385E093E09F938B
:102800008F930E94EF0CBFCF60E086E00E94080A21
:1028100081E393E0F0CF0E94671283E293E09F93FD
:102820008F930E94EF0C0E945A070F900F9082CE58
:102830001092AE0430E020E050E040E060E270E052
:1028400082E390E00E94491261E086E00E94080A5B
:1028500085E393E0E4CF30E020E050E040E060E248
:1028600070E087ED90E00E94491261E086E00E94EE
:10287000080A81E08093AE040E94080568537F4FE8
:102880008F4F9F4F6093A2047093A3048093A4047E
:102890009093A50485E493E0C2CF1092AE042FE09C
:1028A00030E050E040E069EB70E08CEB92E00E9499
:1028B000491260E086E00E94080A82E793E0AFCF09
:1028C0001092AE042BE030E041E150E069EB70E0A3
:1028D00088E795E00E94491260E086E00E94080ABD
:1028E0008BE793E09CCF1092AE0429E030E04EE1FC
:1028F00050E069EB70E088E097E00E94491260E0E8
:1029000086E00E94080A8BE993E089CF1092AE041A
:1029100027E030E042E350E069EB70E08CEA9DE0B4
:102920000E94491260E086E00E94080A8FEA93E064
:1029300076CF81E080933C060E940805680D791DE2
:10294000811D911D60933D0670933E0680933F0666
:10295000909340060E940805625E7F4F8F4F9F4F05
:102960006093430670934406809345069093460611
:102970001092420610924106AB2809F4C6CEC60159
:102980000E94970AC2CE10923C068FE194E047CF96
:102990001F920F920FB60F9211242F933F938F9394
:1029A0009F93AF93BF938091BB049091BC04A0917F
:1029B000BD04B091BE043091BA0423E0230F2D373B
:1029C00058F50196A11DB11D2093BA048093BB0454
:1029D0009093BC04A093BD04B093BE048091BF0447
:1029E0009091C004A091C104B091C2040196A11DB0
:1029F000B11D8093BF049093C004A093C104B09311
:102A0000C204BF91AF919F918F913F912F910F90F1
:102A10000FBE0F901F90189526E8230F0296A11D58
:102A2000B11DD2CF1F920F920FB60F9211242F9388
:102A30003F934F935F936F937F938F939F93AF9346
:102A4000BF93EF93FF9383EC94E00E942306FF91E2
:102A5000EF91BF91AF919F918F917F916F915F9116
:102A60004F913F912F910F900FBE0F901F9018958F
:102A70001F920F920FB60F9211242F938F939F9353
:102A8000EF93FF93E091D304F091D4048081E0911F
:102A9000D904F091DA0482FD1BC090818091DC049E
:102AA0008F5F8F732091DD04821741F0E091DC0489
:102AB000F0E0ED53FB4F958F8093DC04FF91EF9195
:102AC0009F918F912F910F900FBE0F901F9018958F
:102AD0008081F4CF1F920F920FB60F9211242F9383
:102AE0003F934F935F936F937F938F939F93AF9396
:102AF000BF93EF93FF93E0910001F09101010995DD
:102B0000FF91EF91BF91AF919F918F917F916F91C5
:102B10005F914F913F912F910F900FBE0F901F909B
:102B20001895E3ECF4E01382128288EE93E0A0E0C3
:102B3000B0E084839583A683B78380E592E0918398
:102B4000808385EC90E09587848784EC90E097877C
:102B5000868780EC90E0918B808B81EC90E0938B6A
:102B6000828B82EC90E0958B848B86EC90E0978B47
:102B7000868B118E128E138E148E80E695E0109245
:102B8000A1051092A0059093A4058093A30520E4CD
:102B900030E03093A6052093A5051092A70510926A
:102BA000A8051092AA051092A9051092AB051092E3
:102BB000AD051092AC051092AF051092AE051092C3
:102BC000B1051092B0051092B3051092B2051092A3
:102BD000B5051092B4051092B7051092B605109283
:102BE000B9051092B8051092BF051092BE0510925B
:102BF000C1051092C0051092C3051092C205109233
:102C0000C5051092C4051092D3051092D2051092FA
:102C1000A2051092E0051092E2051092E1051092D3
:102C2000250629E033E03093C7052093C6052AE046
:102C300033E03093C9052093C8052BE033E030938F
:102C4000CB052093CA052CE033E03093CD052093CB
:102C5000CC052DE033E03093CF052093CE052EE058
:102C600033E03093D1052093D0052FE033E030934B
:102C7000D5052093D40520E133E03093D705209388
:102C8000D60525E537E03093D9052093D8059093F4
:102C9000BB058093BA052EE935E03093DB05209320
:102CA000DA059093BD058093BC058BE193E090938A
:102CB000DD058093DC0510923C06E6E2F6E080E15B
:102CC000808380E481830895789484B5826084BD94
:102CD00084B5816084BD85B5826085BD85B5816020
:102CE00085BD80916E00816080936E00109281009E
:102CF0008091810082608093810080918100816059
:102D00008093810080918000816080938000809119
:102D1000B10084608093B1008091B00081608093A5
:102D2000B00080917A00846080937A0080917A006C
:102D3000826080937A0080917A00816080937A002B
:102D400080917A00806880937A001092C10084E3B9
:102D500094E09093A1048093A00481E080939F0469
:102D600012E010939E0410939D0488E08093E00588
:102D70008091E1059091E2050E947C1EC091E005E2
:102D8000D0E0CE0101960E94E01D9093E205809371
:102D9000E105FC01EC0FFD1F1082FC011083118284
:102DA000AE014250510964E474E002960E94051F8E
:102DB00087E792E190939C0480939B04E091D30475
:102DC000F091D4041083E091D304F091D4041082E4
:102DD000E091CF04F091D0041082E091D104F09101
:102DE000D20480E180831092DB04E091D704F0915B
:102DF000D80486E08083E091D504F091D6048081E8
:102E000080618083E091D504F091D6048081886050
:102E10008083E091D504F091D6048081806880831E
:102E2000E091D504F091D60480818F7D80838091DC
:102E3000250681114EC08DE00E94DA0362ED70E03C
:102E400080E090E00E94D50461E08DE00E9475046E
:102E500068E270E080E090E00E94D50460E08DE0E0
:102E60000E94750462ED70E080E090E00E94D5045D
:102E700061E08DE00E94750468E270E080E090E01F
:102E80000E94D50460E08DE00E9475046AEF70E056
:102E900080E090E00E94D504C5E062ED70E080E043
:102EA00090E00E94D50461E08DE00E94750468E224
:102EB00070E080E090E00E94D50460E08DE00E9428
:102EC0007504C15051F76DE770E080E090E00E941A
:102ED000D50483EC94E09093DF058093DE05909316
:102EE000A1058093A00580EA95E00E94F90380E6A1
:102EF00095E00E94E50681E10E94DA0361E081E14C
:102F00000E947504219A2998559A5D98569A5E9860
:102F1000539A5B9883E10E94DA0361E083E10E94A7
:102F2000750482E10E94DA0361E082E10E94750487
:102F300088E00E94DA0361E088E00E94750480E185
:102F40000E94DA0361E080E10E94750487E090E06E
:102F50000E94E01DEC0183E188831A82198200E857
:102F600010E01C830B831E821D820E94B2068881A2
:102F70000E94DA0361E088810E947504D093B9044D
:102F8000C093B80487E090E00E94E01DEC0182E16C
:102F900088831A8219821C830B831E821D820E94E1
:102FA000B20688810E94DA0361E088810E9475047C
:102FB000D093B704C093B60487E090E00E94E01D70
:102FC000EC0188E088831A8219821C830B831E829D
:102FD0001D820E94B20688810E94DA0361E0888126
:102FE0000E947504D093B504C093B40461E082E0FC
:102FF0000E94230A61E083E00E94230A61E084E0EA
:103000000E94230A61E085E00E94230A61E086E0D5
:103010000E94230A60E087E00E94230A6CE386E0B6
:103020000E94F40960E086E00E94080A80E1809333
:1030300081001092800091E09093B3041092870079
:103040001092860021E12093810024E135E0309345
:1030500001012093000190936F008093810087E825
:1030600090E09093B2048093B1041092B004109257
:10307000AF041092AE0486E480937C0080917A00C5
:10308000806480937A0080917A0086FDFCCF8091E5
:10309000780060917900762F682F072E000C880B3E
:1030A000990B611571058105910511F00E94321986
:1030B0000E94671280E290E00E94120E0E940805B2
:1030C00068517C4F8F4F9F4F6093AA047093AB045D
:1030D0008093AC049093AD040E9408056C507E4F21
:1030E0008F4F9F4F6093A6047093A7048093A8040A
:1030F0009093A9040E94080568537F4F8F4F9F4FFC
:103100006093A2047093A3048093A4049093A504F5
:10311000C0E0D0E00E94EB070E94EF0E2097D1F3B1
:103120000E940F068823B1F30E940000F3CF8F9214
:103130009F92AF92BF92CF92DF92EF92FF92CF9386
:10314000DF93EC01688179818A819B81611571052A
:103150008105910521F464E279ED8BE597E02DE19D
:1031600033EF41E050E00E94441949015A019B01AC
:10317000AC01A7EAB1E40E9463196B017C01ACEEDB
:10318000B4EFA50194010E947119C60ED71EE81E66
:10319000F91EF7FE06C081E0C81AD108E10880E8F0
:1031A000F80AC882D982EA82FB82C701B6019F77FA
:1031B000DF91CF91FF90EF90DF90CF90BF90AF90D5
:1031C0009F908F9008958F929F92AF92BF92CF92CF
:1031D000DF92EF92FF926091020170910301809162
:1031E000040190910501611571058105910521F496
:1031F00064E279ED8BE597E02DE133EF41E050E0BB
:103200000E94441949015A019B01AC01A7EAB1E4AB
:103210000E9463196B017C01ACEEB4EFA50194012F
:103220000E947119C60ED71EE81EF91EF7FE06C0D1
:1032300081E0C81AD108E10880E8F80AC0920201CA
:10324000D0920301E0920401F0920501C701B6019A
:103250009F77FF90EF90DF90CF90BF90AF909F90BF
:103260008F9008956093020170930301809304018D
:10327000909305010895FB01DC0102C005900D92B9
:1032800041505040D8F70895052E97FB1EF4009446
:103290000E945B1957FD07D00E94761907FC03D0E6
:1032A0004EF40C945B1950954095309521953F4F05
:1032B0004F4F5F4F089590958095709561957F4F22
:1032C0008F4F9F4F08950E949819A59F900DB49F0E
:1032D000900DA49F800D911D11240895B7FF0C94AB
:1032E00063190E946319821B930B0895A1E21A2EA1
:1032F000AA1BBB1BFD010DC0AA1FBB1FEE1FFF1F9A
:10330000A217B307E407F50720F0A21BB30BE40BE9
:10331000F50B661F771F881F991F1A9469F7609530
:103320007095809590959B01AC01BD01CF010895EA
:10333000A29FB001B39FC001A39F700D811D1124F6
:10334000911DB29F700D811D1124911D089597FB51
:10335000072E16F4009407D077FD09D00E94BB1900
:1033600007FC05D03EF4909581959F4F0895709588
:1033700061957F4F0895AA1BBB1B51E107C0AA1F8F
:10338000BB1FA617B70710F0A61BB70B881F991F06
:103390005A95A9F780959095BC01CD010895EE0F3F
:1033A000FF1F0590F491E02D09945058BB27AA27E0
:1033B0000E94ED190C94C81B0E94BA1B38F00E94A1
:1033C000C11B20F039F49F3F19F426F40C94901B94
:1033D0000EF4E095E7FB0C948A1BE92F0E94D91BA1
:1033E00058F3BA17620773078407950720F079F43A
:1033F000A6F50C94FB1B0EF4E0950B2EBA2FA02D16
:103400000B01B90190010C01CA01A0011124FF2791
:10341000591B99F0593F50F4503E68F11A16F0408C
:10342000A22F232F342F4427585FF3CF469537958B
:103430002795A795F0405395C9F77EF41F16BA0B50
:10344000620B730B840BBAF09150A1F0FF0FBB1FFE
:10345000661F771F881FC2F70EC0BA0F621F731F47
:10346000841F48F4879577956795B795F7959E3FA4
:1034700008F0B0CF9395880F08F09927EE0F979535
:10348000879508950E94661B08F481E008950E94C4
:103490005B1A0C94C81B0E94C11B58F00E94BA1BF7
:1034A00040F029F45F3F29F00C948A1B51110C94D1
:1034B000FC1B0C94901B0E94D91B68F39923B1F359
:1034C000552391F3951B550BBB27AA27621773074A
:1034D000840738F09F5F5F4F220F331F441FAA1FDE
:1034E000A9F335D00E2E3AF0E0E832D0915050409A
:1034F000E695001CCAF72BD0FE2F29D0660F771F48
:10350000881FBB1F261737074807AB07B0E809F02D
:10351000BB0B802DBF01FF2793585F4F3AF09E3FB2
:10352000510578F00C948A1B0C94FC1B5F3FE4F36C
:10353000983ED4F3869577956795B795F7959F5FF5
:10354000C9F7880F911D9695879597F90895E1E041
:10355000660F771F881FBB1F621773078407BA07A0
:1035600020F0621B730B840BBA0BEE1F88F7E095FB
:10357000089529F416F00C948A1B0C94FB1B0C94F0
:10358000901B0E94E11BA8F39638A0F707F80F9252
:10359000E8942BE33AEA48EB5FE70E948E1C0F9217
:1035A0000F920F924DB75EB70F920E94441CE8E64F
:1035B000F0E00E94931B4F915F91EF91FF91E59591
:1035C000EE1FFF1F49F0FE57E0684427EE0F441F2F
:1035D000FA95E1F74195550B0E940E1C0F9007FEDE
:1035E0000C94021C08950E94FA1A6894B1110C946C
:1035F000FC1B08950E94E11B88F09F5798F0B92F9B
:103600009927B751B0F0E1F0660F771F881F991F17
:103610001AF0BA95C9F714C0B13091F00E94FB1BA3
:10362000B1E008950C94FB1B672F782F8827B85FB3
:1036300039F0B93FCCF3869577956795B395D9F76F
:103640003EF490958095709561957F4F8F4F9F4F79
:103650000895E89409C097FB3EF490958095709585
:1036600061957F4F8F4F9F4F9923A9F0F92F96E9CE
:10367000BB279395F695879577956795B795F11143
:10368000F8CFFAF4BB0F11F460FF1BC06F5F7F4FE0
:103690008F4F9F4F16C0882311F096E911C07723F2
:1036A00021F09EE8872F762F05C0662371F096E8FB
:1036B000862F70E060E02AF09A95660F771F881FCA
:1036C000DAF7880F9695879597F90895990F00086E
:1036D000550FAA0BE0E8FEEF16161706E807F907E4
:1036E000C0F012161306E407F50798F0621B730B7F
:1036F000840B950B39F40A2661F0232B242B252B00
:1037000021F408950A2609F4A140A6958FEF811DA2
:10371000811D089597F99F6780E870E060E0089543
:103720009FEF80EC0895DF93CF931F930F93FF9249
:10373000EF92DF927B018C01689406C0DA2EEF01D4
:103740000E948B1CFE01E894A5912591359145912D
:103750005591A6F3EF010E94ED19FE019701A80112
:10376000DA9469F7DF90EF90FF900F911F91CF915E
:10377000DF91089500240A94161617061806090604
:10378000089500240A9412161306140605060895D7
:10379000092E0394000C11F4882352F0BB0F40F45F
:1037A000BF2B11F460FF04C06F5F7F4F8F4F9F4F9F
:1037B000089557FD9058440F551F59F05F3F71F021
:1037C0004795880F97FB991F61F09F3F79F0879588
:1037D0000895121613061406551FF2CF4695F1DF11
:1037E00008C0161617061806991FF1CF86957105A1
:1037F000610508940895E894BB2766277727CB01D5
:1038000097F908959B01AC0160E070E080E89FE3C8
:103810000C94471A0C948A1B0C947B1D0E94E11B8C
:10382000D8F39923C9F3940F511DA3F3915050403D
:1038300094F059F0882332F0660F771F881F91505B
:103840005040C1F79E3F51052CF7880F911D96956A
:10385000879597F908955F3FACF0983E9CF0BB27A1
:10386000869577956795B79508F4B1609395C1F7FC
:10387000BB0F58F711F460FFE8CF6F5F7F4F8F4F9A
:103880009F4FE3CF0C94FC1BFA01DC01AA0FBB1F76
:103890009B01AC01BF5728F42227332744275078D7
:1038A00020C0B75190F4AB2F00244695379527954B
:1038B000011CA395D2F3002071F0220F331F441F87
:1038C000B395DAF30ED00C94D51961307105A0E8E8
:1038D0008A07B94630F49B01AC0166277727882711
:1038E0009078309621F0208331834283538308956A
:1038F0000E948B1C0C94C81B0E94BA1B38F00E94BB
:10390000C11B20F0952311F00C948A1B0C94901B82
:1039100011240C94FC1B0E94D91B70F3959FC1F3DA
:10392000950F50E0551F629FF001729FBB27F00D6D
:10393000B11D639FAA27F00DB11DAA1F649F6627C2
:10394000B00DA11D661F829F2227B00DA11D621F11
:10395000739FB00DA11D621F839FA00D611D221FCB
:10396000749F3327A00D611D231F849F600D211DAF
:10397000822F762F6A2F11249F5750409AF0F1F032
:1039800088234AF0EE0FFF1FBB1F661F771F881F9B
:1039900091505040A9F79E3F510580F00C948A1B2E
:1039A0000C94FC1B5F3FE4F3983ED4F38695779527
:1039B0006795B795F795E7959F5FC1F7FE2B880F41
:1039C000911D9695879597F90895FA01EE0FFF1FBF
:1039D000309621053105A1F16115710561F480383A
:1039E000BFE39B0749F168949038810561F0803806
:1039F000BFEF9B0741F099234AF5FF3FE1053105F1
:103A0000210519F1E8940894E795D901AA2329F42E
:103A1000AB2FBE2FF85FD0F310C0FF5F70F4A695F8
:103A2000E0F7F73950F019F0FF3A38F49F779F9399
:103A30000DD00F9007FC9058089546F00C94901B01
:103A400060E070E080E89FE308954FE79F775F9321
:103A50004F933F932F930E94981D2F913F914F9129
:103A60005F910E94781C0C94C11A19F416F40C94FE
:103A7000901B0C947B1D0E94E11BB8F39923C9F3A2
:103A8000B6F39F57550B87FF0E94891D0024A0E6BF
:103A900040EA900180585695979528F4805C660F0F
:103AA000771F881F20F026173707480730F4621B5E
:103AB000730B840B202931294A2BA6951794079460
:103AC000202531254A2758F7660F771F881F20F0D9
:103AD00026173707480730F4620B730B840B200D51
:103AE000311D411DA09581F7B901842F9158880F90
:103AF0009695879508959F3F31F0915020F48795D2
:103B000077956795B795880F911D9695879597F945
:103B1000089591505040660F771F881FD2F708957F
:103B200016F00C947B1D0C94901B68940C948A1BCB
:103B30000E94E11BA8F39923C1F3AEF3DF93CF9367
:103B40001F930F93FF92C92FDD2788232AF0219717
:103B5000660F771F881FDAF720E030E040E85FEB60
:103B60009FE3883920F0803E38F021968F770E94BD
:103B7000D619E0E9F0E004C00E94D619EDEBF0E0C0
:103B80000E94931B8B01BE01EC01FB2E6F57710944
:103B90007595771F880B990B0E942B1B28E132E744
:103BA00041E35FE30E948B1CAF2D9801AE01FF90B3
:103BB0000F911F91CF91DF910E94ED190C94C81BBA
:103BC0000F931F93CF93DF938230910510F482E01F
:103BD00090E0E0914906F0914A0630E020E0B0E044
:103BE000A0E0309799F42115310509F44AC0281B4B
:103BF000390B24303105D8F58A819B816115710517
:103C000089F1FB0193838283FE0111C040815181C0
:103C10000281138148175907E0F04817590799F4B2
:103C2000109761F012960C93129713961C9332968C
:103C3000CF01DF91CF911F910F9108950093490615
:103C400010934A06F4CF2115310551F0421753075E
:103C500038F0A901DB019A01BD01DF01F801C1CFF4
:103C6000EF01F9CF90934A0680934906CDCFFE012C
:103C7000E20FF31F819391932250310939832883F6
:103C8000D7CF2091470630914806232B41F420914D
:103C9000080130910901309348062093470620918E
:103CA0000601309107012115310541F42DB73EB7CA
:103CB00040910A0150910B01241B350BE0914706FE
:103CC000F0914806E217F307A0F42E1B3F0B2817CC
:103CD000390778F0AC014E5F5F4F2417350748F085
:103CE0004E0F5F1F50934806409347068193919370
:103CF0009FCFF0E0E0E09CCFCF93DF930097E9F017
:103D0000FC01329713821282A0914906B0914A06B3
:103D1000ED0130E020E01097A1F420813181820F85
:103D2000931F20914706309148062817390709F05C
:103D300061C0F0934806E0934706DF91CF91089564
:103D4000EA01CE17DF07E8F54A815B819E01411544
:103D50005105B1F7E901FB83EA8349915991C40FF9
:103D6000D51FEC17FD0761F4808191810296840FC5
:103D7000951FE90199838883828193819B838A833C
:103D8000F0E0E0E012968D919C9113970097B9F5C1
:103D90002D913C911197CD010296820F931F209196
:103DA0004706309148062817390739F6309751F5FC
:103DB00010924A0610924906B0934806A09347060F
:103DC000BCCFD383C28340815181840F951FC81714
:103DD000D90761F44E5F5F4F88819981480F591F61
:103DE000518340838A819B8193838283211531058E
:103DF00009F0B0CFF0934A06E09349069ECFFD014B
:103E0000DC01C0CF13821282D7CFFB01DC0141500D
:103E1000504048F001900D920020C9F701C01D925A
:103E200041505040E0F70895AEE0B0E0EAE1FFE134
:103E30000C94CC218C01FA0186E08C831A830983CF
:103E400077FF02C060E070E8615071097E836D8386
:103E5000A901BF01CE0101960E94401F4D815E81E4
:103E600057FD0AC02F813885421753070CF49A0179
:103E7000020F131FF80110822E96E4E00C94E82143
:103E8000ABE0B0E0E6E4FFE10C94BE217C013B0135
:103E90008A01FC0117821682838181FFC8C1CE018D
:103EA00001965C01F7019381F30193FD859193FFE6
:103EB00081913F01882309F453C1853239F493FD80
:103EC000859193FF81913F01853229F4B70190E0FC
:103ED0000E943021E7CF912C212C312CFFE1F315EA
:103EE00038F08B3211F190F4803209F1833229F1EC
:103EF00037FC3CC020ED280F2A3050F536FE20C09C
:103F00008AE0989E200D1124922E06C08D3291F0E9
:103F1000803371F7689430F8F30193FD859193FF36
:103F200081913F018111DACF21C0689431F8689402
:103F300032F8F2CF689433F8EFCF689434F8ECCFCE
:103F4000EAE02E9E200D1124222E689435F8E4CF4D
:103F50008E3229F436FC04C1689436F8DDCF8C36F5
:103F600019F4689437F8D8CF8836B1F2982F9F7D2E
:103F700095549330E0F08336A1F18337C1F1833556
:103F800009F063C02801F2E04F0E511CF801C08017
:103F9000D180692D70E036FC02C06FEF7FEFC60163
:103FA0000E941A214C01689437F882010AC00C5F04
:103FB0001F4FFFE3F98388248394912C6501E894D3
:103FC00037F833FE2DC0522C8114910471F5552021
:103FD00009F468CFB70180E290E00E9430215A9442
:103FE000F6CFF801808189830E5F1F4FE4CF28014F
:103FF000F2E04F0E511CF801C080D180692D70E0B5
:1040000036FC02C06FEF7FEFC6010E9425214C01F4
:104010008201D5CFB70180E290E00E9430212A943E
:104020002814190409F0B0F7CECFF60137FC8591BA
:1040300037FE81916F01B70190E00E94302151104D
:104040005A94F1E08F1A9108BFCF843619F089365F
:1040500009F077C0F80137FE6BC060817181828101
:1040600093810C5F1F4FF32DFF763F2E97FF09C002
:1040700090958095709561957F4F8F4F9F4F689475
:1040800037F82AE030E0A5010E946021C82ECA1846
:104090008C2C432C36FE0CC0E89440F8C91440F434
:1040A00034FE05C032FC03C0F32DFE7E4F2E892C5A
:1040B00044FE95C0FE01EC0DF11D8081803309F0B6
:1040C00087C0242D297E422E842D8870582E43FCD3
:1040D00095C040FE8FC09C2C821418F42C0C922C9E
:1040E000981844FE91C0B70180E390E00E9430210F
:1040F00042FE09C088E790E041FE02C088E590E0FA
:10410000B7010E943021C91408F48AC0CA94D12C86
:104110009FEFC91AD90ACA0CDB1CF60182916F0104
:10412000B70190E00E943021AC14BD04B1F74FCF2D
:1041300060817181072E000C880B990B0E5F1F4F59
:1041400092CFD32CE894D4F82AE030E0853739F1C7
:10415000232D297FD22E8F3601F148F48835A9F01E
:10416000F701868197812B96E2E10C94DA21803762
:1041700049F08837A9F7D4FE02C06894D2F820E14C
:1041800030E00DC06894D4F8F6CF34FE03C0822F1F
:104190008660D82E20E132E002C028E030E0F8014D
:1041A000D7FE0FC060817181828193810C5F1F4FA8
:1041B000A5010E946021C82ECA183D2CE89437F84A
:1041C00067CF6081718190E080E00E5F1F4FF0CF7C
:1041D00042FC02C0839478CF8394839475CF842D5E
:1041E000867809F471CFF6CFB70180E290E00E94A3
:1041F000302183948214C0F3512C73CF522C581861
:10420000821408F46ECFF8CF842D867809F47BCF22
:104210008BE241FE80E247FC8DE2B70190E071CF76
:10422000B70180E390E00E9430219A946CCF8FEF29
:104230009FEF99CFFC010590615070400110D8F7B5
:10424000809590958E0F9F1F0895FC0161507040DE
:1042500001900110D8F7809590958E0F9F1F0895BB
:104260000F931F93CF93DF93182F092FEB018B81AF
:1042700081FD09C01FEF0FEF812F902FDF91CF91AC
:104280001F910F91089582FF14C02E813F818C8170
:104290009D81281739073CF4E881F981CF01019607
:1042A0009983888310838E819F8101969F838E835B
:1042B000E3CFE885F985812F0995892BA1F3DACF22
:1042C000FA01AA27283051F1203181F1E8946F9347
:1042D0006E7F6E5F7F4F8F4F9F4FAF4FB1E03ED0ED
:1042E000B4E03CD0670F781F891F9A1FA11D680F8B
:1042F000791F8A1F911DA11D6A0F711D811D911DBE
:10430000A11D20D009F468943F912AE0269F112432
:104310003019305D3193DEF6CF010895462F477096
:10432000405D4193B3E00FD0C9F7F6CF462F4F70F1
:10433000405D4A3318F0495D31FD4052419302D04F
:10434000A9F7EACFB4E0A6959795879577956795F5
:10435000BA95C9F700976105710508959B01AC01F5
:104360000A2E06945795479537952795BA95C9F71C
:10437000620F731F841F951FA01D08952F923F92F7
:104380004F925F926F927F928F929F92AF92BF9265
:10439000CF92DF92EF92FF920F931F93CF93DF9311
:1043A000CDB7DEB7CA1BDB0B0FB6F894DEBF0FBE6E
:1043B000CDBF09942A88398848885F846E847D84BB
:1043C0008C849B84AA84B984C884DF80EE80FD80BD
:1043D0000C811B81AA81B981CE0FD11D0FB6F89433
:0E43E000DEBF0FBECDBFED010895F894FFCFF4
:1043EE009D050100000000004B06800000001D002E
:1043FE00000001001E002C00000000002D004400F3
:10440E000100000045005300000000005400590058
:10441E00000001005A0068000000000069008000E2
:10442E000100000081008F00000000009000950048
:10443E00000001009600A40000000000A500BC00D2
:10444E0001000000BD00CB0000000000CC00D10038
:10445E0000000100D200E00000000000E100F700C3
:10446E0001000000F80006010000000007010D0128
:10447E00000001000E011B01000000001C013301B1
:10448E000100000034014301000000004401480116
:10449E0000000100490157010000000058016F01A2
:1044AE000100000070017E01000000007F01840108
:1044BE000000010085019301000000009401AB0192
:1044CE0001000000AC01BA0100000000BB01C001F8
:1044DE0000000100C101CF0100000000D001E90180
:1044EE0001000000EA01F60100000000F701FC01E6
:1044FE0000000100FD010B02000000000C0223026F
:10450E0001000000240232020000000033023802D3
:10451E0000000100390247020000000048025E025E
:10452E00010000005F02E80301000000000000002F
:10453E004506A505D20592060306E105F505537459
:10454E006172746572206F6E00537461727465725D
:10455E00206F666600456E64206F662064796E611A
:10456E006D696320746573740053657420636F6F97
:10457E006C616E742074656D7020746F20256420DC
:10458E004600536574206169722074656D702074E5
:10459E006F202564204600536574207468726F7412
:1045AE00746C6520746F2025640053657420656EED
:1045BE0067696E6520737065656420746F2025646D
:1045CE002052504D005365742070756C73652064D5
:1045DE0077656C6C20616E676C6520746F20256446
:1045EE00206465670053657420737461727465721C
:1045FE00206D6F746F7220737461746520746F20F8
:10460E002573005475726E656420656E67696E65FC
:10461E00206F666600456E67696E65206372616E17
:10462E006B696E6700456E67696E65206372616EB9
:10463E006B696E67207769746820756E737461623A
:10464E006C652052504D7300436F6C642069646C2E
:10465E006500486F742069646C65004372756973F8
:10466E00652061742033304D504800437275697374
:10467E00652061742037304D50480047656E746C6C
:10468E006520616363656C65726174696F6E004D60
:10469E006F64657261746520616363656C657261D8
:1046AE0074696F6E004861726420616363656C6546
:1046BE00726174696F6E0044796E616D6963207406
:1046CE0065737420616C72656164792072756E6EAB
:1046DE00696E672C2069676E6F72696E67206E65F2
:1046EE007720726571756573740052756E6E696EA2
:1046FE00672064796E616D6963207465737400441C
:10470E00796E616D696320746573742073746F7054
:10471E00706564004D65726365646573205638007C
:10472E007372635C53657269616C2E637070000006
:00000001FF
