:100000000C94DF020C9407030C9407030C94070371
:100010000C9407030C9407030C9407030C94070338
:100020000C9407030C9407030C9407030C94070328
:100030000C9407030C9418120C9407030C940703F8
:100040000C9476110C9407030C94E6110C94C011D7
:100050000C9407030C9407030C9407030C940703F8
:100060000C9407030C94070307634236B79BD8A789
:100070001A39685618AEBAAB558C1D3CB7CC5763CD
:10008000BD6DEDFD753EF6177231BF000000803F7B
:1000900008000000BE922449123EABAAAA2ABECD97
:1000A000CCCC4C3E00000080BEABAAAAAA3E000009
:1000B0000000BF000000803F000000000008417801
:1000C000D3BB4387D1133D190E3CC3BD4282AD2B38
:1000D0003E68EC8276BED98FE1A93E4C80EFFFBE30
:1000E00001C4FF7F3F000000000000830201A9025D
:1000F00002CE0203F302041A030540030665030758
:100100008A0308AD0309D2030AF7030B1C040C434E
:10011000040D68040E8D040FB20410D50411FA0406
:10012000121F05134405146A05158F0516B305172C
:10013000D80518F905191D061A41061B65061C8A03
:10014000061DAD061ECF061FF20620120721350739
:1001500022560723770724990725B907261608276B
:100160003E08285C080000FC04010022050200474C
:100170000503006C05040091050500B5050600DACD
:10018000050700FF0508002006090043060A00686D
:10019000060B008C060C00AE060D00D1060E00F317
:1001A000060F0014071000350711005607120077DC
:1001B00007130097071400B8071500200816004819
:1001C0000817007008180098081900B6081A00DE11
:1001D000081B0006091C002E091D004C091E007496
:1001E000091F009C092000C4092100E20922000A1D
:1001F0000A2300320A24005A0A2500780A2600A0A1
:100200000A2700C80A2800F00A29000E0B2A003627
:100210000B2B005E0B2C00860B2D00A40B2E00CCAC
:100220000B2F00F40B3000120C31003A0C3200623C
:100230000C3300800C3400A80C3500D00C3600F8CC
:100240000C3700200D38003E0D3900660D3A008E47
:100250000D3B00AC0D3C00D40D3D00FC0D3E001AE2
:100260000E3F00420E40006A0E4100880E4200B070
:100270000E4300D80E4400F60E45001E0F46004601
:100280000F47006E0F48008C0F4900B40F4A00DC86
:100290000F4B00FA0F4C0022104D004A104E006820
:1002A000104F0090105000B8105100D6105200FEB0
:1002B00010530026115400441155006C115600943F
:1002C000115700B2115800DA11590002125A0020D9
:1002D000125B0048125C0070125D008E125E00B668
:1002E000125F00D4126000FC12610024136200420D
:1002F0001363006A13640088136500B0136600D8A6
:10030000136700F61368001E1469003C146A006449
:10031000146B0082146C00AA146D00C8146E00F0F7
:10032000146F001815700036157100541572007C9A
:100330001573009A157400C2157500E01576000853
:10034000167700261678004E1679006C167A0094FF
:10035000167B00B2167C00DA167D00F8167E0016B9
:10036000177F003E177F0166177F0284177F03A265
:10037000177F04CA177F05E8177F0610187F072E1E
:10038000187F084C187F096A187F0A92187F0BB0F3
:10039000187F0CCE187F0DEC187F0E14197F0F32CA
:1003A000197F1050197F116E197F128C197F13AAB3
:1003B000197F14D2197F15F0197F160E1A7F172C8A
:1003C0001A7F18401A7F19681A7F1A861A7F1B9A9B
:1003D0001A7F1CC21A7F1DE01A7F1EFE1A7F1F1C87
:1003E0001B7F20301B7F214E1B7F226C1B7F238AAB
:1003F0001B7F24A81B7F25C61B7F26E41B7F27F8B5
:100400001B7F28161C7F29341C7F2A481C7F2B66E3
:100410001C7F2C841C7F2DA21C7F2EB61C7F2FD40A
:100420001C7F30E81C7F31061D7F321A1D7F333858
:100430001D7F34561D7F356A1D7F36881D7F379C92
:100440001D7F38B01D7F39CE1D7F3AE21D7F3BF600
:100450001D7F3C141E7F3D281E7F3E461E7F3F5A57
:100460001E7F406E1E7F41821E7F42A01E7F43B4CE
:100470001E7F44C81E7F45DC1E7F46F01E7F470E50
:100480001F7F48221F7F49361F7F4A4A1F7F4B5ECE
:100490001F7F4C721F7F4D861F7F4E9A1F7F4FAE6E
:1004A0001F7F50C21F7F51D61F7F52EA1F7F53FE0E
:1004B0001F7F5412207F5526207F563A207F574EAB
:1004C000207F5862207F5976207F5A80207F5B945E
:1004D000207F5CA8207F5DBC207F5ED0207F5FDA1C
:1004E000207F60EE207F6102217F6216217F6320E2
:1004F000217F6434217F6548217F6652217F6766B2
:10050000217F687A217F698E217F6A98217F6BAC79
:10051000217F6CB6217F6DCA217F6ED4217F6FE869
:10052000217F70F2217F7106227F7210227F732457
:10053000227F742E227F7542227F764C227F776045
:10054000227F786A227F7974227F7A88227F7B9249
:10055000227F7CA6227F7DB0227F7EBA227F7FCE43
:1005600022000000002300260029000000000800EF
:10057000020100000304070000000000000000006A
:10058000000000250028002B0000000000240027A8
:10059000002A000404040404040404020202020207
:1005A0000203030303030301020408102040800137
:1005B0000204081020010204081020003F12112438
:1005C0001FBECFEFD8E0DEBFCDBF14E0A0E0B1E0AA
:1005D000E0E8F7E402C005900D92AA39B107D9F717
:1005E00026E0AAE9B4E001C01D92A13AB207E1F702
:1005F00012E0CFEDD2E004C02197FE010E94981BCB
:10060000CE3DD107C9F70E9412130C94BE230C945F
:10061000000008950895089508950895089508958F
:10062000862F642FE091B704F091B804309711F051
:10063000A9010994089508950F931F93CF93DF9311
:100640008C01EB01DC018D919C9168816F77DC015D
:10065000ED91FC910190F081E02D0995F8018081E8
:100660009181688170E0660F672F661F770BDC0150
:10067000ED91FC910190F081E02DDF91CF911F91E0
:100680000F910994EF92FF920F931F93CF93DF93F3
:10069000C82F8091F2059091F3050097A9F17A0196
:1006A0008B01DC01ED91FC910190F081E02D60EF78
:1006B00009958091F2059091F305DC01ED91FC9193
:1006C0000190F081E02D6C2F0995E7010E0D1F1DA3
:1006D000C017D10739F0BE0182EF95E00E941C03DC
:1006E0002196F6CF8091F2059091F305DC01ED9112
:1006F000FC910190F081E02D67EFDF91CF911F9188
:100700000F91FF90EF900994DF91CF911F910F917E
:10071000FF90EF90089590E0FC01E955FA4F249185
:100720008D569A4FFC018491882399F090E0880FB0
:10073000991FFC01E757FA4FA591B491FC01E158CC
:10074000FA4F859194918FB7F894EC91E22BEC934A
:100750008FBF0895CF93DF93FC01A081B1811097E3
:1007600001F1EC01ED91FC9111970190F081E02DE8
:1007700069EFCD01099588819981DC01ED91FC91AA
:100780000190F081E02D62E0099588819981DC017A
:10079000ED91FC910190F081E02D65E0DF91CF912A
:1007A0000994DF91CF9108951F93CF93DF93182F72
:1007B000EB018091F7059091F8056817790760F4CF
:1007C0008091F5059091F605C80FD91F188380E038
:1007D000DF91CF911F910895E0912406F0912506B5
:1007E000309711F481E0F4CF81E08093F40580919B
:1007F00010069091110609958091F7059091F805E2
:10080000C817D90778F7DCCFCF93DF93EC01FB0152
:1008100030E020E0C901880F991F8C179D0778F4FC
:100820004081DB014D93BD011197918197959927E7
:100830009795942B9C932F5F3F4F3296EBCFC90136
:10084000DF91CF910895833081F028F4813099F0C1
:100850008230A9F008958730A9F08830C9F084303B
:10086000B1F4809180008F7D03C0809180008F77EC
:1008700080938000089584B58F7784BD089584B5F2
:100880008F7DFBCF8091B0008F778093B00008956B
:100890008091B0008F7DF9CFCF93DF93282F30E088
:1008A000F901E559FA4F8491F901E955FA4FD491CC
:1008B000F901ED56FA4FC491CC23A1F081110E94A9
:1008C0002304EC2FF0E0EE0FFF1FEF59FA4FA59134
:1008D000B491EC91ED2381E090E009F480E0DF91A8
:1008E000CF91089580E090E0FACF1F93CF93DF93EC
:1008F000282F30E0F901E559FA4F8491F901E955C3
:10090000FA4FD491F901ED56FA4FC491CC23A9F0D6
:10091000162F81110E942304EC2FF0E0EE0FFF1F31
:10092000E158FA4FA591B4918FB7F894EC91111159
:1009300008C0D095DE23DC938FBFDF91CF911F914C
:100940000895DE2BF8CF61E0809178060C94750451
:1009500081E58CBD1DBC60E0809178060C94750427
:100960003FB7F8948091110590911205A09113055D
:10097000B091140526B5A89B05C02F3F19F001962C
:10098000A11DB11D3FBFBA2FA92F982F8827BC01E9
:10099000CD01620F711D811D911D42E0660F771F11
:1009A000881F991F4A95D1F708958F929F92AF9211
:1009B000BF92CF92DF92EF92FF926B017C010E9477
:1009C000B0044B015C01C114D104E104F104B9F09D
:1009D0000E94B004681979098A099B09683E73402E
:1009E0008105910580F321E0C21AD108E108F108E0
:1009F00088EE880E83E0981EA11CB11CE4CFFF9006
:100A0000EF90DF90CF90BF90AF909F908F90089520
:100A10002FB7F89460910D0570910E0580910F0528
:100A2000909110052FBF08952091AE043091AF042E
:100A30008091A8049091A9042817390709F4299AEC
:100A40002091AE043091AF048091A6049091A70448
:100A50002817390709F429982091AE043091AF0482
:100A60008091A4049091A5042817390709F45D9A90
:100A70002091AE043091AF048091A2049091A30420
:100A80002817390709F45D982091AE043091AF041E
:100A90008091A0049091A1042817390709F45E9A67
:100AA0002091AE043091AF0480919E0490919F04F8
:100AB0002817390709F45E982091AE043091AF04ED
:100AC00080919C0490919D042817390709F45B9A42
:100AD0002091AE043091AF0480919A0490919B04D0
:100AE0002817390709F45B988091AE049091AF0400
:100AF00001969093AF048093AE042091AA043091A4
:100B0000AB048217930720F01092AF041092AE044A
:100B100081E08093C00420E43FE13093870020937C
:100B2000860091E19093810024E135E0309301014A
:100B30002093000180936F0008950895009721F09D
:100B4000805C9F4F0C94AA030895AF92BF92CF92FE
:100B5000DF92EF92FF920F931F93CF93DF936C017D
:100B60007B018B01040F151FEB015E01AE18BF085E
:100B7000C017D10759F06991D601ED91FC91019010
:100B8000F081E02DC6010995892B79F7C501DF9128
:100B9000CF911F910F91FF90EF90DF90CF90BF907A
:100BA000AF900895FC01538D448D252F30E0842FA4
:100BB00090E0821B930B541710F0CF960895019785
:100BC0000895FC01918D828D981761F0A28DAE0F72
:100BD000BF2FB11D5D968C91928D9F5F9F73928FF9
:100BE00090E008958FEF9FEF0895FC01918D828D25
:100BF000981731F0828DE80FF11D858D90E00895F2
:100C00008FEF9FEF0895FC01918D228D892F90E049
:100C1000805C9F4F821B91098F739927089585E10E
:100C200095E00E94030621E0892B09F420E0822F41
:100C3000089580E090E0892B29F00E940F06811131
:100C40000C9400000895FC01A48DA80FB92FB11DCC
:100C5000A35ABF4F2C91848D90E001968F739927F2
:100C6000848FA689B7892C93A089B1898C918370D0
:100C700080648C93938D848D981306C00288F389C9
:100C8000E02D80818F7D80830895EF92FF920F93F6
:100C90001F93CF93DF93EC0181E0888F9B8D8C8D28
:100CA00098131AC0E889F989808185FF15C09FB71C
:100CB000F894EE89FF896083E889F98980818370DF
:100CC000806480839FBF81E090E0DF91CF911F918E
:100CD0000F91FF90EF900895F62E0B8D10E00F5FAF
:100CE0001F4F0F731127E02E8C8D8E110CC00FB685
:100CF00007FCFACFE889F989808185FFF5CFCE011D
:100D00000E942306F1CFEB8DEC0FFD2FF11DE35A6E
:100D1000FF4FF0829FB7F8940B8FEA89FB8980819F
:100D20008062CFCFCF93DF93EC01888D8823B9F019
:100D3000AA89BB89E889F9898C9185FD03C08081E6
:100D400086FD0DC00FB607FCF7CF8C9185FFF2CF63
:100D5000808185FFEDCFCE010E942306E9CFDF9190
:100D6000CF910895CF93CFB7F8948091B6048111B5
:100D700024C0EDE9F5E08491E1EBF5E09491E82FF2
:100D8000F0E0EE0FFF1FE757FA4FA591B491EC91F9
:100D9000E92321F461E08AE00E9475048AE00E9460
:100DA0008B038CB580618CBD8CB580648CBD8DE06F
:100DB0000E948B038BE00E948B038091B6048F5FAF
:100DC0008093B604CFBFCF910895CF92DF92EF9278
:100DD000FF920F931F93CF93DF93FC01E058FF4FD7
:100DE000E080EE2009F458C0EC01C05CDF4FA88120
:100DF000B981109709F450C0FC01EF57FF4FC08034
:100E0000D180F60111810081ED91FC911197019043
:100E1000F081E02D60EFCD01099588819981DC0199
:100E2000ED91FC910190F081E02D69E709958881B1
:100E30009981DC01ED91FC910190F081E02D602F12
:100E4000099588819981DC01ED91FC910190F081F7
:100E5000E02D612F0995F12C01E010E00F5F1F4F8D
:100E6000E016F10639F0B601600F711FCE010E9445
:100E70001C03F4CF88819981DC01ED91FC910190F4
:100E8000F081E02D67EFDF91CF911F910F91FF90DF
:100E9000EF90DF90CF900994DF91CF911F910F9148
:100EA000FF90EF90DF90CF900895009711F00C9491
:100EB000E50608954F925F926F927F928F929F9274
:100EC000AF92BF92CF92DF92EF92FF920F931F9358
:100ED000CF93DF93CDB7DEB768970FB6F894DEBF38
:100EE0000FBECDBFC0900605D09007058090B4041A
:100EF0009090B5048091C9049091CA046AE070E0B2
:100F00000E94701B8091B2049091B3040091BE04C2
:100F10001091BF044090B0045090B104052C000C17
:100F20006608770849865A866B867C86092C000CF1
:100F3000AA08BB088D829E82AF82B8860D2C000C59
:100F4000EE08FF08C982DA82EB82FC82012E000CD7
:100F5000220B330B098B1A8B2B8B3C8BAB01770F3E
:100F6000660B770B4D875E876F87788B092E000C99
:100F7000AA0BBB0B8D8B9E8BAF8BB88FAE014F5FD7
:100F80005F4F68E170E080E10E94420368960FB60F
:100F9000F894DEBF0FBECDBFDF91CF911F910F91AF
:100FA000FF90EF90DF90CF90BF90AF909F908F9089
:100FB0007F906F905F904F9008958EBD00000DB4AC
:100FC00007FEFDCF8EB50895CF93C82F0E94A804C9
:100FD0008091790681600E94DD078C2F0E94DD07D9
:100FE00080E00E94DD07C82F0E94A3048C2FCF91C0
:100FF0000895CF93DF93D82FC62F0E94A804809125
:1010000079060E94DD078D2F0E94DD078C2F0E943C
:10101000DD07DF91CF910C94A304CF93DF93D82FFA
:10102000C62F8AE00E94E40761E070E00D2E01C047
:10103000660F0A94EAF7609568238C2F01C0880F29
:10104000DA95EAF7682B8AE0DF91CF910C94F907E3
:101050001F93CF93DF93C1E0D0E001C0CC0F8A95FE
:10106000EAF71C2F109580E0613091F00E94E407B0
:101070006C2F682B80E00E94F90786E00E94E4074D
:10108000682F612386E0DF91CF911F910C94F907BF
:101090000E94E407C0956C2F6823ECCFEF92FF927B
:1010A0000F931F93CF93DF93EC010B811C8160178B
:1010B000710708F48B01E980FA808D819E81019689
:1010C0009E838D83019781F48CB58F7D8CBD8CB50B
:1010D000837F8CBD8CB583608CBD8DB58E7F8DBDBF
:1010E00060E088810E94750484E0EE0CFF1C8A9504
:1010F000E1F76894E1F811701E29812F0E94DD0745
:10110000FF24F39481FD14C0F12C8D819E81019701
:101110009E838D83892B21F461E088810E94750470
:101120008F2DDF91CF911F910F91FF90EF90089538
:10113000802F0E94DD07E9CF4F925F926F927F92DE
:101140008F929F92AF92BF92CF92DF92EF92FF92D7
:10115000CF93DF93CDB7DEB764970FB6F894DEBFB9
:101160000FBECDBF20E12093810029985D985E9845
:101170005B989093070580930605181619060CF0E6
:101180003EC1A090BE04B090BF04BC01990F880B73
:10119000990B0E94F41C20E030E040E752E40E94EA
:1011A000101C20E030E040E05FE30E94411E9B0104
:1011B000AC0160E070E080E89FE30E94101C20E03A
:1011C00030E04AE754E40E94411E0E94C31C709321
:1011D000AB046093AA0490E080E00E94F21C6B01D3
:1011E0007C01B501BB0C880B990B0E94F41C9B0180
:1011F000AC010E949F1B20E030E044E354E40E94D5
:10120000101CA70196010E94411E4B015C0120E0C9
:1012100030E040E85EE3C701B6010E94411E6987E5
:101220007A878B879C8720E030E040E05FE3C7014E
:10123000B6010E94411E6D877E878F87988B20E0C4
:1012400030E040E45FE3C701B6010E94411E698BB4
:101250007A8B8B8B9C8B20E030E0A901C501B40117
:101260000E949F1B69837A838B839C839B01AC01C3
:10127000C701B6010E940B1C87FF0CC0A701960195
:1012800069817A818B819C810E949E1B69837A830C
:101290008B839C8329853A854B855C85C501B40188
:1012A0000E949F1B6D837E838F8398879B01AC0177
:1012B000C701B6010E940B1C87FF0CC0A701960155
:1012C0006D817E818F8198850E949E1B6D837E83B8
:1012D0008F8398872D853E854F855889C501B40138
:1012E0000E949F1B2B013C01AC019B01C701B60171
:1012F0000E940B1C87FF08C0A7019601C301B20121
:101300000E949E1B2B013C0129893A894B895C89EB
:10131000C501B4010E949F1B4B015C01AC019B0104
:10132000C701B6010E940B1C87FF08C0A7019601E8
:10133000C501B4010E949E1B4B015C011092A904DF
:101340001092A80469817A818B819C810E94C31CC0
:101350007093A7046093A60469857A858B859C8524
:101360000E94C31C7093A5046093A4046D817E81C8
:101370008F8198850E94C31C7093A3046093A2047C
:101380006D857E858F8598890E94C31C7093A1040A
:101390006093A004C301B2010E94C31C70939F0418
:1013A00060939E0469897A898B899C890E94C31CF9
:1013B00070939D0460939C04C501B4010E94C31CFA
:1013C00070939B0460939A041092AF041092AE0441
:1013D00081E08093C00480E49FE190938700809334
:1013E000860081E180938100109281001092850037
:1013F000109284008091C00480618093810060918C
:10140000060570910705072E000C880B990B0E94AA
:10141000F41C20E030E040E05FE30E94411E20E049
:1014200030E040E752E40E94101C9B01AC0160E0F8
:1014300070E080E89FE30E94101C20E030E04AE763
:1014400054E40E94411E0E94BC1C7093AD04609342
:10145000AC0464960FB6F894DEBF0FBECDBFDF912B
:10146000CF91FF90EF90DF90CF90BF90AF909F9083
:101470008F907F906F905F904F900895CF93DF9300
:10148000893E23E0920714F088EE93E097FF02C0B4
:1014900090E080E0ECE0F1E0D0E0C0E040815181FC
:1014A000841795071CF14281538148175907F4F0BE
:1014B00083E0CC0FDD1F8A95E1F7FE01E45FFE4F6C
:1014C0008481958161E0019709F060E083E00E94EA
:1014D0000D08C45FDE4F8E819F8161E0019709F0A6
:1014E00060E082E0DF91CF910C940D082196389650
:1014F000C832D10599F6DF91CF910895CF93DF934C
:10150000EC01459734F461E084E00E940D0860E04E
:1015100008C060E084E00E940D0861E0CA32D34058
:10152000B4F385E0DF91CF910C940D08EF92FF9218
:101530000F931F93CF93DF931F92CDB7DEB77C013C
:101540001092D0041092CF048AE08E9D80018F9D6E
:10155000100D11241093CA040093C904C8010E94FD
:101560003E0AC8010E947E0AE982AE014F5F5F4FCA
:1015700061E070E082E10E9442030F90DF91CF9121
:101580001F910F91FF90EF900895CF92DF92EF920D
:10159000FF926B017C010E9408056C157D058E058C
:1015A0009F05C0F09B01AC012C193D094E095F0954
:1015B00069017A01C094D094E094F094CC24F7FCB3
:1015C000C394DD24EE24FF248C2DFF90EF90DF9058
:1015D000CF900895C61AD70AE80AF90AEFCFCF923A
:1015E000DF92EF92FF920F931F93CF93DF936C01E3
:1015F0007B01EA01822FF601908191113EC00E9489
:101600004C04892B81F40E94B004F701608371833C
:101610008283938381E0F60180830E9408056883BA
:1016200079838A839B836091AC047091AD04660FCB
:10163000771F660F771F072E000C880B990BC88049
:10164000D980EA80FB806C0D7D1D8E1D9F1D0E9440
:10165000C50A882349F0F801118210820E9408050A
:10166000688379838A839B83DF91CF911F910F9148
:10167000FF90EF90DF90CF9008950E944C04892B4B
:1016800099F3F60110820E94B004F70120813181A4
:10169000621B730B6D3DF5E07F0730F3F80171833A
:1016A0006083E2CFEF92FF920F931F93CF93DF936C
:1016B000CDB7DEB7C058D1090FB6F894DEBF0FBE64
:1016C000CDBF9E0127573F4FF901419151919F0195
:1016D00060E870E08E010F5F1F4FC8010E94DD209F
:1016E0007C01F80101900020E9F73197BF01601BF0
:1016F000710BA80181E70E944203C701C058DF4F68
:101700000FB6F894DEBF0FBECDBFDF91CF911F9112
:101710000F91FF90EF9008950F931F93CF93DF9356
:10172000EC018AE08C9F80018D9F100D1124809127
:10173000C9049091CA040817190769F4CD2B21F444
:1017400090E080E00E943E0AC801DF91CF911F9196
:101750000F910C947E0A9F938F931F930F938EE5A6
:1017600092E09F938F930E94520B0F900F900F90D7
:101770000F900F900F908091C9049091CA04801728
:10178000910744F581E08093D0041092CF04D09368
:10179000C804C093C7040E940805645F7F4F8F4F41
:1017A0009F4F6093CB047093CC048093CD049093AF
:1017B000CE04DF93CF938FE692E09F938F930E94A6
:1017C000520B0F900F900F900F90DF91CF911F91C0
:1017D0000F9108951092D00481E08093CF0460E0CF
:1017E00083E00E940D0860E082E00E940D08CFCFE8
:1017F0004F925F926F927F928F929F92AF92BF9221
:10180000CF92DF92EF92FF920F931F93CF93DF93CC
:1018100000D000D0CDB7DEB78636910514F085E64E
:1018200090E08F30910514F48FE090E09093B50430
:101830008093B4049C012052310945E0429FC001CD
:10184000439F900D112469E070E00E94701B072EE9
:10185000000C880B990B0E94F41C23E333E948E841
:1018600053E40E949F1B9B01AC0160E070E080E8A4
:101870009FE30E94101C9B01AC0169EE7EE98AEA9D
:101880009AE30E949E1B21EE31EC49E354E30E944F
:10189000101C6B017C01AC019B010E94411E20E0E9
:1018A00030E040E85EE30E94411E21E23EE44CEE5F
:1018B0005CE40E949F1B0E94041F4B015C0120E01E
:1018C00030E040E05FE3C701B6010E94411E6B01BA
:1018D0007C01AC019B01C501B4010E949E1B2BEA57
:1018E0003AEA4AEA5EE30E94AE1E2B013C01A701E0
:1018F0009601C501B4010E949F1B2BEA3AEA4AEA0D
:101900005EE30E94AE1E9B01AC01C301B2010E94C6
:101910009E1B0E948A1C0E94BC1C7B0144E050E07C
:1019200065E671E0CE0101960E94041B8B819C81CB
:101930008E159F0530F1698170E00A8110E0809179
:10194000C3049091C4040E944E08B8018091C10460
:101950009091C2040E944E080F900F900F900F902C
:10196000DF91CF911F910F91FF90EF90DF90CF907B
:10197000BF90AF909F908F907F906F905F904F90AF
:10198000089505E611E081E6C82E85E0D82E44E0F2
:1019900050E0B801CE0101960E94041B8B819C810E
:1019A0008E159F0540F60C5F1F4FC016D10679F7C4
:1019B00044E050E06DE575E0CE0101960E94041B05
:1019C000BACFEF92FF920F931F93CF93DF937B01D8
:1019D0008A01E9010E949C08C7010E94F80BC80116
:1019E0000E948C0BD093B304C093B2041092D50420
:1019F000DF91CF911F910F91FF90EF90089510927A
:101A0000D50430E020E050E040E060E270E090E09B
:101A100080E00E94E10C60E086E00C940D084F929B
:101A20005F926F927F928F929F92AF92BF92CF926E
:101A3000DF92EF92FF920F931F93CF93DF9300D02B
:101A40001F92CDB7DEB78132910514F080E290E0AD
:101A50008B3E2FEF920714F48BEE9FEF9093B1041F
:101A60008093B0049C012052310945E0429FC0019F
:101A7000439F900D112469E070E00E94701B072EB7
:101A8000000C880B990B0E94F41C23E333E948E80F
:101A900053E40E949F1B9B01AC0160E070E080E872
:101AA0009FE30E94101C9B01AC0160E075ED8CEE81
:101AB0009AE30E949E1B2AE736E145E255E30E9425
:101AC000101C6B017C01AC019B010E94411E20E0B7
:101AD00030E040E85EE30E94411E28EE3BE44DE228
:101AE0005AE40E949F1B0E94041F4B015C0120E0EE
:101AF00030E040E05FE3C701B6010E94411E6B0188
:101B00007C01AC019B01C501B4010E949E1B2BEA24
:101B10003AEA4AEA5EE30E94AE1E2B013C01A701AD
:101B20009601C501B4010E949F1B2BEA3AEA4AEADA
:101B30005EE30E94AE1E9B01AC01C301B2010E9494
:101B40009E1B0E948A1C0E94BC1C7B0143E050E04B
:101B50006AEE70E0CE0101960E94041B8A819B818F
:101B60008E159F05E0F0698170E08091C504909129
:101B7000C6040E944E080F900F900F90DF91CF91F6
:101B80001F910F91FF90EF90DF90CF90BF90AF909B
:101B90009F908F907F906F905F904F9008950AEE86
:101BA00010E043E050E0B801CE0101960E94041B12
:101BB0008A819B818E159F05B0F60D5F1F4F81E0D6
:101BC0000536180771F743E050E062E671E0CE0198
:101BD00001960E94041BC7CF4F925F926F927F9233
:101BE0008F929F92AF92BF92CF92DF92EF92FF922D
:101BF0000F931F93CF93DF9300D01F92CDB7DEB723
:101C0000582E462E8A012BE0821709F42BC2281782
:101C100008F47EC045E0841709F4BFC24817F0F10C
:101C200082E0581609F477C28515F0F0E1E05E16FF
:101C300009F4EDC1642D70E0A801852D0E944203D6
:101C40000F900F900F90DF91CF911F910F91FF9008
:101C5000EF90DF90CF90BF90AF909F908F907F904C
:101C60006F905F904F900895F3E05F1609F460C2A3
:101C700024E05212DFCF1092D5042FE030E050E084
:101C800040E060E270E080EB94E00E94E10C60E0F4
:101C900086E00E940D088BE593E041C248E084177E
:101CA00009F4A1C24817D0F086E0581609F488C29A
:101CB000E7E05E12BFCF1092D5042BE030E049E19F
:101CC00050E069EB70E088EB9BE00E94E10C60E083
:101CD00086E00E940D088EE793E021C2F9E08F179D
:101CE00009F494C22AE08213A5CF1092D50422E011
:101CF00030E04FE550E069EB70E080E797E10E944B
:101D0000E10C60E086E00E940D0888EB93E007C2DA
:101D100046E1841709F4E5C1481790F18DE05816A3
:101D200009F4CEC1581608F4B3C1EEE05E1609F40A
:101D3000BBC1FFE05F127ECFF801F0808F2D90E0F5
:101D4000873291050CF4CAC19093BF048093BE04FE
:101D50008091BE049091BF048234914034F081E4BC
:101D600091E09093BF048093BE048091060590910A
:101D700007050E949C081F92FF9288ED92E07DC1AA
:101D80002AE1821709F45FC1281708F443C147E12B
:101D9000841709F4E0C188E158124CCFF0E36F13C7
:101DA00093C2F8018181F0E88F9FC0011124F801EE
:101DB0002081822B2381F0E82F9F90011124322F64
:101DC0002227822B932BF8012281922B90937B0662
:101DD00080937A068580F0E88F9E40011124F801F7
:101DE0008481882A8781F0E88F9FC0011124982F71
:101DF0008827882A992AF8018681982A90927D0658
:101E000080927C06C184F0E8CF9E60011124F80125
:101E10008085C82A8385F0E88F9FC0011124982F00
:101E20008827C82AD92AF8018285D82AD0927F0625
:101E3000C0927E06A584F0E8AF9E50011124F801FF
:101E40008485A82A8785F0E88F9FC0011124982FE8
:101E50008827A82AB92AF8018685B82AB09281066F
:101E6000A0928006E188F0E8EF9E70011124F8014D
:101E70008089E82A8389F0E88F9FC0011124982F78
:101E80008827E82AF92AF8018289F82AF09283063D
:101E9000E09282066588F0E86F9E30011124F80117
:101EA0008489682A8789F0E88F9FC0011124982FC0
:101EB0008827682A792AF8018689782A7092850607
:101EC00060928406818DF0E88F9FC0011124F80193
:101ED000208D822B238DF0E82F9F90011124322F2B
:101EE0002227822B932BF801228D922B9093870629
:101EF00080938606858DF0E88F9FC0011124F8013C
:101F0000248D822B278DF0E82F9F90011124322FF2
:101F10002227822B932BF801268D922B90938906F2
:101F20008093880681A1F0E88F9FC0011124F801F9
:101F300020A1822B23A1F0E82F9F90011124322FA2
:101F40002227822B932BF80122A1922B90938F06AC
:101F500080938E0685A1F0E88F9FC0011124F801BF
:101F600024A1822B27A1F0E82F9F90011124322F6A
:101F70002227822B932BF80126A1922B9093910676
:101F80008093900681A5F0E88F9FC0011124F8018D
:101F900020A5822B23A5F0E82F9F90011124322F3A
:101FA0002227822B932BF80122A5922B90938B064C
:101FB00080938A0685A5F0E88F9FC0011124F8015F
:101FC00024A5822B27A5F0E82F9F90011124322F02
:101FD0002227822B932BF80126A5922B90938D0616
:101FE00080938C0680919206882309F422C18AECA2
:101FF00093E09F938F930E94520B0F900F908DEF61
:1020000093E09F938F930E94520B0F900F900E942A
:102010005A0710CEEBE18E1709F463C1F0EF8F136E
:1020200009CE8091BB0489838091BA048A83809110
:10203000B9048B83AE014F5F5F4F63E070E081EFC7
:102040000E944203F7CD4091BC045091BD04FA01B7
:1020500001900020E9F73197BF01641B750B7727CA
:1020600089E1EECFFA01F080E1808F2D9E2D0E9454
:10207000F80BEF92FF928CE792E09F938F930E9470
:10208000520B0E945A070F900F900F900F90D2CDD5
:10209000F801F080E1808F2D9E2D0E940F0DEF92B0
:1020A000FF9285E992E0E9CFF801F080E1808F2D81
:1020B0009E2D0E948C0BEF92FF928AEA92E0DDCF78
:1020C0001092D504F801F080E1808F2D9E2D0E94A2
:1020D0009C08EF92FF928DEB92E0CFCF87E290E0E9
:1020E00033CEF8018081882379F061E086E00E9498
:1020F0000D0887E794E09F938F9388EF92E09F937A
:102100008F930E94520BBFCF60E086E00E940D08C3
:1021100084E293E0F0CF0E94FF0C86E193E09F936E
:102120008F930E94520B0E945A070F900F9082CDFE
:102130001092D50430E020E050E040E060E270E032
:1021400082E390E00E94E10C61E086E00E940D08CD
:1021500088E293E0E4CF30E020E050E040E060E24D
:1021600070E087ED90E00E94E10C61E086E00E9463
:102170000D0881E08093D5040E94080568537F4FC5
:102180008F4F9F4F6093D1047093D2048093D304F8
:102190009093D40488E393E0C2CF1092D5042FE04B
:1021A00030E050E040E069EB70E08CEB92E00E94A0
:1021B000E10C60E086E00E940D0885E693E0AFCF79
:1021C0001092D5042BE030E041E150E069EB70E083
:1021D00088E795E00E94E10C60E086E00E940D082F
:1021E0008EE693E09CCF1092D50429E030E04EE1DA
:1021F00050E069EB70E088E097E00E94E10C60E05D
:1022000086E00E940D088EE893E089CF1092D504F5
:1022100027E030E042E350E069EB70E08CEA9DE0BB
:102220000E94E10C60E086E00E940D0882EA93E0E3
:1022300076CF81E0809392060E940805680D791D93
:10224000811D911D6093930670939406809395066B
:10225000909396060E940805625E7F4F8F4F9F4FB6
:102260006093990670939A0680939B0690939C06C0
:102270001092980610929706AB2819F0C6010E949A
:102280009C08672819F0C7010E940F0D80918806ED
:1022900090918906892B31F080918606909187066E
:1022A0000E94F80B80918C0690918D06892B09F481
:1022B000A6CE80918A0690918B068536910508F00E
:1022C0009ECE0E94960A9BCE1F926F9382E194E06D
:1022D0009F938F930E94520B0F900F900F900F902F
:1022E00096CE109292068FE394E019CF1F920F9230
:1022F0000FB60F9211242F933F938F939F93AF9319
:10230000BF9380910D0590910E05A0910F05B0919E
:10231000100530910C0523E0230F2D3758F5019659
:10232000A11DB11D20930C0580930D0590930E0502
:10233000A0930F05B093100580911105909112059F
:10234000A0911305B09114050196A11DB11D8093B4
:10235000110590931205A0931305B0931405BF9136
:10236000AF919F918F913F912F910F900FBE0F9042
:102370001F90189526E8230F0296A11DB11DD2CFFC
:102380001F920F920FB60F9211242F933F934F93EA
:102390005F936F937F938F939F93AF93BF93EF93CD
:1023A000FF9385E195E00E942306FF91EF91BF9195
:1023B000AF919F918F917F916F915F914F913F91DD
:1023C0002F910F900FBE0F901F9018951F920F9294
:1023D0000FB60F9211242F938F939F93EF93FF9338
:1023E000E0912505F09126058081E0912B05F09183
:1023F0002C0582FD1BC0908180912E058F5F8F730D
:1024000020912F05821741F0E0912E05F0E0EB5E60
:10241000FA4F958F80932E05FF91EF919F918F91A9
:102420002F910F900FBE0F901F9018958081F4CFC1
:102430001F920F920FB60F9211242F933F934F9339
:102440005F936F937F938F939F93AF93BF93EF931C
:10245000FF93E0910001F09101010995FF91EF9147
:10246000BF91AF919F918F917F916F915F914F91AC
:102470003F912F910F900FBE0F901F901895E5E19F
:10248000F5E01382128288EE93E0A0E0B0E084834E
:102490009583A683B78380E592E09183808385EC62
:1024A00090E09587848784EC90E09787868780EC1E
:1024B00090E0918B808B81EC90E0938B828B82EC0F
:1024C00090E0958B848B86EC90E0978B868B118EB9
:1024D000128E138E148E82EB95E01092F3051092FB
:1024E000F2059093F6058093F50520E430E03093F3
:1024F000F8052093F7051092F9051092FA0510924D
:10250000FC051092FB051092FD051092FF0510923C
:10251000FE0510920106109200061092030610921A
:1025200002061092050610920406109207061092F9
:102530000606109209061092080610920B061092D9
:102540000A061092110610921006109213061092AD
:102550001206109215061092140610921706109289
:10256000160610922506109224061092F405109279
:10257000320610923406109233061092770629E044
:1025800033E030931906209318062AE033E03093A5
:102590001B0620931A062BE033E030931D06209390
:1025A0001C062CE033E030931F0620931E062DE01E
:1025B00033E030932106209320062EE033E0309361
:1025C0002306209322062FE033E030932706209342
:1025D000260620E133E0309329062093280625E5DE
:1025E00037E030932B0620932A0690930D068093B4
:1025F0000C062EE935E030932D0620932C0690939F
:102600000F0680930E068BE193E090932F06809344
:102610002E0610929206E8E7F6E080E1808380E4DF
:1026200081830895CF93DF93CDB7DEB760970FB660
:10263000F894DEBF0FBECDBF789484B5826084BDB0
:1026400084B5816084BD85B5826085BD85B58160B6
:1026500085BD80916E00816080936E001092810034
:1026600080918100826080938100809181008160EF
:1026700080938100809180008160809380008091B0
:10268000B10084608093B1008091B000816080933C
:10269000B00080917A00846080937A0080917A0003
:1026A000826080937A0080917A00816080937A00C2
:1026B00080917A00806880937A001092C10084E54E
:1026C00094E09093BD048093BC0481E08093BB04AC
:1026D00072E0F72EF092BA0483E08093B90488E0A8
:1026E0008093320680913306909134060E944520F3
:1026F0000091320610E0C80101960E94A91F909334
:10270000340680933306FC01E00FF11F1082DC01D8
:10271000FC9211961C92A8014250510964E674E0A3
:1027200002960E94CE208CEE9DE09093B804809398
:10273000B704E0912505F0912605F082E09125058A
:10274000F09126051082E0912105F091220510827A
:10275000E0912305F091240580E1808310922D05FE
:10276000E0912905F0912A0586E08083E091270514
:10277000F0912805808180618083E0912705F091A8
:102780002805808188608083E0912705F0912805E5
:10279000808180688083E0912705F0912805808101
:1027A0008F7D80838091770681114EC08DE00E94DD
:1027B0008B0362ED70E080E090E00E94D50461E060
:1027C0008DE00E94750468E270E080E090E00E9475
:1027D000D50460E08DE00E94750462ED70E080E059
:1027E00090E00E94D50461E08DE00E94750468E2EB
:1027F00070E080E090E00E94D50460E08DE00E94EF
:1028000075046AEF70E080E090E00E94D50415E066
:1028100062ED70E080E090E00E94D50461E08DE020
:102820000E94750468E270E080E090E00E94D504A8
:1028300060E08DE00E947504115051F76DE770E083
:1028400080E090E00E94D50485E195E09093310608
:10285000809330069093F3058093F20582EF95E024
:102860000E94AA0382EB95E00E94E50681E10E94A6
:102870008B0361E081E10E947504219A2998559AA1
:102880005D98569A5E98539A5B9883E10E948B03F9
:1028900061E083E10E94750482E10E948B0361E0A4
:1028A00082E10E94750488E00E948B0361E088E069
:1028B0000E94750480E10E948B0361E080E10E9428
:1028C000750487E090E00E94A91F8C0183E1F80164
:1028D00080831282118260E8E62EF12CF482E3827A
:1028E000168215820E94B206D8018C910E948B0339
:1028F00061E0F80180810E9475041093C604009382
:10290000C50487E090E00E94A91F8C0182E1D801F4
:102910008C9312961C921E9211971496FC92EE9232
:10292000139716961C921E9215970E94B206F801F4
:1029300080810E948B0361E0D8018C910E94750414
:102940001093C4040093C30487E090E00E94A91F81
:102950008C0188E0F801808312821182F482E38284
:10296000168215820E94B206D8018C910E948B03B8
:1029700061E0F80180810E9475041093C204009305
:10298000C10461E082E00E94280861E083E00E94C7
:10299000280861E084E00E94280861E085E00E9448
:1029A000280861E086E00E94280860E087E00E9435
:1029B00028086CE386E00E94F90760E086E00E9448
:1029C0000D0880E1809381001092800091E0909347
:1029D000C004109287001092860021E120938100AC
:1029E00024E135E0309301012093000190936F00C2
:1029F0008093810087E890E09093BF048093BE04A9
:102A00001092CA041092C9041092D0041092CF04FC
:102A10001092D50486E480937C0080917A008064D3
:102A200080937A0080917A0086FDFCCF80917800B7
:102A300060917900762F682F072E000C880B990B78
:102A4000611571058105910511F00E94FB1A0E9424
:102A5000FF0C80E290E00E940F0D0E940805685173
:102A60007C4F8F4F9F4F60930805709309058093AB
:102A70000A0590930B050E9408056C507E4F8F4FFE
:102A80009F4F6093D6047093D7048093D80490939B
:102A9000D9040E94080568537F4F8F4F9F4F609362
:102AA000D1047093D2048093D3049093D40454E15E
:102AB000852E912CA12CB12C3AE7232E34E0332E15
:102AC0004FE6C42E44E0D42E80913006909131061A
:102AD000DC01ED91FC910084F185E02D0995892BB5
:102AE00009F4D4C18091300690913106DC01ED915A
:102AF000FC910284F385E02D09959C018F3F980796
:102B000019F3982F8091FD05882309F492C0973F0F
:102B100009F07EC01092FD05A091F505B091F60573
:102B20006C916137C1F1693709F05CC0E0912A0608
:102B3000F0912B06309741F28091FE059091FF05B0
:102B40008330910560F430E020E050E040E070E038
:102B500060E080910C0690910D060995B5CFBD01FE
:102B60006D5F7F4F03970E940404BC016D5F7F4F30
:102B700080E00E94D403E091F505F091F6059F01F5
:102B80002D5F3F4F428150E0618170E0E0912A0665
:102B9000F0912B06DECF8091260690912706892B97
:102BA00009F492CFBD016F5F7F4F8091FE05909138
:102BB000FF0501970E940404BC016F5F7F4F80E016
:102BC0000E94D4036091F5057091F6056F5F7F4F09
:102BD000E0912606F0912706809112069091130647
:102BE000099572CFE0912806F0912906309709F4F3
:102BF0006BCF9D012F5F3F4F4091FE055091FF0528
:102C000041505109809114069091150609955CCFA9
:102C10006091FE057091FF05822F0E94D403809180
:102C2000FE059091FF0501969093FF058093FE05A8
:102C30004BCF6091FB057091FC056115710509F49E
:102C4000B1C027FDAFC0615071097093FC0560935E
:102C5000FB05822F0E94D4038091FB059091FC0517
:102C6000892B09F031CF8091F905882309F42CCF05
:102C7000803D09F483C040F4803949F1803C09F477
:102C800069C01092F90520CF843FE1F1853F09F436
:102C90004DC0803EB1F7E0911806F09119063097CB
:102CA00081F3A091F505B091F6054C9120E8429F83
:102CB000C001112411964C91480F592F511D60915C
:102CC000FA0580910006909101060995DACFE0910E
:102CD0001A06F0911B063097A1F2A091F505B0916C
:102CE000F6054C9130E8439FC001112411964C9198
:102CF000480F592F511D6091FA058091020690915D
:102D00000306E3CFE0912006F0912106309709F405
:102D1000B8CFA091F505B091F6054C9150E0119611
:102D20006C918091080690910906CFCFE091220620
:102D3000F0912306309709F4A4CFA091F505B09146
:102D4000F6054C9150E011966C9180910A06909195
:102D50000B06BBCFE0911C06F0911D06309709F4DD
:102D600090CFA091F505B091F6054C9150E060919F
:102D7000FA058091040690910506A7CFE0911E0602
:102D8000F0911F06309709F47CCFA091F505B09122
:102D9000F6054C9150E06091FA05809106069091FD
:102DA000070693CF903F30F4822F8F708093FA05FF
:102DB000922F907F903F09F442C0A0F4903CC1F163
:102DC00060F4903909F080CEA2E0B0E0B093FC0549
:102DD000A093FB059093F90577CE903D49F1903E85
:102DE00099F372CE993F09F445C028F48CE0890F1D
:102DF000823050F369CE9F3F09F066CE1092FC05F9
:102E00001092FB051092F9051092FA0590E080E00F
:102E10002091F7053091F80582179307C0F4E091EF
:102E2000F505F091F605E80FF91F10820196F0CF35
:102E3000E1E0F0E0F093FC05E093FB05CBCFF1E09F
:102E4000F093FD051092FF051092FE053DCE109205
:102E5000FD051092FF051092FE05E0912E06F091FF
:102E60002F068091160690911706309709F42CCE04
:102E700009952ACEE0912C06F0912D06309709F4A1
:102E800023CE80910E0690910F06F2CF6091080537
:102E90007091090580910A0590910B050E94C50A61
:102EA000882301F181E10E944C0461E0019709F45B
:102EB00060E081E10E94750480910605909107050C
:102EC000181619060CF0ACC20E94080566507F4F18
:102ED0008F4F9F4F609308057093090580930A05F3
:102EE00090930B050EEF14E022E045EF54E069EFFC
:102EF00074E08DEF94E00E94EF0A00E015E027E017
:102F00004CEE54E060EF74E084EF94E00E94EF0A2E
:102F100002E015E024E043EE54E067EE74E08BEE4F
:102F200094E00E94EF0A04E015E02EE04AED54E040
:102F30006EED74E082EE94E00E94EF0A6091D60498
:102F40007091D7048091D8049091D9040E94C50A49
:102F5000882309F450C090910405809105053091B3
:102F600002052091030550910005409101057091E3
:102F7000FE046091FF0479836A835B834C833D8305
:102F80002E839F838887AE014F5F5F4F68E070E0BC
:102F900085E10E94420389E00E94E40786FB8827BE
:102FA00080F98983AE014F5F5F4F61E070E083E19C
:102FB0000E94420389E00E94E40790E0880F892F75
:102FC000881F990B21E082278983AE014F5F5F4FF5
:102FD00061E070E084E10E9442030E9408056C50A9
:102FE0007E4F8F4F9F4F6093D6047093D70480938A
:102FF000D8049093D9048091D504882351F160912D
:10300000D1047091D2048091D3049091D4040E9491
:10301000C50A8823F1F00E94AC1AA50194010E9410
:103020000D1BDC01CB0183539F4FAF4FBF4F0E945D
:103030009C080E945A070E94080568537F4F8F4FD3
:103040009F4F6093D1047093D2048093D3049093E4
:10305000D4041091D004111105C08091CF048823AD
:1030600009F441C06091CB047091CC048091CD04EF
:103070009091CE040E94C50A8823A9F18091C904C9
:103080009091CA042091C7043091C8044AE0429F3D
:103090007001439FF00C1124112309F4E1C1019642
:1030A0009093CA048093C9040E943E0A0091C90407
:1030B0001091CA04E016F10609F0E0C11092D004A4
:1030C0001092CF04C8010E947E0AC8016AE070E035
:1030D0000E94701B6983AE014F5F5F4F61E070E03B
:1030E00082E10E94420380919206882309F48BC1F9
:1030F0006091990670919A0680919B0690919C062A
:103100000E94C50A882381F00E945A070E94080580
:10311000625E7F4F8F4F9F4F6093990670939A0620
:1031200080939B0690939C06609193067091940601
:1031300080919506909196060E94C50A882309F40D
:1031400062C100919706109198060F5F1F4F109370
:10315000980600939706E0908006F0908106E114AF
:10316000F10471F1B80190E080E00E94F21C2B01A3
:103170003C01B701FF0C880B990B0E94F41C9B01CA
:10318000AC01C301B2010E94411E20E030E040E2E8
:1031900051E40E94101C2B013C0160917E0670914D
:1031A0007F0690E080E00E94F21C9B01AC01C3010D
:1031B000B2010E949F1B0E94BC1CCB010E949C0874
:1031C000E0908406F0908506E114F10481F1B801E5
:1031D00090E080E00E94F21C2B013C01B701FF0C43
:1031E000880B990B0E94F41C9B01AC01C301B20136
:1031F0000E94411E20E030E048EC52E40E94101C86
:103200002B013C016091820670918306072E000C11
:10321000880B990B0E94F41C9B01AC01C301B20105
:103220000E949F1B0E94BC1CCB010E940F0D0091AD
:103230008806109189060115110599F1609197068C
:103240007091980690E080E00E94F21C2B013C01F6
:10325000B801110F880B990B0E94F41C9B01AC0163
:10326000C301B2010E94411E20E030E048EC52E46C
:103270000E94101C2B013C0160918606709187060C
:10328000072E000C880B990B0E94F41C9B01AC01CB
:10329000C301B2010E949F1B0E94BC1CCB010E9473
:1032A000F80B00918C0610918D0601151105A1F106
:1032B000609197067091980690E080E00E94F21C61
:1032C0002B013C01B801110F880B990B0E94F41CD3
:1032D0009B01AC01C301B2010E94411E20E030E01D
:1032E00048EC52E40E94101C2B013C0160918A06BC
:1032F00070918B0690E080E00E94F21C9B01AC0173
:10330000C301B2010E949F1B0E94BC1C653671055F
:1033100018F4CB010E94960A80918E0690918F0638
:103320008F3F980709F44EC0209190063091910686
:103330002F3F3F4F09F446C0609197067091980661
:1033400040917C0650917D06649F9001659F300DF1
:10335000749F300D11242817390778F089E00E94F6
:10336000E40786FD0AC061E086E00E940D08DF9256
:10337000CF920E94520B0F900F9040919706509160
:10338000980680917C0690917D06489F9001499F08
:10339000300D589F300D1124809190069091910628
:1033A0002817390778F089E00E94E40786FF0AC0F1
:1033B00060E086E00E940D083F922F920E94520B1F
:1033C0000F900F90209197063091980680917A0681
:1033D00090917B062817390709F05FC0109292067A
:1033E00086E894E09F938F930E94520B1982AE015E
:1033F0004F5F5F4F61E070E08CE10E9442030E94EA
:103400005A070F900F90E0E0F0E0EF2B09F45CCB4F
:103410000E940F06882309F44FCB0E9400004CCB7A
:1034200010920505109204051092030510920205F2
:1034300010920105109200051092FF041092FE04F4
:103440001982AE014F5F5F4F61E070E084E10E943E
:1034500042030E94080568517C4F8F4F9F4F3ACD21
:103460000A978E159F052CF09093CA048093C90487
:103470001DCEF092CA04E092C90418CE0E9408053D
:10348000645F7F4F8F4F9F4F6093CB047093CC044A
:103490008093CD049093CE0415CE0E940805209110
:1034A0007C0630917D06620F731F811D911D609314
:1034B0009306709394068093950690939606A3CFF7
:1034C0008F929F92AF92BF92CF92DF92EF92FF9234
:1034D000CF93DF93EC01688179818A819B816115AB
:1034E00071058105910521F464E279ED8BE597E0A2
:1034F0002DE133EF41E050E00E940D1B49015A01DC
:103500009B01AC01A7EAB1E40E942C1B6B017C017A
:10351000ACEEB4EFA50194010E943A1BC60ED71E73
:10352000E81EF91EF7FE06C081E0C81AD108E108BE
:1035300080E8F80AC882D982EA82FB82C701B60114
:103540009F77DF91CF91FF90EF90DF90CF90BF906A
:10355000AF909F908F9008958F929F92AF92BF925D
:10356000CF92DF92EF92FF9260910201709103017E
:103570008091040190910501611571058105910506
:1035800021F464E279ED8BE597E02DE133EF41E042
:1035900050E00E940D1B49015A019B01AC01A7EAB2
:1035A000B1E40E942C1B6B017C01ACEEB4EFA501D1
:1035B00094010E943A1BC60ED71EE81EF91EF7FEA4
:1035C00006C081E0C81AD108E10880E8F80AC09274
:1035D0000201D0920301E0920401F0920501C701BB
:1035E000B6019F77FF90EF90DF90CF90BF90AF90A4
:1035F0009F908F90089560930201709303018093D0
:103600000401909305010895FB01DC0102C00590BF
:103610000D9241505040D8F70895052E97FB1EF4A7
:1036200000940E94241B57FD07D00E943F1B07FCFB
:1036300003D04EF40C94241B509540953095219561
:103640003F4F4F4F5F4F08959095809570956195CE
:103650007F4F8F4F9F4F08950E94611BA59F900D34
:10366000B49F900DA49F800D911D11240895B7FF64
:103670000C942C1B0E942C1B821B930B0895A1E21F
:103680001A2EAA1BBB1BFD010DC0AA1FBB1FEE1FDC
:10369000FF1FA217B307E407F50720F0A21BB30B27
:1036A000E40BF50B661F771F881F991F1A9469F7A3
:1036B00060957095809590959B01AC01BD01CF01FF
:1036C0000895A29FB001B39FC001A39F700D811DFB
:1036D0001124911DB29F700D811D1124911D08951B
:1036E00097FB072E16F4009407D077FD09D00E94AF
:1036F000841B07FC05D03EF4909581959F4F08955B
:10370000709561957F4F0895AA1BBB1B51E107C0BF
:10371000AA1FBB1FA617B70710F0A61BB70B881F61
:10372000991F5A95A9F780959095BC01CD010895F0
:10373000EE0FFF1F0590F491E02D09945058BB2720
:10374000AA270E94B61B0C94911D0E94831D38F07D
:103750000E948A1D20F039F49F3F19F426F40C943E
:10376000591D0EF4E095E7FB0C94531DE92F0E94C0
:10377000A21D58F3BA17620773078407950720F054
:1037800079F4A6F50C94C41D0EF4E0950B2EBA2F17
:10379000A02D0B01B90190010C01CA01A001112457
:1037A000FF27591B99F0593F50F4503E68F11A1603
:1037B000F040A22F232F342F4427585FF3CF469594
:1037C00037952795A795F0405395C9F77EF41F16B6
:1037D000BA0B620B730B840BBAF09150A1F0FF0F80
:1037E000BB1F661F771F881FC2F70EC0BA0F621F6C
:1037F000731F841F48F4879577956795B795F7955C
:103800009E3F08F0B0CF9395880F08F09927EE0FF0
:103810009795879508950E942F1D08F481E00895DB
:103820000E94241C0C94911D0E948A1D58F00E9435
:10383000831D40F029F45F3F29F00C94531D511172
:103840000C94C51D0C94591D0E94A21D68F3992368
:10385000B1F3552391F3951B550BBB27AA2762178C
:103860007307840738F09F5F5F4F220F331F441F99
:10387000AA1FA9F335D00E2E3AF0E0E832D09150CD
:103880005040E695001CCAF72BD0FE2F29D0660FBA
:10389000771F881FBB1F261737074807AB07B0E8FD
:1038A00009F0BB0B802DBF01FF2793585F4F3AF003
:1038B0009E3F510578F00C94531D0C94C51D5F3F3D
:1038C000E4F3983ED4F3869577956795B795F79589
:1038D0009F5FC9F7880F911D9695879597F9089571
:1038E000E1E0660F771F881FBB1F6217730784070D
:1038F000BA0720F0621B730B840BBA0BEE1F88F71C
:10390000E095089529F416F00C94531D0C94C41DF1
:103910000C94591D0E94AA1DA8F39638A0F707F829
:103920000F92E8942BE33AEA48EB5FE70E94571EB8
:103930000F920F920F924DB75EB70F920E940D1E1D
:10394000E8E6F0E00E945C1D4F915F91EF91FF91DE
:10395000E595EE1FFF1F49F0FE57E0684427EE0F84
:10396000441FFA95E1F74195550B0E94D71D0F9022
:1039700007FE0C94CB1D08950E94C31C6894B111DE
:103980000C94C51D08950E94AA1D88F09F5798F0B9
:10399000B92F9927B751B0F0E1F0660F771F881F54
:1039A000991F1AF0BA95C9F714C0B13091F00E946E
:1039B000C41DB1E008950C94C41D672F782F88278B
:1039C000B85F39F0B93FCCF3869577956795B39595
:1039D000D9F73EF490958095709561957F4F8F4F04
:1039E0009F4F0895E89409C097FB3EF49095809509
:1039F000709561957F4F8F4F9F4F9923A9F0F92FB5
:103A000096E9BB279395F695879577956795B79532
:103A1000F111F8CFFAF4BB0F11F460FF1BC06F5F18
:103A20007F4F8F4F9F4F16C0882311F096E911C02A
:103A3000772321F09EE8872F762F05C0662371F04B
:103A400096E8862F70E060E02AF09A95660F771F5F
:103A5000881FDAF7880F9695879597F90895990F3B
:103A60000008550FAA0BE0E8FEEF16161706E80748
:103A7000F907C0F012161306E407F50798F0621B69
:103A8000730B840B950B39F40A2661F0232B242B3E
:103A9000252B21F408950A2609F4A140A6958FEF5D
:103AA000811D811D089597F99F6780E870E060E0AF
:103AB00008959FEF80EC0895DF93CF931F930F93AA
:103AC000FF92EF92DF927B018C01689406C0DA2EA0
:103AD000EF010E94541EFE01E894A59125913591B5
:103AE00045915591A6F3EF010E94B61BFE01970187
:103AF000A801DA9469F7DF90EF90FF900F911F9182
:103B0000CF91DF91089500240A941616170618061F
:103B10000906089500240A941216130614060506D1
:103B20000895092E0394000C11F4882352F0BB0F62
:103B300040F4BF2B11F460FF04C06F5F7F4F8F4FC5
:103B40009F4F089557FD9058440F551F59F05F3F00
:103B500071F04795880F97FB991F61F09F3F79F0AF
:103B600087950895121613061406551FF2CF469531
:103B7000F1DF08C0161617061806991FF1CF8695B3
:103B80007105610508940895E894BB276627772797
:103B9000CB0197F908959B01AC0160E070E080E8EB
:103BA0009FE30C94101C0C94531D0C94441F0E9412
:103BB000AA1DD8F39923C9F3940F511DA3F3915073
:103BC000504094F059F0882332F0660F771F881F19
:103BD00091505040C1F79E3F51052CF7880F911D21
:103BE0009695879597F908955F3FACF0983E9CF0C5
:103BF000BB27869577956795B79508F4B16093953F
:103C0000C1F7BB0F58F711F460FFE8CF6F5F7F4F2C
:103C10008F4F9F4FE3CF0C94C51DFA01DC01AA0F13
:103C2000BB1F9B01AC01BF5728F422273327442731
:103C3000507820C0B75190F4AB2F002446953795AB
:103C40002795011CA395D2F3002071F0220F331F9A
:103C5000441FB395DAF30ED00C949E1B61307105AE
:103C6000A0E88A07B94630F49B01AC0166277727A4
:103C700088279078309621F02083318342835383C4
:103C800008950E94541E0C94911D0E94831D38F0CB
:103C90000E948A1D20F0952311F00C94531D0C9462
:103CA000591D11240C94C51D0E94A21D70F3959FEF
:103CB000C1F3950F50E0551F629FF001729FBB2723
:103CC000F00DB11D639FAA27F00DB11DAA1F649FBF
:103CD0006627B00DA11D661F829F2227B00DA11D72
:103CE000621F739FB00DA11D621F839FA00D611DF8
:103CF000221F749F3327A00D611D231F849F600D19
:103D0000211D822F762F6A2F11249F5750409AF041
:103D1000F1F088234AF0EE0FFF1FBB1F661F771FCD
:103D2000881F91505040A9F79E3F510580F00C9498
:103D3000531D0C94C51D5F3FE4F3983ED4F3869564
:103D400077956795B795F795E7959F5FC1F7FE2B38
:103D5000880F911D9695879597F90895FA01EE0FB2
:103D6000FF1F309621053105A1F16115710561F440
:103D70008038BFE39B0749F168949038810561F072
:103D80008038BFEF9B0741F099234AF5FF3FE105DB
:103D90003105210519F1E8940894E795D901AA2382
:103DA00029F4AB2FBE2FF85FD0F310C0FF5F70F483
:103DB000A695E0F7F73950F019F0FF3A38F49F77FD
:103DC0009F930DD00F9007FC9058089546F00C94E7
:103DD000591D60E070E080E89FE308954FE79F770A
:103DE0005F934F933F932F930E94611F2F913F91B9
:103DF0004F915F910E94411E0C948A1C19F416F495
:103E00000C94591D0C94441F0E94AA1DB8F39923C9
:103E1000C9F3B6F39F57550B87FF0E94521F00242A
:103E2000A0E640EA900180585695979528F4805C6A
:103E3000660F771F881F20F026173707480730F4D2
:103E4000621B730B840B202931294A2BA6951794EA
:103E50000794202531254A2758F7660F771F881FBA
:103E600020F026173707480730F4620B730B840BDA
:103E7000200D311D411DA09581F7B901842F915866
:103E8000880F9695879508959F3F31F0915020F4C3
:103E9000879577956795B795880F911D9695879526
:103EA00097F9089591505040660F771F881FD2F7F9
:103EB000089516F00C94441F0C94591D68940C94AA
:103EC000531D0E94AA1DA8F39923C1F3AEF3DF93FB
:103ED000CF931F930F93FF92C92FDD2788232AF0DA
:103EE0002197660F771F881FDAF720E030E040E85F
:103EF0005FEB9FE3883920F0803E38F021968F7782
:103F00000E949F1BE0E9F0E004C00E949F1BEDEBC4
:103F1000F0E00E945C1D8B01BE01EC01FB2E6F578F
:103F200071097595771F880B990B0E94F41C28E185
:103F300032E741E35FE30E94541EAF2D9801AE01CA
:103F4000FF900F911F91CF91DF910E94B61B0C94AF
:103F5000911D0F931F93CF93DF938230910510F43F
:103F600082E090E0E0919F06F091A00630E020E032
:103F7000B0E0A0E0309799F42115310509F44AC06A
:103F8000281B390B24303105D8F58A819B816115B6
:103F9000710589F1FB0193838283FE0111C0408189
:103FA00051810281138148175907E0F048175907DA
:103FB00099F4109761F012960C93129713961C9334
:103FC0003296CF01DF91CF911F910F910895009309
:103FD0009F061093A006F4CF2115310551F042172A
:103FE000530738F0A901DB019A01BD01DF01F80197
:103FF000C1CFEF01F9CF9093A00680939F06CDCF5C
:10400000FE01E20FF31F819391932250310939830E
:104010002883D7CF20919D0630919E06232B41F413
:10402000209108013091090130939E0620939D064E
:1040300020910601309107012115310541F42DB77A
:104040003EB740910A0150910B01241B350BE091C2
:104050009D06F0919E06E217F307A0F42E1B3F0B7E
:104060002817390778F0AC014E5F5F4F24173507EA
:1040700048F04E0F5F1F50939E0640939D0681931C
:1040800091939FCFF0E0E0E09CCFCF93DF93009738
:10409000E9F0FC01329713821282A0919F06B09141
:1040A000A006ED0130E020E01097A1F420813181DD
:1040B000820F931F20919D0630919E062817390785
:1040C00009F061C0F0939E06E0939D06DF91CF91C9
:1040D0000895EA01CE17DF07E8F54A815B819E016A
:1040E00041155105B1F7E901FB83EA8349915991E3
:1040F000C40FD51FEC17FD0761F4808191810296F2
:10410000840F951FE90199838883828193819B8322
:104110008A83F0E0E0E012968D919C9113970097CE
:10412000B9F52D913C911197CD010296820F931F05
:1041300020919D0630919E062817390739F6309751
:1041400051F51092A00610929F06B0939E06A09380
:104150009D06BCCFD383C28340815181840F951FBC
:10416000C817D90761F44E5F5F4F88819981480F66
:10417000591F518340838A819B81938382832115B8
:10418000310509F0B0CFF093A006E0939F069ECFD3
:10419000FD01DC01C0CF13821282D7CFFB01DC010D
:1041A0004150504048F001900D920020C9F701C0E5
:1041B0001D9241505040E0F70895AEE0B0E0E3EECC
:1041C000F0E20C9495238C01FA0186E08C831A832B
:1041D000098377FF02C060E070E8615071097E8357
:1041E0006D83A901BF01CE0101960E9409214D8175
:1041F0005E8157FD0AC02F813885421753070CF4A2
:104200009A01020F131FF80110822E96E4E00C941D
:10421000B123ABE0B0E0EFE0F1E20C9487237C0146
:104220003B018A01FC0117821682838181FFC8C18C
:10423000CE0101965C01F7019381F30193FD859115
:1042400093FF81913F01882309F453C1853239F4EA
:1042500093FD859193FF81913F01853229F4B70148
:1042600090E00E94F922E7CF912C212C312CFFE124
:10427000F31538F08B3211F190F4803209F183326A
:1042800029F137FC3CC020ED280F2A3050F536FECE
:1042900020C08AE0989E200D1124922E06C08D32F7
:1042A00091F0803371F7689430F8F30193FD8591B4
:1042B00093FF81913F018111DACF21C0689431F8D9
:1042C000689432F8F2CF689433F8EFCF689434F8FA
:1042D000ECCFEAE02E9E200D1124222E689435F8B2
:1042E000E4CF8E3229F436FC04C1689436F8DDCF71
:1042F0008C3619F4689437F8D8CF8836B1F2982FF5
:104300009F7D95549330E0F08336A1F18337C1F15E
:10431000833509F063C02801F2E04F0E511CF8010B
:10432000C080D180692D70E036FC02C06FEF7FEF56
:10433000C6010E94E3224C01689437F882010AC04A
:104340000C5F1F4FFFE3F98388248394912C650150
:10435000E89437F833FE2DC0522C8114910471F586
:10436000552009F468CFB70180E290E00E94F9225D
:104370005A94F6CFF801808189830E5F1F4FE4CFF6
:104380002801F2E04F0E511CF801C080D180692D48
:1043900070E036FC02C06FEF7FEFC6010E94EE2294
:1043A0004C018201D5CFB70180E290E00E94F92252
:1043B0002A942814190409F0B0F7CECFF60137FC7F
:1043C000859137FE81916F01B70190E00E94F9223B
:1043D00051105A94F1E08F1A9108BFCF843619F02A
:1043E000893609F077C0F80137FE6BC060817181B2
:1043F000828193810C5F1F4FF32DFF763F2E97FF35
:1044000009C090958095709561957F4F8F4F9F4F14
:10441000689437F82AE030E0A5010E942923C82ECD
:10442000CA188C2C432C36FE0CC0E89440F8C914F2
:1044300040F434FE05C032FC03C0F32DFE7E4F2E47
:10444000892C44FE95C0FE01EC0DF11D8081803366
:1044500009F087C0242D297E422E842D8870582E85
:1044600043FC95C040FE8FC09C2C821418F42C0C89
:10447000922C981844FE91C0B70180E390E00E940E
:10448000F92242FE09C088E790E041FE02C088E5BB
:1044900090E0B7010E94F922C91408F48AC0CA94B6
:1044A000D12C9FEFC91AD90ACA0CDB1CF6018291E4
:1044B0006F01B70190E00E94F922AC14BD04B1F77E
:1044C0004FCF60817181072E000C880B990B0E5F16
:1044D0001F4F92CFD32CE894D4F82AE030E08537F0
:1044E00039F1232D297FD22E8F3601F148F48835FA
:1044F000A9F0F701868197812B96E2E10C94A32322
:10450000803749F08837A9F7D4FE02C06894D2F802
:1045100020E130E00DC06894D4F8F6CF34FE03C03B
:10452000822F8660D82E20E132E002C028E030E001
:10453000F801D7FE0FC060817181828193810C5F89
:104540001F4FA5010E942923C82ECA183D2CE894AC
:1045500037F867CF6081718190E080E00E5F1F4F78
:10456000F0CF42FC02C0839478CF8394839475CFBC
:10457000842D867809F471CFF6CFB70180E290E000
:104580000E94F92283948214C0F3512C73CF522CD1
:104590005818821408F46ECFF8CF842D867809F469
:1045A0007BCF8BE241FE80E247FC8DE2B70190E0D9
:1045B00071CFB70180E390E00E94F9229A946CCF0A
:1045C0008FEF9FEF99CFFC01059061507040011073
:1045D000D8F7809590958E0F9F1F0895FC0161502C
:1045E000704001900110D8F7809590958E0F9F1F15
:1045F00008950F931F93CF93DF93182F092FEB018B
:104600008B8181FD09C01FEF0FEF812F902FDF916C
:10461000CF911F910F91089582FF14C02E813F8189
:104620008C819D81281739073CF4E881F981CF01FD
:1046300001969983888310838E819F8101969F8341
:104640008E83E3CFE885F985812F0995892BA1F326
:10465000DACFFA01AA27283051F1203181F1E8940C
:104660006F936E7F6E5F7F4F8F4F9F4FAF4FB1E065
:104670003ED0B4E03CD0670F781F891F9A1FA11D60
:10468000680F791F8A1F911DA11D6A0F711D811D61
:10469000911DA11D20D009F468943F912AE0269F26
:1046A00011243019305D3193DEF6CF010895462F85
:1046B0004770405D4193B3E00FD0C9F7F6CF462F66
:1046C0004F70405D4A3318F0495D31FD40524193CF
:1046D00002D0A9F7EACFB4E0A6959795879577958C
:1046E0006795BA95C9F700976105710508959B0113
:1046F000AC010A2E06945795479537952795BA959C
:10470000C9F7620F731F841F951FA01D08952F9274
:104710003F924F925F926F927F928F929F92AF9251
:10472000BF92CF92DF92EF92FF920F931F93CF939E
:10473000DF93CDB7DEB7CA1BDB0B0FB6F894DEBF35
:104740000FBECDBF09942A88398848885F846E845B
:104750007D848C849B84AA84B984C884DF80EE80A5
:10476000FD800C811B81AA81B981CE0FD11D0FB6AE
:10477000F894DEBF0FBECDBFED010895F894FFCFD2
:104780009D05010000000000A106800000001D0042
:10479000000001001E002C00000000002D0044005D
:1047A00001000000450053000000000054005900C3
:1047B000000001005A00680000000000690080004D
:1047C0000100000081008F000000000090009500B3
:1047D000000001009600A40000000000A500BC003D
:1047E00001000000BD00CB0000000000CC00D100A3
:1047F00000000100D200E00000000000E100F7002E
:1048000001000000F80006010000000007010D0192
:10481000000001000E011B01000000001C0133011B
:104820000100000034014301000000004401480180
:1048300000000100490157010000000058016F010C
:104840000100000070017E01000000007F01840172
:104850000000010085019301000000009401AB01FC
:1048600001000000AC01BA0100000000BB01C00162
:1048700000000100C101CF0100000000D001E901EA
:1048800001000000EA01F60100000000F701FC0150
:1048900000000100FD010B02000000000C022302D9
:1048A000010000002402320200000000330238023E
:1048B00000000100390247020000000048025E02C9
:1048C000010000005F02E80301000000000000009A
:1048D0004506A505D20592060306E105F5057468AF
:1048E000206E65773D2564206375723D25640074F4
:1048F00061726765742074683D2564005365742097
:10490000636F6F6C616E742074656D7020746F20BE
:104910002564204600536574206169722074656DBA
:104920007020746F202564204600536574207468DD
:10493000726F74746C6520746F2025640053657405
:1049400020656E67696E6520737065656420746F9D
:104950002025642052504D005365742070756C738F
:1049600065206477656C6C20616E676C6520746F80
:104970002025642064656700536574207374617238
:10498000746572206D6F746F72207374617465202A
:10499000746F202573005475726E656420656E67B0
:1049A000696E65206F666600456E67696E65206397
:1049B00072616E6B696E6700456E67696E65206334
:1049C00072616E6B696E67207769746820756E73AB
:1049D0007461626C652052504D7300436F6C6420AB
:1049E00069646C6500486F742069646C650043728B
:1049F000756973652061742033304D5048004372EF
:104A0000756973652061742037304D5048004765E3
:104A10006E746C6520616363656C65726174696F47
:104A20006E004D6F64657261746520616363656CCF
:104A300065726174696F6E004861726420616363BE
:104A4000656C65726174696F6E0044796E616D6941
:104A500063207465737420616C726561647920727F
:104A6000756E6E696E672C2069676E6F72696E670E
:104A7000206E657720726571756573740052756E6E
:104A80006E696E672064796E616D69632074657309
:104A90007400496E76616C6964206E756D2070617A
:104AA00072616D657465727320666F722064796ED1
:104AB000616D69632074657374202D202564004442
:104AC000796E616D696320746573742073746F709F
:104AD000706564004D6572636564657320563800C7
:104AE0007372635C53657269616C2E6370700053FE
:104AF000746172746572206F6E00537461727465B4
:104B000072206F666600456E64206F662064796E61
:0A4B1000616D696320746573740021
:00000001FF
